{
  "contracts/TipperGrant.sol": {
    "TipperGrant": {
      "abi": [
        {
          "inputs": [
            {
              "internalType": "address",
              "name": "huntAddress",
              "type": "address"
            }
          ],
          "stateMutability": "nonpayable",
          "type": "constructor"
        },
        {
          "inputs": [],
          "name": "AlreadyClaimed",
          "type": "error"
        },
        {
          "inputs": [],
          "name": "ClaimDeadlineReached",
          "type": "error"
        },
        {
          "inputs": [],
          "name": "InvalidDepositAmount",
          "type": "error"
        },
        {
          "inputs": [],
          "name": "InvalidMerkleProof",
          "type": "error"
        },
        {
          "inputs": [],
          "name": "InvalidSeasonId",
          "type": "error"
        },
        {
          "inputs": [],
          "name": "InvalidWalletCount",
          "type": "error"
        },
        {
          "inputs": [],
          "name": "NotEnoughGrantBalance",
          "type": "error"
        },
        {
          "inputs": [
            {
              "internalType": "address",
              "name": "owner",
              "type": "address"
            }
          ],
          "name": "OwnableInvalidOwner",
          "type": "error"
        },
        {
          "inputs": [
            {
              "internalType": "address",
              "name": "account",
              "type": "address"
            }
          ],
          "name": "OwnableUnauthorizedAccount",
          "type": "error"
        },
        {
          "inputs": [],
          "name": "SeasonDataCannotBeUpdated",
          "type": "error"
        },
        {
          "inputs": [],
          "name": "TokenTransferFailed",
          "type": "error"
        },
        {
          "anonymous": false,
          "inputs": [
            {
              "indexed": true,
              "internalType": "address",
              "name": "user",
              "type": "address"
            },
            {
              "indexed": true,
              "internalType": "uint256",
              "name": "season",
              "type": "uint256"
            },
            {
              "indexed": false,
              "internalType": "uint112",
              "name": "huntAmount",
              "type": "uint112"
            }
          ],
          "name": "Claim",
          "type": "event"
        },
        {
          "anonymous": false,
          "inputs": [
            {
              "indexed": true,
              "internalType": "address",
              "name": "user",
              "type": "address"
            },
            {
              "indexed": false,
              "internalType": "uint256",
              "name": "huntAmount",
              "type": "uint256"
            }
          ],
          "name": "Deposit",
          "type": "event"
        },
        {
          "anonymous": false,
          "inputs": [
            {
              "indexed": true,
              "internalType": "address",
              "name": "user",
              "type": "address"
            },
            {
              "indexed": false,
              "internalType": "uint256",
              "name": "huntAmount",
              "type": "uint256"
            }
          ],
          "name": "EmergencyWithdraw",
          "type": "event"
        },
        {
          "anonymous": false,
          "inputs": [
            {
              "indexed": true,
              "internalType": "address",
              "name": "previousOwner",
              "type": "address"
            },
            {
              "indexed": true,
              "internalType": "address",
              "name": "newOwner",
              "type": "address"
            }
          ],
          "name": "OwnershipTransferred",
          "type": "event"
        },
        {
          "anonymous": false,
          "inputs": [
            {
              "indexed": true,
              "internalType": "uint256",
              "name": "season",
              "type": "uint256"
            },
            {
              "indexed": false,
              "internalType": "uint24",
              "name": "walletCount",
              "type": "uint24"
            },
            {
              "indexed": false,
              "internalType": "bytes32",
              "name": "merkleRoot",
              "type": "bytes32"
            }
          ],
          "name": "SetGrantData",
          "type": "event"
        },
        {
          "inputs": [],
          "name": "CLAIM_DEADLINE",
          "outputs": [
            {
              "internalType": "uint256",
              "name": "",
              "type": "uint256"
            }
          ],
          "stateMutability": "view",
          "type": "function"
        },
        {
          "inputs": [],
          "name": "HUNT",
          "outputs": [
            {
              "internalType": "contract IERC20",
              "name": "",
              "type": "address"
            }
          ],
          "stateMutability": "view",
          "type": "function"
        },
        {
          "inputs": [
            {
              "internalType": "uint256",
              "name": "seasonId",
              "type": "uint256"
            },
            {
              "internalType": "uint112",
              "name": "amount",
              "type": "uint112"
            },
            {
              "internalType": "bytes32[]",
              "name": "merkleProof",
              "type": "bytes32[]"
            }
          ],
          "name": "claim",
          "outputs": [],
          "stateMutability": "nonpayable",
          "type": "function"
        },
        {
          "inputs": [],
          "name": "currentSeason",
          "outputs": [
            {
              "internalType": "uint256",
              "name": "",
              "type": "uint256"
            }
          ],
          "stateMutability": "view",
          "type": "function"
        },
        {
          "inputs": [
            {
              "internalType": "uint256",
              "name": "huntAmount",
              "type": "uint256"
            }
          ],
          "name": "deposit",
          "outputs": [],
          "stateMutability": "nonpayable",
          "type": "function"
        },
        {
          "inputs": [],
          "name": "emergencyWithdraw",
          "outputs": [],
          "stateMutability": "nonpayable",
          "type": "function"
        },
        {
          "inputs": [
            {
              "internalType": "uint256",
              "name": "seasonId",
              "type": "uint256"
            },
            {
              "internalType": "address",
              "name": "wallet",
              "type": "address"
            }
          ],
          "name": "getClaimedAmount",
          "outputs": [
            {
              "internalType": "uint112",
              "name": "",
              "type": "uint112"
            }
          ],
          "stateMutability": "view",
          "type": "function"
        },
        {
          "inputs": [
            {
              "internalType": "uint256",
              "name": "seasonId",
              "type": "uint256"
            }
          ],
          "name": "getSeasonStats",
          "outputs": [
            {
              "internalType": "uint24",
              "name": "walletCount",
              "type": "uint24"
            },
            {
              "internalType": "uint112",
              "name": "totalGrantClaimed",
              "type": "uint112"
            },
            {
              "internalType": "uint112",
              "name": "totalGrant",
              "type": "uint112"
            },
            {
              "internalType": "uint40",
              "name": "claimStartedAt",
              "type": "uint40"
            }
          ],
          "stateMutability": "view",
          "type": "function"
        },
        {
          "inputs": [
            {
              "internalType": "uint256",
              "name": "seasonId",
              "type": "uint256"
            },
            {
              "internalType": "address",
              "name": "wallet",
              "type": "address"
            },
            {
              "internalType": "uint112",
              "name": "amount",
              "type": "uint112"
            },
            {
              "internalType": "bytes32[]",
              "name": "merkleProof",
              "type": "bytes32[]"
            }
          ],
          "name": "isWhitelisted",
          "outputs": [
            {
              "internalType": "bool",
              "name": "",
              "type": "bool"
            }
          ],
          "stateMutability": "view",
          "type": "function"
        },
        {
          "inputs": [],
          "name": "owner",
          "outputs": [
            {
              "internalType": "address",
              "name": "",
              "type": "address"
            }
          ],
          "stateMutability": "view",
          "type": "function"
        },
        {
          "inputs": [],
          "name": "renounceOwnership",
          "outputs": [],
          "stateMutability": "nonpayable",
          "type": "function"
        },
        {
          "inputs": [
            {
              "internalType": "uint256",
              "name": "seasonId",
              "type": "uint256"
            },
            {
              "internalType": "uint24",
              "name": "walletCount",
              "type": "uint24"
            },
            {
              "internalType": "uint112",
              "name": "totalGrant",
              "type": "uint112"
            },
            {
              "internalType": "bytes32",
              "name": "_merkleRoot",
              "type": "bytes32"
            }
          ],
          "name": "setGrantData",
          "outputs": [],
          "stateMutability": "nonpayable",
          "type": "function"
        },
        {
          "inputs": [
            {
              "internalType": "address",
              "name": "newOwner",
              "type": "address"
            }
          ],
          "name": "transferOwnership",
          "outputs": [],
          "stateMutability": "nonpayable",
          "type": "function"
        }
      ],
      "evm": {
        "bytecode": {
          "linkReferences": {},
          "object": "60a060405234801561001057600080fd5b5060405161175838038061175883398101604081905261002f916100c0565b338061005557604051631e4fbdf760e01b81526000600482015260240160405180910390fd5b61005e81610070565b506001600160a01b03166080526100f0565b600080546001600160a01b038381166001600160a01b0319831681178455604051919092169283917f8be0079c531659141344cd1fd0a4f28419497f9722a3daafe3b4186f6b6457e09190a35050565b6000602082840312156100d257600080fd5b81516001600160a01b03811681146100e957600080fd5b9392505050565b60805161162a61012e600039600081816101c2015281816104a20152818161087601528181610a6901528181610c380152610cf2015261162a6000f3fe608060405234801561001057600080fd5b50600436106100df5760003560e01c8063b6b55f251161008c578063d6f4e26f11610066578063d6f4e26f146101e4578063db2e21bc14610207578063f2fde38b1461020f578063ff3adbe81461022257600080fd5b8063b6b55f25146101a2578063bcb39621146101b5578063cefa8922146101bd57600080fd5b8063715018a6116100bd578063715018a6146101485780638da5cb5b146101505780639f0349de1461018f57600080fd5b80630e864270146100e457806342f81580146100f95780634867b6db14610116575b600080fd5b6100f76100f23660046112fa565b610276565b005b6101036224ea0081565b6040519081526020015b60405180910390f35b610129610124366004611378565b61060b565b6040516dffffffffffffffffffffffffffff909116815260200161010d565b6100f76106ad565b60005473ffffffffffffffffffffffffffffffffffffffff165b60405173ffffffffffffffffffffffffffffffffffffffff909116815260200161010d565b6100f761019d3660046113a4565b6106c1565b6100f76101b03660046113f2565b610a11565b600154610103565b61016a7f000000000000000000000000000000000000000000000000000000000000000081565b6101f76101f236600461140b565b610b62565b604051901515815260200161010d565b6100f7610be4565b6100f761021d36600461147a565b610ddf565b6102356102303660046113f2565b610e48565b6040805162ffffff9590951685526dffffffffffffffffffffffffffff9384166020860152919092169083015264ffffffffff16606082015260800161010d565b600154849081106102b3576040517f0a55f88000000000000000000000000000000000000000000000000000000000815260040160405180910390fd5b6000600186815481106102c8576102c8611495565b9060005260206000209060040201905060006102e13390565b60018301549091506102fe906224ea009064ffffffffff166114f3565b421115610337576040517f4da70d2700000000000000000000000000000000000000000000000000000000815260040160405180910390fd5b73ffffffffffffffffffffffffffffffffffffffff811660009081526003830160205260409020546dffffffffffffffffffffffffffff16156103a6576040517f646cf55800000000000000000000000000000000000000000000000000000000815260040160405180910390fd5b6103b7826002015482888888610f06565b6103ed576040517fb05e92fa00000000000000000000000000000000000000000000000000000000815260040160405180910390fd5b73ffffffffffffffffffffffffffffffffffffffff811660009081526003838101602052604090912080547fffffffffffffffffffffffffffffffffffff0000000000000000000000000000166dffffffffffffffffffffffffffff89811691909117909155835488928592909161046e9185916301000000900416611506565b92506101000a8154816dffffffffffffffffffffffffffff02191690836dffffffffffffffffffffffffffff1602179055507f000000000000000000000000000000000000000000000000000000000000000073ffffffffffffffffffffffffffffffffffffffff1663a9059cbb82886040518363ffffffff1660e01b815260040161052c92919073ffffffffffffffffffffffffffffffffffffffff9290921682526dffffffffffffffffffffffffffff16602082015260400190565b6020604051808303816000875af115801561054b573d6000803e3d6000fd5b505050506040513d601f19601f8201168201806040525081019061056f919061152c565b6105a5576040517f045c4b0200000000000000000000000000000000000000000000000000000000815260040160405180910390fd5b6040516dffffffffffffffffffffffffffff87168152879073ffffffffffffffffffffffffffffffffffffffff8316907f363216d2f2f12f3c1e48bc725ed3f80baaeb5e245de84b59865f7544c98b7fcf9060200160405180910390a350505050505050565b6001546000908390811061064b576040517f0a55f88000000000000000000000000000000000000000000000000000000000815260040160405180910390fd5b6001848154811061065e5761065e611495565b6000918252602080832073ffffffffffffffffffffffffffffffffffffffff87168452600360049093020191909101905260409020546dffffffffffffffffffffffffffff1691505092915050565b6106b5610f97565b6106bf6000610fea565b565b6106c9610f97565b6001546000908503610708576001805481018082556000829052869081106106f3576106f3611495565b906000526020600020906004020190506107bf565b60015485101561078d576001858154811061072557610725611495565b600091825260209091206004909102018054909150630100000090046dffffffffffffffffffffffffffff1615610788576040517ff5d5cc2100000000000000000000000000000000000000000000000000000000815260040160405180910390fd5b6107bf565b6040517f0a55f88000000000000000000000000000000000000000000000000000000000815260040160405180910390fd5b826dffffffffffffffffffffffffffff16600003610809576040517ffe9ba5cd00000000000000000000000000000000000000000000000000000000815260040160405180910390fd5b8362ffffff16600003610848576040517f95fb89f200000000000000000000000000000000000000000000000000000000815260040160405180910390fd5b6040517f70a082310000000000000000000000000000000000000000000000000000000081523060048201527f000000000000000000000000000000000000000000000000000000000000000073ffffffffffffffffffffffffffffffffffffffff16906370a0823190602401602060405180830381865afa1580156108d2573d6000803e3d6000fd5b505050506040513d601f19601f820116820180604052508101906108f6919061154e565b836dffffffffffffffffffffffffffff16111561093f576040517f6a56423500000000000000000000000000000000000000000000000000000000815260040160405180910390fd5b805462ffffff85167fff0000000000000000000000000000ffffffffffffffffffffffffffff0000009091168117710100000000000000000000000000000000006dffffffffffffffffffffffffffff861602178255600282018390556001820180547fffffffffffffffffffffffffffffffffffffffffffffffffffffff0000000000164264ffffffffff16179055604080519182526020820184905286917f5a5847beff4e6296008408469ffb8abdd4e5ad7781c6514c3a483e2d15c1cbc4910160405180910390a25050505050565b6000336040517f23b872dd00000000000000000000000000000000000000000000000000000000815273ffffffffffffffffffffffffffffffffffffffff8083166004830152306024830152604482018590529192507f0000000000000000000000000000000000000000000000000000000000000000909116906323b872dd906064016020604051808303816000875af1158015610ab4573d6000803e3d6000fd5b505050506040513d601f19601f82011682018060405250810190610ad8919061152c565b610b0e576040517f045c4b0200000000000000000000000000000000000000000000000000000000815260040160405180910390fd5b8073ffffffffffffffffffffffffffffffffffffffff167fe1fffcc4923d04b559f4d29a8bfc6cda04eb5b0d3c460751c2402c5c5cc9109c83604051610b5691815260200190565b60405180910390a25050565b60015460009086908110610ba2576040517f0a55f88000000000000000000000000000000000000000000000000000000000815260040160405180910390fd5b600060018881548110610bb757610bb7611495565b90600052602060002090600402019050610bd8816002015488888888610f06565b98975050505050505050565b610bec610f97565b6000336040517f70a0823100000000000000000000000000000000000000000000000000000000815230600482015290915060009073ffffffffffffffffffffffffffffffffffffffff7f000000000000000000000000000000000000000000000000000000000000000016906370a0823190602401602060405180830381865afa158015610c7f573d6000803e3d6000fd5b505050506040513d601f19601f82011682018060405250810190610ca3919061154e565b6040517fa9059cbb00000000000000000000000000000000000000000000000000000000815273ffffffffffffffffffffffffffffffffffffffff8481166004830152602482018390529192507f00000000000000000000000000000000000000000000000000000000000000009091169063a9059cbb906044016020604051808303816000875af1158015610d3d573d6000803e3d6000fd5b505050506040513d601f19601f82011682018060405250810190610d61919061152c565b610d97576040517f045c4b0200000000000000000000000000000000000000000000000000000000815260040160405180910390fd5b8173ffffffffffffffffffffffffffffffffffffffff167f5fafa99d0643513820be26656b45130b01e1c03062e1266bf36f88cbd3bd969582604051610b5691815260200190565b610de7610f97565b73ffffffffffffffffffffffffffffffffffffffff8116610e3c576040517f1e4fbdf7000000000000000000000000000000000000000000000000000000008152600060048201526024015b60405180910390fd5b610e4581610fea565b50565b600080600080846001805490508110610e8d576040517f0a55f88000000000000000000000000000000000000000000000000000000000815260040160405180910390fd5b600060018781548110610ea257610ea2611495565b60009182526020909120600490910201805460019091015462ffffff8216996dffffffffffffffffffffffffffff6301000000840481169a5071010000000000000000000000000000000000909304909216975064ffffffffff1695509350505050565b60008085610f23866dffffffffffffffffffffffffffff1661105f565b604051602001610f34929190611567565b604051602081830303815290604052805190602001209050610f8c8484808060200260200160405190810160405280939291908181526020018383602002808284376000920191909152508b925085915061111d9050565b979650505050505050565b60005473ffffffffffffffffffffffffffffffffffffffff1633146106bf576040517f118cdaa7000000000000000000000000000000000000000000000000000000008152336004820152602401610e33565b6000805473ffffffffffffffffffffffffffffffffffffffff8381167fffffffffffffffffffffffff0000000000000000000000000000000000000000831681178455604051919092169283917f8be0079c531659141344cd1fd0a4f28419497f9722a3daafe3b4186f6b6457e09190a35050565b6060600061106c83611133565b600101905060008167ffffffffffffffff81111561108c5761108c6115c5565b6040519080825280601f01601f1916602001820160405280156110b6576020820181803683370190505b5090508181016020015b7fffffffffffffffffffffffffffffffffffffffffffffffffffffffffffffffff017f3031323334353637383961626364656600000000000000000000000000000000600a86061a8153600a85049450846110c057509392505050565b60008261112a8584611216565b14949350505050565b6000807a184f03e93ff9f4daa797ed6e38ed64bf6a1f010000000000000000831061117c577a184f03e93ff9f4daa797ed6e38ed64bf6a1f010000000000000000830492506040015b6d04ee2d6d415b85acef810000000083106111a8576d04ee2d6d415b85acef8100000000830492506020015b662386f26fc1000083106111c657662386f26fc10000830492506010015b6305f5e10083106111de576305f5e100830492506008015b61271083106111f257612710830492506004015b60648310611204576064830492506002015b600a8310611210576001015b92915050565b600081815b8451811015611251576112478286838151811061123a5761123a611495565b6020026020010151611259565b915060010161121b565b509392505050565b6000818310611275576000828152602084905260409020611284565b60008381526020839052604090205b9392505050565b80356dffffffffffffffffffffffffffff811681146112a957600080fd5b919050565b60008083601f8401126112c057600080fd5b50813567ffffffffffffffff8111156112d857600080fd5b6020830191508360208260051b85010111156112f357600080fd5b9250929050565b6000806000806060858703121561131057600080fd5b843593506113206020860161128b565b9250604085013567ffffffffffffffff81111561133c57600080fd5b611348878288016112ae565b95989497509550505050565b803573ffffffffffffffffffffffffffffffffffffffff811681146112a957600080fd5b6000806040838503121561138b57600080fd5b8235915061139b60208401611354565b90509250929050565b600080600080608085870312156113ba57600080fd5b84359350602085013562ffffff811681146113d457600080fd5b92506113e26040860161128b565b9396929550929360600135925050565b60006020828403121561140457600080fd5b5035919050565b60008060008060006080868803121561142357600080fd5b8535945061143360208701611354565b93506114416040870161128b565b9250606086013567ffffffffffffffff81111561145d57600080fd5b611469888289016112ae565b969995985093965092949392505050565b60006020828403121561148c57600080fd5b61128482611354565b7f4e487b7100000000000000000000000000000000000000000000000000000000600052603260045260246000fd5b7f4e487b7100000000000000000000000000000000000000000000000000000000600052601160045260246000fd5b80820180821115611210576112106114c4565b6dffffffffffffffffffffffffffff8181168382160190811115611210576112106114c4565b60006020828403121561153e57600080fd5b8151801515811461128457600080fd5b60006020828403121561156057600080fd5b5051919050565b7fffffffffffffffffffffffffffffffffffffffff0000000000000000000000008360601b1681526000825160005b818110156115b35760208186018101516014868401015201611596565b50600092016014019182525092915050565b7f4e487b7100000000000000000000000000000000000000000000000000000000600052604160045260246000fdfea264697066735822122060abbd3e197e7b537b63f991e5de23ae7873f82dad239825b75d0fa8141bea4b64736f6c634300081a0033",
          "opcodes": "PUSH1 0xA0 PUSH1 0x40 MSTORE CALLVALUE DUP1 ISZERO PUSH2 0x10 JUMPI PUSH1 0x0 DUP1 REVERT JUMPDEST POP PUSH1 0x40 MLOAD PUSH2 0x1758 CODESIZE SUB DUP1 PUSH2 0x1758 DUP4 CODECOPY DUP2 ADD PUSH1 0x40 DUP2 SWAP1 MSTORE PUSH2 0x2F SWAP2 PUSH2 0xC0 JUMP JUMPDEST CALLER DUP1 PUSH2 0x55 JUMPI PUSH1 0x40 MLOAD PUSH4 0x1E4FBDF7 PUSH1 0xE0 SHL DUP2 MSTORE PUSH1 0x0 PUSH1 0x4 DUP3 ADD MSTORE PUSH1 0x24 ADD PUSH1 0x40 MLOAD DUP1 SWAP2 SUB SWAP1 REVERT JUMPDEST PUSH2 0x5E DUP2 PUSH2 0x70 JUMP JUMPDEST POP PUSH1 0x1 PUSH1 0x1 PUSH1 0xA0 SHL SUB AND PUSH1 0x80 MSTORE PUSH2 0xF0 JUMP JUMPDEST PUSH1 0x0 DUP1 SLOAD PUSH1 0x1 PUSH1 0x1 PUSH1 0xA0 SHL SUB DUP4 DUP2 AND PUSH1 0x1 PUSH1 0x1 PUSH1 0xA0 SHL SUB NOT DUP4 AND DUP2 OR DUP5 SSTORE PUSH1 0x40 MLOAD SWAP2 SWAP1 SWAP3 AND SWAP3 DUP4 SWAP2 PUSH32 0x8BE0079C531659141344CD1FD0A4F28419497F9722A3DAAFE3B4186F6B6457E0 SWAP2 SWAP1 LOG3 POP POP JUMP JUMPDEST PUSH1 0x0 PUSH1 0x20 DUP3 DUP5 SUB SLT ISZERO PUSH2 0xD2 JUMPI PUSH1 0x0 DUP1 REVERT JUMPDEST DUP2 MLOAD PUSH1 0x1 PUSH1 0x1 PUSH1 0xA0 SHL SUB DUP2 AND DUP2 EQ PUSH2 0xE9 JUMPI PUSH1 0x0 DUP1 REVERT JUMPDEST SWAP4 SWAP3 POP POP POP JUMP JUMPDEST PUSH1 0x80 MLOAD PUSH2 0x162A PUSH2 0x12E PUSH1 0x0 CODECOPY PUSH1 0x0 DUP2 DUP2 PUSH2 0x1C2 ADD MSTORE DUP2 DUP2 PUSH2 0x4A2 ADD MSTORE DUP2 DUP2 PUSH2 0x876 ADD MSTORE DUP2 DUP2 PUSH2 0xA69 ADD MSTORE DUP2 DUP2 PUSH2 0xC38 ADD MSTORE PUSH2 0xCF2 ADD MSTORE PUSH2 0x162A PUSH1 0x0 RETURN INVALID PUSH1 0x80 PUSH1 0x40 MSTORE CALLVALUE DUP1 ISZERO PUSH2 0x10 JUMPI PUSH1 0x0 DUP1 REVERT JUMPDEST POP PUSH1 0x4 CALLDATASIZE LT PUSH2 0xDF JUMPI PUSH1 0x0 CALLDATALOAD PUSH1 0xE0 SHR DUP1 PUSH4 0xB6B55F25 GT PUSH2 0x8C JUMPI DUP1 PUSH4 0xD6F4E26F GT PUSH2 0x66 JUMPI DUP1 PUSH4 0xD6F4E26F EQ PUSH2 0x1E4 JUMPI DUP1 PUSH4 0xDB2E21BC EQ PUSH2 0x207 JUMPI DUP1 PUSH4 0xF2FDE38B EQ PUSH2 0x20F JUMPI DUP1 PUSH4 0xFF3ADBE8 EQ PUSH2 0x222 JUMPI PUSH1 0x0 DUP1 REVERT JUMPDEST DUP1 PUSH4 0xB6B55F25 EQ PUSH2 0x1A2 JUMPI DUP1 PUSH4 0xBCB39621 EQ PUSH2 0x1B5 JUMPI DUP1 PUSH4 0xCEFA8922 EQ PUSH2 0x1BD JUMPI PUSH1 0x0 DUP1 REVERT JUMPDEST DUP1 PUSH4 0x715018A6 GT PUSH2 0xBD JUMPI DUP1 PUSH4 0x715018A6 EQ PUSH2 0x148 JUMPI DUP1 PUSH4 0x8DA5CB5B EQ PUSH2 0x150 JUMPI DUP1 PUSH4 0x9F0349DE EQ PUSH2 0x18F JUMPI PUSH1 0x0 DUP1 REVERT JUMPDEST DUP1 PUSH4 0xE864270 EQ PUSH2 0xE4 JUMPI DUP1 PUSH4 0x42F81580 EQ PUSH2 0xF9 JUMPI DUP1 PUSH4 0x4867B6DB EQ PUSH2 0x116 JUMPI JUMPDEST PUSH1 0x0 DUP1 REVERT JUMPDEST PUSH2 0xF7 PUSH2 0xF2 CALLDATASIZE PUSH1 0x4 PUSH2 0x12FA JUMP JUMPDEST PUSH2 0x276 JUMP JUMPDEST STOP JUMPDEST PUSH2 0x103 PUSH3 0x24EA00 DUP2 JUMP JUMPDEST PUSH1 0x40 MLOAD SWAP1 DUP2 MSTORE PUSH1 0x20 ADD JUMPDEST PUSH1 0x40 MLOAD DUP1 SWAP2 SUB SWAP1 RETURN JUMPDEST PUSH2 0x129 PUSH2 0x124 CALLDATASIZE PUSH1 0x4 PUSH2 0x1378 JUMP JUMPDEST PUSH2 0x60B JUMP JUMPDEST PUSH1 0x40 MLOAD PUSH14 0xFFFFFFFFFFFFFFFFFFFFFFFFFFFF SWAP1 SWAP2 AND DUP2 MSTORE PUSH1 0x20 ADD PUSH2 0x10D JUMP JUMPDEST PUSH2 0xF7 PUSH2 0x6AD JUMP JUMPDEST PUSH1 0x0 SLOAD PUSH20 0xFFFFFFFFFFFFFFFFFFFFFFFFFFFFFFFFFFFFFFFF AND JUMPDEST PUSH1 0x40 MLOAD PUSH20 0xFFFFFFFFFFFFFFFFFFFFFFFFFFFFFFFFFFFFFFFF SWAP1 SWAP2 AND DUP2 MSTORE PUSH1 0x20 ADD PUSH2 0x10D JUMP JUMPDEST PUSH2 0xF7 PUSH2 0x19D CALLDATASIZE PUSH1 0x4 PUSH2 0x13A4 JUMP JUMPDEST PUSH2 0x6C1 JUMP JUMPDEST PUSH2 0xF7 PUSH2 0x1B0 CALLDATASIZE PUSH1 0x4 PUSH2 0x13F2 JUMP JUMPDEST PUSH2 0xA11 JUMP JUMPDEST PUSH1 0x1 SLOAD PUSH2 0x103 JUMP JUMPDEST PUSH2 0x16A PUSH32 0x0 DUP2 JUMP JUMPDEST PUSH2 0x1F7 PUSH2 0x1F2 CALLDATASIZE PUSH1 0x4 PUSH2 0x140B JUMP JUMPDEST PUSH2 0xB62 JUMP JUMPDEST PUSH1 0x40 MLOAD SWAP1 ISZERO ISZERO DUP2 MSTORE PUSH1 0x20 ADD PUSH2 0x10D JUMP JUMPDEST PUSH2 0xF7 PUSH2 0xBE4 JUMP JUMPDEST PUSH2 0xF7 PUSH2 0x21D CALLDATASIZE PUSH1 0x4 PUSH2 0x147A JUMP JUMPDEST PUSH2 0xDDF JUMP JUMPDEST PUSH2 0x235 PUSH2 0x230 CALLDATASIZE PUSH1 0x4 PUSH2 0x13F2 JUMP JUMPDEST PUSH2 0xE48 JUMP JUMPDEST PUSH1 0x40 DUP1 MLOAD PUSH3 0xFFFFFF SWAP6 SWAP1 SWAP6 AND DUP6 MSTORE PUSH14 0xFFFFFFFFFFFFFFFFFFFFFFFFFFFF SWAP4 DUP5 AND PUSH1 0x20 DUP7 ADD MSTORE SWAP2 SWAP1 SWAP3 AND SWAP1 DUP4 ADD MSTORE PUSH5 0xFFFFFFFFFF AND PUSH1 0x60 DUP3 ADD MSTORE PUSH1 0x80 ADD PUSH2 0x10D JUMP JUMPDEST PUSH1 0x1 SLOAD DUP5 SWAP1 DUP2 LT PUSH2 0x2B3 JUMPI PUSH1 0x40 MLOAD PUSH32 0xA55F88000000000000000000000000000000000000000000000000000000000 DUP2 MSTORE PUSH1 0x4 ADD PUSH1 0x40 MLOAD DUP1 SWAP2 SUB SWAP1 REVERT JUMPDEST PUSH1 0x0 PUSH1 0x1 DUP7 DUP2 SLOAD DUP2 LT PUSH2 0x2C8 JUMPI PUSH2 0x2C8 PUSH2 0x1495 JUMP JUMPDEST SWAP1 PUSH1 0x0 MSTORE PUSH1 0x20 PUSH1 0x0 KECCAK256 SWAP1 PUSH1 0x4 MUL ADD SWAP1 POP PUSH1 0x0 PUSH2 0x2E1 CALLER SWAP1 JUMP JUMPDEST PUSH1 0x1 DUP4 ADD SLOAD SWAP1 SWAP2 POP PUSH2 0x2FE SWAP1 PUSH3 0x24EA00 SWAP1 PUSH5 0xFFFFFFFFFF AND PUSH2 0x14F3 JUMP JUMPDEST TIMESTAMP GT ISZERO PUSH2 0x337 JUMPI PUSH1 0x40 MLOAD PUSH32 0x4DA70D2700000000000000000000000000000000000000000000000000000000 DUP2 MSTORE PUSH1 0x4 ADD PUSH1 0x40 MLOAD DUP1 SWAP2 SUB SWAP1 REVERT JUMPDEST PUSH20 0xFFFFFFFFFFFFFFFFFFFFFFFFFFFFFFFFFFFFFFFF DUP2 AND PUSH1 0x0 SWAP1 DUP2 MSTORE PUSH1 0x3 DUP4 ADD PUSH1 0x20 MSTORE PUSH1 0x40 SWAP1 KECCAK256 SLOAD PUSH14 0xFFFFFFFFFFFFFFFFFFFFFFFFFFFF AND ISZERO PUSH2 0x3A6 JUMPI PUSH1 0x40 MLOAD PUSH32 0x646CF55800000000000000000000000000000000000000000000000000000000 DUP2 MSTORE PUSH1 0x4 ADD PUSH1 0x40 MLOAD DUP1 SWAP2 SUB SWAP1 REVERT JUMPDEST PUSH2 0x3B7 DUP3 PUSH1 0x2 ADD SLOAD DUP3 DUP9 DUP9 DUP9 PUSH2 0xF06 JUMP JUMPDEST PUSH2 0x3ED JUMPI PUSH1 0x40 MLOAD PUSH32 0xB05E92FA00000000000000000000000000000000000000000000000000000000 DUP2 MSTORE PUSH1 0x4 ADD PUSH1 0x40 MLOAD DUP1 SWAP2 SUB SWAP1 REVERT JUMPDEST PUSH20 0xFFFFFFFFFFFFFFFFFFFFFFFFFFFFFFFFFFFFFFFF DUP2 AND PUSH1 0x0 SWAP1 DUP2 MSTORE PUSH1 0x3 DUP4 DUP2 ADD PUSH1 0x20 MSTORE PUSH1 0x40 SWAP1 SWAP2 KECCAK256 DUP1 SLOAD PUSH32 0xFFFFFFFFFFFFFFFFFFFFFFFFFFFFFFFFFFFF0000000000000000000000000000 AND PUSH14 0xFFFFFFFFFFFFFFFFFFFFFFFFFFFF DUP10 DUP2 AND SWAP2 SWAP1 SWAP2 OR SWAP1 SWAP2 SSTORE DUP4 SLOAD DUP9 SWAP3 DUP6 SWAP3 SWAP1 SWAP2 PUSH2 0x46E SWAP2 DUP6 SWAP2 PUSH4 0x1000000 SWAP1 DIV AND PUSH2 0x1506 JUMP JUMPDEST SWAP3 POP PUSH2 0x100 EXP DUP2 SLOAD DUP2 PUSH14 0xFFFFFFFFFFFFFFFFFFFFFFFFFFFF MUL NOT AND SWAP1 DUP4 PUSH14 0xFFFFFFFFFFFFFFFFFFFFFFFFFFFF AND MUL OR SWAP1 SSTORE POP PUSH32 0x0 PUSH20 0xFFFFFFFFFFFFFFFFFFFFFFFFFFFFFFFFFFFFFFFF AND PUSH4 0xA9059CBB DUP3 DUP9 PUSH1 0x40 MLOAD DUP4 PUSH4 0xFFFFFFFF AND PUSH1 0xE0 SHL DUP2 MSTORE PUSH1 0x4 ADD PUSH2 0x52C SWAP3 SWAP2 SWAP1 PUSH20 0xFFFFFFFFFFFFFFFFFFFFFFFFFFFFFFFFFFFFFFFF SWAP3 SWAP1 SWAP3 AND DUP3 MSTORE PUSH14 0xFFFFFFFFFFFFFFFFFFFFFFFFFFFF AND PUSH1 0x20 DUP3 ADD MSTORE PUSH1 0x40 ADD SWAP1 JUMP JUMPDEST PUSH1 0x20 PUSH1 0x40 MLOAD DUP1 DUP4 SUB DUP2 PUSH1 0x0 DUP8 GAS CALL ISZERO DUP1 ISZERO PUSH2 0x54B JUMPI RETURNDATASIZE PUSH1 0x0 DUP1 RETURNDATACOPY RETURNDATASIZE PUSH1 0x0 REVERT JUMPDEST POP POP POP POP PUSH1 0x40 MLOAD RETURNDATASIZE PUSH1 0x1F NOT PUSH1 0x1F DUP3 ADD AND DUP3 ADD DUP1 PUSH1 0x40 MSTORE POP DUP2 ADD SWAP1 PUSH2 0x56F SWAP2 SWAP1 PUSH2 0x152C JUMP JUMPDEST PUSH2 0x5A5 JUMPI PUSH1 0x40 MLOAD PUSH32 0x45C4B0200000000000000000000000000000000000000000000000000000000 DUP2 MSTORE PUSH1 0x4 ADD PUSH1 0x40 MLOAD DUP1 SWAP2 SUB SWAP1 REVERT JUMPDEST PUSH1 0x40 MLOAD PUSH14 0xFFFFFFFFFFFFFFFFFFFFFFFFFFFF DUP8 AND DUP2 MSTORE DUP8 SWAP1 PUSH20 0xFFFFFFFFFFFFFFFFFFFFFFFFFFFFFFFFFFFFFFFF DUP4 AND SWAP1 PUSH32 0x363216D2F2F12F3C1E48BC725ED3F80BAAEB5E245DE84B59865F7544C98B7FCF SWAP1 PUSH1 0x20 ADD PUSH1 0x40 MLOAD DUP1 SWAP2 SUB SWAP1 LOG3 POP POP POP POP POP POP POP JUMP JUMPDEST PUSH1 0x1 SLOAD PUSH1 0x0 SWAP1 DUP4 SWAP1 DUP2 LT PUSH2 0x64B JUMPI PUSH1 0x40 MLOAD PUSH32 0xA55F88000000000000000000000000000000000000000000000000000000000 DUP2 MSTORE PUSH1 0x4 ADD PUSH1 0x40 MLOAD DUP1 SWAP2 SUB SWAP1 REVERT JUMPDEST PUSH1 0x1 DUP5 DUP2 SLOAD DUP2 LT PUSH2 0x65E JUMPI PUSH2 0x65E PUSH2 0x1495 JUMP JUMPDEST PUSH1 0x0 SWAP2 DUP3 MSTORE PUSH1 0x20 DUP1 DUP4 KECCAK256 PUSH20 0xFFFFFFFFFFFFFFFFFFFFFFFFFFFFFFFFFFFFFFFF DUP8 AND DUP5 MSTORE PUSH1 0x3 PUSH1 0x4 SWAP1 SWAP4 MUL ADD SWAP2 SWAP1 SWAP2 ADD SWAP1 MSTORE PUSH1 0x40 SWAP1 KECCAK256 SLOAD PUSH14 0xFFFFFFFFFFFFFFFFFFFFFFFFFFFF AND SWAP2 POP POP SWAP3 SWAP2 POP POP JUMP JUMPDEST PUSH2 0x6B5 PUSH2 0xF97 JUMP JUMPDEST PUSH2 0x6BF PUSH1 0x0 PUSH2 0xFEA JUMP JUMPDEST JUMP JUMPDEST PUSH2 0x6C9 PUSH2 0xF97 JUMP JUMPDEST PUSH1 0x1 SLOAD PUSH1 0x0 SWAP1 DUP6 SUB PUSH2 0x708 JUMPI PUSH1 0x1 DUP1 SLOAD DUP2 ADD DUP1 DUP3 SSTORE PUSH1 0x0 DUP3 SWAP1 MSTORE DUP7 SWAP1 DUP2 LT PUSH2 0x6F3 JUMPI PUSH2 0x6F3 PUSH2 0x1495 JUMP JUMPDEST SWAP1 PUSH1 0x0 MSTORE PUSH1 0x20 PUSH1 0x0 KECCAK256 SWAP1 PUSH1 0x4 MUL ADD SWAP1 POP PUSH2 0x7BF JUMP JUMPDEST PUSH1 0x1 SLOAD DUP6 LT ISZERO PUSH2 0x78D JUMPI PUSH1 0x1 DUP6 DUP2 SLOAD DUP2 LT PUSH2 0x725 JUMPI PUSH2 0x725 PUSH2 0x1495 JUMP JUMPDEST PUSH1 0x0 SWAP2 DUP3 MSTORE PUSH1 0x20 SWAP1 SWAP2 KECCAK256 PUSH1 0x4 SWAP1 SWAP2 MUL ADD DUP1 SLOAD SWAP1 SWAP2 POP PUSH4 0x1000000 SWAP1 DIV PUSH14 0xFFFFFFFFFFFFFFFFFFFFFFFFFFFF AND ISZERO PUSH2 0x788 JUMPI PUSH1 0x40 MLOAD PUSH32 0xF5D5CC2100000000000000000000000000000000000000000000000000000000 DUP2 MSTORE PUSH1 0x4 ADD PUSH1 0x40 MLOAD DUP1 SWAP2 SUB SWAP1 REVERT JUMPDEST PUSH2 0x7BF JUMP JUMPDEST PUSH1 0x40 MLOAD PUSH32 0xA55F88000000000000000000000000000000000000000000000000000000000 DUP2 MSTORE PUSH1 0x4 ADD PUSH1 0x40 MLOAD DUP1 SWAP2 SUB SWAP1 REVERT JUMPDEST DUP3 PUSH14 0xFFFFFFFFFFFFFFFFFFFFFFFFFFFF AND PUSH1 0x0 SUB PUSH2 0x809 JUMPI PUSH1 0x40 MLOAD PUSH32 0xFE9BA5CD00000000000000000000000000000000000000000000000000000000 DUP2 MSTORE PUSH1 0x4 ADD PUSH1 0x40 MLOAD DUP1 SWAP2 SUB SWAP1 REVERT JUMPDEST DUP4 PUSH3 0xFFFFFF AND PUSH1 0x0 SUB PUSH2 0x848 JUMPI PUSH1 0x40 MLOAD PUSH32 0x95FB89F200000000000000000000000000000000000000000000000000000000 DUP2 MSTORE PUSH1 0x4 ADD PUSH1 0x40 MLOAD DUP1 SWAP2 SUB SWAP1 REVERT JUMPDEST PUSH1 0x40 MLOAD PUSH32 0x70A0823100000000000000000000000000000000000000000000000000000000 DUP2 MSTORE ADDRESS PUSH1 0x4 DUP3 ADD MSTORE PUSH32 0x0 PUSH20 0xFFFFFFFFFFFFFFFFFFFFFFFFFFFFFFFFFFFFFFFF AND SWAP1 PUSH4 0x70A08231 SWAP1 PUSH1 0x24 ADD PUSH1 0x20 PUSH1 0x40 MLOAD DUP1 DUP4 SUB DUP2 DUP7 GAS STATICCALL ISZERO DUP1 ISZERO PUSH2 0x8D2 JUMPI RETURNDATASIZE PUSH1 0x0 DUP1 RETURNDATACOPY RETURNDATASIZE PUSH1 0x0 REVERT JUMPDEST POP POP POP POP PUSH1 0x40 MLOAD RETURNDATASIZE PUSH1 0x1F NOT PUSH1 0x1F DUP3 ADD AND DUP3 ADD DUP1 PUSH1 0x40 MSTORE POP DUP2 ADD SWAP1 PUSH2 0x8F6 SWAP2 SWAP1 PUSH2 0x154E JUMP JUMPDEST DUP4 PUSH14 0xFFFFFFFFFFFFFFFFFFFFFFFFFFFF AND GT ISZERO PUSH2 0x93F JUMPI PUSH1 0x40 MLOAD PUSH32 0x6A56423500000000000000000000000000000000000000000000000000000000 DUP2 MSTORE PUSH1 0x4 ADD PUSH1 0x40 MLOAD DUP1 SWAP2 SUB SWAP1 REVERT JUMPDEST DUP1 SLOAD PUSH3 0xFFFFFF DUP6 AND PUSH32 0xFF0000000000000000000000000000FFFFFFFFFFFFFFFFFFFFFFFFFFFF000000 SWAP1 SWAP2 AND DUP2 OR PUSH18 0x10000000000000000000000000000000000 PUSH14 0xFFFFFFFFFFFFFFFFFFFFFFFFFFFF DUP7 AND MUL OR DUP3 SSTORE PUSH1 0x2 DUP3 ADD DUP4 SWAP1 SSTORE PUSH1 0x1 DUP3 ADD DUP1 SLOAD PUSH32 0xFFFFFFFFFFFFFFFFFFFFFFFFFFFFFFFFFFFFFFFFFFFFFFFFFFFFFF0000000000 AND TIMESTAMP PUSH5 0xFFFFFFFFFF AND OR SWAP1 SSTORE PUSH1 0x40 DUP1 MLOAD SWAP2 DUP3 MSTORE PUSH1 0x20 DUP3 ADD DUP5 SWAP1 MSTORE DUP7 SWAP2 PUSH32 0x5A5847BEFF4E6296008408469FFB8ABDD4E5AD7781C6514C3A483E2D15C1CBC4 SWAP2 ADD PUSH1 0x40 MLOAD DUP1 SWAP2 SUB SWAP1 LOG2 POP POP POP POP POP JUMP JUMPDEST PUSH1 0x0 CALLER PUSH1 0x40 MLOAD PUSH32 0x23B872DD00000000000000000000000000000000000000000000000000000000 DUP2 MSTORE PUSH20 0xFFFFFFFFFFFFFFFFFFFFFFFFFFFFFFFFFFFFFFFF DUP1 DUP4 AND PUSH1 0x4 DUP4 ADD MSTORE ADDRESS PUSH1 0x24 DUP4 ADD MSTORE PUSH1 0x44 DUP3 ADD DUP6 SWAP1 MSTORE SWAP2 SWAP3 POP PUSH32 0x0 SWAP1 SWAP2 AND SWAP1 PUSH4 0x23B872DD SWAP1 PUSH1 0x64 ADD PUSH1 0x20 PUSH1 0x40 MLOAD DUP1 DUP4 SUB DUP2 PUSH1 0x0 DUP8 GAS CALL ISZERO DUP1 ISZERO PUSH2 0xAB4 JUMPI RETURNDATASIZE PUSH1 0x0 DUP1 RETURNDATACOPY RETURNDATASIZE PUSH1 0x0 REVERT JUMPDEST POP POP POP POP PUSH1 0x40 MLOAD RETURNDATASIZE PUSH1 0x1F NOT PUSH1 0x1F DUP3 ADD AND DUP3 ADD DUP1 PUSH1 0x40 MSTORE POP DUP2 ADD SWAP1 PUSH2 0xAD8 SWAP2 SWAP1 PUSH2 0x152C JUMP JUMPDEST PUSH2 0xB0E JUMPI PUSH1 0x40 MLOAD PUSH32 0x45C4B0200000000000000000000000000000000000000000000000000000000 DUP2 MSTORE PUSH1 0x4 ADD PUSH1 0x40 MLOAD DUP1 SWAP2 SUB SWAP1 REVERT JUMPDEST DUP1 PUSH20 0xFFFFFFFFFFFFFFFFFFFFFFFFFFFFFFFFFFFFFFFF AND PUSH32 0xE1FFFCC4923D04B559F4D29A8BFC6CDA04EB5B0D3C460751C2402C5C5CC9109C DUP4 PUSH1 0x40 MLOAD PUSH2 0xB56 SWAP2 DUP2 MSTORE PUSH1 0x20 ADD SWAP1 JUMP JUMPDEST PUSH1 0x40 MLOAD DUP1 SWAP2 SUB SWAP1 LOG2 POP POP JUMP JUMPDEST PUSH1 0x1 SLOAD PUSH1 0x0 SWAP1 DUP7 SWAP1 DUP2 LT PUSH2 0xBA2 JUMPI PUSH1 0x40 MLOAD PUSH32 0xA55F88000000000000000000000000000000000000000000000000000000000 DUP2 MSTORE PUSH1 0x4 ADD PUSH1 0x40 MLOAD DUP1 SWAP2 SUB SWAP1 REVERT JUMPDEST PUSH1 0x0 PUSH1 0x1 DUP9 DUP2 SLOAD DUP2 LT PUSH2 0xBB7 JUMPI PUSH2 0xBB7 PUSH2 0x1495 JUMP JUMPDEST SWAP1 PUSH1 0x0 MSTORE PUSH1 0x20 PUSH1 0x0 KECCAK256 SWAP1 PUSH1 0x4 MUL ADD SWAP1 POP PUSH2 0xBD8 DUP2 PUSH1 0x2 ADD SLOAD DUP9 DUP9 DUP9 DUP9 PUSH2 0xF06 JUMP JUMPDEST SWAP9 SWAP8 POP POP POP POP POP POP POP POP JUMP JUMPDEST PUSH2 0xBEC PUSH2 0xF97 JUMP JUMPDEST PUSH1 0x0 CALLER PUSH1 0x40 MLOAD PUSH32 0x70A0823100000000000000000000000000000000000000000000000000000000 DUP2 MSTORE ADDRESS PUSH1 0x4 DUP3 ADD MSTORE SWAP1 SWAP2 POP PUSH1 0x0 SWAP1 PUSH20 0xFFFFFFFFFFFFFFFFFFFFFFFFFFFFFFFFFFFFFFFF PUSH32 0x0 AND SWAP1 PUSH4 0x70A08231 SWAP1 PUSH1 0x24 ADD PUSH1 0x20 PUSH1 0x40 MLOAD DUP1 DUP4 SUB DUP2 DUP7 GAS STATICCALL ISZERO DUP1 ISZERO PUSH2 0xC7F JUMPI RETURNDATASIZE PUSH1 0x0 DUP1 RETURNDATACOPY RETURNDATASIZE PUSH1 0x0 REVERT JUMPDEST POP POP POP POP PUSH1 0x40 MLOAD RETURNDATASIZE PUSH1 0x1F NOT PUSH1 0x1F DUP3 ADD AND DUP3 ADD DUP1 PUSH1 0x40 MSTORE POP DUP2 ADD SWAP1 PUSH2 0xCA3 SWAP2 SWAP1 PUSH2 0x154E JUMP JUMPDEST PUSH1 0x40 MLOAD PUSH32 0xA9059CBB00000000000000000000000000000000000000000000000000000000 DUP2 MSTORE PUSH20 0xFFFFFFFFFFFFFFFFFFFFFFFFFFFFFFFFFFFFFFFF DUP5 DUP2 AND PUSH1 0x4 DUP4 ADD MSTORE PUSH1 0x24 DUP3 ADD DUP4 SWAP1 MSTORE SWAP2 SWAP3 POP PUSH32 0x0 SWAP1 SWAP2 AND SWAP1 PUSH4 0xA9059CBB SWAP1 PUSH1 0x44 ADD PUSH1 0x20 PUSH1 0x40 MLOAD DUP1 DUP4 SUB DUP2 PUSH1 0x0 DUP8 GAS CALL ISZERO DUP1 ISZERO PUSH2 0xD3D JUMPI RETURNDATASIZE PUSH1 0x0 DUP1 RETURNDATACOPY RETURNDATASIZE PUSH1 0x0 REVERT JUMPDEST POP POP POP POP PUSH1 0x40 MLOAD RETURNDATASIZE PUSH1 0x1F NOT PUSH1 0x1F DUP3 ADD AND DUP3 ADD DUP1 PUSH1 0x40 MSTORE POP DUP2 ADD SWAP1 PUSH2 0xD61 SWAP2 SWAP1 PUSH2 0x152C JUMP JUMPDEST PUSH2 0xD97 JUMPI PUSH1 0x40 MLOAD PUSH32 0x45C4B0200000000000000000000000000000000000000000000000000000000 DUP2 MSTORE PUSH1 0x4 ADD PUSH1 0x40 MLOAD DUP1 SWAP2 SUB SWAP1 REVERT JUMPDEST DUP2 PUSH20 0xFFFFFFFFFFFFFFFFFFFFFFFFFFFFFFFFFFFFFFFF AND PUSH32 0x5FAFA99D0643513820BE26656B45130B01E1C03062E1266BF36F88CBD3BD9695 DUP3 PUSH1 0x40 MLOAD PUSH2 0xB56 SWAP2 DUP2 MSTORE PUSH1 0x20 ADD SWAP1 JUMP JUMPDEST PUSH2 0xDE7 PUSH2 0xF97 JUMP JUMPDEST PUSH20 0xFFFFFFFFFFFFFFFFFFFFFFFFFFFFFFFFFFFFFFFF DUP2 AND PUSH2 0xE3C JUMPI PUSH1 0x40 MLOAD PUSH32 0x1E4FBDF700000000000000000000000000000000000000000000000000000000 DUP2 MSTORE PUSH1 0x0 PUSH1 0x4 DUP3 ADD MSTORE PUSH1 0x24 ADD JUMPDEST PUSH1 0x40 MLOAD DUP1 SWAP2 SUB SWAP1 REVERT JUMPDEST PUSH2 0xE45 DUP2 PUSH2 0xFEA JUMP JUMPDEST POP JUMP JUMPDEST PUSH1 0x0 DUP1 PUSH1 0x0 DUP1 DUP5 PUSH1 0x1 DUP1 SLOAD SWAP1 POP DUP2 LT PUSH2 0xE8D JUMPI PUSH1 0x40 MLOAD PUSH32 0xA55F88000000000000000000000000000000000000000000000000000000000 DUP2 MSTORE PUSH1 0x4 ADD PUSH1 0x40 MLOAD DUP1 SWAP2 SUB SWAP1 REVERT JUMPDEST PUSH1 0x0 PUSH1 0x1 DUP8 DUP2 SLOAD DUP2 LT PUSH2 0xEA2 JUMPI PUSH2 0xEA2 PUSH2 0x1495 JUMP JUMPDEST PUSH1 0x0 SWAP2 DUP3 MSTORE PUSH1 0x20 SWAP1 SWAP2 KECCAK256 PUSH1 0x4 SWAP1 SWAP2 MUL ADD DUP1 SLOAD PUSH1 0x1 SWAP1 SWAP2 ADD SLOAD PUSH3 0xFFFFFF DUP3 AND SWAP10 PUSH14 0xFFFFFFFFFFFFFFFFFFFFFFFFFFFF PUSH4 0x1000000 DUP5 DIV DUP2 AND SWAP11 POP PUSH18 0x10000000000000000000000000000000000 SWAP1 SWAP4 DIV SWAP1 SWAP3 AND SWAP8 POP PUSH5 0xFFFFFFFFFF AND SWAP6 POP SWAP4 POP POP POP POP JUMP JUMPDEST PUSH1 0x0 DUP1 DUP6 PUSH2 0xF23 DUP7 PUSH14 0xFFFFFFFFFFFFFFFFFFFFFFFFFFFF AND PUSH2 0x105F JUMP JUMPDEST PUSH1 0x40 MLOAD PUSH1 0x20 ADD PUSH2 0xF34 SWAP3 SWAP2 SWAP1 PUSH2 0x1567 JUMP JUMPDEST PUSH1 0x40 MLOAD PUSH1 0x20 DUP2 DUP4 SUB SUB DUP2 MSTORE SWAP1 PUSH1 0x40 MSTORE DUP1 MLOAD SWAP1 PUSH1 0x20 ADD KECCAK256 SWAP1 POP PUSH2 0xF8C DUP5 DUP5 DUP1 DUP1 PUSH1 0x20 MUL PUSH1 0x20 ADD PUSH1 0x40 MLOAD SWAP1 DUP2 ADD PUSH1 0x40 MSTORE DUP1 SWAP4 SWAP3 SWAP2 SWAP1 DUP2 DUP2 MSTORE PUSH1 0x20 ADD DUP4 DUP4 PUSH1 0x20 MUL DUP1 DUP3 DUP5 CALLDATACOPY PUSH1 0x0 SWAP3 ADD SWAP2 SWAP1 SWAP2 MSTORE POP DUP12 SWAP3 POP DUP6 SWAP2 POP PUSH2 0x111D SWAP1 POP JUMP JUMPDEST SWAP8 SWAP7 POP POP POP POP POP POP POP JUMP JUMPDEST PUSH1 0x0 SLOAD PUSH20 0xFFFFFFFFFFFFFFFFFFFFFFFFFFFFFFFFFFFFFFFF AND CALLER EQ PUSH2 0x6BF JUMPI PUSH1 0x40 MLOAD PUSH32 0x118CDAA700000000000000000000000000000000000000000000000000000000 DUP2 MSTORE CALLER PUSH1 0x4 DUP3 ADD MSTORE PUSH1 0x24 ADD PUSH2 0xE33 JUMP JUMPDEST PUSH1 0x0 DUP1 SLOAD PUSH20 0xFFFFFFFFFFFFFFFFFFFFFFFFFFFFFFFFFFFFFFFF DUP4 DUP2 AND PUSH32 0xFFFFFFFFFFFFFFFFFFFFFFFF0000000000000000000000000000000000000000 DUP4 AND DUP2 OR DUP5 SSTORE PUSH1 0x40 MLOAD SWAP2 SWAP1 SWAP3 AND SWAP3 DUP4 SWAP2 PUSH32 0x8BE0079C531659141344CD1FD0A4F28419497F9722A3DAAFE3B4186F6B6457E0 SWAP2 SWAP1 LOG3 POP POP JUMP JUMPDEST PUSH1 0x60 PUSH1 0x0 PUSH2 0x106C DUP4 PUSH2 0x1133 JUMP JUMPDEST PUSH1 0x1 ADD SWAP1 POP PUSH1 0x0 DUP2 PUSH8 0xFFFFFFFFFFFFFFFF DUP2 GT ISZERO PUSH2 0x108C JUMPI PUSH2 0x108C PUSH2 0x15C5 JUMP JUMPDEST PUSH1 0x40 MLOAD SWAP1 DUP1 DUP3 MSTORE DUP1 PUSH1 0x1F ADD PUSH1 0x1F NOT AND PUSH1 0x20 ADD DUP3 ADD PUSH1 0x40 MSTORE DUP1 ISZERO PUSH2 0x10B6 JUMPI PUSH1 0x20 DUP3 ADD DUP2 DUP1 CALLDATASIZE DUP4 CALLDATACOPY ADD SWAP1 POP JUMPDEST POP SWAP1 POP DUP2 DUP2 ADD PUSH1 0x20 ADD JUMPDEST PUSH32 0xFFFFFFFFFFFFFFFFFFFFFFFFFFFFFFFFFFFFFFFFFFFFFFFFFFFFFFFFFFFFFFFF ADD PUSH32 0x3031323334353637383961626364656600000000000000000000000000000000 PUSH1 0xA DUP7 MOD BYTE DUP2 MSTORE8 PUSH1 0xA DUP6 DIV SWAP5 POP DUP5 PUSH2 0x10C0 JUMPI POP SWAP4 SWAP3 POP POP POP JUMP JUMPDEST PUSH1 0x0 DUP3 PUSH2 0x112A DUP6 DUP5 PUSH2 0x1216 JUMP JUMPDEST EQ SWAP5 SWAP4 POP POP POP POP JUMP JUMPDEST PUSH1 0x0 DUP1 PUSH27 0x184F03E93FF9F4DAA797ED6E38ED64BF6A1F010000000000000000 DUP4 LT PUSH2 0x117C JUMPI PUSH27 0x184F03E93FF9F4DAA797ED6E38ED64BF6A1F010000000000000000 DUP4 DIV SWAP3 POP PUSH1 0x40 ADD JUMPDEST PUSH14 0x4EE2D6D415B85ACEF8100000000 DUP4 LT PUSH2 0x11A8 JUMPI PUSH14 0x4EE2D6D415B85ACEF8100000000 DUP4 DIV SWAP3 POP PUSH1 0x20 ADD JUMPDEST PUSH7 0x2386F26FC10000 DUP4 LT PUSH2 0x11C6 JUMPI PUSH7 0x2386F26FC10000 DUP4 DIV SWAP3 POP PUSH1 0x10 ADD JUMPDEST PUSH4 0x5F5E100 DUP4 LT PUSH2 0x11DE JUMPI PUSH4 0x5F5E100 DUP4 DIV SWAP3 POP PUSH1 0x8 ADD JUMPDEST PUSH2 0x2710 DUP4 LT PUSH2 0x11F2 JUMPI PUSH2 0x2710 DUP4 DIV SWAP3 POP PUSH1 0x4 ADD JUMPDEST PUSH1 0x64 DUP4 LT PUSH2 0x1204 JUMPI PUSH1 0x64 DUP4 DIV SWAP3 POP PUSH1 0x2 ADD JUMPDEST PUSH1 0xA DUP4 LT PUSH2 0x1210 JUMPI PUSH1 0x1 ADD JUMPDEST SWAP3 SWAP2 POP POP JUMP JUMPDEST PUSH1 0x0 DUP2 DUP2 JUMPDEST DUP5 MLOAD DUP2 LT ISZERO PUSH2 0x1251 JUMPI PUSH2 0x1247 DUP3 DUP7 DUP4 DUP2 MLOAD DUP2 LT PUSH2 0x123A JUMPI PUSH2 0x123A PUSH2 0x1495 JUMP JUMPDEST PUSH1 0x20 MUL PUSH1 0x20 ADD ADD MLOAD PUSH2 0x1259 JUMP JUMPDEST SWAP2 POP PUSH1 0x1 ADD PUSH2 0x121B JUMP JUMPDEST POP SWAP4 SWAP3 POP POP POP JUMP JUMPDEST PUSH1 0x0 DUP2 DUP4 LT PUSH2 0x1275 JUMPI PUSH1 0x0 DUP3 DUP2 MSTORE PUSH1 0x20 DUP5 SWAP1 MSTORE PUSH1 0x40 SWAP1 KECCAK256 PUSH2 0x1284 JUMP JUMPDEST PUSH1 0x0 DUP4 DUP2 MSTORE PUSH1 0x20 DUP4 SWAP1 MSTORE PUSH1 0x40 SWAP1 KECCAK256 JUMPDEST SWAP4 SWAP3 POP POP POP JUMP JUMPDEST DUP1 CALLDATALOAD PUSH14 0xFFFFFFFFFFFFFFFFFFFFFFFFFFFF DUP2 AND DUP2 EQ PUSH2 0x12A9 JUMPI PUSH1 0x0 DUP1 REVERT JUMPDEST SWAP2 SWAP1 POP JUMP JUMPDEST PUSH1 0x0 DUP1 DUP4 PUSH1 0x1F DUP5 ADD SLT PUSH2 0x12C0 JUMPI PUSH1 0x0 DUP1 REVERT JUMPDEST POP DUP2 CALLDATALOAD PUSH8 0xFFFFFFFFFFFFFFFF DUP2 GT ISZERO PUSH2 0x12D8 JUMPI PUSH1 0x0 DUP1 REVERT JUMPDEST PUSH1 0x20 DUP4 ADD SWAP2 POP DUP4 PUSH1 0x20 DUP3 PUSH1 0x5 SHL DUP6 ADD ADD GT ISZERO PUSH2 0x12F3 JUMPI PUSH1 0x0 DUP1 REVERT JUMPDEST SWAP3 POP SWAP3 SWAP1 POP JUMP JUMPDEST PUSH1 0x0 DUP1 PUSH1 0x0 DUP1 PUSH1 0x60 DUP6 DUP8 SUB SLT ISZERO PUSH2 0x1310 JUMPI PUSH1 0x0 DUP1 REVERT JUMPDEST DUP5 CALLDATALOAD SWAP4 POP PUSH2 0x1320 PUSH1 0x20 DUP7 ADD PUSH2 0x128B JUMP JUMPDEST SWAP3 POP PUSH1 0x40 DUP6 ADD CALLDATALOAD PUSH8 0xFFFFFFFFFFFFFFFF DUP2 GT ISZERO PUSH2 0x133C JUMPI PUSH1 0x0 DUP1 REVERT JUMPDEST PUSH2 0x1348 DUP8 DUP3 DUP9 ADD PUSH2 0x12AE JUMP JUMPDEST SWAP6 SWAP9 SWAP5 SWAP8 POP SWAP6 POP POP POP POP JUMP JUMPDEST DUP1 CALLDATALOAD PUSH20 0xFFFFFFFFFFFFFFFFFFFFFFFFFFFFFFFFFFFFFFFF DUP2 AND DUP2 EQ PUSH2 0x12A9 JUMPI PUSH1 0x0 DUP1 REVERT JUMPDEST PUSH1 0x0 DUP1 PUSH1 0x40 DUP4 DUP6 SUB SLT ISZERO PUSH2 0x138B JUMPI PUSH1 0x0 DUP1 REVERT JUMPDEST DUP3 CALLDATALOAD SWAP2 POP PUSH2 0x139B PUSH1 0x20 DUP5 ADD PUSH2 0x1354 JUMP JUMPDEST SWAP1 POP SWAP3 POP SWAP3 SWAP1 POP JUMP JUMPDEST PUSH1 0x0 DUP1 PUSH1 0x0 DUP1 PUSH1 0x80 DUP6 DUP8 SUB SLT ISZERO PUSH2 0x13BA JUMPI PUSH1 0x0 DUP1 REVERT JUMPDEST DUP5 CALLDATALOAD SWAP4 POP PUSH1 0x20 DUP6 ADD CALLDATALOAD PUSH3 0xFFFFFF DUP2 AND DUP2 EQ PUSH2 0x13D4 JUMPI PUSH1 0x0 DUP1 REVERT JUMPDEST SWAP3 POP PUSH2 0x13E2 PUSH1 0x40 DUP7 ADD PUSH2 0x128B JUMP JUMPDEST SWAP4 SWAP7 SWAP3 SWAP6 POP SWAP3 SWAP4 PUSH1 0x60 ADD CALLDATALOAD SWAP3 POP POP JUMP JUMPDEST PUSH1 0x0 PUSH1 0x20 DUP3 DUP5 SUB SLT ISZERO PUSH2 0x1404 JUMPI PUSH1 0x0 DUP1 REVERT JUMPDEST POP CALLDATALOAD SWAP2 SWAP1 POP JUMP JUMPDEST PUSH1 0x0 DUP1 PUSH1 0x0 DUP1 PUSH1 0x0 PUSH1 0x80 DUP7 DUP9 SUB SLT ISZERO PUSH2 0x1423 JUMPI PUSH1 0x0 DUP1 REVERT JUMPDEST DUP6 CALLDATALOAD SWAP5 POP PUSH2 0x1433 PUSH1 0x20 DUP8 ADD PUSH2 0x1354 JUMP JUMPDEST SWAP4 POP PUSH2 0x1441 PUSH1 0x40 DUP8 ADD PUSH2 0x128B JUMP JUMPDEST SWAP3 POP PUSH1 0x60 DUP7 ADD CALLDATALOAD PUSH8 0xFFFFFFFFFFFFFFFF DUP2 GT ISZERO PUSH2 0x145D JUMPI PUSH1 0x0 DUP1 REVERT JUMPDEST PUSH2 0x1469 DUP9 DUP3 DUP10 ADD PUSH2 0x12AE JUMP JUMPDEST SWAP7 SWAP10 SWAP6 SWAP9 POP SWAP4 SWAP7 POP SWAP3 SWAP5 SWAP4 SWAP3 POP POP POP JUMP JUMPDEST PUSH1 0x0 PUSH1 0x20 DUP3 DUP5 SUB SLT ISZERO PUSH2 0x148C JUMPI PUSH1 0x0 DUP1 REVERT JUMPDEST PUSH2 0x1284 DUP3 PUSH2 0x1354 JUMP JUMPDEST PUSH32 0x4E487B7100000000000000000000000000000000000000000000000000000000 PUSH1 0x0 MSTORE PUSH1 0x32 PUSH1 0x4 MSTORE PUSH1 0x24 PUSH1 0x0 REVERT JUMPDEST PUSH32 0x4E487B7100000000000000000000000000000000000000000000000000000000 PUSH1 0x0 MSTORE PUSH1 0x11 PUSH1 0x4 MSTORE PUSH1 0x24 PUSH1 0x0 REVERT JUMPDEST DUP1 DUP3 ADD DUP1 DUP3 GT ISZERO PUSH2 0x1210 JUMPI PUSH2 0x1210 PUSH2 0x14C4 JUMP JUMPDEST PUSH14 0xFFFFFFFFFFFFFFFFFFFFFFFFFFFF DUP2 DUP2 AND DUP4 DUP3 AND ADD SWAP1 DUP2 GT ISZERO PUSH2 0x1210 JUMPI PUSH2 0x1210 PUSH2 0x14C4 JUMP JUMPDEST PUSH1 0x0 PUSH1 0x20 DUP3 DUP5 SUB SLT ISZERO PUSH2 0x153E JUMPI PUSH1 0x0 DUP1 REVERT JUMPDEST DUP2 MLOAD DUP1 ISZERO ISZERO DUP2 EQ PUSH2 0x1284 JUMPI PUSH1 0x0 DUP1 REVERT JUMPDEST PUSH1 0x0 PUSH1 0x20 DUP3 DUP5 SUB SLT ISZERO PUSH2 0x1560 JUMPI PUSH1 0x0 DUP1 REVERT JUMPDEST POP MLOAD SWAP2 SWAP1 POP JUMP JUMPDEST PUSH32 0xFFFFFFFFFFFFFFFFFFFFFFFFFFFFFFFFFFFFFFFF000000000000000000000000 DUP4 PUSH1 0x60 SHL AND DUP2 MSTORE PUSH1 0x0 DUP3 MLOAD PUSH1 0x0 JUMPDEST DUP2 DUP2 LT ISZERO PUSH2 0x15B3 JUMPI PUSH1 0x20 DUP2 DUP7 ADD DUP2 ADD MLOAD PUSH1 0x14 DUP7 DUP5 ADD ADD MSTORE ADD PUSH2 0x1596 JUMP JUMPDEST POP PUSH1 0x0 SWAP3 ADD PUSH1 0x14 ADD SWAP2 DUP3 MSTORE POP SWAP3 SWAP2 POP POP JUMP JUMPDEST PUSH32 0x4E487B7100000000000000000000000000000000000000000000000000000000 PUSH1 0x0 MSTORE PUSH1 0x41 PUSH1 0x4 MSTORE PUSH1 0x24 PUSH1 0x0 REVERT INVALID LOG2 PUSH5 0x6970667358 0x22 SLT KECCAK256 PUSH1 0xAB 0xBD RETURNDATACOPY NOT PUSH31 0x7B537B63F991E5DE23AE7873F82DAD239825B75D0FA8141BEA4B64736F6C63 NUMBER STOP ADDMOD BYTE STOP CALLER "
        },
        "methodIdentifiers": {
          "CLAIM_DEADLINE()": "42f81580",
          "HUNT()": "cefa8922",
          "claim(uint256,uint112,bytes32[])": "0e864270",
          "currentSeason()": "bcb39621",
          "deposit(uint256)": "b6b55f25",
          "emergencyWithdraw()": "db2e21bc",
          "getClaimedAmount(uint256,address)": "4867b6db",
          "getSeasonStats(uint256)": "ff3adbe8",
          "isWhitelisted(uint256,address,uint112,bytes32[])": "d6f4e26f",
          "owner()": "8da5cb5b",
          "renounceOwnership()": "715018a6",
          "setGrantData(uint256,uint24,uint112,bytes32)": "9f0349de",
          "transferOwnership(address)": "f2fde38b"
        }
      }
    }
  }
}