{
  "contracts/BuilderGrant.sol": {
    "BuilderGrant": {
      "abi": [
        {
          "inputs": [
            {
              "internalType": "address",
              "name": "bond",
              "type": "address"
            },
            {
              "internalType": "address",
              "name": "hunt",
              "type": "address"
            },
            {
              "internalType": "address",
              "name": "miniBuilding",
              "type": "address"
            }
          ],
          "stateMutability": "nonpayable",
          "type": "constructor"
        },
        {
          "inputs": [],
          "name": "AlreadyClaimed",
          "type": "error"
        },
        {
          "inputs": [],
          "name": "ClaimDeadlineReached",
          "type": "error"
        },
        {
          "inputs": [],
          "name": "DonationAlreadyClaimed",
          "type": "error"
        },
        {
          "inputs": [],
          "name": "DonationClaimDeadlineReached",
          "type": "error"
        },
        {
          "inputs": [],
          "name": "DonationNotClaimableYet",
          "type": "error"
        },
        {
          "inputs": [],
          "name": "InvalidClaimType",
          "type": "error"
        },
        {
          "inputs": [],
          "name": "InvalidGrantAmount",
          "type": "error"
        },
        {
          "inputs": [],
          "name": "InvalidRankersParams",
          "type": "error"
        },
        {
          "inputs": [],
          "name": "InvalidRankingParam",
          "type": "error"
        },
        {
          "inputs": [],
          "name": "InvalidSeasonId",
          "type": "error"
        },
        {
          "inputs": [],
          "name": "MintBuildingsFailed",
          "type": "error"
        },
        {
          "inputs": [],
          "name": "NoDonationToClaim",
          "type": "error"
        },
        {
          "inputs": [],
          "name": "NotARanker",
          "type": "error"
        },
        {
          "inputs": [],
          "name": "NotEnoughGrantBalance",
          "type": "error"
        },
        {
          "inputs": [],
          "name": "NothingToWithdraw",
          "type": "error"
        },
        {
          "inputs": [
            {
              "internalType": "address",
              "name": "owner",
              "type": "address"
            }
          ],
          "name": "OwnableInvalidOwner",
          "type": "error"
        },
        {
          "inputs": [
            {
              "internalType": "address",
              "name": "account",
              "type": "address"
            }
          ],
          "name": "OwnableUnauthorizedAccount",
          "type": "error"
        },
        {
          "inputs": [],
          "name": "PermissionDenied",
          "type": "error"
        },
        {
          "inputs": [],
          "name": "SeasonDataIsNotUpdateable",
          "type": "error"
        },
        {
          "inputs": [],
          "name": "TokenTransferFailed",
          "type": "error"
        },
        {
          "anonymous": false,
          "inputs": [
            {
              "indexed": true,
              "internalType": "address",
              "name": "claimer",
              "type": "address"
            },
            {
              "indexed": true,
              "internalType": "uint256",
              "name": "seasonId",
              "type": "uint256"
            },
            {
              "indexed": false,
              "internalType": "uint256",
              "name": "ranking",
              "type": "uint256"
            },
            {
              "indexed": false,
              "internalType": "uint8",
              "name": "claimType",
              "type": "uint8"
            },
            {
              "indexed": false,
              "internalType": "uint16",
              "name": "countForSelf",
              "type": "uint16"
            },
            {
              "indexed": false,
              "internalType": "uint16",
              "name": "countForDonation",
              "type": "uint16"
            }
          ],
          "name": "ClaimByTop3",
          "type": "event"
        },
        {
          "anonymous": false,
          "inputs": [
            {
              "indexed": true,
              "internalType": "address",
              "name": "claimer",
              "type": "address"
            },
            {
              "indexed": true,
              "internalType": "uint256",
              "name": "seasonId",
              "type": "uint256"
            },
            {
              "indexed": false,
              "internalType": "uint256",
              "name": "ranking",
              "type": "uint256"
            },
            {
              "indexed": false,
              "internalType": "uint256",
              "name": "amount",
              "type": "uint256"
            }
          ],
          "name": "ClaimDonation",
          "type": "event"
        },
        {
          "anonymous": false,
          "inputs": [
            {
              "indexed": true,
              "internalType": "address",
              "name": "depositor",
              "type": "address"
            },
            {
              "indexed": false,
              "internalType": "uint256",
              "name": "huntAmount",
              "type": "uint256"
            }
          ],
          "name": "Deposit",
          "type": "event"
        },
        {
          "anonymous": false,
          "inputs": [
            {
              "indexed": true,
              "internalType": "address",
              "name": "withdrawer",
              "type": "address"
            },
            {
              "indexed": false,
              "internalType": "uint256",
              "name": "huntAmount",
              "type": "uint256"
            }
          ],
          "name": "EmergencyWithdraw",
          "type": "event"
        },
        {
          "anonymous": false,
          "inputs": [
            {
              "indexed": true,
              "internalType": "address",
              "name": "previousOwner",
              "type": "address"
            },
            {
              "indexed": true,
              "internalType": "address",
              "name": "newOwner",
              "type": "address"
            }
          ],
          "name": "OwnershipTransferred",
          "type": "event"
        },
        {
          "anonymous": false,
          "inputs": [
            {
              "indexed": true,
              "internalType": "uint256",
              "name": "seasonId",
              "type": "uint256"
            },
            {
              "indexed": false,
              "internalType": "uint256",
              "name": "rankersCount",
              "type": "uint256"
            },
            {
              "indexed": false,
              "internalType": "uint16[3]",
              "name": "grantsAmount",
              "type": "uint16[3]"
            }
          ],
          "name": "SetSeasonData",
          "type": "event"
        },
        {
          "inputs": [],
          "name": "BOND",
          "outputs": [
            {
              "internalType": "contract IMCV2_Bond",
              "name": "",
              "type": "address"
            }
          ],
          "stateMutability": "view",
          "type": "function"
        },
        {
          "inputs": [],
          "name": "DONATION_CLAIM_DEADLINE",
          "outputs": [
            {
              "internalType": "uint256",
              "name": "",
              "type": "uint256"
            }
          ],
          "stateMutability": "view",
          "type": "function"
        },
        {
          "inputs": [],
          "name": "HUNT",
          "outputs": [
            {
              "internalType": "contract IERC20",
              "name": "",
              "type": "address"
            }
          ],
          "stateMutability": "view",
          "type": "function"
        },
        {
          "inputs": [],
          "name": "HUNT_PER_MINI_BUILDING",
          "outputs": [
            {
              "internalType": "uint256",
              "name": "",
              "type": "uint256"
            }
          ],
          "stateMutability": "view",
          "type": "function"
        },
        {
          "inputs": [],
          "name": "MINI_BUILDING_ADDRESS",
          "outputs": [
            {
              "internalType": "address",
              "name": "",
              "type": "address"
            }
          ],
          "stateMutability": "view",
          "type": "function"
        },
        {
          "inputs": [],
          "name": "TOP3_CLAIM_DEADLINE",
          "outputs": [
            {
              "internalType": "uint256",
              "name": "",
              "type": "uint256"
            }
          ],
          "stateMutability": "view",
          "type": "function"
        },
        {
          "inputs": [
            {
              "internalType": "uint256",
              "name": "seasonId",
              "type": "uint256"
            },
            {
              "internalType": "uint256",
              "name": "ranking",
              "type": "uint256"
            },
            {
              "internalType": "uint8",
              "name": "claimType",
              "type": "uint8"
            }
          ],
          "name": "claimByTop3",
          "outputs": [],
          "stateMutability": "nonpayable",
          "type": "function"
        },
        {
          "inputs": [
            {
              "internalType": "uint256",
              "name": "seasonId",
              "type": "uint256"
            },
            {
              "internalType": "uint256",
              "name": "ranking",
              "type": "uint256"
            }
          ],
          "name": "claimDonation",
          "outputs": [],
          "stateMutability": "nonpayable",
          "type": "function"
        },
        {
          "inputs": [
            {
              "internalType": "uint256",
              "name": "seasonId",
              "type": "uint256"
            },
            {
              "internalType": "uint256",
              "name": "ranking",
              "type": "uint256"
            }
          ],
          "name": "claimableDonationAmount",
          "outputs": [
            {
              "internalType": "uint16",
              "name": "claimableAmount",
              "type": "uint16"
            }
          ],
          "stateMutability": "view",
          "type": "function"
        },
        {
          "inputs": [],
          "name": "currentSeason",
          "outputs": [
            {
              "internalType": "uint256",
              "name": "",
              "type": "uint256"
            }
          ],
          "stateMutability": "view",
          "type": "function"
        },
        {
          "inputs": [
            {
              "internalType": "uint256",
              "name": "huntAmount",
              "type": "uint256"
            }
          ],
          "name": "deposit",
          "outputs": [],
          "stateMutability": "nonpayable",
          "type": "function"
        },
        {
          "inputs": [],
          "name": "emergencyWithdraw",
          "outputs": [],
          "stateMutability": "nonpayable",
          "type": "function"
        },
        {
          "inputs": [
            {
              "internalType": "uint256",
              "name": "seasonId",
              "type": "uint256"
            },
            {
              "internalType": "uint256",
              "name": "ranking",
              "type": "uint256"
            }
          ],
          "name": "getClaimableAmountByTop3",
          "outputs": [
            {
              "internalType": "uint16",
              "name": "",
              "type": "uint16"
            }
          ],
          "stateMutability": "view",
          "type": "function"
        },
        {
          "inputs": [
            {
              "internalType": "uint256",
              "name": "seasonId",
              "type": "uint256"
            },
            {
              "internalType": "uint256",
              "name": "index",
              "type": "uint256"
            }
          ],
          "name": "getRankerAt",
          "outputs": [
            {
              "components": [
                {
                  "internalType": "uint48",
                  "name": "fid",
                  "type": "uint48"
                },
                {
                  "internalType": "address",
                  "name": "wallet",
                  "type": "address"
                },
                {
                  "internalType": "uint16",
                  "name": "claimedAmount",
                  "type": "uint16"
                },
                {
                  "internalType": "bool[3]",
                  "name": "donationReceived",
                  "type": "bool[3]"
                }
              ],
              "internalType": "struct BuilderGrant.Ranker",
              "name": "",
              "type": "tuple"
            }
          ],
          "stateMutability": "view",
          "type": "function"
        },
        {
          "inputs": [
            {
              "internalType": "uint256",
              "name": "seasonId",
              "type": "uint256"
            }
          ],
          "name": "getRankersCount",
          "outputs": [
            {
              "internalType": "uint256",
              "name": "",
              "type": "uint256"
            }
          ],
          "stateMutability": "view",
          "type": "function"
        },
        {
          "inputs": [
            {
              "internalType": "uint256",
              "name": "seasonId",
              "type": "uint256"
            },
            {
              "internalType": "uint48",
              "name": "fid",
              "type": "uint48"
            }
          ],
          "name": "getRankingByFid",
          "outputs": [
            {
              "internalType": "uint256",
              "name": "",
              "type": "uint256"
            }
          ],
          "stateMutability": "view",
          "type": "function"
        },
        {
          "inputs": [
            {
              "internalType": "uint256",
              "name": "seasonId",
              "type": "uint256"
            },
            {
              "internalType": "address",
              "name": "wallet",
              "type": "address"
            }
          ],
          "name": "getRankingByWallet",
          "outputs": [
            {
              "internalType": "uint256",
              "name": "",
              "type": "uint256"
            }
          ],
          "stateMutability": "view",
          "type": "function"
        },
        {
          "inputs": [
            {
              "internalType": "uint256",
              "name": "seasonId",
              "type": "uint256"
            }
          ],
          "name": "getSeason",
          "outputs": [
            {
              "components": [
                {
                  "internalType": "uint40",
                  "name": "claimStartedAt",
                  "type": "uint40"
                },
                {
                  "internalType": "uint16",
                  "name": "totalClaimed",
                  "type": "uint16"
                },
                {
                  "components": [
                    {
                      "internalType": "uint8",
                      "name": "claimedType",
                      "type": "uint8"
                    },
                    {
                      "internalType": "uint16",
                      "name": "amount",
                      "type": "uint16"
                    }
                  ],
                  "internalType": "struct BuilderGrant.Grant[3]",
                  "name": "grants",
                  "type": "tuple[3]"
                },
                {
                  "components": [
                    {
                      "internalType": "uint48",
                      "name": "fid",
                      "type": "uint48"
                    },
                    {
                      "internalType": "address",
                      "name": "wallet",
                      "type": "address"
                    },
                    {
                      "internalType": "uint16",
                      "name": "claimedAmount",
                      "type": "uint16"
                    },
                    {
                      "internalType": "bool[3]",
                      "name": "donationReceived",
                      "type": "bool[3]"
                    }
                  ],
                  "internalType": "struct BuilderGrant.Ranker[]",
                  "name": "rankers",
                  "type": "tuple[]"
                }
              ],
              "internalType": "struct BuilderGrant.Season",
              "name": "",
              "type": "tuple"
            }
          ],
          "stateMutability": "view",
          "type": "function"
        },
        {
          "inputs": [
            {
              "internalType": "uint256",
              "name": "seasonId",
              "type": "uint256"
            }
          ],
          "name": "isDonationClaimableNow",
          "outputs": [
            {
              "internalType": "bool",
              "name": "",
              "type": "bool"
            }
          ],
          "stateMutability": "view",
          "type": "function"
        },
        {
          "inputs": [],
          "name": "owner",
          "outputs": [
            {
              "internalType": "address",
              "name": "",
              "type": "address"
            }
          ],
          "stateMutability": "view",
          "type": "function"
        },
        {
          "inputs": [],
          "name": "renounceOwnership",
          "outputs": [],
          "stateMutability": "nonpayable",
          "type": "function"
        },
        {
          "inputs": [
            {
              "internalType": "uint256",
              "name": "seasonId",
              "type": "uint256"
            },
            {
              "internalType": "uint16[3]",
              "name": "grantsAmount",
              "type": "uint16[3]"
            },
            {
              "internalType": "uint48[]",
              "name": "fids",
              "type": "uint48[]"
            },
            {
              "internalType": "address[]",
              "name": "wallets",
              "type": "address[]"
            }
          ],
          "name": "setSeasonData",
          "outputs": [],
          "stateMutability": "nonpayable",
          "type": "function"
        },
        {
          "inputs": [
            {
              "internalType": "address",
              "name": "newOwner",
              "type": "address"
            }
          ],
          "name": "transferOwnership",
          "outputs": [],
          "stateMutability": "nonpayable",
          "type": "function"
        }
      ],
      "evm": {
        "bytecode": {
          "linkReferences": {},
          "object": "60e060405234801561001057600080fd5b50604051612abe380380612abe83398101604081905261002f9161015b565b338061005557604051631e4fbdf760e01b81526000600482015260240160405180910390fd5b61005e816100ef565b506001600160a01b0383811660a0819052838216608081905291831660c05260405163095ea7b360e01b81526004810191909152600019602482015263095ea7b3906044016020604051808303816000875af11580156100c2573d6000803e3d6000fd5b505050506040513d601f19601f820116820180604052508101906100e6919061019e565b505050506101c7565b600080546001600160a01b038381166001600160a01b0319831681178455604051919092169283917f8be0079c531659141344cd1fd0a4f28419497f9722a3daafe3b4186f6b6457e09190a35050565b80516001600160a01b038116811461015657600080fd5b919050565b60008060006060848603121561017057600080fd5b6101798461013f565b92506101876020850161013f565b91506101956040850161013f565b90509250925092565b6000602082840312156101b057600080fd5b815180151581146101c057600080fd5b9392505050565b60805160a05160c05161289e610220600039600081816101bd0152611fa00152600081816103350152611f7901526000818161035c01528181610afe015281816115bc0152818161195b0152611a4e015261289e6000f3fe608060405234801561001057600080fd5b506004361061018d5760003560e01c8063a43d8654116100e3578063cefa89221161008c578063e70d689311610066578063e70d689314610399578063f2fde38b146103ac578063fddd6397146103bf57600080fd5b8063cefa892214610357578063d88f836a1461037e578063db2e21bc1461039157600080fd5b8063b86c9e5e116100bd578063b86c9e5e14610315578063bcb3962114610328578063c1c1d2181461033057600080fd5b8063a43d8654146102bf578063a51710dd146102df578063b6b55f251461030257600080fd5b8063715018a611610145578063813d243c1161011f578063813d243c146102845780638da5cb5b1461029757806394285922146102b557600080fd5b8063715018a61461024957806371e20cdc1461025157806373d5f6521461027157600080fd5b8063218ff65a11610176578063218ff65a1461020457806345fbcafa146102195780636a13f0cb1461022357600080fd5b806303956c7e146101925780630c933edf146101b8575b600080fd5b6101a56101a0366004612323565b6103cf565b6040519081526020015b60405180910390f35b6101df7f000000000000000000000000000000000000000000000000000000000000000081565b60405173ffffffffffffffffffffffffffffffffffffffff90911681526020016101af565b61021761021236600461233c565b610440565b005b6101a56224ea0081565b61023661023136600461233c565b6106dc565b60405161ffff90911681526020016101af565b6102176108c2565b61026461025f36600461233c565b6108d6565b6040516101af91906123cc565b61021761027f366004612426565b610a2c565b6101a56102923660046124d5565b61113c565b60005473ffffffffffffffffffffffffffffffffffffffff166101df565b6101a562093a8081565b6102d26102cd366004612323565b61122d565b6040516101af9190612548565b6102f26102ed366004612323565b61143b565b60405190151581526020016101af565b610217610310366004612323565b611564565b61023661032336600461233c565b6116b5565b6001546101a5565b6101df7f000000000000000000000000000000000000000000000000000000000000000081565b6101df7f000000000000000000000000000000000000000000000000000000000000000081565b6101a561038c3660046125f1565b611823565b610217611907565b6102176103a7366004612614565b611b39565b6102176103ba366004612653565b611ef7565b6101a568056bc75e2d6310000081565b6001546000908290811061040f576040517f0a55f88000000000000000000000000000000000000000000000000000000000815260040160405180910390fd5b6001838154811061042257610422612675565b90600052602060002090600502016004018054905091505b50919050565b6001548290811061047d576040517f0a55f88000000000000000000000000000000000000000000000000000000000815260040160405180910390fd5b600061048984846106dc565b90508061ffff166000036104c9576040517fa047d25300000000000000000000000000000000000000000000000000000000815260040160405180910390fd5b6000600185815481106104de576104de612675565b9060005260206000209060050201905060006104f73390565b90508073ffffffffffffffffffffffffffffffffffffffff1682600401868154811061052557610525612675565b60009182526020909120600290910201546601000000000000900473ffffffffffffffffffffffffffffffffffffffff161461058d576040517f1e09210400000000000000000000000000000000000000000000000000000000815260040160405180910390fd5b828260040186815481106105a3576105a3612675565b600091825260209091206002909102018054601a906105e59084907a010000000000000000000000000000000000000000000000000000900461ffff166126d3565b92506101000a81548161ffff021916908361ffff160217905550828260000160058282829054906101000a900461ffff1661062091906126d3565b92506101000a81548161ffff021916908361ffff1602179055506106488361ffff1682611f60565b61067e576040517f0d3db0d700000000000000000000000000000000000000000000000000000000815260040160405180910390fd5b6040805186815261ffff85166020820152879173ffffffffffffffffffffffffffffffffffffffff8416917fac0a054b174e5f4368c391eb036c0c042b90a176619d5fbf41bd1ef0e3025190910160405180910390a3505050505050565b6001546000908390811061071c576040517f0a55f88000000000000000000000000000000000000000000000000000000000815260040160405180910390fd5b6107258461143b565b61075b576040517fa5fe4be300000000000000000000000000000000000000000000000000000000815260040160405180910390fd5b60006001858154811061077057610770612675565b90600052602060002090600502019050838160040180549050116107c0576040517f3f613dd300000000000000000000000000000000000000000000000000000000815260040160405180910390fd5b60008160040185815481106107d7576107d7612675565b60009182526020909120600290910201547a010000000000000000000000000000000000000000000000000000900461ffff161115610842576040517f494ac78b00000000000000000000000000000000000000000000000000000000815260040160405180910390fd5b600081600401858154811061085957610859612675565b9060005260206000209060020201600101905060005b60038110156108b85781816003811061088a5761088a612675565b602081049091015460ff601f9092166101000a90041615156001036108b0578460010194505b60010161086f565b5050505092915050565b6108ca6120a5565b6108d460006120f8565b565b6108de61216d565b6001548390811061091b576040517f0a55f88000000000000000000000000000000000000000000000000000000000815260040160405180910390fd5b6001848154811061092e5761092e612675565b9060005260206000209060050201600401838154811061095057610950612675565b6000918252602080832060408051608081018252600294909402909101805465ffffffffffff811685526601000000000000810473ffffffffffffffffffffffffffffffffffffffff16938501939093527a01000000000000000000000000000000000000000000000000000090920461ffff168382015280516060808201928390529394929385019290916001850191600391908390855b825461010083900a900460ff1615158152602060019283018181049485019490930390920291018084116109e957905050505050508152505091505b5092915050565b610a346120a5565b821580610a415750828114155b15610a78576040517f9a5b513b00000000000000000000000000000000000000000000000000000000815260040160405180910390fd5b610a8860608601604087016126ff565b610a9860408701602088016126ff565b610aa560208801886126ff565b610aaf91906126d3565b610ab991906126d3565b610ad09061ffff1668056bc75e2d6310000061271a565b6040517f70a082310000000000000000000000000000000000000000000000000000000081523060048201527f000000000000000000000000000000000000000000000000000000000000000073ffffffffffffffffffffffffffffffffffffffff16906370a0823190602401602060405180830381865afa158015610b5a573d6000803e3d6000fd5b505050506040513d601f19601f82011682018060405250810190610b7e9190612731565b1015610bb6576040517f6a56423500000000000000000000000000000000000000000000000000000000815260040160405180910390fd5b610bc660408601602087016126ff565b61ffff16610bd760208701876126ff565b61ffff161080610c0c5750610bf260608601604087016126ff565b61ffff16610c0660408701602088016126ff565b61ffff16105b15610c43576040517f9482a43700000000000000000000000000000000000000000000000000000000815260040160405180910390fd5b610c4e60038461274a565b610c5b60208701876126ff565b61ffff161115610c97576040517f9482a43700000000000000000000000000000000000000000000000000000000815260040160405180910390fd5b6002610ca660208701876126ff565b610cb0919061278c565b61ffff16151580610cdf57506002610cce60408701602088016126ff565b610cd8919061278c565b61ffff1615155b80610d0857506002610cf760608701604088016126ff565b610d01919061278c565b61ffff1615155b15610d3f576040517f9482a43700000000000000000000000000000000000000000000000000000000815260040160405180910390fd5b60015460009015801590610d5f575060018054610d5c919061274a565b87145b15610dd55760018781548110610d7757610d77612675565b60009182526020909120600590910201805490915065010000000000900461ffff1615610dd0576040517fbf5be99e00000000000000000000000000000000000000000000000000000000815260040160405180910390fd5b610e43565b6001548703610e1157600180548101808255600082905288908110610dfc57610dfc612675565b90600052602060002090600502019050610e43565b6040517f0a55f88000000000000000000000000000000000000000000000000000000000815260040160405180910390fd5b610e5060208701876126ff565b60018201805461ffff92909216610100027fffffffffffffffffffffffffffffffffffffffffffffffffffffffffff0000ff909216919091179055610e9b60408701602088016126ff565b60028201805461ffff92909216610100027fffffffffffffffffffffffffffffffffffffffffffffffffffffffffff0000ff909216919091179055610ee660608701604088016126ff565b6003820180547fffffffffffffffffffffffffffffffffffffffffffffffffffffffffff0000ff1661010061ffff939093169290920291909117905580547fffffffffffffffffffffffffffffffffffffffffffffffffffffff0000000000164264ffffffffff16178155600481015415610f6957610f6960048201600061219b565b60408051606081018252600080825260208201819052918101829052905b858110156110f557826004016040518060800160405280898985818110610fb057610fb0612675565b9050602002016020810190610fc591906127b0565b65ffffffffffff168152602001878785818110610fe457610fe4612675565b9050602002016020810190610ff99190612653565b73ffffffffffffffffffffffffffffffffffffffff90811682526000602080840182905260409384018890528554600181810188559683529181902085516002909302018054918601519486015161ffff167a010000000000000000000000000000000000000000000000000000027fffffffff0000ffffffffffffffffffffffffffffffffffffffffffffffffffff959094166601000000000000027fffffffffffff000000000000000000000000000000000000000000000000000090921665ffffffffffff9093169290921717929092161781556060820151919290916110e79183019060036121bc565b505050806001019050610f87565b505060405187907fc89697ef728c0dbc131c1838d0b59ca47fc8614f4633a0cebcb990ef5db0110d9061112b9087908a906127cb565b60405180910390a250505050505050565b6001546000908390811061117c576040517f0a55f88000000000000000000000000000000000000000000000000000000000815260040160405180910390fd5b60006001858154811061119157611191612675565b9060005260206000209060050201600401905060005b81548110156111fa578465ffffffffffff168282815481106111cb576111cb612675565b600091825260209091206002909102015465ffffffffffff16036111f2579250610a259050565b6001016111a7565b506040517f3462926b00000000000000000000000000000000000000000000000000000000815260040160405180910390fd5b61123561224e565b60015482908110611272576040517f0a55f88000000000000000000000000000000000000000000000000000000000815260040160405180910390fd5b6001838154811061128557611285612675565b60009182526020808320604080516080810182526005909402909101805464ffffffffff8116855261ffff650100000000009091041692840192909252805160608101825292939192908401916001840190600390835b8282101561131957604080518082019091528483015460ff81168252610100900461ffff16602080830191909152908252600190920191016112dc565b50505050815260200160048201805480602002602001604051908101604052809291908181526020016000905b8282101561142c57600084815260208082206040805160808101825260028702909201805465ffffffffffff811684526601000000000000810473ffffffffffffffffffffffffffffffffffffffff16948401949094527a01000000000000000000000000000000000000000000000000000090930461ffff1682820152805160608082019283905292949285019290916001850191600391908390855b825461010083900a900460ff1615158152602060019283018181049485019490930390920291018084116113e457905050505050508152505081526020019060010190611346565b50505091525090949350505050565b6001546000908290811061147b576040517f0a55f88000000000000000000000000000000000000000000000000000000000815260040160405180910390fd5b60006001848154811061149057611490612675565b60009182526020909120600590910201805490915042906114bc906224ea009064ffffffffff1661280f565b10156114f4576040517fae609b1700000000000000000000000000000000000000000000000000000000815260040160405180910390fd5b8054429061150d9062093a809064ffffffffff1661280f565b101561151d57600192505061043a565b600181015460ff16158015906115395750600281015460ff1615155b801561154b5750600381015460ff1615155b1561155a57600192505061043a565b5060009392505050565b6000336040517f23b872dd00000000000000000000000000000000000000000000000000000000815273ffffffffffffffffffffffffffffffffffffffff8083166004830152306024830152604482018590529192507f0000000000000000000000000000000000000000000000000000000000000000909116906323b872dd906064016020604051808303816000875af1158015611607573d6000803e3d6000fd5b505050506040513d601f19601f8201168201806040525081019061162b9190612822565b611661576040517f045c4b0200000000000000000000000000000000000000000000000000000000815260040160405180910390fd5b8073ffffffffffffffffffffffffffffffffffffffff167fe1fffcc4923d04b559f4d29a8bfc6cda04eb5b0d3c460751c2402c5c5cc9109c836040516116a991815260200190565b60405180910390a25050565b600154600090839081106116f5576040517f0a55f88000000000000000000000000000000000000000000000000000000000815260040160405180910390fd5b6002831115611730576040517f3f613dd300000000000000000000000000000000000000000000000000000000815260040160405180910390fd5b60006001858154811061174557611745612675565b60009182526020909120600590910201805490915042906117719062093a809064ffffffffff1661280f565b10156117a9576040517f4da70d2700000000000000000000000000000000000000000000000000000000815260040160405180910390fd5b8060010184600381106117be576117be612675565b015460ff16156117fa576040517f646cf55800000000000000000000000000000000000000000000000000000000815260040160405180910390fd5b80600101846003811061180f5761180f612675565b0154610100900461ffff1695945050505050565b60015460009083908110611863576040517f0a55f88000000000000000000000000000000000000000000000000000000000815260040160405180910390fd5b60006001858154811061187857611878612675565b9060005260206000209060050201600401905060005b81548110156111fa578473ffffffffffffffffffffffffffffffffffffffff168282815481106118c0576118c0612675565b60009182526020909120600290910201546601000000000000900473ffffffffffffffffffffffffffffffffffffffff16036118ff579250610a259050565b60010161188e565b61190f6120a5565b6000336040517f70a0823100000000000000000000000000000000000000000000000000000000815230600482015290915060009073ffffffffffffffffffffffffffffffffffffffff7f000000000000000000000000000000000000000000000000000000000000000016906370a0823190602401602060405180830381865afa1580156119a2573d6000803e3d6000fd5b505050506040513d601f19601f820116820180604052508101906119c69190612731565b905080600003611a02576040517fd0d04f6000000000000000000000000000000000000000000000000000000000815260040160405180910390fd5b6040517fa9059cbb00000000000000000000000000000000000000000000000000000000815273ffffffffffffffffffffffffffffffffffffffff8381166004830152602482018390527f0000000000000000000000000000000000000000000000000000000000000000169063a9059cbb906044016020604051808303816000875af1158015611a97573d6000803e3d6000fd5b505050506040513d601f19601f82011682018060405250810190611abb9190612822565b611af1576040517f045c4b0200000000000000000000000000000000000000000000000000000000815260040160405180910390fd5b8173ffffffffffffffffffffffffffffffffffffffff167f5fafa99d0643513820be26656b45130b01e1c03062e1266bf36f88cbd3bd9695826040516116a991815260200190565b60015483908110611b76576040517f0a55f88000000000000000000000000000000000000000000000000000000000815260040160405180910390fd5b6000611b8285856116b5565b9050600060018681548110611b9957611b99612675565b906000526020600020906005020190506000611bb23390565b90508073ffffffffffffffffffffffffffffffffffffffff16826004018781548110611be057611be0612675565b60009182526020909120600290910201546601000000000000900473ffffffffffffffffffffffffffffffffffffffff1614611c48576040517f1e09210400000000000000000000000000000000000000000000000000000000815260040160405180910390fd5b6000808660ff16600103611c5e57849150611cc2565b8660ff16600203611c7e57611c74600286612844565b9050809150611cc2565b8660ff16600303611c90575083611cc2565b6040517ff2d09ba200000000000000000000000000000000000000000000000000000000815260040160405180910390fd5b86846001018960038110611cd857611cd8612675565b0180547fffffffffffffffffffffffffffffffffffffffffffffffffffffffffffffff001660ff9290921691909117905561ffff821615611e045781846004018981548110611d2957611d29612675565b600091825260209091206002909102018054601a90611d6b9084907a010000000000000000000000000000000000000000000000000000900461ffff166126d3565b92506101000a81548161ffff021916908361ffff160217905550818460000160058282829054906101000a900461ffff16611da691906126d3565b92506101000a81548161ffff021916908361ffff160217905550611dce8261ffff1684611f60565b611e04576040517f0d3db0d700000000000000000000000000000000000000000000000000000000815260040160405180910390fd5b61ffff811615611e855760035b8160030161ffff16811015611e83576001856004018281548110611e3757611e37612675565b90600052602060002090600202016001018a60038110611e5957611e59612675565b602091828204019190066101000a81548160ff021916908315150217905550806001019050611e11565b505b6040805189815260ff8916602082015261ffff848116828401528316606082015290518a9173ffffffffffffffffffffffffffffffffffffffff8616917fb12dce413aec88ddf22ba4a273ef71b9ddf7a09a68e269540f52220b12aa78c29181900360800190a3505050505050505050565b611eff6120a5565b73ffffffffffffffffffffffffffffffffffffffff8116611f54576040517f1e4fbdf7000000000000000000000000000000000000000000000000000000008152600060048201526024015b60405180910390fd5b611f5d816120f8565b50565b600073ffffffffffffffffffffffffffffffffffffffff7f00000000000000000000000000000000000000000000000000000000000000001663f74bfe8e7f000000000000000000000000000000000000000000000000000000000000000085611fd38168056bc75e2d6310000061271a565b6040517fffffffff0000000000000000000000000000000000000000000000000000000060e086901b16815273ffffffffffffffffffffffffffffffffffffffff93841660048201526024810192909252604482015290851660648201526084016020604051808303816000875af192505050801561208d575060408051601f3d9081017fffffffffffffffffffffffffffffffffffffffffffffffffffffffffffffffe016820190925261208a91810190612731565b60015b6120995750600061209f565b50600190505b92915050565b60005473ffffffffffffffffffffffffffffffffffffffff1633146108d4576040517f118cdaa7000000000000000000000000000000000000000000000000000000008152336004820152602401611f4b565b6000805473ffffffffffffffffffffffffffffffffffffffff8381167fffffffffffffffffffffffff0000000000000000000000000000000000000000831681178455604051919092169283917f8be0079c531659141344cd1fd0a4f28419497f9722a3daafe3b4186f6b6457e09190a35050565b60408051608081018252600080825260208201819052918101919091526060810161219661227a565b905290565b5080546000825560020290600052602060002090810190611f5d9190612298565b60018301918390821561223e5791602002820160005b8382111561220f57835183826101000a81548160ff02191690831515021790555092602001926001016020816000010492830192600103026121d2565b801561223c5782816101000a81549060ff021916905560010160208160000104928301926001030261220f565b505b5061224a9291506122d5565b5090565b604080516080810182526000808252602082015290810161226d6122ea565b8152602001606081525090565b60405180606001604052806003906020820280368337509192915050565b8082111561224a5780547fffffffff0000000000000000000000000000000000000000000000000000000016815560006001820155600201612298565b5b8082111561224a57600081556001016122d6565b60405180606001604052806003905b60408051808201909152600080825260208201528152602001906001900390816122f95790505090565b60006020828403121561233557600080fd5b5035919050565b6000806040838503121561234f57600080fd5b50508035926020909101359150565b65ffffffffffff815116825273ffffffffffffffffffffffffffffffffffffffff602082015116602083015261ffff604082015116604083015260608101516060830160005b60038110156123c557825115158252602092830192909101906001016123a4565b5050505050565b60c0810161209f828461235e565b60008083601f8401126123ec57600080fd5b50813567ffffffffffffffff81111561240457600080fd5b6020830191508360208260051b850101111561241f57600080fd5b9250929050565b60008060008060008060c0878903121561243f57600080fd5b86359550608087018881111561245457600080fd5b6020880195503567ffffffffffffffff81111561247057600080fd5b61247c89828a016123da565b90955093505060a087013567ffffffffffffffff81111561249c57600080fd5b6124a889828a016123da565b979a9699509497509295939492505050565b803565ffffffffffff811681146124d057600080fd5b919050565b600080604083850312156124e857600080fd5b823591506124f8602084016124ba565b90509250929050565b600081518084526020840193506020830160005b8281101561253e5761252886835161235e565b60c0959095019460209190910190600101612515565b5093949350505050565b6020815264ffffffffff825116602082015261ffff6020830151166040820152600060408301516060830160005b60038110156125a8578251805160ff16835260209081015161ffff168184015290920191604090910190600101612576565b5050506060830151610120808401526125c5610140840182612501565b949350505050565b803573ffffffffffffffffffffffffffffffffffffffff811681146124d057600080fd5b6000806040838503121561260457600080fd5b823591506124f8602084016125cd565b60008060006060848603121561262957600080fd5b8335925060208401359150604084013560ff8116811461264857600080fd5b809150509250925092565b60006020828403121561266557600080fd5b61266e826125cd565b9392505050565b7f4e487b7100000000000000000000000000000000000000000000000000000000600052603260045260246000fd5b7f4e487b7100000000000000000000000000000000000000000000000000000000600052601160045260246000fd5b61ffff818116838216019081111561209f5761209f6126a4565b803561ffff811681146124d057600080fd5b60006020828403121561271157600080fd5b61266e826126ed565b808202811582820484141761209f5761209f6126a4565b60006020828403121561274357600080fd5b5051919050565b8181038181111561209f5761209f6126a4565b7f4e487b7100000000000000000000000000000000000000000000000000000000600052601260045260246000fd5b600061ffff8316806127a0576127a061275d565b8061ffff84160691505092915050565b6000602082840312156127c257600080fd5b61266e826124ba565b82815260808101602082018360005b60038110156128055761ffff6127ef836126ed565b16835260209283019291909101906001016127da565b5050509392505050565b8082018082111561209f5761209f6126a4565b60006020828403121561283457600080fd5b8151801515811461266e57600080fd5b600061ffff8316806128585761285861275d565b8061ffff8416049150509291505056fea2646970667358221220985e6ae02ecf8229d98decd11c04f8fd79e4766810569dc0b7dc8144921faf6a64736f6c634300081a0033",
          "opcodes": "PUSH1 0xE0 PUSH1 0x40 MSTORE CALLVALUE DUP1 ISZERO PUSH2 0x10 JUMPI PUSH1 0x0 DUP1 REVERT JUMPDEST POP PUSH1 0x40 MLOAD PUSH2 0x2ABE CODESIZE SUB DUP1 PUSH2 0x2ABE DUP4 CODECOPY DUP2 ADD PUSH1 0x40 DUP2 SWAP1 MSTORE PUSH2 0x2F SWAP2 PUSH2 0x15B JUMP JUMPDEST CALLER DUP1 PUSH2 0x55 JUMPI PUSH1 0x40 MLOAD PUSH4 0x1E4FBDF7 PUSH1 0xE0 SHL DUP2 MSTORE PUSH1 0x0 PUSH1 0x4 DUP3 ADD MSTORE PUSH1 0x24 ADD PUSH1 0x40 MLOAD DUP1 SWAP2 SUB SWAP1 REVERT JUMPDEST PUSH2 0x5E DUP2 PUSH2 0xEF JUMP JUMPDEST POP PUSH1 0x1 PUSH1 0x1 PUSH1 0xA0 SHL SUB DUP4 DUP2 AND PUSH1 0xA0 DUP2 SWAP1 MSTORE DUP4 DUP3 AND PUSH1 0x80 DUP2 SWAP1 MSTORE SWAP2 DUP4 AND PUSH1 0xC0 MSTORE PUSH1 0x40 MLOAD PUSH4 0x95EA7B3 PUSH1 0xE0 SHL DUP2 MSTORE PUSH1 0x4 DUP2 ADD SWAP2 SWAP1 SWAP2 MSTORE PUSH1 0x0 NOT PUSH1 0x24 DUP3 ADD MSTORE PUSH4 0x95EA7B3 SWAP1 PUSH1 0x44 ADD PUSH1 0x20 PUSH1 0x40 MLOAD DUP1 DUP4 SUB DUP2 PUSH1 0x0 DUP8 GAS CALL ISZERO DUP1 ISZERO PUSH2 0xC2 JUMPI RETURNDATASIZE PUSH1 0x0 DUP1 RETURNDATACOPY RETURNDATASIZE PUSH1 0x0 REVERT JUMPDEST POP POP POP POP PUSH1 0x40 MLOAD RETURNDATASIZE PUSH1 0x1F NOT PUSH1 0x1F DUP3 ADD AND DUP3 ADD DUP1 PUSH1 0x40 MSTORE POP DUP2 ADD SWAP1 PUSH2 0xE6 SWAP2 SWAP1 PUSH2 0x19E JUMP JUMPDEST POP POP POP POP PUSH2 0x1C7 JUMP JUMPDEST PUSH1 0x0 DUP1 SLOAD PUSH1 0x1 PUSH1 0x1 PUSH1 0xA0 SHL SUB DUP4 DUP2 AND PUSH1 0x1 PUSH1 0x1 PUSH1 0xA0 SHL SUB NOT DUP4 AND DUP2 OR DUP5 SSTORE PUSH1 0x40 MLOAD SWAP2 SWAP1 SWAP3 AND SWAP3 DUP4 SWAP2 PUSH32 0x8BE0079C531659141344CD1FD0A4F28419497F9722A3DAAFE3B4186F6B6457E0 SWAP2 SWAP1 LOG3 POP POP JUMP JUMPDEST DUP1 MLOAD PUSH1 0x1 PUSH1 0x1 PUSH1 0xA0 SHL SUB DUP2 AND DUP2 EQ PUSH2 0x156 JUMPI PUSH1 0x0 DUP1 REVERT JUMPDEST SWAP2 SWAP1 POP JUMP JUMPDEST PUSH1 0x0 DUP1 PUSH1 0x0 PUSH1 0x60 DUP5 DUP7 SUB SLT ISZERO PUSH2 0x170 JUMPI PUSH1 0x0 DUP1 REVERT JUMPDEST PUSH2 0x179 DUP5 PUSH2 0x13F JUMP JUMPDEST SWAP3 POP PUSH2 0x187 PUSH1 0x20 DUP6 ADD PUSH2 0x13F JUMP JUMPDEST SWAP2 POP PUSH2 0x195 PUSH1 0x40 DUP6 ADD PUSH2 0x13F JUMP JUMPDEST SWAP1 POP SWAP3 POP SWAP3 POP SWAP3 JUMP JUMPDEST PUSH1 0x0 PUSH1 0x20 DUP3 DUP5 SUB SLT ISZERO PUSH2 0x1B0 JUMPI PUSH1 0x0 DUP1 REVERT JUMPDEST DUP2 MLOAD DUP1 ISZERO ISZERO DUP2 EQ PUSH2 0x1C0 JUMPI PUSH1 0x0 DUP1 REVERT JUMPDEST SWAP4 SWAP3 POP POP POP JUMP JUMPDEST PUSH1 0x80 MLOAD PUSH1 0xA0 MLOAD PUSH1 0xC0 MLOAD PUSH2 0x289E PUSH2 0x220 PUSH1 0x0 CODECOPY PUSH1 0x0 DUP2 DUP2 PUSH2 0x1BD ADD MSTORE PUSH2 0x1FA0 ADD MSTORE PUSH1 0x0 DUP2 DUP2 PUSH2 0x335 ADD MSTORE PUSH2 0x1F79 ADD MSTORE PUSH1 0x0 DUP2 DUP2 PUSH2 0x35C ADD MSTORE DUP2 DUP2 PUSH2 0xAFE ADD MSTORE DUP2 DUP2 PUSH2 0x15BC ADD MSTORE DUP2 DUP2 PUSH2 0x195B ADD MSTORE PUSH2 0x1A4E ADD MSTORE PUSH2 0x289E PUSH1 0x0 RETURN INVALID PUSH1 0x80 PUSH1 0x40 MSTORE CALLVALUE DUP1 ISZERO PUSH2 0x10 JUMPI PUSH1 0x0 DUP1 REVERT JUMPDEST POP PUSH1 0x4 CALLDATASIZE LT PUSH2 0x18D JUMPI PUSH1 0x0 CALLDATALOAD PUSH1 0xE0 SHR DUP1 PUSH4 0xA43D8654 GT PUSH2 0xE3 JUMPI DUP1 PUSH4 0xCEFA8922 GT PUSH2 0x8C JUMPI DUP1 PUSH4 0xE70D6893 GT PUSH2 0x66 JUMPI DUP1 PUSH4 0xE70D6893 EQ PUSH2 0x399 JUMPI DUP1 PUSH4 0xF2FDE38B EQ PUSH2 0x3AC JUMPI DUP1 PUSH4 0xFDDD6397 EQ PUSH2 0x3BF JUMPI PUSH1 0x0 DUP1 REVERT JUMPDEST DUP1 PUSH4 0xCEFA8922 EQ PUSH2 0x357 JUMPI DUP1 PUSH4 0xD88F836A EQ PUSH2 0x37E JUMPI DUP1 PUSH4 0xDB2E21BC EQ PUSH2 0x391 JUMPI PUSH1 0x0 DUP1 REVERT JUMPDEST DUP1 PUSH4 0xB86C9E5E GT PUSH2 0xBD JUMPI DUP1 PUSH4 0xB86C9E5E EQ PUSH2 0x315 JUMPI DUP1 PUSH4 0xBCB39621 EQ PUSH2 0x328 JUMPI DUP1 PUSH4 0xC1C1D218 EQ PUSH2 0x330 JUMPI PUSH1 0x0 DUP1 REVERT JUMPDEST DUP1 PUSH4 0xA43D8654 EQ PUSH2 0x2BF JUMPI DUP1 PUSH4 0xA51710DD EQ PUSH2 0x2DF JUMPI DUP1 PUSH4 0xB6B55F25 EQ PUSH2 0x302 JUMPI PUSH1 0x0 DUP1 REVERT JUMPDEST DUP1 PUSH4 0x715018A6 GT PUSH2 0x145 JUMPI DUP1 PUSH4 0x813D243C GT PUSH2 0x11F JUMPI DUP1 PUSH4 0x813D243C EQ PUSH2 0x284 JUMPI DUP1 PUSH4 0x8DA5CB5B EQ PUSH2 0x297 JUMPI DUP1 PUSH4 0x94285922 EQ PUSH2 0x2B5 JUMPI PUSH1 0x0 DUP1 REVERT JUMPDEST DUP1 PUSH4 0x715018A6 EQ PUSH2 0x249 JUMPI DUP1 PUSH4 0x71E20CDC EQ PUSH2 0x251 JUMPI DUP1 PUSH4 0x73D5F652 EQ PUSH2 0x271 JUMPI PUSH1 0x0 DUP1 REVERT JUMPDEST DUP1 PUSH4 0x218FF65A GT PUSH2 0x176 JUMPI DUP1 PUSH4 0x218FF65A EQ PUSH2 0x204 JUMPI DUP1 PUSH4 0x45FBCAFA EQ PUSH2 0x219 JUMPI DUP1 PUSH4 0x6A13F0CB EQ PUSH2 0x223 JUMPI PUSH1 0x0 DUP1 REVERT JUMPDEST DUP1 PUSH4 0x3956C7E EQ PUSH2 0x192 JUMPI DUP1 PUSH4 0xC933EDF EQ PUSH2 0x1B8 JUMPI JUMPDEST PUSH1 0x0 DUP1 REVERT JUMPDEST PUSH2 0x1A5 PUSH2 0x1A0 CALLDATASIZE PUSH1 0x4 PUSH2 0x2323 JUMP JUMPDEST PUSH2 0x3CF JUMP JUMPDEST PUSH1 0x40 MLOAD SWAP1 DUP2 MSTORE PUSH1 0x20 ADD JUMPDEST PUSH1 0x40 MLOAD DUP1 SWAP2 SUB SWAP1 RETURN JUMPDEST PUSH2 0x1DF PUSH32 0x0 DUP2 JUMP JUMPDEST PUSH1 0x40 MLOAD PUSH20 0xFFFFFFFFFFFFFFFFFFFFFFFFFFFFFFFFFFFFFFFF SWAP1 SWAP2 AND DUP2 MSTORE PUSH1 0x20 ADD PUSH2 0x1AF JUMP JUMPDEST PUSH2 0x217 PUSH2 0x212 CALLDATASIZE PUSH1 0x4 PUSH2 0x233C JUMP JUMPDEST PUSH2 0x440 JUMP JUMPDEST STOP JUMPDEST PUSH2 0x1A5 PUSH3 0x24EA00 DUP2 JUMP JUMPDEST PUSH2 0x236 PUSH2 0x231 CALLDATASIZE PUSH1 0x4 PUSH2 0x233C JUMP JUMPDEST PUSH2 0x6DC JUMP JUMPDEST PUSH1 0x40 MLOAD PUSH2 0xFFFF SWAP1 SWAP2 AND DUP2 MSTORE PUSH1 0x20 ADD PUSH2 0x1AF JUMP JUMPDEST PUSH2 0x217 PUSH2 0x8C2 JUMP JUMPDEST PUSH2 0x264 PUSH2 0x25F CALLDATASIZE PUSH1 0x4 PUSH2 0x233C JUMP JUMPDEST PUSH2 0x8D6 JUMP JUMPDEST PUSH1 0x40 MLOAD PUSH2 0x1AF SWAP2 SWAP1 PUSH2 0x23CC JUMP JUMPDEST PUSH2 0x217 PUSH2 0x27F CALLDATASIZE PUSH1 0x4 PUSH2 0x2426 JUMP JUMPDEST PUSH2 0xA2C JUMP JUMPDEST PUSH2 0x1A5 PUSH2 0x292 CALLDATASIZE PUSH1 0x4 PUSH2 0x24D5 JUMP JUMPDEST PUSH2 0x113C JUMP JUMPDEST PUSH1 0x0 SLOAD PUSH20 0xFFFFFFFFFFFFFFFFFFFFFFFFFFFFFFFFFFFFFFFF AND PUSH2 0x1DF JUMP JUMPDEST PUSH2 0x1A5 PUSH3 0x93A80 DUP2 JUMP JUMPDEST PUSH2 0x2D2 PUSH2 0x2CD CALLDATASIZE PUSH1 0x4 PUSH2 0x2323 JUMP JUMPDEST PUSH2 0x122D JUMP JUMPDEST PUSH1 0x40 MLOAD PUSH2 0x1AF SWAP2 SWAP1 PUSH2 0x2548 JUMP JUMPDEST PUSH2 0x2F2 PUSH2 0x2ED CALLDATASIZE PUSH1 0x4 PUSH2 0x2323 JUMP JUMPDEST PUSH2 0x143B JUMP JUMPDEST PUSH1 0x40 MLOAD SWAP1 ISZERO ISZERO DUP2 MSTORE PUSH1 0x20 ADD PUSH2 0x1AF JUMP JUMPDEST PUSH2 0x217 PUSH2 0x310 CALLDATASIZE PUSH1 0x4 PUSH2 0x2323 JUMP JUMPDEST PUSH2 0x1564 JUMP JUMPDEST PUSH2 0x236 PUSH2 0x323 CALLDATASIZE PUSH1 0x4 PUSH2 0x233C JUMP JUMPDEST PUSH2 0x16B5 JUMP JUMPDEST PUSH1 0x1 SLOAD PUSH2 0x1A5 JUMP JUMPDEST PUSH2 0x1DF PUSH32 0x0 DUP2 JUMP JUMPDEST PUSH2 0x1DF PUSH32 0x0 DUP2 JUMP JUMPDEST PUSH2 0x1A5 PUSH2 0x38C CALLDATASIZE PUSH1 0x4 PUSH2 0x25F1 JUMP JUMPDEST PUSH2 0x1823 JUMP JUMPDEST PUSH2 0x217 PUSH2 0x1907 JUMP JUMPDEST PUSH2 0x217 PUSH2 0x3A7 CALLDATASIZE PUSH1 0x4 PUSH2 0x2614 JUMP JUMPDEST PUSH2 0x1B39 JUMP JUMPDEST PUSH2 0x217 PUSH2 0x3BA CALLDATASIZE PUSH1 0x4 PUSH2 0x2653 JUMP JUMPDEST PUSH2 0x1EF7 JUMP JUMPDEST PUSH2 0x1A5 PUSH9 0x56BC75E2D63100000 DUP2 JUMP JUMPDEST PUSH1 0x1 SLOAD PUSH1 0x0 SWAP1 DUP3 SWAP1 DUP2 LT PUSH2 0x40F JUMPI PUSH1 0x40 MLOAD PUSH32 0xA55F88000000000000000000000000000000000000000000000000000000000 DUP2 MSTORE PUSH1 0x4 ADD PUSH1 0x40 MLOAD DUP1 SWAP2 SUB SWAP1 REVERT JUMPDEST PUSH1 0x1 DUP4 DUP2 SLOAD DUP2 LT PUSH2 0x422 JUMPI PUSH2 0x422 PUSH2 0x2675 JUMP JUMPDEST SWAP1 PUSH1 0x0 MSTORE PUSH1 0x20 PUSH1 0x0 KECCAK256 SWAP1 PUSH1 0x5 MUL ADD PUSH1 0x4 ADD DUP1 SLOAD SWAP1 POP SWAP2 POP JUMPDEST POP SWAP2 SWAP1 POP JUMP JUMPDEST PUSH1 0x1 SLOAD DUP3 SWAP1 DUP2 LT PUSH2 0x47D JUMPI PUSH1 0x40 MLOAD PUSH32 0xA55F88000000000000000000000000000000000000000000000000000000000 DUP2 MSTORE PUSH1 0x4 ADD PUSH1 0x40 MLOAD DUP1 SWAP2 SUB SWAP1 REVERT JUMPDEST PUSH1 0x0 PUSH2 0x489 DUP5 DUP5 PUSH2 0x6DC JUMP JUMPDEST SWAP1 POP DUP1 PUSH2 0xFFFF AND PUSH1 0x0 SUB PUSH2 0x4C9 JUMPI PUSH1 0x40 MLOAD PUSH32 0xA047D25300000000000000000000000000000000000000000000000000000000 DUP2 MSTORE PUSH1 0x4 ADD PUSH1 0x40 MLOAD DUP1 SWAP2 SUB SWAP1 REVERT JUMPDEST PUSH1 0x0 PUSH1 0x1 DUP6 DUP2 SLOAD DUP2 LT PUSH2 0x4DE JUMPI PUSH2 0x4DE PUSH2 0x2675 JUMP JUMPDEST SWAP1 PUSH1 0x0 MSTORE PUSH1 0x20 PUSH1 0x0 KECCAK256 SWAP1 PUSH1 0x5 MUL ADD SWAP1 POP PUSH1 0x0 PUSH2 0x4F7 CALLER SWAP1 JUMP JUMPDEST SWAP1 POP DUP1 PUSH20 0xFFFFFFFFFFFFFFFFFFFFFFFFFFFFFFFFFFFFFFFF AND DUP3 PUSH1 0x4 ADD DUP7 DUP2 SLOAD DUP2 LT PUSH2 0x525 JUMPI PUSH2 0x525 PUSH2 0x2675 JUMP JUMPDEST PUSH1 0x0 SWAP2 DUP3 MSTORE PUSH1 0x20 SWAP1 SWAP2 KECCAK256 PUSH1 0x2 SWAP1 SWAP2 MUL ADD SLOAD PUSH7 0x1000000000000 SWAP1 DIV PUSH20 0xFFFFFFFFFFFFFFFFFFFFFFFFFFFFFFFFFFFFFFFF AND EQ PUSH2 0x58D JUMPI PUSH1 0x40 MLOAD PUSH32 0x1E09210400000000000000000000000000000000000000000000000000000000 DUP2 MSTORE PUSH1 0x4 ADD PUSH1 0x40 MLOAD DUP1 SWAP2 SUB SWAP1 REVERT JUMPDEST DUP3 DUP3 PUSH1 0x4 ADD DUP7 DUP2 SLOAD DUP2 LT PUSH2 0x5A3 JUMPI PUSH2 0x5A3 PUSH2 0x2675 JUMP JUMPDEST PUSH1 0x0 SWAP2 DUP3 MSTORE PUSH1 0x20 SWAP1 SWAP2 KECCAK256 PUSH1 0x2 SWAP1 SWAP2 MUL ADD DUP1 SLOAD PUSH1 0x1A SWAP1 PUSH2 0x5E5 SWAP1 DUP5 SWAP1 PUSH27 0x10000000000000000000000000000000000000000000000000000 SWAP1 DIV PUSH2 0xFFFF AND PUSH2 0x26D3 JUMP JUMPDEST SWAP3 POP PUSH2 0x100 EXP DUP2 SLOAD DUP2 PUSH2 0xFFFF MUL NOT AND SWAP1 DUP4 PUSH2 0xFFFF AND MUL OR SWAP1 SSTORE POP DUP3 DUP3 PUSH1 0x0 ADD PUSH1 0x5 DUP3 DUP3 DUP3 SWAP1 SLOAD SWAP1 PUSH2 0x100 EXP SWAP1 DIV PUSH2 0xFFFF AND PUSH2 0x620 SWAP2 SWAP1 PUSH2 0x26D3 JUMP JUMPDEST SWAP3 POP PUSH2 0x100 EXP DUP2 SLOAD DUP2 PUSH2 0xFFFF MUL NOT AND SWAP1 DUP4 PUSH2 0xFFFF AND MUL OR SWAP1 SSTORE POP PUSH2 0x648 DUP4 PUSH2 0xFFFF AND DUP3 PUSH2 0x1F60 JUMP JUMPDEST PUSH2 0x67E JUMPI PUSH1 0x40 MLOAD PUSH32 0xD3DB0D700000000000000000000000000000000000000000000000000000000 DUP2 MSTORE PUSH1 0x4 ADD PUSH1 0x40 MLOAD DUP1 SWAP2 SUB SWAP1 REVERT JUMPDEST PUSH1 0x40 DUP1 MLOAD DUP7 DUP2 MSTORE PUSH2 0xFFFF DUP6 AND PUSH1 0x20 DUP3 ADD MSTORE DUP8 SWAP2 PUSH20 0xFFFFFFFFFFFFFFFFFFFFFFFFFFFFFFFFFFFFFFFF DUP5 AND SWAP2 PUSH32 0xAC0A054B174E5F4368C391EB036C0C042B90A176619D5FBF41BD1EF0E3025190 SWAP2 ADD PUSH1 0x40 MLOAD DUP1 SWAP2 SUB SWAP1 LOG3 POP POP POP POP POP POP JUMP JUMPDEST PUSH1 0x1 SLOAD PUSH1 0x0 SWAP1 DUP4 SWAP1 DUP2 LT PUSH2 0x71C JUMPI PUSH1 0x40 MLOAD PUSH32 0xA55F88000000000000000000000000000000000000000000000000000000000 DUP2 MSTORE PUSH1 0x4 ADD PUSH1 0x40 MLOAD DUP1 SWAP2 SUB SWAP1 REVERT JUMPDEST PUSH2 0x725 DUP5 PUSH2 0x143B JUMP JUMPDEST PUSH2 0x75B JUMPI PUSH1 0x40 MLOAD PUSH32 0xA5FE4BE300000000000000000000000000000000000000000000000000000000 DUP2 MSTORE PUSH1 0x4 ADD PUSH1 0x40 MLOAD DUP1 SWAP2 SUB SWAP1 REVERT JUMPDEST PUSH1 0x0 PUSH1 0x1 DUP6 DUP2 SLOAD DUP2 LT PUSH2 0x770 JUMPI PUSH2 0x770 PUSH2 0x2675 JUMP JUMPDEST SWAP1 PUSH1 0x0 MSTORE PUSH1 0x20 PUSH1 0x0 KECCAK256 SWAP1 PUSH1 0x5 MUL ADD SWAP1 POP DUP4 DUP2 PUSH1 0x4 ADD DUP1 SLOAD SWAP1 POP GT PUSH2 0x7C0 JUMPI PUSH1 0x40 MLOAD PUSH32 0x3F613DD300000000000000000000000000000000000000000000000000000000 DUP2 MSTORE PUSH1 0x4 ADD PUSH1 0x40 MLOAD DUP1 SWAP2 SUB SWAP1 REVERT JUMPDEST PUSH1 0x0 DUP2 PUSH1 0x4 ADD DUP6 DUP2 SLOAD DUP2 LT PUSH2 0x7D7 JUMPI PUSH2 0x7D7 PUSH2 0x2675 JUMP JUMPDEST PUSH1 0x0 SWAP2 DUP3 MSTORE PUSH1 0x20 SWAP1 SWAP2 KECCAK256 PUSH1 0x2 SWAP1 SWAP2 MUL ADD SLOAD PUSH27 0x10000000000000000000000000000000000000000000000000000 SWAP1 DIV PUSH2 0xFFFF AND GT ISZERO PUSH2 0x842 JUMPI PUSH1 0x40 MLOAD PUSH32 0x494AC78B00000000000000000000000000000000000000000000000000000000 DUP2 MSTORE PUSH1 0x4 ADD PUSH1 0x40 MLOAD DUP1 SWAP2 SUB SWAP1 REVERT JUMPDEST PUSH1 0x0 DUP2 PUSH1 0x4 ADD DUP6 DUP2 SLOAD DUP2 LT PUSH2 0x859 JUMPI PUSH2 0x859 PUSH2 0x2675 JUMP JUMPDEST SWAP1 PUSH1 0x0 MSTORE PUSH1 0x20 PUSH1 0x0 KECCAK256 SWAP1 PUSH1 0x2 MUL ADD PUSH1 0x1 ADD SWAP1 POP PUSH1 0x0 JUMPDEST PUSH1 0x3 DUP2 LT ISZERO PUSH2 0x8B8 JUMPI DUP2 DUP2 PUSH1 0x3 DUP2 LT PUSH2 0x88A JUMPI PUSH2 0x88A PUSH2 0x2675 JUMP JUMPDEST PUSH1 0x20 DUP2 DIV SWAP1 SWAP2 ADD SLOAD PUSH1 0xFF PUSH1 0x1F SWAP1 SWAP3 AND PUSH2 0x100 EXP SWAP1 DIV AND ISZERO ISZERO PUSH1 0x1 SUB PUSH2 0x8B0 JUMPI DUP5 PUSH1 0x1 ADD SWAP5 POP JUMPDEST PUSH1 0x1 ADD PUSH2 0x86F JUMP JUMPDEST POP POP POP POP SWAP3 SWAP2 POP POP JUMP JUMPDEST PUSH2 0x8CA PUSH2 0x20A5 JUMP JUMPDEST PUSH2 0x8D4 PUSH1 0x0 PUSH2 0x20F8 JUMP JUMPDEST JUMP JUMPDEST PUSH2 0x8DE PUSH2 0x216D JUMP JUMPDEST PUSH1 0x1 SLOAD DUP4 SWAP1 DUP2 LT PUSH2 0x91B JUMPI PUSH1 0x40 MLOAD PUSH32 0xA55F88000000000000000000000000000000000000000000000000000000000 DUP2 MSTORE PUSH1 0x4 ADD PUSH1 0x40 MLOAD DUP1 SWAP2 SUB SWAP1 REVERT JUMPDEST PUSH1 0x1 DUP5 DUP2 SLOAD DUP2 LT PUSH2 0x92E JUMPI PUSH2 0x92E PUSH2 0x2675 JUMP JUMPDEST SWAP1 PUSH1 0x0 MSTORE PUSH1 0x20 PUSH1 0x0 KECCAK256 SWAP1 PUSH1 0x5 MUL ADD PUSH1 0x4 ADD DUP4 DUP2 SLOAD DUP2 LT PUSH2 0x950 JUMPI PUSH2 0x950 PUSH2 0x2675 JUMP JUMPDEST PUSH1 0x0 SWAP2 DUP3 MSTORE PUSH1 0x20 DUP1 DUP4 KECCAK256 PUSH1 0x40 DUP1 MLOAD PUSH1 0x80 DUP2 ADD DUP3 MSTORE PUSH1 0x2 SWAP5 SWAP1 SWAP5 MUL SWAP1 SWAP2 ADD DUP1 SLOAD PUSH6 0xFFFFFFFFFFFF DUP2 AND DUP6 MSTORE PUSH7 0x1000000000000 DUP2 DIV PUSH20 0xFFFFFFFFFFFFFFFFFFFFFFFFFFFFFFFFFFFFFFFF AND SWAP4 DUP6 ADD SWAP4 SWAP1 SWAP4 MSTORE PUSH27 0x10000000000000000000000000000000000000000000000000000 SWAP1 SWAP3 DIV PUSH2 0xFFFF AND DUP4 DUP3 ADD MSTORE DUP1 MLOAD PUSH1 0x60 DUP1 DUP3 ADD SWAP3 DUP4 SWAP1 MSTORE SWAP4 SWAP5 SWAP3 SWAP4 DUP6 ADD SWAP3 SWAP1 SWAP2 PUSH1 0x1 DUP6 ADD SWAP2 PUSH1 0x3 SWAP2 SWAP1 DUP4 SWAP1 DUP6 JUMPDEST DUP3 SLOAD PUSH2 0x100 DUP4 SWAP1 EXP SWAP1 DIV PUSH1 0xFF AND ISZERO ISZERO DUP2 MSTORE PUSH1 0x20 PUSH1 0x1 SWAP3 DUP4 ADD DUP2 DUP2 DIV SWAP5 DUP6 ADD SWAP5 SWAP1 SWAP4 SUB SWAP1 SWAP3 MUL SWAP2 ADD DUP1 DUP5 GT PUSH2 0x9E9 JUMPI SWAP1 POP POP POP POP POP POP DUP2 MSTORE POP POP SWAP2 POP JUMPDEST POP SWAP3 SWAP2 POP POP JUMP JUMPDEST PUSH2 0xA34 PUSH2 0x20A5 JUMP JUMPDEST DUP3 ISZERO DUP1 PUSH2 0xA41 JUMPI POP DUP3 DUP2 EQ ISZERO JUMPDEST ISZERO PUSH2 0xA78 JUMPI PUSH1 0x40 MLOAD PUSH32 0x9A5B513B00000000000000000000000000000000000000000000000000000000 DUP2 MSTORE PUSH1 0x4 ADD PUSH1 0x40 MLOAD DUP1 SWAP2 SUB SWAP1 REVERT JUMPDEST PUSH2 0xA88 PUSH1 0x60 DUP7 ADD PUSH1 0x40 DUP8 ADD PUSH2 0x26FF JUMP JUMPDEST PUSH2 0xA98 PUSH1 0x40 DUP8 ADD PUSH1 0x20 DUP9 ADD PUSH2 0x26FF JUMP JUMPDEST PUSH2 0xAA5 PUSH1 0x20 DUP9 ADD DUP9 PUSH2 0x26FF JUMP JUMPDEST PUSH2 0xAAF SWAP2 SWAP1 PUSH2 0x26D3 JUMP JUMPDEST PUSH2 0xAB9 SWAP2 SWAP1 PUSH2 0x26D3 JUMP JUMPDEST PUSH2 0xAD0 SWAP1 PUSH2 0xFFFF AND PUSH9 0x56BC75E2D63100000 PUSH2 0x271A JUMP JUMPDEST PUSH1 0x40 MLOAD PUSH32 0x70A0823100000000000000000000000000000000000000000000000000000000 DUP2 MSTORE ADDRESS PUSH1 0x4 DUP3 ADD MSTORE PUSH32 0x0 PUSH20 0xFFFFFFFFFFFFFFFFFFFFFFFFFFFFFFFFFFFFFFFF AND SWAP1 PUSH4 0x70A08231 SWAP1 PUSH1 0x24 ADD PUSH1 0x20 PUSH1 0x40 MLOAD DUP1 DUP4 SUB DUP2 DUP7 GAS STATICCALL ISZERO DUP1 ISZERO PUSH2 0xB5A JUMPI RETURNDATASIZE PUSH1 0x0 DUP1 RETURNDATACOPY RETURNDATASIZE PUSH1 0x0 REVERT JUMPDEST POP POP POP POP PUSH1 0x40 MLOAD RETURNDATASIZE PUSH1 0x1F NOT PUSH1 0x1F DUP3 ADD AND DUP3 ADD DUP1 PUSH1 0x40 MSTORE POP DUP2 ADD SWAP1 PUSH2 0xB7E SWAP2 SWAP1 PUSH2 0x2731 JUMP JUMPDEST LT ISZERO PUSH2 0xBB6 JUMPI PUSH1 0x40 MLOAD PUSH32 0x6A56423500000000000000000000000000000000000000000000000000000000 DUP2 MSTORE PUSH1 0x4 ADD PUSH1 0x40 MLOAD DUP1 SWAP2 SUB SWAP1 REVERT JUMPDEST PUSH2 0xBC6 PUSH1 0x40 DUP7 ADD PUSH1 0x20 DUP8 ADD PUSH2 0x26FF JUMP JUMPDEST PUSH2 0xFFFF AND PUSH2 0xBD7 PUSH1 0x20 DUP8 ADD DUP8 PUSH2 0x26FF JUMP JUMPDEST PUSH2 0xFFFF AND LT DUP1 PUSH2 0xC0C JUMPI POP PUSH2 0xBF2 PUSH1 0x60 DUP7 ADD PUSH1 0x40 DUP8 ADD PUSH2 0x26FF JUMP JUMPDEST PUSH2 0xFFFF AND PUSH2 0xC06 PUSH1 0x40 DUP8 ADD PUSH1 0x20 DUP9 ADD PUSH2 0x26FF JUMP JUMPDEST PUSH2 0xFFFF AND LT JUMPDEST ISZERO PUSH2 0xC43 JUMPI PUSH1 0x40 MLOAD PUSH32 0x9482A43700000000000000000000000000000000000000000000000000000000 DUP2 MSTORE PUSH1 0x4 ADD PUSH1 0x40 MLOAD DUP1 SWAP2 SUB SWAP1 REVERT JUMPDEST PUSH2 0xC4E PUSH1 0x3 DUP5 PUSH2 0x274A JUMP JUMPDEST PUSH2 0xC5B PUSH1 0x20 DUP8 ADD DUP8 PUSH2 0x26FF JUMP JUMPDEST PUSH2 0xFFFF AND GT ISZERO PUSH2 0xC97 JUMPI PUSH1 0x40 MLOAD PUSH32 0x9482A43700000000000000000000000000000000000000000000000000000000 DUP2 MSTORE PUSH1 0x4 ADD PUSH1 0x40 MLOAD DUP1 SWAP2 SUB SWAP1 REVERT JUMPDEST PUSH1 0x2 PUSH2 0xCA6 PUSH1 0x20 DUP8 ADD DUP8 PUSH2 0x26FF JUMP JUMPDEST PUSH2 0xCB0 SWAP2 SWAP1 PUSH2 0x278C JUMP JUMPDEST PUSH2 0xFFFF AND ISZERO ISZERO DUP1 PUSH2 0xCDF JUMPI POP PUSH1 0x2 PUSH2 0xCCE PUSH1 0x40 DUP8 ADD PUSH1 0x20 DUP9 ADD PUSH2 0x26FF JUMP JUMPDEST PUSH2 0xCD8 SWAP2 SWAP1 PUSH2 0x278C JUMP JUMPDEST PUSH2 0xFFFF AND ISZERO ISZERO JUMPDEST DUP1 PUSH2 0xD08 JUMPI POP PUSH1 0x2 PUSH2 0xCF7 PUSH1 0x60 DUP8 ADD PUSH1 0x40 DUP9 ADD PUSH2 0x26FF JUMP JUMPDEST PUSH2 0xD01 SWAP2 SWAP1 PUSH2 0x278C JUMP JUMPDEST PUSH2 0xFFFF AND ISZERO ISZERO JUMPDEST ISZERO PUSH2 0xD3F JUMPI PUSH1 0x40 MLOAD PUSH32 0x9482A43700000000000000000000000000000000000000000000000000000000 DUP2 MSTORE PUSH1 0x4 ADD PUSH1 0x40 MLOAD DUP1 SWAP2 SUB SWAP1 REVERT JUMPDEST PUSH1 0x1 SLOAD PUSH1 0x0 SWAP1 ISZERO DUP1 ISZERO SWAP1 PUSH2 0xD5F JUMPI POP PUSH1 0x1 DUP1 SLOAD PUSH2 0xD5C SWAP2 SWAP1 PUSH2 0x274A JUMP JUMPDEST DUP8 EQ JUMPDEST ISZERO PUSH2 0xDD5 JUMPI PUSH1 0x1 DUP8 DUP2 SLOAD DUP2 LT PUSH2 0xD77 JUMPI PUSH2 0xD77 PUSH2 0x2675 JUMP JUMPDEST PUSH1 0x0 SWAP2 DUP3 MSTORE PUSH1 0x20 SWAP1 SWAP2 KECCAK256 PUSH1 0x5 SWAP1 SWAP2 MUL ADD DUP1 SLOAD SWAP1 SWAP2 POP PUSH6 0x10000000000 SWAP1 DIV PUSH2 0xFFFF AND ISZERO PUSH2 0xDD0 JUMPI PUSH1 0x40 MLOAD PUSH32 0xBF5BE99E00000000000000000000000000000000000000000000000000000000 DUP2 MSTORE PUSH1 0x4 ADD PUSH1 0x40 MLOAD DUP1 SWAP2 SUB SWAP1 REVERT JUMPDEST PUSH2 0xE43 JUMP JUMPDEST PUSH1 0x1 SLOAD DUP8 SUB PUSH2 0xE11 JUMPI PUSH1 0x1 DUP1 SLOAD DUP2 ADD DUP1 DUP3 SSTORE PUSH1 0x0 DUP3 SWAP1 MSTORE DUP9 SWAP1 DUP2 LT PUSH2 0xDFC JUMPI PUSH2 0xDFC PUSH2 0x2675 JUMP JUMPDEST SWAP1 PUSH1 0x0 MSTORE PUSH1 0x20 PUSH1 0x0 KECCAK256 SWAP1 PUSH1 0x5 MUL ADD SWAP1 POP PUSH2 0xE43 JUMP JUMPDEST PUSH1 0x40 MLOAD PUSH32 0xA55F88000000000000000000000000000000000000000000000000000000000 DUP2 MSTORE PUSH1 0x4 ADD PUSH1 0x40 MLOAD DUP1 SWAP2 SUB SWAP1 REVERT JUMPDEST PUSH2 0xE50 PUSH1 0x20 DUP8 ADD DUP8 PUSH2 0x26FF JUMP JUMPDEST PUSH1 0x1 DUP3 ADD DUP1 SLOAD PUSH2 0xFFFF SWAP3 SWAP1 SWAP3 AND PUSH2 0x100 MUL PUSH32 0xFFFFFFFFFFFFFFFFFFFFFFFFFFFFFFFFFFFFFFFFFFFFFFFFFFFFFFFFFF0000FF SWAP1 SWAP3 AND SWAP2 SWAP1 SWAP2 OR SWAP1 SSTORE PUSH2 0xE9B PUSH1 0x40 DUP8 ADD PUSH1 0x20 DUP9 ADD PUSH2 0x26FF JUMP JUMPDEST PUSH1 0x2 DUP3 ADD DUP1 SLOAD PUSH2 0xFFFF SWAP3 SWAP1 SWAP3 AND PUSH2 0x100 MUL PUSH32 0xFFFFFFFFFFFFFFFFFFFFFFFFFFFFFFFFFFFFFFFFFFFFFFFFFFFFFFFFFF0000FF SWAP1 SWAP3 AND SWAP2 SWAP1 SWAP2 OR SWAP1 SSTORE PUSH2 0xEE6 PUSH1 0x60 DUP8 ADD PUSH1 0x40 DUP9 ADD PUSH2 0x26FF JUMP JUMPDEST PUSH1 0x3 DUP3 ADD DUP1 SLOAD PUSH32 0xFFFFFFFFFFFFFFFFFFFFFFFFFFFFFFFFFFFFFFFFFFFFFFFFFFFFFFFFFF0000FF AND PUSH2 0x100 PUSH2 0xFFFF SWAP4 SWAP1 SWAP4 AND SWAP3 SWAP1 SWAP3 MUL SWAP2 SWAP1 SWAP2 OR SWAP1 SSTORE DUP1 SLOAD PUSH32 0xFFFFFFFFFFFFFFFFFFFFFFFFFFFFFFFFFFFFFFFFFFFFFFFFFFFFFF0000000000 AND TIMESTAMP PUSH5 0xFFFFFFFFFF AND OR DUP2 SSTORE PUSH1 0x4 DUP2 ADD SLOAD ISZERO PUSH2 0xF69 JUMPI PUSH2 0xF69 PUSH1 0x4 DUP3 ADD PUSH1 0x0 PUSH2 0x219B JUMP JUMPDEST PUSH1 0x40 DUP1 MLOAD PUSH1 0x60 DUP2 ADD DUP3 MSTORE PUSH1 0x0 DUP1 DUP3 MSTORE PUSH1 0x20 DUP3 ADD DUP2 SWAP1 MSTORE SWAP2 DUP2 ADD DUP3 SWAP1 MSTORE SWAP1 JUMPDEST DUP6 DUP2 LT ISZERO PUSH2 0x10F5 JUMPI DUP3 PUSH1 0x4 ADD PUSH1 0x40 MLOAD DUP1 PUSH1 0x80 ADD PUSH1 0x40 MSTORE DUP1 DUP10 DUP10 DUP6 DUP2 DUP2 LT PUSH2 0xFB0 JUMPI PUSH2 0xFB0 PUSH2 0x2675 JUMP JUMPDEST SWAP1 POP PUSH1 0x20 MUL ADD PUSH1 0x20 DUP2 ADD SWAP1 PUSH2 0xFC5 SWAP2 SWAP1 PUSH2 0x27B0 JUMP JUMPDEST PUSH6 0xFFFFFFFFFFFF AND DUP2 MSTORE PUSH1 0x20 ADD DUP8 DUP8 DUP6 DUP2 DUP2 LT PUSH2 0xFE4 JUMPI PUSH2 0xFE4 PUSH2 0x2675 JUMP JUMPDEST SWAP1 POP PUSH1 0x20 MUL ADD PUSH1 0x20 DUP2 ADD SWAP1 PUSH2 0xFF9 SWAP2 SWAP1 PUSH2 0x2653 JUMP JUMPDEST PUSH20 0xFFFFFFFFFFFFFFFFFFFFFFFFFFFFFFFFFFFFFFFF SWAP1 DUP2 AND DUP3 MSTORE PUSH1 0x0 PUSH1 0x20 DUP1 DUP5 ADD DUP3 SWAP1 MSTORE PUSH1 0x40 SWAP4 DUP5 ADD DUP9 SWAP1 MSTORE DUP6 SLOAD PUSH1 0x1 DUP2 DUP2 ADD DUP9 SSTORE SWAP7 DUP4 MSTORE SWAP2 DUP2 SWAP1 KECCAK256 DUP6 MLOAD PUSH1 0x2 SWAP1 SWAP4 MUL ADD DUP1 SLOAD SWAP2 DUP7 ADD MLOAD SWAP5 DUP7 ADD MLOAD PUSH2 0xFFFF AND PUSH27 0x10000000000000000000000000000000000000000000000000000 MUL PUSH32 0xFFFFFFFF0000FFFFFFFFFFFFFFFFFFFFFFFFFFFFFFFFFFFFFFFFFFFFFFFFFFFF SWAP6 SWAP1 SWAP5 AND PUSH7 0x1000000000000 MUL PUSH32 0xFFFFFFFFFFFF0000000000000000000000000000000000000000000000000000 SWAP1 SWAP3 AND PUSH6 0xFFFFFFFFFFFF SWAP1 SWAP4 AND SWAP3 SWAP1 SWAP3 OR OR SWAP3 SWAP1 SWAP3 AND OR DUP2 SSTORE PUSH1 0x60 DUP3 ADD MLOAD SWAP2 SWAP3 SWAP1 SWAP2 PUSH2 0x10E7 SWAP2 DUP4 ADD SWAP1 PUSH1 0x3 PUSH2 0x21BC JUMP JUMPDEST POP POP POP DUP1 PUSH1 0x1 ADD SWAP1 POP PUSH2 0xF87 JUMP JUMPDEST POP POP PUSH1 0x40 MLOAD DUP8 SWAP1 PUSH32 0xC89697EF728C0DBC131C1838D0B59CA47FC8614F4633A0CEBCB990EF5DB0110D SWAP1 PUSH2 0x112B SWAP1 DUP8 SWAP1 DUP11 SWAP1 PUSH2 0x27CB JUMP JUMPDEST PUSH1 0x40 MLOAD DUP1 SWAP2 SUB SWAP1 LOG2 POP POP POP POP POP POP POP JUMP JUMPDEST PUSH1 0x1 SLOAD PUSH1 0x0 SWAP1 DUP4 SWAP1 DUP2 LT PUSH2 0x117C JUMPI PUSH1 0x40 MLOAD PUSH32 0xA55F88000000000000000000000000000000000000000000000000000000000 DUP2 MSTORE PUSH1 0x4 ADD PUSH1 0x40 MLOAD DUP1 SWAP2 SUB SWAP1 REVERT JUMPDEST PUSH1 0x0 PUSH1 0x1 DUP6 DUP2 SLOAD DUP2 LT PUSH2 0x1191 JUMPI PUSH2 0x1191 PUSH2 0x2675 JUMP JUMPDEST SWAP1 PUSH1 0x0 MSTORE PUSH1 0x20 PUSH1 0x0 KECCAK256 SWAP1 PUSH1 0x5 MUL ADD PUSH1 0x4 ADD SWAP1 POP PUSH1 0x0 JUMPDEST DUP2 SLOAD DUP2 LT ISZERO PUSH2 0x11FA JUMPI DUP5 PUSH6 0xFFFFFFFFFFFF AND DUP3 DUP3 DUP2 SLOAD DUP2 LT PUSH2 0x11CB JUMPI PUSH2 0x11CB PUSH2 0x2675 JUMP JUMPDEST PUSH1 0x0 SWAP2 DUP3 MSTORE PUSH1 0x20 SWAP1 SWAP2 KECCAK256 PUSH1 0x2 SWAP1 SWAP2 MUL ADD SLOAD PUSH6 0xFFFFFFFFFFFF AND SUB PUSH2 0x11F2 JUMPI SWAP3 POP PUSH2 0xA25 SWAP1 POP JUMP JUMPDEST PUSH1 0x1 ADD PUSH2 0x11A7 JUMP JUMPDEST POP PUSH1 0x40 MLOAD PUSH32 0x3462926B00000000000000000000000000000000000000000000000000000000 DUP2 MSTORE PUSH1 0x4 ADD PUSH1 0x40 MLOAD DUP1 SWAP2 SUB SWAP1 REVERT JUMPDEST PUSH2 0x1235 PUSH2 0x224E JUMP JUMPDEST PUSH1 0x1 SLOAD DUP3 SWAP1 DUP2 LT PUSH2 0x1272 JUMPI PUSH1 0x40 MLOAD PUSH32 0xA55F88000000000000000000000000000000000000000000000000000000000 DUP2 MSTORE PUSH1 0x4 ADD PUSH1 0x40 MLOAD DUP1 SWAP2 SUB SWAP1 REVERT JUMPDEST PUSH1 0x1 DUP4 DUP2 SLOAD DUP2 LT PUSH2 0x1285 JUMPI PUSH2 0x1285 PUSH2 0x2675 JUMP JUMPDEST PUSH1 0x0 SWAP2 DUP3 MSTORE PUSH1 0x20 DUP1 DUP4 KECCAK256 PUSH1 0x40 DUP1 MLOAD PUSH1 0x80 DUP2 ADD DUP3 MSTORE PUSH1 0x5 SWAP1 SWAP5 MUL SWAP1 SWAP2 ADD DUP1 SLOAD PUSH5 0xFFFFFFFFFF DUP2 AND DUP6 MSTORE PUSH2 0xFFFF PUSH6 0x10000000000 SWAP1 SWAP2 DIV AND SWAP3 DUP5 ADD SWAP3 SWAP1 SWAP3 MSTORE DUP1 MLOAD PUSH1 0x60 DUP2 ADD DUP3 MSTORE SWAP3 SWAP4 SWAP2 SWAP3 SWAP1 DUP5 ADD SWAP2 PUSH1 0x1 DUP5 ADD SWAP1 PUSH1 0x3 SWAP1 DUP4 JUMPDEST DUP3 DUP3 LT ISZERO PUSH2 0x1319 JUMPI PUSH1 0x40 DUP1 MLOAD DUP1 DUP3 ADD SWAP1 SWAP2 MSTORE DUP5 DUP4 ADD SLOAD PUSH1 0xFF DUP2 AND DUP3 MSTORE PUSH2 0x100 SWAP1 DIV PUSH2 0xFFFF AND PUSH1 0x20 DUP1 DUP4 ADD SWAP2 SWAP1 SWAP2 MSTORE SWAP1 DUP3 MSTORE PUSH1 0x1 SWAP1 SWAP3 ADD SWAP2 ADD PUSH2 0x12DC JUMP JUMPDEST POP POP POP POP DUP2 MSTORE PUSH1 0x20 ADD PUSH1 0x4 DUP3 ADD DUP1 SLOAD DUP1 PUSH1 0x20 MUL PUSH1 0x20 ADD PUSH1 0x40 MLOAD SWAP1 DUP2 ADD PUSH1 0x40 MSTORE DUP1 SWAP3 SWAP2 SWAP1 DUP2 DUP2 MSTORE PUSH1 0x20 ADD PUSH1 0x0 SWAP1 JUMPDEST DUP3 DUP3 LT ISZERO PUSH2 0x142C JUMPI PUSH1 0x0 DUP5 DUP2 MSTORE PUSH1 0x20 DUP1 DUP3 KECCAK256 PUSH1 0x40 DUP1 MLOAD PUSH1 0x80 DUP2 ADD DUP3 MSTORE PUSH1 0x2 DUP8 MUL SWAP1 SWAP3 ADD DUP1 SLOAD PUSH6 0xFFFFFFFFFFFF DUP2 AND DUP5 MSTORE PUSH7 0x1000000000000 DUP2 DIV PUSH20 0xFFFFFFFFFFFFFFFFFFFFFFFFFFFFFFFFFFFFFFFF AND SWAP5 DUP5 ADD SWAP5 SWAP1 SWAP5 MSTORE PUSH27 0x10000000000000000000000000000000000000000000000000000 SWAP1 SWAP4 DIV PUSH2 0xFFFF AND DUP3 DUP3 ADD MSTORE DUP1 MLOAD PUSH1 0x60 DUP1 DUP3 ADD SWAP3 DUP4 SWAP1 MSTORE SWAP3 SWAP5 SWAP3 DUP6 ADD SWAP3 SWAP1 SWAP2 PUSH1 0x1 DUP6 ADD SWAP2 PUSH1 0x3 SWAP2 SWAP1 DUP4 SWAP1 DUP6 JUMPDEST DUP3 SLOAD PUSH2 0x100 DUP4 SWAP1 EXP SWAP1 DIV PUSH1 0xFF AND ISZERO ISZERO DUP2 MSTORE PUSH1 0x20 PUSH1 0x1 SWAP3 DUP4 ADD DUP2 DUP2 DIV SWAP5 DUP6 ADD SWAP5 SWAP1 SWAP4 SUB SWAP1 SWAP3 MUL SWAP2 ADD DUP1 DUP5 GT PUSH2 0x13E4 JUMPI SWAP1 POP POP POP POP POP POP DUP2 MSTORE POP POP DUP2 MSTORE PUSH1 0x20 ADD SWAP1 PUSH1 0x1 ADD SWAP1 PUSH2 0x1346 JUMP JUMPDEST POP POP POP SWAP2 MSTORE POP SWAP1 SWAP5 SWAP4 POP POP POP POP JUMP JUMPDEST PUSH1 0x1 SLOAD PUSH1 0x0 SWAP1 DUP3 SWAP1 DUP2 LT PUSH2 0x147B JUMPI PUSH1 0x40 MLOAD PUSH32 0xA55F88000000000000000000000000000000000000000000000000000000000 DUP2 MSTORE PUSH1 0x4 ADD PUSH1 0x40 MLOAD DUP1 SWAP2 SUB SWAP1 REVERT JUMPDEST PUSH1 0x0 PUSH1 0x1 DUP5 DUP2 SLOAD DUP2 LT PUSH2 0x1490 JUMPI PUSH2 0x1490 PUSH2 0x2675 JUMP JUMPDEST PUSH1 0x0 SWAP2 DUP3 MSTORE PUSH1 0x20 SWAP1 SWAP2 KECCAK256 PUSH1 0x5 SWAP1 SWAP2 MUL ADD DUP1 SLOAD SWAP1 SWAP2 POP TIMESTAMP SWAP1 PUSH2 0x14BC SWAP1 PUSH3 0x24EA00 SWAP1 PUSH5 0xFFFFFFFFFF AND PUSH2 0x280F JUMP JUMPDEST LT ISZERO PUSH2 0x14F4 JUMPI PUSH1 0x40 MLOAD PUSH32 0xAE609B1700000000000000000000000000000000000000000000000000000000 DUP2 MSTORE PUSH1 0x4 ADD PUSH1 0x40 MLOAD DUP1 SWAP2 SUB SWAP1 REVERT JUMPDEST DUP1 SLOAD TIMESTAMP SWAP1 PUSH2 0x150D SWAP1 PUSH3 0x93A80 SWAP1 PUSH5 0xFFFFFFFFFF AND PUSH2 0x280F JUMP JUMPDEST LT ISZERO PUSH2 0x151D JUMPI PUSH1 0x1 SWAP3 POP POP PUSH2 0x43A JUMP JUMPDEST PUSH1 0x1 DUP2 ADD SLOAD PUSH1 0xFF AND ISZERO DUP1 ISZERO SWAP1 PUSH2 0x1539 JUMPI POP PUSH1 0x2 DUP2 ADD SLOAD PUSH1 0xFF AND ISZERO ISZERO JUMPDEST DUP1 ISZERO PUSH2 0x154B JUMPI POP PUSH1 0x3 DUP2 ADD SLOAD PUSH1 0xFF AND ISZERO ISZERO JUMPDEST ISZERO PUSH2 0x155A JUMPI PUSH1 0x1 SWAP3 POP POP PUSH2 0x43A JUMP JUMPDEST POP PUSH1 0x0 SWAP4 SWAP3 POP POP POP JUMP JUMPDEST PUSH1 0x0 CALLER PUSH1 0x40 MLOAD PUSH32 0x23B872DD00000000000000000000000000000000000000000000000000000000 DUP2 MSTORE PUSH20 0xFFFFFFFFFFFFFFFFFFFFFFFFFFFFFFFFFFFFFFFF DUP1 DUP4 AND PUSH1 0x4 DUP4 ADD MSTORE ADDRESS PUSH1 0x24 DUP4 ADD MSTORE PUSH1 0x44 DUP3 ADD DUP6 SWAP1 MSTORE SWAP2 SWAP3 POP PUSH32 0x0 SWAP1 SWAP2 AND SWAP1 PUSH4 0x23B872DD SWAP1 PUSH1 0x64 ADD PUSH1 0x20 PUSH1 0x40 MLOAD DUP1 DUP4 SUB DUP2 PUSH1 0x0 DUP8 GAS CALL ISZERO DUP1 ISZERO PUSH2 0x1607 JUMPI RETURNDATASIZE PUSH1 0x0 DUP1 RETURNDATACOPY RETURNDATASIZE PUSH1 0x0 REVERT JUMPDEST POP POP POP POP PUSH1 0x40 MLOAD RETURNDATASIZE PUSH1 0x1F NOT PUSH1 0x1F DUP3 ADD AND DUP3 ADD DUP1 PUSH1 0x40 MSTORE POP DUP2 ADD SWAP1 PUSH2 0x162B SWAP2 SWAP1 PUSH2 0x2822 JUMP JUMPDEST PUSH2 0x1661 JUMPI PUSH1 0x40 MLOAD PUSH32 0x45C4B0200000000000000000000000000000000000000000000000000000000 DUP2 MSTORE PUSH1 0x4 ADD PUSH1 0x40 MLOAD DUP1 SWAP2 SUB SWAP1 REVERT JUMPDEST DUP1 PUSH20 0xFFFFFFFFFFFFFFFFFFFFFFFFFFFFFFFFFFFFFFFF AND PUSH32 0xE1FFFCC4923D04B559F4D29A8BFC6CDA04EB5B0D3C460751C2402C5C5CC9109C DUP4 PUSH1 0x40 MLOAD PUSH2 0x16A9 SWAP2 DUP2 MSTORE PUSH1 0x20 ADD SWAP1 JUMP JUMPDEST PUSH1 0x40 MLOAD DUP1 SWAP2 SUB SWAP1 LOG2 POP POP JUMP JUMPDEST PUSH1 0x1 SLOAD PUSH1 0x0 SWAP1 DUP4 SWAP1 DUP2 LT PUSH2 0x16F5 JUMPI PUSH1 0x40 MLOAD PUSH32 0xA55F88000000000000000000000000000000000000000000000000000000000 DUP2 MSTORE PUSH1 0x4 ADD PUSH1 0x40 MLOAD DUP1 SWAP2 SUB SWAP1 REVERT JUMPDEST PUSH1 0x2 DUP4 GT ISZERO PUSH2 0x1730 JUMPI PUSH1 0x40 MLOAD PUSH32 0x3F613DD300000000000000000000000000000000000000000000000000000000 DUP2 MSTORE PUSH1 0x4 ADD PUSH1 0x40 MLOAD DUP1 SWAP2 SUB SWAP1 REVERT JUMPDEST PUSH1 0x0 PUSH1 0x1 DUP6 DUP2 SLOAD DUP2 LT PUSH2 0x1745 JUMPI PUSH2 0x1745 PUSH2 0x2675 JUMP JUMPDEST PUSH1 0x0 SWAP2 DUP3 MSTORE PUSH1 0x20 SWAP1 SWAP2 KECCAK256 PUSH1 0x5 SWAP1 SWAP2 MUL ADD DUP1 SLOAD SWAP1 SWAP2 POP TIMESTAMP SWAP1 PUSH2 0x1771 SWAP1 PUSH3 0x93A80 SWAP1 PUSH5 0xFFFFFFFFFF AND PUSH2 0x280F JUMP JUMPDEST LT ISZERO PUSH2 0x17A9 JUMPI PUSH1 0x40 MLOAD PUSH32 0x4DA70D2700000000000000000000000000000000000000000000000000000000 DUP2 MSTORE PUSH1 0x4 ADD PUSH1 0x40 MLOAD DUP1 SWAP2 SUB SWAP1 REVERT JUMPDEST DUP1 PUSH1 0x1 ADD DUP5 PUSH1 0x3 DUP2 LT PUSH2 0x17BE JUMPI PUSH2 0x17BE PUSH2 0x2675 JUMP JUMPDEST ADD SLOAD PUSH1 0xFF AND ISZERO PUSH2 0x17FA JUMPI PUSH1 0x40 MLOAD PUSH32 0x646CF55800000000000000000000000000000000000000000000000000000000 DUP2 MSTORE PUSH1 0x4 ADD PUSH1 0x40 MLOAD DUP1 SWAP2 SUB SWAP1 REVERT JUMPDEST DUP1 PUSH1 0x1 ADD DUP5 PUSH1 0x3 DUP2 LT PUSH2 0x180F JUMPI PUSH2 0x180F PUSH2 0x2675 JUMP JUMPDEST ADD SLOAD PUSH2 0x100 SWAP1 DIV PUSH2 0xFFFF AND SWAP6 SWAP5 POP POP POP POP POP JUMP JUMPDEST PUSH1 0x1 SLOAD PUSH1 0x0 SWAP1 DUP4 SWAP1 DUP2 LT PUSH2 0x1863 JUMPI PUSH1 0x40 MLOAD PUSH32 0xA55F88000000000000000000000000000000000000000000000000000000000 DUP2 MSTORE PUSH1 0x4 ADD PUSH1 0x40 MLOAD DUP1 SWAP2 SUB SWAP1 REVERT JUMPDEST PUSH1 0x0 PUSH1 0x1 DUP6 DUP2 SLOAD DUP2 LT PUSH2 0x1878 JUMPI PUSH2 0x1878 PUSH2 0x2675 JUMP JUMPDEST SWAP1 PUSH1 0x0 MSTORE PUSH1 0x20 PUSH1 0x0 KECCAK256 SWAP1 PUSH1 0x5 MUL ADD PUSH1 0x4 ADD SWAP1 POP PUSH1 0x0 JUMPDEST DUP2 SLOAD DUP2 LT ISZERO PUSH2 0x11FA JUMPI DUP5 PUSH20 0xFFFFFFFFFFFFFFFFFFFFFFFFFFFFFFFFFFFFFFFF AND DUP3 DUP3 DUP2 SLOAD DUP2 LT PUSH2 0x18C0 JUMPI PUSH2 0x18C0 PUSH2 0x2675 JUMP JUMPDEST PUSH1 0x0 SWAP2 DUP3 MSTORE PUSH1 0x20 SWAP1 SWAP2 KECCAK256 PUSH1 0x2 SWAP1 SWAP2 MUL ADD SLOAD PUSH7 0x1000000000000 SWAP1 DIV PUSH20 0xFFFFFFFFFFFFFFFFFFFFFFFFFFFFFFFFFFFFFFFF AND SUB PUSH2 0x18FF JUMPI SWAP3 POP PUSH2 0xA25 SWAP1 POP JUMP JUMPDEST PUSH1 0x1 ADD PUSH2 0x188E JUMP JUMPDEST PUSH2 0x190F PUSH2 0x20A5 JUMP JUMPDEST PUSH1 0x0 CALLER PUSH1 0x40 MLOAD PUSH32 0x70A0823100000000000000000000000000000000000000000000000000000000 DUP2 MSTORE ADDRESS PUSH1 0x4 DUP3 ADD MSTORE SWAP1 SWAP2 POP PUSH1 0x0 SWAP1 PUSH20 0xFFFFFFFFFFFFFFFFFFFFFFFFFFFFFFFFFFFFFFFF PUSH32 0x0 AND SWAP1 PUSH4 0x70A08231 SWAP1 PUSH1 0x24 ADD PUSH1 0x20 PUSH1 0x40 MLOAD DUP1 DUP4 SUB DUP2 DUP7 GAS STATICCALL ISZERO DUP1 ISZERO PUSH2 0x19A2 JUMPI RETURNDATASIZE PUSH1 0x0 DUP1 RETURNDATACOPY RETURNDATASIZE PUSH1 0x0 REVERT JUMPDEST POP POP POP POP PUSH1 0x40 MLOAD RETURNDATASIZE PUSH1 0x1F NOT PUSH1 0x1F DUP3 ADD AND DUP3 ADD DUP1 PUSH1 0x40 MSTORE POP DUP2 ADD SWAP1 PUSH2 0x19C6 SWAP2 SWAP1 PUSH2 0x2731 JUMP JUMPDEST SWAP1 POP DUP1 PUSH1 0x0 SUB PUSH2 0x1A02 JUMPI PUSH1 0x40 MLOAD PUSH32 0xD0D04F6000000000000000000000000000000000000000000000000000000000 DUP2 MSTORE PUSH1 0x4 ADD PUSH1 0x40 MLOAD DUP1 SWAP2 SUB SWAP1 REVERT JUMPDEST PUSH1 0x40 MLOAD PUSH32 0xA9059CBB00000000000000000000000000000000000000000000000000000000 DUP2 MSTORE PUSH20 0xFFFFFFFFFFFFFFFFFFFFFFFFFFFFFFFFFFFFFFFF DUP4 DUP2 AND PUSH1 0x4 DUP4 ADD MSTORE PUSH1 0x24 DUP3 ADD DUP4 SWAP1 MSTORE PUSH32 0x0 AND SWAP1 PUSH4 0xA9059CBB SWAP1 PUSH1 0x44 ADD PUSH1 0x20 PUSH1 0x40 MLOAD DUP1 DUP4 SUB DUP2 PUSH1 0x0 DUP8 GAS CALL ISZERO DUP1 ISZERO PUSH2 0x1A97 JUMPI RETURNDATASIZE PUSH1 0x0 DUP1 RETURNDATACOPY RETURNDATASIZE PUSH1 0x0 REVERT JUMPDEST POP POP POP POP PUSH1 0x40 MLOAD RETURNDATASIZE PUSH1 0x1F NOT PUSH1 0x1F DUP3 ADD AND DUP3 ADD DUP1 PUSH1 0x40 MSTORE POP DUP2 ADD SWAP1 PUSH2 0x1ABB SWAP2 SWAP1 PUSH2 0x2822 JUMP JUMPDEST PUSH2 0x1AF1 JUMPI PUSH1 0x40 MLOAD PUSH32 0x45C4B0200000000000000000000000000000000000000000000000000000000 DUP2 MSTORE PUSH1 0x4 ADD PUSH1 0x40 MLOAD DUP1 SWAP2 SUB SWAP1 REVERT JUMPDEST DUP2 PUSH20 0xFFFFFFFFFFFFFFFFFFFFFFFFFFFFFFFFFFFFFFFF AND PUSH32 0x5FAFA99D0643513820BE26656B45130B01E1C03062E1266BF36F88CBD3BD9695 DUP3 PUSH1 0x40 MLOAD PUSH2 0x16A9 SWAP2 DUP2 MSTORE PUSH1 0x20 ADD SWAP1 JUMP JUMPDEST PUSH1 0x1 SLOAD DUP4 SWAP1 DUP2 LT PUSH2 0x1B76 JUMPI PUSH1 0x40 MLOAD PUSH32 0xA55F88000000000000000000000000000000000000000000000000000000000 DUP2 MSTORE PUSH1 0x4 ADD PUSH1 0x40 MLOAD DUP1 SWAP2 SUB SWAP1 REVERT JUMPDEST PUSH1 0x0 PUSH2 0x1B82 DUP6 DUP6 PUSH2 0x16B5 JUMP JUMPDEST SWAP1 POP PUSH1 0x0 PUSH1 0x1 DUP7 DUP2 SLOAD DUP2 LT PUSH2 0x1B99 JUMPI PUSH2 0x1B99 PUSH2 0x2675 JUMP JUMPDEST SWAP1 PUSH1 0x0 MSTORE PUSH1 0x20 PUSH1 0x0 KECCAK256 SWAP1 PUSH1 0x5 MUL ADD SWAP1 POP PUSH1 0x0 PUSH2 0x1BB2 CALLER SWAP1 JUMP JUMPDEST SWAP1 POP DUP1 PUSH20 0xFFFFFFFFFFFFFFFFFFFFFFFFFFFFFFFFFFFFFFFF AND DUP3 PUSH1 0x4 ADD DUP8 DUP2 SLOAD DUP2 LT PUSH2 0x1BE0 JUMPI PUSH2 0x1BE0 PUSH2 0x2675 JUMP JUMPDEST PUSH1 0x0 SWAP2 DUP3 MSTORE PUSH1 0x20 SWAP1 SWAP2 KECCAK256 PUSH1 0x2 SWAP1 SWAP2 MUL ADD SLOAD PUSH7 0x1000000000000 SWAP1 DIV PUSH20 0xFFFFFFFFFFFFFFFFFFFFFFFFFFFFFFFFFFFFFFFF AND EQ PUSH2 0x1C48 JUMPI PUSH1 0x40 MLOAD PUSH32 0x1E09210400000000000000000000000000000000000000000000000000000000 DUP2 MSTORE PUSH1 0x4 ADD PUSH1 0x40 MLOAD DUP1 SWAP2 SUB SWAP1 REVERT JUMPDEST PUSH1 0x0 DUP1 DUP7 PUSH1 0xFF AND PUSH1 0x1 SUB PUSH2 0x1C5E JUMPI DUP5 SWAP2 POP PUSH2 0x1CC2 JUMP JUMPDEST DUP7 PUSH1 0xFF AND PUSH1 0x2 SUB PUSH2 0x1C7E JUMPI PUSH2 0x1C74 PUSH1 0x2 DUP7 PUSH2 0x2844 JUMP JUMPDEST SWAP1 POP DUP1 SWAP2 POP PUSH2 0x1CC2 JUMP JUMPDEST DUP7 PUSH1 0xFF AND PUSH1 0x3 SUB PUSH2 0x1C90 JUMPI POP DUP4 PUSH2 0x1CC2 JUMP JUMPDEST PUSH1 0x40 MLOAD PUSH32 0xF2D09BA200000000000000000000000000000000000000000000000000000000 DUP2 MSTORE PUSH1 0x4 ADD PUSH1 0x40 MLOAD DUP1 SWAP2 SUB SWAP1 REVERT JUMPDEST DUP7 DUP5 PUSH1 0x1 ADD DUP10 PUSH1 0x3 DUP2 LT PUSH2 0x1CD8 JUMPI PUSH2 0x1CD8 PUSH2 0x2675 JUMP JUMPDEST ADD DUP1 SLOAD PUSH32 0xFFFFFFFFFFFFFFFFFFFFFFFFFFFFFFFFFFFFFFFFFFFFFFFFFFFFFFFFFFFFFF00 AND PUSH1 0xFF SWAP3 SWAP1 SWAP3 AND SWAP2 SWAP1 SWAP2 OR SWAP1 SSTORE PUSH2 0xFFFF DUP3 AND ISZERO PUSH2 0x1E04 JUMPI DUP2 DUP5 PUSH1 0x4 ADD DUP10 DUP2 SLOAD DUP2 LT PUSH2 0x1D29 JUMPI PUSH2 0x1D29 PUSH2 0x2675 JUMP JUMPDEST PUSH1 0x0 SWAP2 DUP3 MSTORE PUSH1 0x20 SWAP1 SWAP2 KECCAK256 PUSH1 0x2 SWAP1 SWAP2 MUL ADD DUP1 SLOAD PUSH1 0x1A SWAP1 PUSH2 0x1D6B SWAP1 DUP5 SWAP1 PUSH27 0x10000000000000000000000000000000000000000000000000000 SWAP1 DIV PUSH2 0xFFFF AND PUSH2 0x26D3 JUMP JUMPDEST SWAP3 POP PUSH2 0x100 EXP DUP2 SLOAD DUP2 PUSH2 0xFFFF MUL NOT AND SWAP1 DUP4 PUSH2 0xFFFF AND MUL OR SWAP1 SSTORE POP DUP2 DUP5 PUSH1 0x0 ADD PUSH1 0x5 DUP3 DUP3 DUP3 SWAP1 SLOAD SWAP1 PUSH2 0x100 EXP SWAP1 DIV PUSH2 0xFFFF AND PUSH2 0x1DA6 SWAP2 SWAP1 PUSH2 0x26D3 JUMP JUMPDEST SWAP3 POP PUSH2 0x100 EXP DUP2 SLOAD DUP2 PUSH2 0xFFFF MUL NOT AND SWAP1 DUP4 PUSH2 0xFFFF AND MUL OR SWAP1 SSTORE POP PUSH2 0x1DCE DUP3 PUSH2 0xFFFF AND DUP5 PUSH2 0x1F60 JUMP JUMPDEST PUSH2 0x1E04 JUMPI PUSH1 0x40 MLOAD PUSH32 0xD3DB0D700000000000000000000000000000000000000000000000000000000 DUP2 MSTORE PUSH1 0x4 ADD PUSH1 0x40 MLOAD DUP1 SWAP2 SUB SWAP1 REVERT JUMPDEST PUSH2 0xFFFF DUP2 AND ISZERO PUSH2 0x1E85 JUMPI PUSH1 0x3 JUMPDEST DUP2 PUSH1 0x3 ADD PUSH2 0xFFFF AND DUP2 LT ISZERO PUSH2 0x1E83 JUMPI PUSH1 0x1 DUP6 PUSH1 0x4 ADD DUP3 DUP2 SLOAD DUP2 LT PUSH2 0x1E37 JUMPI PUSH2 0x1E37 PUSH2 0x2675 JUMP JUMPDEST SWAP1 PUSH1 0x0 MSTORE PUSH1 0x20 PUSH1 0x0 KECCAK256 SWAP1 PUSH1 0x2 MUL ADD PUSH1 0x1 ADD DUP11 PUSH1 0x3 DUP2 LT PUSH2 0x1E59 JUMPI PUSH2 0x1E59 PUSH2 0x2675 JUMP JUMPDEST PUSH1 0x20 SWAP2 DUP3 DUP3 DIV ADD SWAP2 SWAP1 MOD PUSH2 0x100 EXP DUP2 SLOAD DUP2 PUSH1 0xFF MUL NOT AND SWAP1 DUP4 ISZERO ISZERO MUL OR SWAP1 SSTORE POP DUP1 PUSH1 0x1 ADD SWAP1 POP PUSH2 0x1E11 JUMP JUMPDEST POP JUMPDEST PUSH1 0x40 DUP1 MLOAD DUP10 DUP2 MSTORE PUSH1 0xFF DUP10 AND PUSH1 0x20 DUP3 ADD MSTORE PUSH2 0xFFFF DUP5 DUP2 AND DUP3 DUP5 ADD MSTORE DUP4 AND PUSH1 0x60 DUP3 ADD MSTORE SWAP1 MLOAD DUP11 SWAP2 PUSH20 0xFFFFFFFFFFFFFFFFFFFFFFFFFFFFFFFFFFFFFFFF DUP7 AND SWAP2 PUSH32 0xB12DCE413AEC88DDF22BA4A273EF71B9DDF7A09A68E269540F52220B12AA78C2 SWAP2 DUP2 SWAP1 SUB PUSH1 0x80 ADD SWAP1 LOG3 POP POP POP POP POP POP POP POP POP JUMP JUMPDEST PUSH2 0x1EFF PUSH2 0x20A5 JUMP JUMPDEST PUSH20 0xFFFFFFFFFFFFFFFFFFFFFFFFFFFFFFFFFFFFFFFF DUP2 AND PUSH2 0x1F54 JUMPI PUSH1 0x40 MLOAD PUSH32 0x1E4FBDF700000000000000000000000000000000000000000000000000000000 DUP2 MSTORE PUSH1 0x0 PUSH1 0x4 DUP3 ADD MSTORE PUSH1 0x24 ADD JUMPDEST PUSH1 0x40 MLOAD DUP1 SWAP2 SUB SWAP1 REVERT JUMPDEST PUSH2 0x1F5D DUP2 PUSH2 0x20F8 JUMP JUMPDEST POP JUMP JUMPDEST PUSH1 0x0 PUSH20 0xFFFFFFFFFFFFFFFFFFFFFFFFFFFFFFFFFFFFFFFF PUSH32 0x0 AND PUSH4 0xF74BFE8E PUSH32 0x0 DUP6 PUSH2 0x1FD3 DUP2 PUSH9 0x56BC75E2D63100000 PUSH2 0x271A JUMP JUMPDEST PUSH1 0x40 MLOAD PUSH32 0xFFFFFFFF00000000000000000000000000000000000000000000000000000000 PUSH1 0xE0 DUP7 SWAP1 SHL AND DUP2 MSTORE PUSH20 0xFFFFFFFFFFFFFFFFFFFFFFFFFFFFFFFFFFFFFFFF SWAP4 DUP5 AND PUSH1 0x4 DUP3 ADD MSTORE PUSH1 0x24 DUP2 ADD SWAP3 SWAP1 SWAP3 MSTORE PUSH1 0x44 DUP3 ADD MSTORE SWAP1 DUP6 AND PUSH1 0x64 DUP3 ADD MSTORE PUSH1 0x84 ADD PUSH1 0x20 PUSH1 0x40 MLOAD DUP1 DUP4 SUB DUP2 PUSH1 0x0 DUP8 GAS CALL SWAP3 POP POP POP DUP1 ISZERO PUSH2 0x208D JUMPI POP PUSH1 0x40 DUP1 MLOAD PUSH1 0x1F RETURNDATASIZE SWAP1 DUP2 ADD PUSH32 0xFFFFFFFFFFFFFFFFFFFFFFFFFFFFFFFFFFFFFFFFFFFFFFFFFFFFFFFFFFFFFFE0 AND DUP3 ADD SWAP1 SWAP3 MSTORE PUSH2 0x208A SWAP2 DUP2 ADD SWAP1 PUSH2 0x2731 JUMP JUMPDEST PUSH1 0x1 JUMPDEST PUSH2 0x2099 JUMPI POP PUSH1 0x0 PUSH2 0x209F JUMP JUMPDEST POP PUSH1 0x1 SWAP1 POP JUMPDEST SWAP3 SWAP2 POP POP JUMP JUMPDEST PUSH1 0x0 SLOAD PUSH20 0xFFFFFFFFFFFFFFFFFFFFFFFFFFFFFFFFFFFFFFFF AND CALLER EQ PUSH2 0x8D4 JUMPI PUSH1 0x40 MLOAD PUSH32 0x118CDAA700000000000000000000000000000000000000000000000000000000 DUP2 MSTORE CALLER PUSH1 0x4 DUP3 ADD MSTORE PUSH1 0x24 ADD PUSH2 0x1F4B JUMP JUMPDEST PUSH1 0x0 DUP1 SLOAD PUSH20 0xFFFFFFFFFFFFFFFFFFFFFFFFFFFFFFFFFFFFFFFF DUP4 DUP2 AND PUSH32 0xFFFFFFFFFFFFFFFFFFFFFFFF0000000000000000000000000000000000000000 DUP4 AND DUP2 OR DUP5 SSTORE PUSH1 0x40 MLOAD SWAP2 SWAP1 SWAP3 AND SWAP3 DUP4 SWAP2 PUSH32 0x8BE0079C531659141344CD1FD0A4F28419497F9722A3DAAFE3B4186F6B6457E0 SWAP2 SWAP1 LOG3 POP POP JUMP JUMPDEST PUSH1 0x40 DUP1 MLOAD PUSH1 0x80 DUP2 ADD DUP3 MSTORE PUSH1 0x0 DUP1 DUP3 MSTORE PUSH1 0x20 DUP3 ADD DUP2 SWAP1 MSTORE SWAP2 DUP2 ADD SWAP2 SWAP1 SWAP2 MSTORE PUSH1 0x60 DUP2 ADD PUSH2 0x2196 PUSH2 0x227A JUMP JUMPDEST SWAP1 MSTORE SWAP1 JUMP JUMPDEST POP DUP1 SLOAD PUSH1 0x0 DUP3 SSTORE PUSH1 0x2 MUL SWAP1 PUSH1 0x0 MSTORE PUSH1 0x20 PUSH1 0x0 KECCAK256 SWAP1 DUP2 ADD SWAP1 PUSH2 0x1F5D SWAP2 SWAP1 PUSH2 0x2298 JUMP JUMPDEST PUSH1 0x1 DUP4 ADD SWAP2 DUP4 SWAP1 DUP3 ISZERO PUSH2 0x223E JUMPI SWAP2 PUSH1 0x20 MUL DUP3 ADD PUSH1 0x0 JUMPDEST DUP4 DUP3 GT ISZERO PUSH2 0x220F JUMPI DUP4 MLOAD DUP4 DUP3 PUSH2 0x100 EXP DUP2 SLOAD DUP2 PUSH1 0xFF MUL NOT AND SWAP1 DUP4 ISZERO ISZERO MUL OR SWAP1 SSTORE POP SWAP3 PUSH1 0x20 ADD SWAP3 PUSH1 0x1 ADD PUSH1 0x20 DUP2 PUSH1 0x0 ADD DIV SWAP3 DUP4 ADD SWAP3 PUSH1 0x1 SUB MUL PUSH2 0x21D2 JUMP JUMPDEST DUP1 ISZERO PUSH2 0x223C JUMPI DUP3 DUP2 PUSH2 0x100 EXP DUP2 SLOAD SWAP1 PUSH1 0xFF MUL NOT AND SWAP1 SSTORE PUSH1 0x1 ADD PUSH1 0x20 DUP2 PUSH1 0x0 ADD DIV SWAP3 DUP4 ADD SWAP3 PUSH1 0x1 SUB MUL PUSH2 0x220F JUMP JUMPDEST POP JUMPDEST POP PUSH2 0x224A SWAP3 SWAP2 POP PUSH2 0x22D5 JUMP JUMPDEST POP SWAP1 JUMP JUMPDEST PUSH1 0x40 DUP1 MLOAD PUSH1 0x80 DUP2 ADD DUP3 MSTORE PUSH1 0x0 DUP1 DUP3 MSTORE PUSH1 0x20 DUP3 ADD MSTORE SWAP1 DUP2 ADD PUSH2 0x226D PUSH2 0x22EA JUMP JUMPDEST DUP2 MSTORE PUSH1 0x20 ADD PUSH1 0x60 DUP2 MSTORE POP SWAP1 JUMP JUMPDEST PUSH1 0x40 MLOAD DUP1 PUSH1 0x60 ADD PUSH1 0x40 MSTORE DUP1 PUSH1 0x3 SWAP1 PUSH1 0x20 DUP3 MUL DUP1 CALLDATASIZE DUP4 CALLDATACOPY POP SWAP2 SWAP3 SWAP2 POP POP JUMP JUMPDEST DUP1 DUP3 GT ISZERO PUSH2 0x224A JUMPI DUP1 SLOAD PUSH32 0xFFFFFFFF00000000000000000000000000000000000000000000000000000000 AND DUP2 SSTORE PUSH1 0x0 PUSH1 0x1 DUP3 ADD SSTORE PUSH1 0x2 ADD PUSH2 0x2298 JUMP JUMPDEST JUMPDEST DUP1 DUP3 GT ISZERO PUSH2 0x224A JUMPI PUSH1 0x0 DUP2 SSTORE PUSH1 0x1 ADD PUSH2 0x22D6 JUMP JUMPDEST PUSH1 0x40 MLOAD DUP1 PUSH1 0x60 ADD PUSH1 0x40 MSTORE DUP1 PUSH1 0x3 SWAP1 JUMPDEST PUSH1 0x40 DUP1 MLOAD DUP1 DUP3 ADD SWAP1 SWAP2 MSTORE PUSH1 0x0 DUP1 DUP3 MSTORE PUSH1 0x20 DUP3 ADD MSTORE DUP2 MSTORE PUSH1 0x20 ADD SWAP1 PUSH1 0x1 SWAP1 SUB SWAP1 DUP2 PUSH2 0x22F9 JUMPI SWAP1 POP POP SWAP1 JUMP JUMPDEST PUSH1 0x0 PUSH1 0x20 DUP3 DUP5 SUB SLT ISZERO PUSH2 0x2335 JUMPI PUSH1 0x0 DUP1 REVERT JUMPDEST POP CALLDATALOAD SWAP2 SWAP1 POP JUMP JUMPDEST PUSH1 0x0 DUP1 PUSH1 0x40 DUP4 DUP6 SUB SLT ISZERO PUSH2 0x234F JUMPI PUSH1 0x0 DUP1 REVERT JUMPDEST POP POP DUP1 CALLDATALOAD SWAP3 PUSH1 0x20 SWAP1 SWAP2 ADD CALLDATALOAD SWAP2 POP JUMP JUMPDEST PUSH6 0xFFFFFFFFFFFF DUP2 MLOAD AND DUP3 MSTORE PUSH20 0xFFFFFFFFFFFFFFFFFFFFFFFFFFFFFFFFFFFFFFFF PUSH1 0x20 DUP3 ADD MLOAD AND PUSH1 0x20 DUP4 ADD MSTORE PUSH2 0xFFFF PUSH1 0x40 DUP3 ADD MLOAD AND PUSH1 0x40 DUP4 ADD MSTORE PUSH1 0x60 DUP2 ADD MLOAD PUSH1 0x60 DUP4 ADD PUSH1 0x0 JUMPDEST PUSH1 0x3 DUP2 LT ISZERO PUSH2 0x23C5 JUMPI DUP3 MLOAD ISZERO ISZERO DUP3 MSTORE PUSH1 0x20 SWAP3 DUP4 ADD SWAP3 SWAP1 SWAP2 ADD SWAP1 PUSH1 0x1 ADD PUSH2 0x23A4 JUMP JUMPDEST POP POP POP POP POP JUMP JUMPDEST PUSH1 0xC0 DUP2 ADD PUSH2 0x209F DUP3 DUP5 PUSH2 0x235E JUMP JUMPDEST PUSH1 0x0 DUP1 DUP4 PUSH1 0x1F DUP5 ADD SLT PUSH2 0x23EC JUMPI PUSH1 0x0 DUP1 REVERT JUMPDEST POP DUP2 CALLDATALOAD PUSH8 0xFFFFFFFFFFFFFFFF DUP2 GT ISZERO PUSH2 0x2404 JUMPI PUSH1 0x0 DUP1 REVERT JUMPDEST PUSH1 0x20 DUP4 ADD SWAP2 POP DUP4 PUSH1 0x20 DUP3 PUSH1 0x5 SHL DUP6 ADD ADD GT ISZERO PUSH2 0x241F JUMPI PUSH1 0x0 DUP1 REVERT JUMPDEST SWAP3 POP SWAP3 SWAP1 POP JUMP JUMPDEST PUSH1 0x0 DUP1 PUSH1 0x0 DUP1 PUSH1 0x0 DUP1 PUSH1 0xC0 DUP8 DUP10 SUB SLT ISZERO PUSH2 0x243F JUMPI PUSH1 0x0 DUP1 REVERT JUMPDEST DUP7 CALLDATALOAD SWAP6 POP PUSH1 0x80 DUP8 ADD DUP9 DUP2 GT ISZERO PUSH2 0x2454 JUMPI PUSH1 0x0 DUP1 REVERT JUMPDEST PUSH1 0x20 DUP9 ADD SWAP6 POP CALLDATALOAD PUSH8 0xFFFFFFFFFFFFFFFF DUP2 GT ISZERO PUSH2 0x2470 JUMPI PUSH1 0x0 DUP1 REVERT JUMPDEST PUSH2 0x247C DUP10 DUP3 DUP11 ADD PUSH2 0x23DA JUMP JUMPDEST SWAP1 SWAP6 POP SWAP4 POP POP PUSH1 0xA0 DUP8 ADD CALLDATALOAD PUSH8 0xFFFFFFFFFFFFFFFF DUP2 GT ISZERO PUSH2 0x249C JUMPI PUSH1 0x0 DUP1 REVERT JUMPDEST PUSH2 0x24A8 DUP10 DUP3 DUP11 ADD PUSH2 0x23DA JUMP JUMPDEST SWAP8 SWAP11 SWAP7 SWAP10 POP SWAP5 SWAP8 POP SWAP3 SWAP6 SWAP4 SWAP5 SWAP3 POP POP POP JUMP JUMPDEST DUP1 CALLDATALOAD PUSH6 0xFFFFFFFFFFFF DUP2 AND DUP2 EQ PUSH2 0x24D0 JUMPI PUSH1 0x0 DUP1 REVERT JUMPDEST SWAP2 SWAP1 POP JUMP JUMPDEST PUSH1 0x0 DUP1 PUSH1 0x40 DUP4 DUP6 SUB SLT ISZERO PUSH2 0x24E8 JUMPI PUSH1 0x0 DUP1 REVERT JUMPDEST DUP3 CALLDATALOAD SWAP2 POP PUSH2 0x24F8 PUSH1 0x20 DUP5 ADD PUSH2 0x24BA JUMP JUMPDEST SWAP1 POP SWAP3 POP SWAP3 SWAP1 POP JUMP JUMPDEST PUSH1 0x0 DUP2 MLOAD DUP1 DUP5 MSTORE PUSH1 0x20 DUP5 ADD SWAP4 POP PUSH1 0x20 DUP4 ADD PUSH1 0x0 JUMPDEST DUP3 DUP2 LT ISZERO PUSH2 0x253E JUMPI PUSH2 0x2528 DUP7 DUP4 MLOAD PUSH2 0x235E JUMP JUMPDEST PUSH1 0xC0 SWAP6 SWAP1 SWAP6 ADD SWAP5 PUSH1 0x20 SWAP2 SWAP1 SWAP2 ADD SWAP1 PUSH1 0x1 ADD PUSH2 0x2515 JUMP JUMPDEST POP SWAP4 SWAP5 SWAP4 POP POP POP POP JUMP JUMPDEST PUSH1 0x20 DUP2 MSTORE PUSH5 0xFFFFFFFFFF DUP3 MLOAD AND PUSH1 0x20 DUP3 ADD MSTORE PUSH2 0xFFFF PUSH1 0x20 DUP4 ADD MLOAD AND PUSH1 0x40 DUP3 ADD MSTORE PUSH1 0x0 PUSH1 0x40 DUP4 ADD MLOAD PUSH1 0x60 DUP4 ADD PUSH1 0x0 JUMPDEST PUSH1 0x3 DUP2 LT ISZERO PUSH2 0x25A8 JUMPI DUP3 MLOAD DUP1 MLOAD PUSH1 0xFF AND DUP4 MSTORE PUSH1 0x20 SWAP1 DUP2 ADD MLOAD PUSH2 0xFFFF AND DUP2 DUP5 ADD MSTORE SWAP1 SWAP3 ADD SWAP2 PUSH1 0x40 SWAP1 SWAP2 ADD SWAP1 PUSH1 0x1 ADD PUSH2 0x2576 JUMP JUMPDEST POP POP POP PUSH1 0x60 DUP4 ADD MLOAD PUSH2 0x120 DUP1 DUP5 ADD MSTORE PUSH2 0x25C5 PUSH2 0x140 DUP5 ADD DUP3 PUSH2 0x2501 JUMP JUMPDEST SWAP5 SWAP4 POP POP POP POP JUMP JUMPDEST DUP1 CALLDATALOAD PUSH20 0xFFFFFFFFFFFFFFFFFFFFFFFFFFFFFFFFFFFFFFFF DUP2 AND DUP2 EQ PUSH2 0x24D0 JUMPI PUSH1 0x0 DUP1 REVERT JUMPDEST PUSH1 0x0 DUP1 PUSH1 0x40 DUP4 DUP6 SUB SLT ISZERO PUSH2 0x2604 JUMPI PUSH1 0x0 DUP1 REVERT JUMPDEST DUP3 CALLDATALOAD SWAP2 POP PUSH2 0x24F8 PUSH1 0x20 DUP5 ADD PUSH2 0x25CD JUMP JUMPDEST PUSH1 0x0 DUP1 PUSH1 0x0 PUSH1 0x60 DUP5 DUP7 SUB SLT ISZERO PUSH2 0x2629 JUMPI PUSH1 0x0 DUP1 REVERT JUMPDEST DUP4 CALLDATALOAD SWAP3 POP PUSH1 0x20 DUP5 ADD CALLDATALOAD SWAP2 POP PUSH1 0x40 DUP5 ADD CALLDATALOAD PUSH1 0xFF DUP2 AND DUP2 EQ PUSH2 0x2648 JUMPI PUSH1 0x0 DUP1 REVERT JUMPDEST DUP1 SWAP2 POP POP SWAP3 POP SWAP3 POP SWAP3 JUMP JUMPDEST PUSH1 0x0 PUSH1 0x20 DUP3 DUP5 SUB SLT ISZERO PUSH2 0x2665 JUMPI PUSH1 0x0 DUP1 REVERT JUMPDEST PUSH2 0x266E DUP3 PUSH2 0x25CD JUMP JUMPDEST SWAP4 SWAP3 POP POP POP JUMP JUMPDEST PUSH32 0x4E487B7100000000000000000000000000000000000000000000000000000000 PUSH1 0x0 MSTORE PUSH1 0x32 PUSH1 0x4 MSTORE PUSH1 0x24 PUSH1 0x0 REVERT JUMPDEST PUSH32 0x4E487B7100000000000000000000000000000000000000000000000000000000 PUSH1 0x0 MSTORE PUSH1 0x11 PUSH1 0x4 MSTORE PUSH1 0x24 PUSH1 0x0 REVERT JUMPDEST PUSH2 0xFFFF DUP2 DUP2 AND DUP4 DUP3 AND ADD SWAP1 DUP2 GT ISZERO PUSH2 0x209F JUMPI PUSH2 0x209F PUSH2 0x26A4 JUMP JUMPDEST DUP1 CALLDATALOAD PUSH2 0xFFFF DUP2 AND DUP2 EQ PUSH2 0x24D0 JUMPI PUSH1 0x0 DUP1 REVERT JUMPDEST PUSH1 0x0 PUSH1 0x20 DUP3 DUP5 SUB SLT ISZERO PUSH2 0x2711 JUMPI PUSH1 0x0 DUP1 REVERT JUMPDEST PUSH2 0x266E DUP3 PUSH2 0x26ED JUMP JUMPDEST DUP1 DUP3 MUL DUP2 ISZERO DUP3 DUP3 DIV DUP5 EQ OR PUSH2 0x209F JUMPI PUSH2 0x209F PUSH2 0x26A4 JUMP JUMPDEST PUSH1 0x0 PUSH1 0x20 DUP3 DUP5 SUB SLT ISZERO PUSH2 0x2743 JUMPI PUSH1 0x0 DUP1 REVERT JUMPDEST POP MLOAD SWAP2 SWAP1 POP JUMP JUMPDEST DUP2 DUP2 SUB DUP2 DUP2 GT ISZERO PUSH2 0x209F JUMPI PUSH2 0x209F PUSH2 0x26A4 JUMP JUMPDEST PUSH32 0x4E487B7100000000000000000000000000000000000000000000000000000000 PUSH1 0x0 MSTORE PUSH1 0x12 PUSH1 0x4 MSTORE PUSH1 0x24 PUSH1 0x0 REVERT JUMPDEST PUSH1 0x0 PUSH2 0xFFFF DUP4 AND DUP1 PUSH2 0x27A0 JUMPI PUSH2 0x27A0 PUSH2 0x275D JUMP JUMPDEST DUP1 PUSH2 0xFFFF DUP5 AND MOD SWAP2 POP POP SWAP3 SWAP2 POP POP JUMP JUMPDEST PUSH1 0x0 PUSH1 0x20 DUP3 DUP5 SUB SLT ISZERO PUSH2 0x27C2 JUMPI PUSH1 0x0 DUP1 REVERT JUMPDEST PUSH2 0x266E DUP3 PUSH2 0x24BA JUMP JUMPDEST DUP3 DUP2 MSTORE PUSH1 0x80 DUP2 ADD PUSH1 0x20 DUP3 ADD DUP4 PUSH1 0x0 JUMPDEST PUSH1 0x3 DUP2 LT ISZERO PUSH2 0x2805 JUMPI PUSH2 0xFFFF PUSH2 0x27EF DUP4 PUSH2 0x26ED JUMP JUMPDEST AND DUP4 MSTORE PUSH1 0x20 SWAP3 DUP4 ADD SWAP3 SWAP2 SWAP1 SWAP2 ADD SWAP1 PUSH1 0x1 ADD PUSH2 0x27DA JUMP JUMPDEST POP POP POP SWAP4 SWAP3 POP POP POP JUMP JUMPDEST DUP1 DUP3 ADD DUP1 DUP3 GT ISZERO PUSH2 0x209F JUMPI PUSH2 0x209F PUSH2 0x26A4 JUMP JUMPDEST PUSH1 0x0 PUSH1 0x20 DUP3 DUP5 SUB SLT ISZERO PUSH2 0x2834 JUMPI PUSH1 0x0 DUP1 REVERT JUMPDEST DUP2 MLOAD DUP1 ISZERO ISZERO DUP2 EQ PUSH2 0x266E JUMPI PUSH1 0x0 DUP1 REVERT JUMPDEST PUSH1 0x0 PUSH2 0xFFFF DUP4 AND DUP1 PUSH2 0x2858 JUMPI PUSH2 0x2858 PUSH2 0x275D JUMP JUMPDEST DUP1 PUSH2 0xFFFF DUP5 AND DIV SWAP2 POP POP SWAP3 SWAP2 POP POP JUMP INVALID LOG2 PUSH5 0x6970667358 0x22 SLT KECCAK256 SWAP9 MCOPY PUSH11 0xE02ECF8229D98DECD11C04 0xF8 REVERT PUSH26 0xE4766810569DC0B7DC8144921FAF6A64736F6C634300081A0033 "
        },
        "methodIdentifiers": {
          "BOND()": "c1c1d218",
          "DONATION_CLAIM_DEADLINE()": "45fbcafa",
          "HUNT()": "cefa8922",
          "HUNT_PER_MINI_BUILDING()": "fddd6397",
          "MINI_BUILDING_ADDRESS()": "0c933edf",
          "TOP3_CLAIM_DEADLINE()": "94285922",
          "claimByTop3(uint256,uint256,uint8)": "e70d6893",
          "claimDonation(uint256,uint256)": "218ff65a",
          "claimableDonationAmount(uint256,uint256)": "6a13f0cb",
          "currentSeason()": "bcb39621",
          "deposit(uint256)": "b6b55f25",
          "emergencyWithdraw()": "db2e21bc",
          "getClaimableAmountByTop3(uint256,uint256)": "b86c9e5e",
          "getRankerAt(uint256,uint256)": "71e20cdc",
          "getRankersCount(uint256)": "03956c7e",
          "getRankingByFid(uint256,uint48)": "813d243c",
          "getRankingByWallet(uint256,address)": "d88f836a",
          "getSeason(uint256)": "a43d8654",
          "isDonationClaimableNow(uint256)": "a51710dd",
          "owner()": "8da5cb5b",
          "renounceOwnership()": "715018a6",
          "setSeasonData(uint256,uint16[3],uint48[],address[])": "73d5f652",
          "transferOwnership(address)": "f2fde38b"
        }
      }
    }
  }
}