{
  "contracts/BuilderGrantV2.sol": {
    "BuilderGrantV2": {
      "abi": [
        {
          "inputs": [
            {
              "internalType": "address",
              "name": "bond",
              "type": "address"
            },
            {
              "internalType": "address",
              "name": "hunt",
              "type": "address"
            },
            {
              "internalType": "address",
              "name": "miniBuilding",
              "type": "address"
            }
          ],
          "stateMutability": "nonpayable",
          "type": "constructor"
        },
        {
          "inputs": [],
          "name": "AlreadyClaimed",
          "type": "error"
        },
        {
          "inputs": [],
          "name": "ClaimDeadlineReached",
          "type": "error"
        },
        {
          "inputs": [],
          "name": "InvalidRankersParams",
          "type": "error"
        },
        {
          "inputs": [],
          "name": "InvalidSeasonId",
          "type": "error"
        },
        {
          "inputs": [],
          "name": "NotARanker",
          "type": "error"
        },
        {
          "inputs": [],
          "name": "NotEnoughGrantBalance",
          "type": "error"
        },
        {
          "inputs": [],
          "name": "NothingToClaim",
          "type": "error"
        },
        {
          "inputs": [
            {
              "internalType": "address",
              "name": "owner",
              "type": "address"
            }
          ],
          "name": "OwnableInvalidOwner",
          "type": "error"
        },
        {
          "inputs": [
            {
              "internalType": "address",
              "name": "account",
              "type": "address"
            }
          ],
          "name": "OwnableUnauthorizedAccount",
          "type": "error"
        },
        {
          "inputs": [],
          "name": "SeasonDataIsNotUpdateable",
          "type": "error"
        },
        {
          "inputs": [],
          "name": "TokenTransferFailed",
          "type": "error"
        },
        {
          "anonymous": false,
          "inputs": [
            {
              "indexed": true,
              "internalType": "address",
              "name": "claimer",
              "type": "address"
            },
            {
              "indexed": true,
              "internalType": "uint256",
              "name": "seasonId",
              "type": "uint256"
            },
            {
              "indexed": false,
              "internalType": "uint256",
              "name": "ranking",
              "type": "uint256"
            },
            {
              "indexed": false,
              "internalType": "uint16",
              "name": "amount",
              "type": "uint16"
            }
          ],
          "name": "ClaimReward",
          "type": "event"
        },
        {
          "anonymous": false,
          "inputs": [
            {
              "indexed": true,
              "internalType": "address",
              "name": "depositor",
              "type": "address"
            },
            {
              "indexed": false,
              "internalType": "uint256",
              "name": "huntAmount",
              "type": "uint256"
            }
          ],
          "name": "Deposit",
          "type": "event"
        },
        {
          "anonymous": false,
          "inputs": [
            {
              "indexed": true,
              "internalType": "address",
              "name": "withdrawer",
              "type": "address"
            },
            {
              "indexed": false,
              "internalType": "uint256",
              "name": "huntAmount",
              "type": "uint256"
            }
          ],
          "name": "EmergencyWithdraw",
          "type": "event"
        },
        {
          "anonymous": false,
          "inputs": [
            {
              "indexed": true,
              "internalType": "address",
              "name": "previousOwner",
              "type": "address"
            },
            {
              "indexed": true,
              "internalType": "address",
              "name": "newOwner",
              "type": "address"
            }
          ],
          "name": "OwnershipTransferred",
          "type": "event"
        },
        {
          "anonymous": false,
          "inputs": [
            {
              "indexed": true,
              "internalType": "uint256",
              "name": "seasonId",
              "type": "uint256"
            },
            {
              "indexed": false,
              "internalType": "uint256",
              "name": "rankersCount",
              "type": "uint256"
            }
          ],
          "name": "SetSeasonData",
          "type": "event"
        },
        {
          "inputs": [],
          "name": "BOND",
          "outputs": [
            {
              "internalType": "contract IMCV2_Bond",
              "name": "",
              "type": "address"
            }
          ],
          "stateMutability": "view",
          "type": "function"
        },
        {
          "inputs": [],
          "name": "CLAIM_DEADLINE",
          "outputs": [
            {
              "internalType": "uint256",
              "name": "",
              "type": "uint256"
            }
          ],
          "stateMutability": "view",
          "type": "function"
        },
        {
          "inputs": [],
          "name": "HUNT",
          "outputs": [
            {
              "internalType": "contract IERC20",
              "name": "",
              "type": "address"
            }
          ],
          "stateMutability": "view",
          "type": "function"
        },
        {
          "inputs": [],
          "name": "HUNT_PER_MINI_BUILDING",
          "outputs": [
            {
              "internalType": "uint256",
              "name": "",
              "type": "uint256"
            }
          ],
          "stateMutability": "view",
          "type": "function"
        },
        {
          "inputs": [],
          "name": "MINI_BUILDING_ADDRESS",
          "outputs": [
            {
              "internalType": "address",
              "name": "",
              "type": "address"
            }
          ],
          "stateMutability": "view",
          "type": "function"
        },
        {
          "inputs": [
            {
              "internalType": "uint256",
              "name": "seasonId",
              "type": "uint256"
            }
          ],
          "name": "claimReward",
          "outputs": [],
          "stateMutability": "nonpayable",
          "type": "function"
        },
        {
          "inputs": [],
          "name": "currentSeason",
          "outputs": [
            {
              "internalType": "uint256",
              "name": "",
              "type": "uint256"
            }
          ],
          "stateMutability": "view",
          "type": "function"
        },
        {
          "inputs": [
            {
              "internalType": "uint256",
              "name": "huntAmount",
              "type": "uint256"
            }
          ],
          "name": "deposit",
          "outputs": [],
          "stateMutability": "nonpayable",
          "type": "function"
        },
        {
          "inputs": [],
          "name": "emergencyWithdraw",
          "outputs": [],
          "stateMutability": "nonpayable",
          "type": "function"
        },
        {
          "inputs": [
            {
              "internalType": "uint256",
              "name": "seasonId",
              "type": "uint256"
            },
            {
              "internalType": "uint256",
              "name": "index",
              "type": "uint256"
            }
          ],
          "name": "getRankerAt",
          "outputs": [
            {
              "components": [
                {
                  "internalType": "uint48",
                  "name": "fid",
                  "type": "uint48"
                },
                {
                  "internalType": "address",
                  "name": "wallet",
                  "type": "address"
                },
                {
                  "internalType": "uint16",
                  "name": "totalReward",
                  "type": "uint16"
                },
                {
                  "internalType": "bool",
                  "name": "isClaimed",
                  "type": "bool"
                }
              ],
              "internalType": "struct BuilderGrantV2.Ranker",
              "name": "",
              "type": "tuple"
            }
          ],
          "stateMutability": "view",
          "type": "function"
        },
        {
          "inputs": [
            {
              "internalType": "uint256",
              "name": "seasonId",
              "type": "uint256"
            }
          ],
          "name": "getRankersCount",
          "outputs": [
            {
              "internalType": "uint256",
              "name": "",
              "type": "uint256"
            }
          ],
          "stateMutability": "view",
          "type": "function"
        },
        {
          "inputs": [
            {
              "internalType": "uint256",
              "name": "seasonId",
              "type": "uint256"
            },
            {
              "internalType": "uint48",
              "name": "fid",
              "type": "uint48"
            }
          ],
          "name": "getRankingByFid",
          "outputs": [
            {
              "internalType": "uint256",
              "name": "",
              "type": "uint256"
            }
          ],
          "stateMutability": "view",
          "type": "function"
        },
        {
          "inputs": [
            {
              "internalType": "uint256",
              "name": "seasonId",
              "type": "uint256"
            },
            {
              "internalType": "address",
              "name": "wallet",
              "type": "address"
            }
          ],
          "name": "getRankingByWallet",
          "outputs": [
            {
              "internalType": "uint256",
              "name": "",
              "type": "uint256"
            }
          ],
          "stateMutability": "view",
          "type": "function"
        },
        {
          "inputs": [
            {
              "internalType": "uint256",
              "name": "seasonId",
              "type": "uint256"
            }
          ],
          "name": "getSeason",
          "outputs": [
            {
              "components": [
                {
                  "internalType": "uint40",
                  "name": "claimStartedAt",
                  "type": "uint40"
                },
                {
                  "internalType": "uint16",
                  "name": "totalClaimed",
                  "type": "uint16"
                },
                {
                  "components": [
                    {
                      "internalType": "uint48",
                      "name": "fid",
                      "type": "uint48"
                    },
                    {
                      "internalType": "address",
                      "name": "wallet",
                      "type": "address"
                    },
                    {
                      "internalType": "uint16",
                      "name": "totalReward",
                      "type": "uint16"
                    },
                    {
                      "internalType": "bool",
                      "name": "isClaimed",
                      "type": "bool"
                    }
                  ],
                  "internalType": "struct BuilderGrantV2.Ranker[]",
                  "name": "rankers",
                  "type": "tuple[]"
                }
              ],
              "internalType": "struct BuilderGrantV2.Season",
              "name": "",
              "type": "tuple"
            }
          ],
          "stateMutability": "view",
          "type": "function"
        },
        {
          "inputs": [],
          "name": "owner",
          "outputs": [
            {
              "internalType": "address",
              "name": "",
              "type": "address"
            }
          ],
          "stateMutability": "view",
          "type": "function"
        },
        {
          "inputs": [],
          "name": "renounceOwnership",
          "outputs": [],
          "stateMutability": "nonpayable",
          "type": "function"
        },
        {
          "inputs": [
            {
              "internalType": "uint256",
              "name": "seasonId",
              "type": "uint256"
            },
            {
              "internalType": "uint48[]",
              "name": "fids",
              "type": "uint48[]"
            },
            {
              "internalType": "address[]",
              "name": "wallets",
              "type": "address[]"
            },
            {
              "internalType": "uint16[]",
              "name": "rewardAmounts",
              "type": "uint16[]"
            }
          ],
          "name": "setSeasonData",
          "outputs": [],
          "stateMutability": "nonpayable",
          "type": "function"
        },
        {
          "inputs": [
            {
              "internalType": "address",
              "name": "newOwner",
              "type": "address"
            }
          ],
          "name": "transferOwnership",
          "outputs": [],
          "stateMutability": "nonpayable",
          "type": "function"
        }
      ],
      "evm": {
        "bytecode": {
          "linkReferences": {},
          "object": "60e060405234801561001057600080fd5b50604051611ccf380380611ccf83398101604081905261002f9161015b565b338061005557604051631e4fbdf760e01b81526000600482015260240160405180910390fd5b61005e816100ef565b506001600160a01b0383811660a0819052838216608081905291831660c05260405163095ea7b360e01b81526004810191909152600019602482015263095ea7b3906044016020604051808303816000875af11580156100c2573d6000803e3d6000fd5b505050506040513d601f19601f820116820180604052508101906100e6919061019e565b505050506101c7565b600080546001600160a01b038381166001600160a01b0319831681178455604051919092169283917f8be0079c531659141344cd1fd0a4f28419497f9722a3daafe3b4186f6b6457e09190a35050565b80516001600160a01b038116811461015657600080fd5b919050565b60008060006060848603121561017057600080fd5b6101798461013f565b92506101876020850161013f565b91506101956040850161013f565b90509250925092565b6000602082840312156101b057600080fd5b815180151581146101c057600080fd5b9392505050565b60805160a05160c051611aaf610220600039600081816101660152611534015260008181610265015261150d01526000818161028c01528181610a7901528181610de60152818161121e01526112d80152611aaf6000f3fe608060405234801561001057600080fd5b50600436106101365760003560e01c8063b6b55f25116100b2578063d47a7fe411610081578063db2e21bc11610066578063db2e21bc146102d4578063f2fde38b146102dc578063fddd6397146102ef57600080fd5b8063d47a7fe4146102ae578063d88f836a146102c157600080fd5b8063b6b55f2514610245578063bcb3962114610258578063c1c1d21814610260578063cefa89221461028757600080fd5b806371e20cdc116101095780638da5cb5b116100ee5780638da5cb5b146101f4578063a43d865414610212578063ae169a501461023257600080fd5b806371e20cdc146101c1578063813d243c146101e157600080fd5b806303956c7e1461013b5780630c933edf1461016157806342f81580146101ad578063715018a6146101b7575b600080fd5b61014e610149366004611664565b6102ff565b6040519081526020015b60405180910390f35b6101887f000000000000000000000000000000000000000000000000000000000000000081565b60405173ffffffffffffffffffffffffffffffffffffffff9091168152602001610158565b61014e6224ea0081565b6101bf61036d565b005b6101d46101cf36600461167d565b610381565b604051610158919061169f565b61014e6101ef36600461170b565b6104be565b60005473ffffffffffffffffffffffffffffffffffffffff16610188565b610225610220366004611664565b6105aa565b6040516101589190611737565b6101bf610240366004611664565b610733565b6101bf610253366004611664565b610a21565b60015461014e565b6101887f000000000000000000000000000000000000000000000000000000000000000081565b6101887f000000000000000000000000000000000000000000000000000000000000000081565b6101bf6102bc366004611844565b610b72565b61014e6102cf366004611918565b6110eb565b6101bf6111ca565b6101bf6102ea36600461193b565b6113c5565b61014e68056bc75e2d6310000081565b6001546000908290811061033f576040517f0a55f88000000000000000000000000000000000000000000000000000000000815260040160405180910390fd5b600183815481106103525761035261195d565b60009182526020909120600160029092020101549392505050565b61037561142e565b61037f6000611481565b565b604080516080810182526000808252602082018190529181018290526060810191909152600154839081106103e2576040517f0a55f88000000000000000000000000000000000000000000000000000000000815260040160405180910390fd5b600184815481106103f5576103f561195d565b906000526020600020906002020160010183815481106104175761041761195d565b600091825260209182902060408051608081018252929091015465ffffffffffff811683526601000000000000810473ffffffffffffffffffffffffffffffffffffffff16938301939093527a010000000000000000000000000000000000000000000000000000830461ffff16908201527c010000000000000000000000000000000000000000000000000000000090910460ff161515606082015291505b5092915050565b600154600090839081106104fe576040517f0a55f88000000000000000000000000000000000000000000000000000000000815260040160405180910390fd5b6000600185815481106105135761051361195d565b9060005260206000209060020201600101905060005b8154811015610577578465ffffffffffff1682828154811061054d5761054d61195d565b60009182526020909120015465ffffffffffff160361056f5792506104b79050565b600101610529565b506040517f3462926b00000000000000000000000000000000000000000000000000000000815260040160405180910390fd5b6040805160608082018352600080835260208301529181019190915260015482908110610603576040517f0a55f88000000000000000000000000000000000000000000000000000000000815260040160405180910390fd5b600183815481106106165761061661195d565b60009182526020808320604080516060810182526002909402909101805464ffffffffff8116855261ffff650100000000009091041684840152600181018054835181860281018601855281815295969295938701949192909184015b82821015610724576000848152602090819020604080516080810182529185015465ffffffffffff811683526601000000000000810473ffffffffffffffffffffffffffffffffffffffff16838501527a010000000000000000000000000000000000000000000000000000810461ffff16918301919091527c0100000000000000000000000000000000000000000000000000000000900460ff1615156060820152825260019092019101610673565b50505091525090949350505050565b60015481908110610770576040517f0a55f88000000000000000000000000000000000000000000000000000000000815260040160405180910390fd5b33600061077d84836110eb565b90506000600185815481106107945761079461195d565b60009182526020909120600290910201805490915042906107c0906224ea009064ffffffffff166119bb565b10156107f8576040517f4da70d2700000000000000000000000000000000000000000000000000000000815260040160405180910390fd5b600081600101838154811061080f5761080f61195d565b6000918252602082200180549092507a010000000000000000000000000000000000000000000000000000900461ffff169003610878576040517f969bf72800000000000000000000000000000000000000000000000000000000815260040160405180910390fd5b80547c0100000000000000000000000000000000000000000000000000000000900460ff16156108d4576040517f646cf55800000000000000000000000000000000000000000000000000000000815260040160405180910390fd5b80547fffffff00ffffffffffffffffffffffffffffffffffffffffffffffffffffffff167c010000000000000000000000000000000000000000000000000000000017808255825461ffff7a010000000000000000000000000000000000000000000000000000909204821691849160059161095c91859165010000000000909104166119ce565b82546101009290920a61ffff81810219909316918316021790915582546109a392507a010000000000000000000000000000000000000000000000000000900416856114f6565b8054604080518581527a01000000000000000000000000000000000000000000000000000090920461ffff166020830152879173ffffffffffffffffffffffffffffffffffffffff8716917fc1b01b538ef07961130fcc4bd2f7cce3ce5f47e1ea624522867be5c5dbf90034910160405180910390a3505050505050565b6000336040517f23b872dd00000000000000000000000000000000000000000000000000000000815273ffffffffffffffffffffffffffffffffffffffff8083166004830152306024830152604482018590529192507f0000000000000000000000000000000000000000000000000000000000000000909116906323b872dd906064016020604051808303816000875af1158015610ac4573d6000803e3d6000fd5b505050506040513d601f19601f82011682018060405250810190610ae891906119e8565b610b1e576040517f045c4b0200000000000000000000000000000000000000000000000000000000815260040160405180910390fd5b8073ffffffffffffffffffffffffffffffffffffffff167fe1fffcc4923d04b559f4d29a8bfc6cda04eb5b0d3c460751c2402c5c5cc9109c83604051610b6691815260200190565b60405180910390a25050565b610b7a61142e565b84801580610b885750808414155b80610b935750808214155b15610bca576040517f9a5b513b00000000000000000000000000000000000000000000000000000000815260040160405180910390fd5b605d811115610c05576040517f9a5b513b00000000000000000000000000000000000000000000000000000000815260040160405180910390fd5b6000805b82811015610cb457848482818110610c2357610c2361195d565b9050602002016020810190610c389190611a0a565b61ffff16600003610c75576040517f9a5b513b00000000000000000000000000000000000000000000000000000000815260040160405180910390fd5b848482818110610c8757610c8761195d565b9050602002016020810190610c9c9190611a0a565b610caa9061ffff16836119bb565b9150600101610c09565b50600154891115610cf1576040517f0a55f88000000000000000000000000000000000000000000000000000000000815260040160405180910390fd5b6001548903610d0a576001805481018155600052610da5565b600060018a81548110610d1f57610d1f61195d565b600091825260209091206002909102015465010000000000900461ffff161115610d75576040517fbf5be99e00000000000000000000000000000000000000000000000000000000815260040160405180910390fd5b60018981548110610d8857610d8861195d565b90600052602060002090600202016001016000610da59190611610565b610db868056bc75e2d6310000082611a2e565b6040517f70a082310000000000000000000000000000000000000000000000000000000081523060048201527f000000000000000000000000000000000000000000000000000000000000000073ffffffffffffffffffffffffffffffffffffffff16906370a0823190602401602060405180830381865afa158015610e42573d6000803e3d6000fd5b505050506040513d601f19601f82011682018060405250810190610e669190611a45565b1015610e9e576040517f6a56423500000000000000000000000000000000000000000000000000000000815260040160405180910390fd5b600060018a81548110610eb357610eb361195d565b9060005260206000209060020201905060005b838110156110a4578160010160405180608001604052808c8c85818110610eef57610eef61195d565b9050602002016020810190610f049190611a5e565b65ffffffffffff1681526020018a8a85818110610f2357610f2361195d565b9050602002016020810190610f38919061193b565b73ffffffffffffffffffffffffffffffffffffffff168152602001888885818110610f6557610f6561195d565b9050602002016020810190610f7a9190611a0a565b61ffff9081168252600060209283018190528454600181810187559582529083902084519101805493850151604086015160609096015115157c0100000000000000000000000000000000000000000000000000000000027fffffff00ffffffffffffffffffffffffffffffffffffffffffffffffffffffff969094167a01000000000000000000000000000000000000000000000000000002959095167fffffff000000ffffffffffffffffffffffffffffffffffffffffffffffffffff73ffffffffffffffffffffffffffffffffffffffff9096166601000000000000027fffffffffffff000000000000000000000000000000000000000000000000000090951665ffffffffffff9093169290921793909317939093169290921791909117905501610ec6565b50897ff00c889fc670770f422c540a0cc4472a91afced492ba7c62cbf88645d645d3fd846040516110d791815260200190565b60405180910390a250505050505050505050565b6001546000908390811061112b576040517f0a55f88000000000000000000000000000000000000000000000000000000000815260040160405180910390fd5b6000600185815481106111405761114061195d565b9060005260206000209060020201600101905060005b8154811015610577578473ffffffffffffffffffffffffffffffffffffffff168282815481106111885761118861195d565b6000918252602090912001546601000000000000900473ffffffffffffffffffffffffffffffffffffffff16036111c25792506104b79050565b600101611156565b6111d261142e565b6000336040517f70a0823100000000000000000000000000000000000000000000000000000000815230600482015290915060009073ffffffffffffffffffffffffffffffffffffffff7f000000000000000000000000000000000000000000000000000000000000000016906370a0823190602401602060405180830381865afa158015611265573d6000803e3d6000fd5b505050506040513d601f19601f820116820180604052508101906112899190611a45565b6040517fa9059cbb00000000000000000000000000000000000000000000000000000000815273ffffffffffffffffffffffffffffffffffffffff8481166004830152602482018390529192507f00000000000000000000000000000000000000000000000000000000000000009091169063a9059cbb906044016020604051808303816000875af1158015611323573d6000803e3d6000fd5b505050506040513d601f19601f8201168201806040525081019061134791906119e8565b61137d576040517f045c4b0200000000000000000000000000000000000000000000000000000000815260040160405180910390fd5b8173ffffffffffffffffffffffffffffffffffffffff167f5fafa99d0643513820be26656b45130b01e1c03062e1266bf36f88cbd3bd969582604051610b6691815260200190565b6113cd61142e565b73ffffffffffffffffffffffffffffffffffffffff8116611422576040517f1e4fbdf7000000000000000000000000000000000000000000000000000000008152600060048201526024015b60405180910390fd5b61142b81611481565b50565b60005473ffffffffffffffffffffffffffffffffffffffff16331461037f576040517f118cdaa7000000000000000000000000000000000000000000000000000000008152336004820152602401611419565b6000805473ffffffffffffffffffffffffffffffffffffffff8381167fffffffffffffffffffffffff0000000000000000000000000000000000000000831681178455604051919092169283917f8be0079c531659141344cd1fd0a4f28419497f9722a3daafe3b4186f6b6457e09190a35050565b73ffffffffffffffffffffffffffffffffffffffff7f00000000000000000000000000000000000000000000000000000000000000001663f74bfe8e7f0000000000000000000000000000000000000000000000000000000000000000846115678168056bc75e2d63100000611a2e565b6040517fffffffff0000000000000000000000000000000000000000000000000000000060e086901b16815273ffffffffffffffffffffffffffffffffffffffff93841660048201526024810192909252604482015290841660648201526084016020604051808303816000875af11580156115e7573d6000803e3d6000fd5b505050506040513d601f19601f8201168201806040525081019061160b9190611a45565b505050565b508054600082559060005260206000209081019061142b91905b808211156116605780547fffffff000000000000000000000000000000000000000000000000000000000016815560010161162a565b5090565b60006020828403121561167657600080fd5b5035919050565b6000806040838503121561169057600080fd5b50508035926020909101359150565b815165ffffffffffff16815260208083015173ffffffffffffffffffffffffffffffffffffffff169082015260408083015161ffff1690820152606080830151151590820152608081015b92915050565b803565ffffffffffff8116811461170657600080fd5b919050565b6000806040838503121561171e57600080fd5b8235915061172e602084016116f0565b90509250929050565b6020815260006080820164ffffffffff845116602084015261ffff6020850151166040840152604084015160608085015281815180845260a086019150602083019350600092505b808310156117ee576117d782855165ffffffffffff815116825273ffffffffffffffffffffffffffffffffffffffff602082015116602083015261ffff60408201511660408301526060810151151560608301525050565b60808201915060208401935060018301925061177f565b5095945050505050565b60008083601f84011261180a57600080fd5b50813567ffffffffffffffff81111561182257600080fd5b6020830191508360208260051b850101111561183d57600080fd5b9250929050565b60008060008060008060006080888a03121561185f57600080fd5b87359650602088013567ffffffffffffffff81111561187d57600080fd5b6118898a828b016117f8565b909750955050604088013567ffffffffffffffff8111156118a957600080fd5b6118b58a828b016117f8565b909550935050606088013567ffffffffffffffff8111156118d557600080fd5b6118e18a828b016117f8565b989b979a50959850939692959293505050565b803573ffffffffffffffffffffffffffffffffffffffff8116811461170657600080fd5b6000806040838503121561192b57600080fd5b8235915061172e602084016118f4565b60006020828403121561194d57600080fd5b611956826118f4565b9392505050565b7f4e487b7100000000000000000000000000000000000000000000000000000000600052603260045260246000fd5b7f4e487b7100000000000000000000000000000000000000000000000000000000600052601160045260246000fd5b808201808211156116ea576116ea61198c565b61ffff81811683821601908111156116ea576116ea61198c565b6000602082840312156119fa57600080fd5b8151801515811461195657600080fd5b600060208284031215611a1c57600080fd5b813561ffff8116811461195657600080fd5b80820281158282048414176116ea576116ea61198c565b600060208284031215611a5757600080fd5b5051919050565b600060208284031215611a7057600080fd5b611956826116f056fea2646970667358221220cc56d7a89645d88239b1a2aeee5a0f823ec7c6061a3eed9755baaa6422f8726264736f6c634300081a0033",
          "opcodes": "PUSH1 0xE0 PUSH1 0x40 MSTORE CALLVALUE DUP1 ISZERO PUSH2 0x10 JUMPI PUSH1 0x0 DUP1 REVERT JUMPDEST POP PUSH1 0x40 MLOAD PUSH2 0x1CCF CODESIZE SUB DUP1 PUSH2 0x1CCF DUP4 CODECOPY DUP2 ADD PUSH1 0x40 DUP2 SWAP1 MSTORE PUSH2 0x2F SWAP2 PUSH2 0x15B JUMP JUMPDEST CALLER DUP1 PUSH2 0x55 JUMPI PUSH1 0x40 MLOAD PUSH4 0x1E4FBDF7 PUSH1 0xE0 SHL DUP2 MSTORE PUSH1 0x0 PUSH1 0x4 DUP3 ADD MSTORE PUSH1 0x24 ADD PUSH1 0x40 MLOAD DUP1 SWAP2 SUB SWAP1 REVERT JUMPDEST PUSH2 0x5E DUP2 PUSH2 0xEF JUMP JUMPDEST POP PUSH1 0x1 PUSH1 0x1 PUSH1 0xA0 SHL SUB DUP4 DUP2 AND PUSH1 0xA0 DUP2 SWAP1 MSTORE DUP4 DUP3 AND PUSH1 0x80 DUP2 SWAP1 MSTORE SWAP2 DUP4 AND PUSH1 0xC0 MSTORE PUSH1 0x40 MLOAD PUSH4 0x95EA7B3 PUSH1 0xE0 SHL DUP2 MSTORE PUSH1 0x4 DUP2 ADD SWAP2 SWAP1 SWAP2 MSTORE PUSH1 0x0 NOT PUSH1 0x24 DUP3 ADD MSTORE PUSH4 0x95EA7B3 SWAP1 PUSH1 0x44 ADD PUSH1 0x20 PUSH1 0x40 MLOAD DUP1 DUP4 SUB DUP2 PUSH1 0x0 DUP8 GAS CALL ISZERO DUP1 ISZERO PUSH2 0xC2 JUMPI RETURNDATASIZE PUSH1 0x0 DUP1 RETURNDATACOPY RETURNDATASIZE PUSH1 0x0 REVERT JUMPDEST POP POP POP POP PUSH1 0x40 MLOAD RETURNDATASIZE PUSH1 0x1F NOT PUSH1 0x1F DUP3 ADD AND DUP3 ADD DUP1 PUSH1 0x40 MSTORE POP DUP2 ADD SWAP1 PUSH2 0xE6 SWAP2 SWAP1 PUSH2 0x19E JUMP JUMPDEST POP POP POP POP PUSH2 0x1C7 JUMP JUMPDEST PUSH1 0x0 DUP1 SLOAD PUSH1 0x1 PUSH1 0x1 PUSH1 0xA0 SHL SUB DUP4 DUP2 AND PUSH1 0x1 PUSH1 0x1 PUSH1 0xA0 SHL SUB NOT DUP4 AND DUP2 OR DUP5 SSTORE PUSH1 0x40 MLOAD SWAP2 SWAP1 SWAP3 AND SWAP3 DUP4 SWAP2 PUSH32 0x8BE0079C531659141344CD1FD0A4F28419497F9722A3DAAFE3B4186F6B6457E0 SWAP2 SWAP1 LOG3 POP POP JUMP JUMPDEST DUP1 MLOAD PUSH1 0x1 PUSH1 0x1 PUSH1 0xA0 SHL SUB DUP2 AND DUP2 EQ PUSH2 0x156 JUMPI PUSH1 0x0 DUP1 REVERT JUMPDEST SWAP2 SWAP1 POP JUMP JUMPDEST PUSH1 0x0 DUP1 PUSH1 0x0 PUSH1 0x60 DUP5 DUP7 SUB SLT ISZERO PUSH2 0x170 JUMPI PUSH1 0x0 DUP1 REVERT JUMPDEST PUSH2 0x179 DUP5 PUSH2 0x13F JUMP JUMPDEST SWAP3 POP PUSH2 0x187 PUSH1 0x20 DUP6 ADD PUSH2 0x13F JUMP JUMPDEST SWAP2 POP PUSH2 0x195 PUSH1 0x40 DUP6 ADD PUSH2 0x13F JUMP JUMPDEST SWAP1 POP SWAP3 POP SWAP3 POP SWAP3 JUMP JUMPDEST PUSH1 0x0 PUSH1 0x20 DUP3 DUP5 SUB SLT ISZERO PUSH2 0x1B0 JUMPI PUSH1 0x0 DUP1 REVERT JUMPDEST DUP2 MLOAD DUP1 ISZERO ISZERO DUP2 EQ PUSH2 0x1C0 JUMPI PUSH1 0x0 DUP1 REVERT JUMPDEST SWAP4 SWAP3 POP POP POP JUMP JUMPDEST PUSH1 0x80 MLOAD PUSH1 0xA0 MLOAD PUSH1 0xC0 MLOAD PUSH2 0x1AAF PUSH2 0x220 PUSH1 0x0 CODECOPY PUSH1 0x0 DUP2 DUP2 PUSH2 0x166 ADD MSTORE PUSH2 0x1534 ADD MSTORE PUSH1 0x0 DUP2 DUP2 PUSH2 0x265 ADD MSTORE PUSH2 0x150D ADD MSTORE PUSH1 0x0 DUP2 DUP2 PUSH2 0x28C ADD MSTORE DUP2 DUP2 PUSH2 0xA79 ADD MSTORE DUP2 DUP2 PUSH2 0xDE6 ADD MSTORE DUP2 DUP2 PUSH2 0x121E ADD MSTORE PUSH2 0x12D8 ADD MSTORE PUSH2 0x1AAF PUSH1 0x0 RETURN INVALID PUSH1 0x80 PUSH1 0x40 MSTORE CALLVALUE DUP1 ISZERO PUSH2 0x10 JUMPI PUSH1 0x0 DUP1 REVERT JUMPDEST POP PUSH1 0x4 CALLDATASIZE LT PUSH2 0x136 JUMPI PUSH1 0x0 CALLDATALOAD PUSH1 0xE0 SHR DUP1 PUSH4 0xB6B55F25 GT PUSH2 0xB2 JUMPI DUP1 PUSH4 0xD47A7FE4 GT PUSH2 0x81 JUMPI DUP1 PUSH4 0xDB2E21BC GT PUSH2 0x66 JUMPI DUP1 PUSH4 0xDB2E21BC EQ PUSH2 0x2D4 JUMPI DUP1 PUSH4 0xF2FDE38B EQ PUSH2 0x2DC JUMPI DUP1 PUSH4 0xFDDD6397 EQ PUSH2 0x2EF JUMPI PUSH1 0x0 DUP1 REVERT JUMPDEST DUP1 PUSH4 0xD47A7FE4 EQ PUSH2 0x2AE JUMPI DUP1 PUSH4 0xD88F836A EQ PUSH2 0x2C1 JUMPI PUSH1 0x0 DUP1 REVERT JUMPDEST DUP1 PUSH4 0xB6B55F25 EQ PUSH2 0x245 JUMPI DUP1 PUSH4 0xBCB39621 EQ PUSH2 0x258 JUMPI DUP1 PUSH4 0xC1C1D218 EQ PUSH2 0x260 JUMPI DUP1 PUSH4 0xCEFA8922 EQ PUSH2 0x287 JUMPI PUSH1 0x0 DUP1 REVERT JUMPDEST DUP1 PUSH4 0x71E20CDC GT PUSH2 0x109 JUMPI DUP1 PUSH4 0x8DA5CB5B GT PUSH2 0xEE JUMPI DUP1 PUSH4 0x8DA5CB5B EQ PUSH2 0x1F4 JUMPI DUP1 PUSH4 0xA43D8654 EQ PUSH2 0x212 JUMPI DUP1 PUSH4 0xAE169A50 EQ PUSH2 0x232 JUMPI PUSH1 0x0 DUP1 REVERT JUMPDEST DUP1 PUSH4 0x71E20CDC EQ PUSH2 0x1C1 JUMPI DUP1 PUSH4 0x813D243C EQ PUSH2 0x1E1 JUMPI PUSH1 0x0 DUP1 REVERT JUMPDEST DUP1 PUSH4 0x3956C7E EQ PUSH2 0x13B JUMPI DUP1 PUSH4 0xC933EDF EQ PUSH2 0x161 JUMPI DUP1 PUSH4 0x42F81580 EQ PUSH2 0x1AD JUMPI DUP1 PUSH4 0x715018A6 EQ PUSH2 0x1B7 JUMPI JUMPDEST PUSH1 0x0 DUP1 REVERT JUMPDEST PUSH2 0x14E PUSH2 0x149 CALLDATASIZE PUSH1 0x4 PUSH2 0x1664 JUMP JUMPDEST PUSH2 0x2FF JUMP JUMPDEST PUSH1 0x40 MLOAD SWAP1 DUP2 MSTORE PUSH1 0x20 ADD JUMPDEST PUSH1 0x40 MLOAD DUP1 SWAP2 SUB SWAP1 RETURN JUMPDEST PUSH2 0x188 PUSH32 0x0 DUP2 JUMP JUMPDEST PUSH1 0x40 MLOAD PUSH20 0xFFFFFFFFFFFFFFFFFFFFFFFFFFFFFFFFFFFFFFFF SWAP1 SWAP2 AND DUP2 MSTORE PUSH1 0x20 ADD PUSH2 0x158 JUMP JUMPDEST PUSH2 0x14E PUSH3 0x24EA00 DUP2 JUMP JUMPDEST PUSH2 0x1BF PUSH2 0x36D JUMP JUMPDEST STOP JUMPDEST PUSH2 0x1D4 PUSH2 0x1CF CALLDATASIZE PUSH1 0x4 PUSH2 0x167D JUMP JUMPDEST PUSH2 0x381 JUMP JUMPDEST PUSH1 0x40 MLOAD PUSH2 0x158 SWAP2 SWAP1 PUSH2 0x169F JUMP JUMPDEST PUSH2 0x14E PUSH2 0x1EF CALLDATASIZE PUSH1 0x4 PUSH2 0x170B JUMP JUMPDEST PUSH2 0x4BE JUMP JUMPDEST PUSH1 0x0 SLOAD PUSH20 0xFFFFFFFFFFFFFFFFFFFFFFFFFFFFFFFFFFFFFFFF AND PUSH2 0x188 JUMP JUMPDEST PUSH2 0x225 PUSH2 0x220 CALLDATASIZE PUSH1 0x4 PUSH2 0x1664 JUMP JUMPDEST PUSH2 0x5AA JUMP JUMPDEST PUSH1 0x40 MLOAD PUSH2 0x158 SWAP2 SWAP1 PUSH2 0x1737 JUMP JUMPDEST PUSH2 0x1BF PUSH2 0x240 CALLDATASIZE PUSH1 0x4 PUSH2 0x1664 JUMP JUMPDEST PUSH2 0x733 JUMP JUMPDEST PUSH2 0x1BF PUSH2 0x253 CALLDATASIZE PUSH1 0x4 PUSH2 0x1664 JUMP JUMPDEST PUSH2 0xA21 JUMP JUMPDEST PUSH1 0x1 SLOAD PUSH2 0x14E JUMP JUMPDEST PUSH2 0x188 PUSH32 0x0 DUP2 JUMP JUMPDEST PUSH2 0x188 PUSH32 0x0 DUP2 JUMP JUMPDEST PUSH2 0x1BF PUSH2 0x2BC CALLDATASIZE PUSH1 0x4 PUSH2 0x1844 JUMP JUMPDEST PUSH2 0xB72 JUMP JUMPDEST PUSH2 0x14E PUSH2 0x2CF CALLDATASIZE PUSH1 0x4 PUSH2 0x1918 JUMP JUMPDEST PUSH2 0x10EB JUMP JUMPDEST PUSH2 0x1BF PUSH2 0x11CA JUMP JUMPDEST PUSH2 0x1BF PUSH2 0x2EA CALLDATASIZE PUSH1 0x4 PUSH2 0x193B JUMP JUMPDEST PUSH2 0x13C5 JUMP JUMPDEST PUSH2 0x14E PUSH9 0x56BC75E2D63100000 DUP2 JUMP JUMPDEST PUSH1 0x1 SLOAD PUSH1 0x0 SWAP1 DUP3 SWAP1 DUP2 LT PUSH2 0x33F JUMPI PUSH1 0x40 MLOAD PUSH32 0xA55F88000000000000000000000000000000000000000000000000000000000 DUP2 MSTORE PUSH1 0x4 ADD PUSH1 0x40 MLOAD DUP1 SWAP2 SUB SWAP1 REVERT JUMPDEST PUSH1 0x1 DUP4 DUP2 SLOAD DUP2 LT PUSH2 0x352 JUMPI PUSH2 0x352 PUSH2 0x195D JUMP JUMPDEST PUSH1 0x0 SWAP2 DUP3 MSTORE PUSH1 0x20 SWAP1 SWAP2 KECCAK256 PUSH1 0x1 PUSH1 0x2 SWAP1 SWAP3 MUL ADD ADD SLOAD SWAP4 SWAP3 POP POP POP JUMP JUMPDEST PUSH2 0x375 PUSH2 0x142E JUMP JUMPDEST PUSH2 0x37F PUSH1 0x0 PUSH2 0x1481 JUMP JUMPDEST JUMP JUMPDEST PUSH1 0x40 DUP1 MLOAD PUSH1 0x80 DUP2 ADD DUP3 MSTORE PUSH1 0x0 DUP1 DUP3 MSTORE PUSH1 0x20 DUP3 ADD DUP2 SWAP1 MSTORE SWAP2 DUP2 ADD DUP3 SWAP1 MSTORE PUSH1 0x60 DUP2 ADD SWAP2 SWAP1 SWAP2 MSTORE PUSH1 0x1 SLOAD DUP4 SWAP1 DUP2 LT PUSH2 0x3E2 JUMPI PUSH1 0x40 MLOAD PUSH32 0xA55F88000000000000000000000000000000000000000000000000000000000 DUP2 MSTORE PUSH1 0x4 ADD PUSH1 0x40 MLOAD DUP1 SWAP2 SUB SWAP1 REVERT JUMPDEST PUSH1 0x1 DUP5 DUP2 SLOAD DUP2 LT PUSH2 0x3F5 JUMPI PUSH2 0x3F5 PUSH2 0x195D JUMP JUMPDEST SWAP1 PUSH1 0x0 MSTORE PUSH1 0x20 PUSH1 0x0 KECCAK256 SWAP1 PUSH1 0x2 MUL ADD PUSH1 0x1 ADD DUP4 DUP2 SLOAD DUP2 LT PUSH2 0x417 JUMPI PUSH2 0x417 PUSH2 0x195D JUMP JUMPDEST PUSH1 0x0 SWAP2 DUP3 MSTORE PUSH1 0x20 SWAP2 DUP3 SWAP1 KECCAK256 PUSH1 0x40 DUP1 MLOAD PUSH1 0x80 DUP2 ADD DUP3 MSTORE SWAP3 SWAP1 SWAP2 ADD SLOAD PUSH6 0xFFFFFFFFFFFF DUP2 AND DUP4 MSTORE PUSH7 0x1000000000000 DUP2 DIV PUSH20 0xFFFFFFFFFFFFFFFFFFFFFFFFFFFFFFFFFFFFFFFF AND SWAP4 DUP4 ADD SWAP4 SWAP1 SWAP4 MSTORE PUSH27 0x10000000000000000000000000000000000000000000000000000 DUP4 DIV PUSH2 0xFFFF AND SWAP1 DUP3 ADD MSTORE PUSH29 0x100000000000000000000000000000000000000000000000000000000 SWAP1 SWAP2 DIV PUSH1 0xFF AND ISZERO ISZERO PUSH1 0x60 DUP3 ADD MSTORE SWAP2 POP JUMPDEST POP SWAP3 SWAP2 POP POP JUMP JUMPDEST PUSH1 0x1 SLOAD PUSH1 0x0 SWAP1 DUP4 SWAP1 DUP2 LT PUSH2 0x4FE JUMPI PUSH1 0x40 MLOAD PUSH32 0xA55F88000000000000000000000000000000000000000000000000000000000 DUP2 MSTORE PUSH1 0x4 ADD PUSH1 0x40 MLOAD DUP1 SWAP2 SUB SWAP1 REVERT JUMPDEST PUSH1 0x0 PUSH1 0x1 DUP6 DUP2 SLOAD DUP2 LT PUSH2 0x513 JUMPI PUSH2 0x513 PUSH2 0x195D JUMP JUMPDEST SWAP1 PUSH1 0x0 MSTORE PUSH1 0x20 PUSH1 0x0 KECCAK256 SWAP1 PUSH1 0x2 MUL ADD PUSH1 0x1 ADD SWAP1 POP PUSH1 0x0 JUMPDEST DUP2 SLOAD DUP2 LT ISZERO PUSH2 0x577 JUMPI DUP5 PUSH6 0xFFFFFFFFFFFF AND DUP3 DUP3 DUP2 SLOAD DUP2 LT PUSH2 0x54D JUMPI PUSH2 0x54D PUSH2 0x195D JUMP JUMPDEST PUSH1 0x0 SWAP2 DUP3 MSTORE PUSH1 0x20 SWAP1 SWAP2 KECCAK256 ADD SLOAD PUSH6 0xFFFFFFFFFFFF AND SUB PUSH2 0x56F JUMPI SWAP3 POP PUSH2 0x4B7 SWAP1 POP JUMP JUMPDEST PUSH1 0x1 ADD PUSH2 0x529 JUMP JUMPDEST POP PUSH1 0x40 MLOAD PUSH32 0x3462926B00000000000000000000000000000000000000000000000000000000 DUP2 MSTORE PUSH1 0x4 ADD PUSH1 0x40 MLOAD DUP1 SWAP2 SUB SWAP1 REVERT JUMPDEST PUSH1 0x40 DUP1 MLOAD PUSH1 0x60 DUP1 DUP3 ADD DUP4 MSTORE PUSH1 0x0 DUP1 DUP4 MSTORE PUSH1 0x20 DUP4 ADD MSTORE SWAP2 DUP2 ADD SWAP2 SWAP1 SWAP2 MSTORE PUSH1 0x1 SLOAD DUP3 SWAP1 DUP2 LT PUSH2 0x603 JUMPI PUSH1 0x40 MLOAD PUSH32 0xA55F88000000000000000000000000000000000000000000000000000000000 DUP2 MSTORE PUSH1 0x4 ADD PUSH1 0x40 MLOAD DUP1 SWAP2 SUB SWAP1 REVERT JUMPDEST PUSH1 0x1 DUP4 DUP2 SLOAD DUP2 LT PUSH2 0x616 JUMPI PUSH2 0x616 PUSH2 0x195D JUMP JUMPDEST PUSH1 0x0 SWAP2 DUP3 MSTORE PUSH1 0x20 DUP1 DUP4 KECCAK256 PUSH1 0x40 DUP1 MLOAD PUSH1 0x60 DUP2 ADD DUP3 MSTORE PUSH1 0x2 SWAP1 SWAP5 MUL SWAP1 SWAP2 ADD DUP1 SLOAD PUSH5 0xFFFFFFFFFF DUP2 AND DUP6 MSTORE PUSH2 0xFFFF PUSH6 0x10000000000 SWAP1 SWAP2 DIV AND DUP5 DUP5 ADD MSTORE PUSH1 0x1 DUP2 ADD DUP1 SLOAD DUP4 MLOAD DUP2 DUP7 MUL DUP2 ADD DUP7 ADD DUP6 MSTORE DUP2 DUP2 MSTORE SWAP6 SWAP7 SWAP3 SWAP6 SWAP4 DUP8 ADD SWAP5 SWAP2 SWAP3 SWAP1 SWAP2 DUP5 ADD JUMPDEST DUP3 DUP3 LT ISZERO PUSH2 0x724 JUMPI PUSH1 0x0 DUP5 DUP2 MSTORE PUSH1 0x20 SWAP1 DUP2 SWAP1 KECCAK256 PUSH1 0x40 DUP1 MLOAD PUSH1 0x80 DUP2 ADD DUP3 MSTORE SWAP2 DUP6 ADD SLOAD PUSH6 0xFFFFFFFFFFFF DUP2 AND DUP4 MSTORE PUSH7 0x1000000000000 DUP2 DIV PUSH20 0xFFFFFFFFFFFFFFFFFFFFFFFFFFFFFFFFFFFFFFFF AND DUP4 DUP6 ADD MSTORE PUSH27 0x10000000000000000000000000000000000000000000000000000 DUP2 DIV PUSH2 0xFFFF AND SWAP2 DUP4 ADD SWAP2 SWAP1 SWAP2 MSTORE PUSH29 0x100000000000000000000000000000000000000000000000000000000 SWAP1 DIV PUSH1 0xFF AND ISZERO ISZERO PUSH1 0x60 DUP3 ADD MSTORE DUP3 MSTORE PUSH1 0x1 SWAP1 SWAP3 ADD SWAP2 ADD PUSH2 0x673 JUMP JUMPDEST POP POP POP SWAP2 MSTORE POP SWAP1 SWAP5 SWAP4 POP POP POP POP JUMP JUMPDEST PUSH1 0x1 SLOAD DUP2 SWAP1 DUP2 LT PUSH2 0x770 JUMPI PUSH1 0x40 MLOAD PUSH32 0xA55F88000000000000000000000000000000000000000000000000000000000 DUP2 MSTORE PUSH1 0x4 ADD PUSH1 0x40 MLOAD DUP1 SWAP2 SUB SWAP1 REVERT JUMPDEST CALLER PUSH1 0x0 PUSH2 0x77D DUP5 DUP4 PUSH2 0x10EB JUMP JUMPDEST SWAP1 POP PUSH1 0x0 PUSH1 0x1 DUP6 DUP2 SLOAD DUP2 LT PUSH2 0x794 JUMPI PUSH2 0x794 PUSH2 0x195D JUMP JUMPDEST PUSH1 0x0 SWAP2 DUP3 MSTORE PUSH1 0x20 SWAP1 SWAP2 KECCAK256 PUSH1 0x2 SWAP1 SWAP2 MUL ADD DUP1 SLOAD SWAP1 SWAP2 POP TIMESTAMP SWAP1 PUSH2 0x7C0 SWAP1 PUSH3 0x24EA00 SWAP1 PUSH5 0xFFFFFFFFFF AND PUSH2 0x19BB JUMP JUMPDEST LT ISZERO PUSH2 0x7F8 JUMPI PUSH1 0x40 MLOAD PUSH32 0x4DA70D2700000000000000000000000000000000000000000000000000000000 DUP2 MSTORE PUSH1 0x4 ADD PUSH1 0x40 MLOAD DUP1 SWAP2 SUB SWAP1 REVERT JUMPDEST PUSH1 0x0 DUP2 PUSH1 0x1 ADD DUP4 DUP2 SLOAD DUP2 LT PUSH2 0x80F JUMPI PUSH2 0x80F PUSH2 0x195D JUMP JUMPDEST PUSH1 0x0 SWAP2 DUP3 MSTORE PUSH1 0x20 DUP3 KECCAK256 ADD DUP1 SLOAD SWAP1 SWAP3 POP PUSH27 0x10000000000000000000000000000000000000000000000000000 SWAP1 DIV PUSH2 0xFFFF AND SWAP1 SUB PUSH2 0x878 JUMPI PUSH1 0x40 MLOAD PUSH32 0x969BF72800000000000000000000000000000000000000000000000000000000 DUP2 MSTORE PUSH1 0x4 ADD PUSH1 0x40 MLOAD DUP1 SWAP2 SUB SWAP1 REVERT JUMPDEST DUP1 SLOAD PUSH29 0x100000000000000000000000000000000000000000000000000000000 SWAP1 DIV PUSH1 0xFF AND ISZERO PUSH2 0x8D4 JUMPI PUSH1 0x40 MLOAD PUSH32 0x646CF55800000000000000000000000000000000000000000000000000000000 DUP2 MSTORE PUSH1 0x4 ADD PUSH1 0x40 MLOAD DUP1 SWAP2 SUB SWAP1 REVERT JUMPDEST DUP1 SLOAD PUSH32 0xFFFFFF00FFFFFFFFFFFFFFFFFFFFFFFFFFFFFFFFFFFFFFFFFFFFFFFFFFFFFFFF AND PUSH29 0x100000000000000000000000000000000000000000000000000000000 OR DUP1 DUP3 SSTORE DUP3 SLOAD PUSH2 0xFFFF PUSH27 0x10000000000000000000000000000000000000000000000000000 SWAP1 SWAP3 DIV DUP3 AND SWAP2 DUP5 SWAP2 PUSH1 0x5 SWAP2 PUSH2 0x95C SWAP2 DUP6 SWAP2 PUSH6 0x10000000000 SWAP1 SWAP2 DIV AND PUSH2 0x19CE JUMP JUMPDEST DUP3 SLOAD PUSH2 0x100 SWAP3 SWAP1 SWAP3 EXP PUSH2 0xFFFF DUP2 DUP2 MUL NOT SWAP1 SWAP4 AND SWAP2 DUP4 AND MUL OR SWAP1 SWAP2 SSTORE DUP3 SLOAD PUSH2 0x9A3 SWAP3 POP PUSH27 0x10000000000000000000000000000000000000000000000000000 SWAP1 DIV AND DUP6 PUSH2 0x14F6 JUMP JUMPDEST DUP1 SLOAD PUSH1 0x40 DUP1 MLOAD DUP6 DUP2 MSTORE PUSH27 0x10000000000000000000000000000000000000000000000000000 SWAP1 SWAP3 DIV PUSH2 0xFFFF AND PUSH1 0x20 DUP4 ADD MSTORE DUP8 SWAP2 PUSH20 0xFFFFFFFFFFFFFFFFFFFFFFFFFFFFFFFFFFFFFFFF DUP8 AND SWAP2 PUSH32 0xC1B01B538EF07961130FCC4BD2F7CCE3CE5F47E1EA624522867BE5C5DBF90034 SWAP2 ADD PUSH1 0x40 MLOAD DUP1 SWAP2 SUB SWAP1 LOG3 POP POP POP POP POP POP JUMP JUMPDEST PUSH1 0x0 CALLER PUSH1 0x40 MLOAD PUSH32 0x23B872DD00000000000000000000000000000000000000000000000000000000 DUP2 MSTORE PUSH20 0xFFFFFFFFFFFFFFFFFFFFFFFFFFFFFFFFFFFFFFFF DUP1 DUP4 AND PUSH1 0x4 DUP4 ADD MSTORE ADDRESS PUSH1 0x24 DUP4 ADD MSTORE PUSH1 0x44 DUP3 ADD DUP6 SWAP1 MSTORE SWAP2 SWAP3 POP PUSH32 0x0 SWAP1 SWAP2 AND SWAP1 PUSH4 0x23B872DD SWAP1 PUSH1 0x64 ADD PUSH1 0x20 PUSH1 0x40 MLOAD DUP1 DUP4 SUB DUP2 PUSH1 0x0 DUP8 GAS CALL ISZERO DUP1 ISZERO PUSH2 0xAC4 JUMPI RETURNDATASIZE PUSH1 0x0 DUP1 RETURNDATACOPY RETURNDATASIZE PUSH1 0x0 REVERT JUMPDEST POP POP POP POP PUSH1 0x40 MLOAD RETURNDATASIZE PUSH1 0x1F NOT PUSH1 0x1F DUP3 ADD AND DUP3 ADD DUP1 PUSH1 0x40 MSTORE POP DUP2 ADD SWAP1 PUSH2 0xAE8 SWAP2 SWAP1 PUSH2 0x19E8 JUMP JUMPDEST PUSH2 0xB1E JUMPI PUSH1 0x40 MLOAD PUSH32 0x45C4B0200000000000000000000000000000000000000000000000000000000 DUP2 MSTORE PUSH1 0x4 ADD PUSH1 0x40 MLOAD DUP1 SWAP2 SUB SWAP1 REVERT JUMPDEST DUP1 PUSH20 0xFFFFFFFFFFFFFFFFFFFFFFFFFFFFFFFFFFFFFFFF AND PUSH32 0xE1FFFCC4923D04B559F4D29A8BFC6CDA04EB5B0D3C460751C2402C5C5CC9109C DUP4 PUSH1 0x40 MLOAD PUSH2 0xB66 SWAP2 DUP2 MSTORE PUSH1 0x20 ADD SWAP1 JUMP JUMPDEST PUSH1 0x40 MLOAD DUP1 SWAP2 SUB SWAP1 LOG2 POP POP JUMP JUMPDEST PUSH2 0xB7A PUSH2 0x142E JUMP JUMPDEST DUP5 DUP1 ISZERO DUP1 PUSH2 0xB88 JUMPI POP DUP1 DUP5 EQ ISZERO JUMPDEST DUP1 PUSH2 0xB93 JUMPI POP DUP1 DUP3 EQ ISZERO JUMPDEST ISZERO PUSH2 0xBCA JUMPI PUSH1 0x40 MLOAD PUSH32 0x9A5B513B00000000000000000000000000000000000000000000000000000000 DUP2 MSTORE PUSH1 0x4 ADD PUSH1 0x40 MLOAD DUP1 SWAP2 SUB SWAP1 REVERT JUMPDEST PUSH1 0x5D DUP2 GT ISZERO PUSH2 0xC05 JUMPI PUSH1 0x40 MLOAD PUSH32 0x9A5B513B00000000000000000000000000000000000000000000000000000000 DUP2 MSTORE PUSH1 0x4 ADD PUSH1 0x40 MLOAD DUP1 SWAP2 SUB SWAP1 REVERT JUMPDEST PUSH1 0x0 DUP1 JUMPDEST DUP3 DUP2 LT ISZERO PUSH2 0xCB4 JUMPI DUP5 DUP5 DUP3 DUP2 DUP2 LT PUSH2 0xC23 JUMPI PUSH2 0xC23 PUSH2 0x195D JUMP JUMPDEST SWAP1 POP PUSH1 0x20 MUL ADD PUSH1 0x20 DUP2 ADD SWAP1 PUSH2 0xC38 SWAP2 SWAP1 PUSH2 0x1A0A JUMP JUMPDEST PUSH2 0xFFFF AND PUSH1 0x0 SUB PUSH2 0xC75 JUMPI PUSH1 0x40 MLOAD PUSH32 0x9A5B513B00000000000000000000000000000000000000000000000000000000 DUP2 MSTORE PUSH1 0x4 ADD PUSH1 0x40 MLOAD DUP1 SWAP2 SUB SWAP1 REVERT JUMPDEST DUP5 DUP5 DUP3 DUP2 DUP2 LT PUSH2 0xC87 JUMPI PUSH2 0xC87 PUSH2 0x195D JUMP JUMPDEST SWAP1 POP PUSH1 0x20 MUL ADD PUSH1 0x20 DUP2 ADD SWAP1 PUSH2 0xC9C SWAP2 SWAP1 PUSH2 0x1A0A JUMP JUMPDEST PUSH2 0xCAA SWAP1 PUSH2 0xFFFF AND DUP4 PUSH2 0x19BB JUMP JUMPDEST SWAP2 POP PUSH1 0x1 ADD PUSH2 0xC09 JUMP JUMPDEST POP PUSH1 0x1 SLOAD DUP10 GT ISZERO PUSH2 0xCF1 JUMPI PUSH1 0x40 MLOAD PUSH32 0xA55F88000000000000000000000000000000000000000000000000000000000 DUP2 MSTORE PUSH1 0x4 ADD PUSH1 0x40 MLOAD DUP1 SWAP2 SUB SWAP1 REVERT JUMPDEST PUSH1 0x1 SLOAD DUP10 SUB PUSH2 0xD0A JUMPI PUSH1 0x1 DUP1 SLOAD DUP2 ADD DUP2 SSTORE PUSH1 0x0 MSTORE PUSH2 0xDA5 JUMP JUMPDEST PUSH1 0x0 PUSH1 0x1 DUP11 DUP2 SLOAD DUP2 LT PUSH2 0xD1F JUMPI PUSH2 0xD1F PUSH2 0x195D JUMP JUMPDEST PUSH1 0x0 SWAP2 DUP3 MSTORE PUSH1 0x20 SWAP1 SWAP2 KECCAK256 PUSH1 0x2 SWAP1 SWAP2 MUL ADD SLOAD PUSH6 0x10000000000 SWAP1 DIV PUSH2 0xFFFF AND GT ISZERO PUSH2 0xD75 JUMPI PUSH1 0x40 MLOAD PUSH32 0xBF5BE99E00000000000000000000000000000000000000000000000000000000 DUP2 MSTORE PUSH1 0x4 ADD PUSH1 0x40 MLOAD DUP1 SWAP2 SUB SWAP1 REVERT JUMPDEST PUSH1 0x1 DUP10 DUP2 SLOAD DUP2 LT PUSH2 0xD88 JUMPI PUSH2 0xD88 PUSH2 0x195D JUMP JUMPDEST SWAP1 PUSH1 0x0 MSTORE PUSH1 0x20 PUSH1 0x0 KECCAK256 SWAP1 PUSH1 0x2 MUL ADD PUSH1 0x1 ADD PUSH1 0x0 PUSH2 0xDA5 SWAP2 SWAP1 PUSH2 0x1610 JUMP JUMPDEST PUSH2 0xDB8 PUSH9 0x56BC75E2D63100000 DUP3 PUSH2 0x1A2E JUMP JUMPDEST PUSH1 0x40 MLOAD PUSH32 0x70A0823100000000000000000000000000000000000000000000000000000000 DUP2 MSTORE ADDRESS PUSH1 0x4 DUP3 ADD MSTORE PUSH32 0x0 PUSH20 0xFFFFFFFFFFFFFFFFFFFFFFFFFFFFFFFFFFFFFFFF AND SWAP1 PUSH4 0x70A08231 SWAP1 PUSH1 0x24 ADD PUSH1 0x20 PUSH1 0x40 MLOAD DUP1 DUP4 SUB DUP2 DUP7 GAS STATICCALL ISZERO DUP1 ISZERO PUSH2 0xE42 JUMPI RETURNDATASIZE PUSH1 0x0 DUP1 RETURNDATACOPY RETURNDATASIZE PUSH1 0x0 REVERT JUMPDEST POP POP POP POP PUSH1 0x40 MLOAD RETURNDATASIZE PUSH1 0x1F NOT PUSH1 0x1F DUP3 ADD AND DUP3 ADD DUP1 PUSH1 0x40 MSTORE POP DUP2 ADD SWAP1 PUSH2 0xE66 SWAP2 SWAP1 PUSH2 0x1A45 JUMP JUMPDEST LT ISZERO PUSH2 0xE9E JUMPI PUSH1 0x40 MLOAD PUSH32 0x6A56423500000000000000000000000000000000000000000000000000000000 DUP2 MSTORE PUSH1 0x4 ADD PUSH1 0x40 MLOAD DUP1 SWAP2 SUB SWAP1 REVERT JUMPDEST PUSH1 0x0 PUSH1 0x1 DUP11 DUP2 SLOAD DUP2 LT PUSH2 0xEB3 JUMPI PUSH2 0xEB3 PUSH2 0x195D JUMP JUMPDEST SWAP1 PUSH1 0x0 MSTORE PUSH1 0x20 PUSH1 0x0 KECCAK256 SWAP1 PUSH1 0x2 MUL ADD SWAP1 POP PUSH1 0x0 JUMPDEST DUP4 DUP2 LT ISZERO PUSH2 0x10A4 JUMPI DUP2 PUSH1 0x1 ADD PUSH1 0x40 MLOAD DUP1 PUSH1 0x80 ADD PUSH1 0x40 MSTORE DUP1 DUP13 DUP13 DUP6 DUP2 DUP2 LT PUSH2 0xEEF JUMPI PUSH2 0xEEF PUSH2 0x195D JUMP JUMPDEST SWAP1 POP PUSH1 0x20 MUL ADD PUSH1 0x20 DUP2 ADD SWAP1 PUSH2 0xF04 SWAP2 SWAP1 PUSH2 0x1A5E JUMP JUMPDEST PUSH6 0xFFFFFFFFFFFF AND DUP2 MSTORE PUSH1 0x20 ADD DUP11 DUP11 DUP6 DUP2 DUP2 LT PUSH2 0xF23 JUMPI PUSH2 0xF23 PUSH2 0x195D JUMP JUMPDEST SWAP1 POP PUSH1 0x20 MUL ADD PUSH1 0x20 DUP2 ADD SWAP1 PUSH2 0xF38 SWAP2 SWAP1 PUSH2 0x193B JUMP JUMPDEST PUSH20 0xFFFFFFFFFFFFFFFFFFFFFFFFFFFFFFFFFFFFFFFF AND DUP2 MSTORE PUSH1 0x20 ADD DUP9 DUP9 DUP6 DUP2 DUP2 LT PUSH2 0xF65 JUMPI PUSH2 0xF65 PUSH2 0x195D JUMP JUMPDEST SWAP1 POP PUSH1 0x20 MUL ADD PUSH1 0x20 DUP2 ADD SWAP1 PUSH2 0xF7A SWAP2 SWAP1 PUSH2 0x1A0A JUMP JUMPDEST PUSH2 0xFFFF SWAP1 DUP2 AND DUP3 MSTORE PUSH1 0x0 PUSH1 0x20 SWAP3 DUP4 ADD DUP2 SWAP1 MSTORE DUP5 SLOAD PUSH1 0x1 DUP2 DUP2 ADD DUP8 SSTORE SWAP6 DUP3 MSTORE SWAP1 DUP4 SWAP1 KECCAK256 DUP5 MLOAD SWAP2 ADD DUP1 SLOAD SWAP4 DUP6 ADD MLOAD PUSH1 0x40 DUP7 ADD MLOAD PUSH1 0x60 SWAP1 SWAP7 ADD MLOAD ISZERO ISZERO PUSH29 0x100000000000000000000000000000000000000000000000000000000 MUL PUSH32 0xFFFFFF00FFFFFFFFFFFFFFFFFFFFFFFFFFFFFFFFFFFFFFFFFFFFFFFFFFFFFFFF SWAP7 SWAP1 SWAP5 AND PUSH27 0x10000000000000000000000000000000000000000000000000000 MUL SWAP6 SWAP1 SWAP6 AND PUSH32 0xFFFFFF000000FFFFFFFFFFFFFFFFFFFFFFFFFFFFFFFFFFFFFFFFFFFFFFFFFFFF PUSH20 0xFFFFFFFFFFFFFFFFFFFFFFFFFFFFFFFFFFFFFFFF SWAP1 SWAP7 AND PUSH7 0x1000000000000 MUL PUSH32 0xFFFFFFFFFFFF0000000000000000000000000000000000000000000000000000 SWAP1 SWAP6 AND PUSH6 0xFFFFFFFFFFFF SWAP1 SWAP4 AND SWAP3 SWAP1 SWAP3 OR SWAP4 SWAP1 SWAP4 OR SWAP4 SWAP1 SWAP4 AND SWAP3 SWAP1 SWAP3 OR SWAP2 SWAP1 SWAP2 OR SWAP1 SSTORE ADD PUSH2 0xEC6 JUMP JUMPDEST POP DUP10 PUSH32 0xF00C889FC670770F422C540A0CC4472A91AFCED492BA7C62CBF88645D645D3FD DUP5 PUSH1 0x40 MLOAD PUSH2 0x10D7 SWAP2 DUP2 MSTORE PUSH1 0x20 ADD SWAP1 JUMP JUMPDEST PUSH1 0x40 MLOAD DUP1 SWAP2 SUB SWAP1 LOG2 POP POP POP POP POP POP POP POP POP POP JUMP JUMPDEST PUSH1 0x1 SLOAD PUSH1 0x0 SWAP1 DUP4 SWAP1 DUP2 LT PUSH2 0x112B JUMPI PUSH1 0x40 MLOAD PUSH32 0xA55F88000000000000000000000000000000000000000000000000000000000 DUP2 MSTORE PUSH1 0x4 ADD PUSH1 0x40 MLOAD DUP1 SWAP2 SUB SWAP1 REVERT JUMPDEST PUSH1 0x0 PUSH1 0x1 DUP6 DUP2 SLOAD DUP2 LT PUSH2 0x1140 JUMPI PUSH2 0x1140 PUSH2 0x195D JUMP JUMPDEST SWAP1 PUSH1 0x0 MSTORE PUSH1 0x20 PUSH1 0x0 KECCAK256 SWAP1 PUSH1 0x2 MUL ADD PUSH1 0x1 ADD SWAP1 POP PUSH1 0x0 JUMPDEST DUP2 SLOAD DUP2 LT ISZERO PUSH2 0x577 JUMPI DUP5 PUSH20 0xFFFFFFFFFFFFFFFFFFFFFFFFFFFFFFFFFFFFFFFF AND DUP3 DUP3 DUP2 SLOAD DUP2 LT PUSH2 0x1188 JUMPI PUSH2 0x1188 PUSH2 0x195D JUMP JUMPDEST PUSH1 0x0 SWAP2 DUP3 MSTORE PUSH1 0x20 SWAP1 SWAP2 KECCAK256 ADD SLOAD PUSH7 0x1000000000000 SWAP1 DIV PUSH20 0xFFFFFFFFFFFFFFFFFFFFFFFFFFFFFFFFFFFFFFFF AND SUB PUSH2 0x11C2 JUMPI SWAP3 POP PUSH2 0x4B7 SWAP1 POP JUMP JUMPDEST PUSH1 0x1 ADD PUSH2 0x1156 JUMP JUMPDEST PUSH2 0x11D2 PUSH2 0x142E JUMP JUMPDEST PUSH1 0x0 CALLER PUSH1 0x40 MLOAD PUSH32 0x70A0823100000000000000000000000000000000000000000000000000000000 DUP2 MSTORE ADDRESS PUSH1 0x4 DUP3 ADD MSTORE SWAP1 SWAP2 POP PUSH1 0x0 SWAP1 PUSH20 0xFFFFFFFFFFFFFFFFFFFFFFFFFFFFFFFFFFFFFFFF PUSH32 0x0 AND SWAP1 PUSH4 0x70A08231 SWAP1 PUSH1 0x24 ADD PUSH1 0x20 PUSH1 0x40 MLOAD DUP1 DUP4 SUB DUP2 DUP7 GAS STATICCALL ISZERO DUP1 ISZERO PUSH2 0x1265 JUMPI RETURNDATASIZE PUSH1 0x0 DUP1 RETURNDATACOPY RETURNDATASIZE PUSH1 0x0 REVERT JUMPDEST POP POP POP POP PUSH1 0x40 MLOAD RETURNDATASIZE PUSH1 0x1F NOT PUSH1 0x1F DUP3 ADD AND DUP3 ADD DUP1 PUSH1 0x40 MSTORE POP DUP2 ADD SWAP1 PUSH2 0x1289 SWAP2 SWAP1 PUSH2 0x1A45 JUMP JUMPDEST PUSH1 0x40 MLOAD PUSH32 0xA9059CBB00000000000000000000000000000000000000000000000000000000 DUP2 MSTORE PUSH20 0xFFFFFFFFFFFFFFFFFFFFFFFFFFFFFFFFFFFFFFFF DUP5 DUP2 AND PUSH1 0x4 DUP4 ADD MSTORE PUSH1 0x24 DUP3 ADD DUP4 SWAP1 MSTORE SWAP2 SWAP3 POP PUSH32 0x0 SWAP1 SWAP2 AND SWAP1 PUSH4 0xA9059CBB SWAP1 PUSH1 0x44 ADD PUSH1 0x20 PUSH1 0x40 MLOAD DUP1 DUP4 SUB DUP2 PUSH1 0x0 DUP8 GAS CALL ISZERO DUP1 ISZERO PUSH2 0x1323 JUMPI RETURNDATASIZE PUSH1 0x0 DUP1 RETURNDATACOPY RETURNDATASIZE PUSH1 0x0 REVERT JUMPDEST POP POP POP POP PUSH1 0x40 MLOAD RETURNDATASIZE PUSH1 0x1F NOT PUSH1 0x1F DUP3 ADD AND DUP3 ADD DUP1 PUSH1 0x40 MSTORE POP DUP2 ADD SWAP1 PUSH2 0x1347 SWAP2 SWAP1 PUSH2 0x19E8 JUMP JUMPDEST PUSH2 0x137D JUMPI PUSH1 0x40 MLOAD PUSH32 0x45C4B0200000000000000000000000000000000000000000000000000000000 DUP2 MSTORE PUSH1 0x4 ADD PUSH1 0x40 MLOAD DUP1 SWAP2 SUB SWAP1 REVERT JUMPDEST DUP2 PUSH20 0xFFFFFFFFFFFFFFFFFFFFFFFFFFFFFFFFFFFFFFFF AND PUSH32 0x5FAFA99D0643513820BE26656B45130B01E1C03062E1266BF36F88CBD3BD9695 DUP3 PUSH1 0x40 MLOAD PUSH2 0xB66 SWAP2 DUP2 MSTORE PUSH1 0x20 ADD SWAP1 JUMP JUMPDEST PUSH2 0x13CD PUSH2 0x142E JUMP JUMPDEST PUSH20 0xFFFFFFFFFFFFFFFFFFFFFFFFFFFFFFFFFFFFFFFF DUP2 AND PUSH2 0x1422 JUMPI PUSH1 0x40 MLOAD PUSH32 0x1E4FBDF700000000000000000000000000000000000000000000000000000000 DUP2 MSTORE PUSH1 0x0 PUSH1 0x4 DUP3 ADD MSTORE PUSH1 0x24 ADD JUMPDEST PUSH1 0x40 MLOAD DUP1 SWAP2 SUB SWAP1 REVERT JUMPDEST PUSH2 0x142B DUP2 PUSH2 0x1481 JUMP JUMPDEST POP JUMP JUMPDEST PUSH1 0x0 SLOAD PUSH20 0xFFFFFFFFFFFFFFFFFFFFFFFFFFFFFFFFFFFFFFFF AND CALLER EQ PUSH2 0x37F JUMPI PUSH1 0x40 MLOAD PUSH32 0x118CDAA700000000000000000000000000000000000000000000000000000000 DUP2 MSTORE CALLER PUSH1 0x4 DUP3 ADD MSTORE PUSH1 0x24 ADD PUSH2 0x1419 JUMP JUMPDEST PUSH1 0x0 DUP1 SLOAD PUSH20 0xFFFFFFFFFFFFFFFFFFFFFFFFFFFFFFFFFFFFFFFF DUP4 DUP2 AND PUSH32 0xFFFFFFFFFFFFFFFFFFFFFFFF0000000000000000000000000000000000000000 DUP4 AND DUP2 OR DUP5 SSTORE PUSH1 0x40 MLOAD SWAP2 SWAP1 SWAP3 AND SWAP3 DUP4 SWAP2 PUSH32 0x8BE0079C531659141344CD1FD0A4F28419497F9722A3DAAFE3B4186F6B6457E0 SWAP2 SWAP1 LOG3 POP POP JUMP JUMPDEST PUSH20 0xFFFFFFFFFFFFFFFFFFFFFFFFFFFFFFFFFFFFFFFF PUSH32 0x0 AND PUSH4 0xF74BFE8E PUSH32 0x0 DUP5 PUSH2 0x1567 DUP2 PUSH9 0x56BC75E2D63100000 PUSH2 0x1A2E JUMP JUMPDEST PUSH1 0x40 MLOAD PUSH32 0xFFFFFFFF00000000000000000000000000000000000000000000000000000000 PUSH1 0xE0 DUP7 SWAP1 SHL AND DUP2 MSTORE PUSH20 0xFFFFFFFFFFFFFFFFFFFFFFFFFFFFFFFFFFFFFFFF SWAP4 DUP5 AND PUSH1 0x4 DUP3 ADD MSTORE PUSH1 0x24 DUP2 ADD SWAP3 SWAP1 SWAP3 MSTORE PUSH1 0x44 DUP3 ADD MSTORE SWAP1 DUP5 AND PUSH1 0x64 DUP3 ADD MSTORE PUSH1 0x84 ADD PUSH1 0x20 PUSH1 0x40 MLOAD DUP1 DUP4 SUB DUP2 PUSH1 0x0 DUP8 GAS CALL ISZERO DUP1 ISZERO PUSH2 0x15E7 JUMPI RETURNDATASIZE PUSH1 0x0 DUP1 RETURNDATACOPY RETURNDATASIZE PUSH1 0x0 REVERT JUMPDEST POP POP POP POP PUSH1 0x40 MLOAD RETURNDATASIZE PUSH1 0x1F NOT PUSH1 0x1F DUP3 ADD AND DUP3 ADD DUP1 PUSH1 0x40 MSTORE POP DUP2 ADD SWAP1 PUSH2 0x160B SWAP2 SWAP1 PUSH2 0x1A45 JUMP JUMPDEST POP POP POP JUMP JUMPDEST POP DUP1 SLOAD PUSH1 0x0 DUP3 SSTORE SWAP1 PUSH1 0x0 MSTORE PUSH1 0x20 PUSH1 0x0 KECCAK256 SWAP1 DUP2 ADD SWAP1 PUSH2 0x142B SWAP2 SWAP1 JUMPDEST DUP1 DUP3 GT ISZERO PUSH2 0x1660 JUMPI DUP1 SLOAD PUSH32 0xFFFFFF0000000000000000000000000000000000000000000000000000000000 AND DUP2 SSTORE PUSH1 0x1 ADD PUSH2 0x162A JUMP JUMPDEST POP SWAP1 JUMP JUMPDEST PUSH1 0x0 PUSH1 0x20 DUP3 DUP5 SUB SLT ISZERO PUSH2 0x1676 JUMPI PUSH1 0x0 DUP1 REVERT JUMPDEST POP CALLDATALOAD SWAP2 SWAP1 POP JUMP JUMPDEST PUSH1 0x0 DUP1 PUSH1 0x40 DUP4 DUP6 SUB SLT ISZERO PUSH2 0x1690 JUMPI PUSH1 0x0 DUP1 REVERT JUMPDEST POP POP DUP1 CALLDATALOAD SWAP3 PUSH1 0x20 SWAP1 SWAP2 ADD CALLDATALOAD SWAP2 POP JUMP JUMPDEST DUP2 MLOAD PUSH6 0xFFFFFFFFFFFF AND DUP2 MSTORE PUSH1 0x20 DUP1 DUP4 ADD MLOAD PUSH20 0xFFFFFFFFFFFFFFFFFFFFFFFFFFFFFFFFFFFFFFFF AND SWAP1 DUP3 ADD MSTORE PUSH1 0x40 DUP1 DUP4 ADD MLOAD PUSH2 0xFFFF AND SWAP1 DUP3 ADD MSTORE PUSH1 0x60 DUP1 DUP4 ADD MLOAD ISZERO ISZERO SWAP1 DUP3 ADD MSTORE PUSH1 0x80 DUP2 ADD JUMPDEST SWAP3 SWAP2 POP POP JUMP JUMPDEST DUP1 CALLDATALOAD PUSH6 0xFFFFFFFFFFFF DUP2 AND DUP2 EQ PUSH2 0x1706 JUMPI PUSH1 0x0 DUP1 REVERT JUMPDEST SWAP2 SWAP1 POP JUMP JUMPDEST PUSH1 0x0 DUP1 PUSH1 0x40 DUP4 DUP6 SUB SLT ISZERO PUSH2 0x171E JUMPI PUSH1 0x0 DUP1 REVERT JUMPDEST DUP3 CALLDATALOAD SWAP2 POP PUSH2 0x172E PUSH1 0x20 DUP5 ADD PUSH2 0x16F0 JUMP JUMPDEST SWAP1 POP SWAP3 POP SWAP3 SWAP1 POP JUMP JUMPDEST PUSH1 0x20 DUP2 MSTORE PUSH1 0x0 PUSH1 0x80 DUP3 ADD PUSH5 0xFFFFFFFFFF DUP5 MLOAD AND PUSH1 0x20 DUP5 ADD MSTORE PUSH2 0xFFFF PUSH1 0x20 DUP6 ADD MLOAD AND PUSH1 0x40 DUP5 ADD MSTORE PUSH1 0x40 DUP5 ADD MLOAD PUSH1 0x60 DUP1 DUP6 ADD MSTORE DUP2 DUP2 MLOAD DUP1 DUP5 MSTORE PUSH1 0xA0 DUP7 ADD SWAP2 POP PUSH1 0x20 DUP4 ADD SWAP4 POP PUSH1 0x0 SWAP3 POP JUMPDEST DUP1 DUP4 LT ISZERO PUSH2 0x17EE JUMPI PUSH2 0x17D7 DUP3 DUP6 MLOAD PUSH6 0xFFFFFFFFFFFF DUP2 MLOAD AND DUP3 MSTORE PUSH20 0xFFFFFFFFFFFFFFFFFFFFFFFFFFFFFFFFFFFFFFFF PUSH1 0x20 DUP3 ADD MLOAD AND PUSH1 0x20 DUP4 ADD MSTORE PUSH2 0xFFFF PUSH1 0x40 DUP3 ADD MLOAD AND PUSH1 0x40 DUP4 ADD MSTORE PUSH1 0x60 DUP2 ADD MLOAD ISZERO ISZERO PUSH1 0x60 DUP4 ADD MSTORE POP POP JUMP JUMPDEST PUSH1 0x80 DUP3 ADD SWAP2 POP PUSH1 0x20 DUP5 ADD SWAP4 POP PUSH1 0x1 DUP4 ADD SWAP3 POP PUSH2 0x177F JUMP JUMPDEST POP SWAP6 SWAP5 POP POP POP POP POP JUMP JUMPDEST PUSH1 0x0 DUP1 DUP4 PUSH1 0x1F DUP5 ADD SLT PUSH2 0x180A JUMPI PUSH1 0x0 DUP1 REVERT JUMPDEST POP DUP2 CALLDATALOAD PUSH8 0xFFFFFFFFFFFFFFFF DUP2 GT ISZERO PUSH2 0x1822 JUMPI PUSH1 0x0 DUP1 REVERT JUMPDEST PUSH1 0x20 DUP4 ADD SWAP2 POP DUP4 PUSH1 0x20 DUP3 PUSH1 0x5 SHL DUP6 ADD ADD GT ISZERO PUSH2 0x183D JUMPI PUSH1 0x0 DUP1 REVERT JUMPDEST SWAP3 POP SWAP3 SWAP1 POP JUMP JUMPDEST PUSH1 0x0 DUP1 PUSH1 0x0 DUP1 PUSH1 0x0 DUP1 PUSH1 0x0 PUSH1 0x80 DUP9 DUP11 SUB SLT ISZERO PUSH2 0x185F JUMPI PUSH1 0x0 DUP1 REVERT JUMPDEST DUP8 CALLDATALOAD SWAP7 POP PUSH1 0x20 DUP9 ADD CALLDATALOAD PUSH8 0xFFFFFFFFFFFFFFFF DUP2 GT ISZERO PUSH2 0x187D JUMPI PUSH1 0x0 DUP1 REVERT JUMPDEST PUSH2 0x1889 DUP11 DUP3 DUP12 ADD PUSH2 0x17F8 JUMP JUMPDEST SWAP1 SWAP8 POP SWAP6 POP POP PUSH1 0x40 DUP9 ADD CALLDATALOAD PUSH8 0xFFFFFFFFFFFFFFFF DUP2 GT ISZERO PUSH2 0x18A9 JUMPI PUSH1 0x0 DUP1 REVERT JUMPDEST PUSH2 0x18B5 DUP11 DUP3 DUP12 ADD PUSH2 0x17F8 JUMP JUMPDEST SWAP1 SWAP6 POP SWAP4 POP POP PUSH1 0x60 DUP9 ADD CALLDATALOAD PUSH8 0xFFFFFFFFFFFFFFFF DUP2 GT ISZERO PUSH2 0x18D5 JUMPI PUSH1 0x0 DUP1 REVERT JUMPDEST PUSH2 0x18E1 DUP11 DUP3 DUP12 ADD PUSH2 0x17F8 JUMP JUMPDEST SWAP9 SWAP12 SWAP8 SWAP11 POP SWAP6 SWAP9 POP SWAP4 SWAP7 SWAP3 SWAP6 SWAP3 SWAP4 POP POP POP JUMP JUMPDEST DUP1 CALLDATALOAD PUSH20 0xFFFFFFFFFFFFFFFFFFFFFFFFFFFFFFFFFFFFFFFF DUP2 AND DUP2 EQ PUSH2 0x1706 JUMPI PUSH1 0x0 DUP1 REVERT JUMPDEST PUSH1 0x0 DUP1 PUSH1 0x40 DUP4 DUP6 SUB SLT ISZERO PUSH2 0x192B JUMPI PUSH1 0x0 DUP1 REVERT JUMPDEST DUP3 CALLDATALOAD SWAP2 POP PUSH2 0x172E PUSH1 0x20 DUP5 ADD PUSH2 0x18F4 JUMP JUMPDEST PUSH1 0x0 PUSH1 0x20 DUP3 DUP5 SUB SLT ISZERO PUSH2 0x194D JUMPI PUSH1 0x0 DUP1 REVERT JUMPDEST PUSH2 0x1956 DUP3 PUSH2 0x18F4 JUMP JUMPDEST SWAP4 SWAP3 POP POP POP JUMP JUMPDEST PUSH32 0x4E487B7100000000000000000000000000000000000000000000000000000000 PUSH1 0x0 MSTORE PUSH1 0x32 PUSH1 0x4 MSTORE PUSH1 0x24 PUSH1 0x0 REVERT JUMPDEST PUSH32 0x4E487B7100000000000000000000000000000000000000000000000000000000 PUSH1 0x0 MSTORE PUSH1 0x11 PUSH1 0x4 MSTORE PUSH1 0x24 PUSH1 0x0 REVERT JUMPDEST DUP1 DUP3 ADD DUP1 DUP3 GT ISZERO PUSH2 0x16EA JUMPI PUSH2 0x16EA PUSH2 0x198C JUMP JUMPDEST PUSH2 0xFFFF DUP2 DUP2 AND DUP4 DUP3 AND ADD SWAP1 DUP2 GT ISZERO PUSH2 0x16EA JUMPI PUSH2 0x16EA PUSH2 0x198C JUMP JUMPDEST PUSH1 0x0 PUSH1 0x20 DUP3 DUP5 SUB SLT ISZERO PUSH2 0x19FA JUMPI PUSH1 0x0 DUP1 REVERT JUMPDEST DUP2 MLOAD DUP1 ISZERO ISZERO DUP2 EQ PUSH2 0x1956 JUMPI PUSH1 0x0 DUP1 REVERT JUMPDEST PUSH1 0x0 PUSH1 0x20 DUP3 DUP5 SUB SLT ISZERO PUSH2 0x1A1C JUMPI PUSH1 0x0 DUP1 REVERT JUMPDEST DUP2 CALLDATALOAD PUSH2 0xFFFF DUP2 AND DUP2 EQ PUSH2 0x1956 JUMPI PUSH1 0x0 DUP1 REVERT JUMPDEST DUP1 DUP3 MUL DUP2 ISZERO DUP3 DUP3 DIV DUP5 EQ OR PUSH2 0x16EA JUMPI PUSH2 0x16EA PUSH2 0x198C JUMP JUMPDEST PUSH1 0x0 PUSH1 0x20 DUP3 DUP5 SUB SLT ISZERO PUSH2 0x1A57 JUMPI PUSH1 0x0 DUP1 REVERT JUMPDEST POP MLOAD SWAP2 SWAP1 POP JUMP JUMPDEST PUSH1 0x0 PUSH1 0x20 DUP3 DUP5 SUB SLT ISZERO PUSH2 0x1A70 JUMPI PUSH1 0x0 DUP1 REVERT JUMPDEST PUSH2 0x1956 DUP3 PUSH2 0x16F0 JUMP INVALID LOG2 PUSH5 0x6970667358 0x22 SLT KECCAK256 0xCC JUMP 0xD7 0xA8 SWAP7 GASLIMIT 0xD8 DUP3 CODECOPY 0xB1 LOG2 0xAE 0xEE GAS 0xF DUP3 RETURNDATACOPY 0xC7 0xC6 MOD BYTE RETURNDATACOPY 0xED SWAP8 SSTORE 0xBA 0xAA PUSH5 0x22F8726264 PUSH20 0x6F6C634300081A00330000000000000000000000 "
        },
        "methodIdentifiers": {
          "BOND()": "c1c1d218",
          "CLAIM_DEADLINE()": "42f81580",
          "HUNT()": "cefa8922",
          "HUNT_PER_MINI_BUILDING()": "fddd6397",
          "MINI_BUILDING_ADDRESS()": "0c933edf",
          "claimReward(uint256)": "ae169a50",
          "currentSeason()": "bcb39621",
          "deposit(uint256)": "b6b55f25",
          "emergencyWithdraw()": "db2e21bc",
          "getRankerAt(uint256,uint256)": "71e20cdc",
          "getRankersCount(uint256)": "03956c7e",
          "getRankingByFid(uint256,uint48)": "813d243c",
          "getRankingByWallet(uint256,address)": "d88f836a",
          "getSeason(uint256)": "a43d8654",
          "owner()": "8da5cb5b",
          "renounceOwnership()": "715018a6",
          "setSeasonData(uint256,uint48[],address[],uint16[])": "d47a7fe4",
          "transferOwnership(address)": "f2fde38b"
        }
      }
    }
  }
}