{
  "contracts/BuilderGrant.sol": {
    "BuilderGrant": {
      "abi": [
        {
          "inputs": [
            {
              "internalType": "address",
              "name": "bond",
              "type": "address"
            },
            {
              "internalType": "address",
              "name": "hunt",
              "type": "address"
            },
            {
              "internalType": "address",
              "name": "miniBuilding",
              "type": "address"
            }
          ],
          "stateMutability": "nonpayable",
          "type": "constructor"
        },
        {
          "inputs": [],
          "name": "AlreadyClaimed",
          "type": "error"
        },
        {
          "inputs": [],
          "name": "ClaimDeadlineReached",
          "type": "error"
        },
        {
          "inputs": [],
          "name": "DonationAlreadyClaimed",
          "type": "error"
        },
        {
          "inputs": [],
          "name": "DonationClaimDeadlineReached",
          "type": "error"
        },
        {
          "inputs": [],
          "name": "DonationNotClaimableYet",
          "type": "error"
        },
        {
          "inputs": [],
          "name": "InvalidClaimType",
          "type": "error"
        },
        {
          "inputs": [],
          "name": "InvalidGrantAmount",
          "type": "error"
        },
        {
          "inputs": [],
          "name": "InvalidRankersParams",
          "type": "error"
        },
        {
          "inputs": [],
          "name": "InvalidRankingParam",
          "type": "error"
        },
        {
          "inputs": [],
          "name": "InvalidSeasonId",
          "type": "error"
        },
        {
          "inputs": [],
          "name": "MintBuildingsFailed",
          "type": "error"
        },
        {
          "inputs": [],
          "name": "NoDonationToClaim",
          "type": "error"
        },
        {
          "inputs": [],
          "name": "NotARanker",
          "type": "error"
        },
        {
          "inputs": [],
          "name": "NotEnoughGrantBalance",
          "type": "error"
        },
        {
          "inputs": [],
          "name": "NothingToWithdraw",
          "type": "error"
        },
        {
          "inputs": [
            {
              "internalType": "address",
              "name": "owner",
              "type": "address"
            }
          ],
          "name": "OwnableInvalidOwner",
          "type": "error"
        },
        {
          "inputs": [
            {
              "internalType": "address",
              "name": "account",
              "type": "address"
            }
          ],
          "name": "OwnableUnauthorizedAccount",
          "type": "error"
        },
        {
          "inputs": [],
          "name": "PermissionDenied",
          "type": "error"
        },
        {
          "inputs": [],
          "name": "SeasonDataIsNotUpdateable",
          "type": "error"
        },
        {
          "inputs": [],
          "name": "TokenTransferFailed",
          "type": "error"
        },
        {
          "anonymous": false,
          "inputs": [
            {
              "indexed": true,
              "internalType": "address",
              "name": "claimer",
              "type": "address"
            },
            {
              "indexed": true,
              "internalType": "uint256",
              "name": "seasonId",
              "type": "uint256"
            },
            {
              "indexed": false,
              "internalType": "uint256",
              "name": "ranking",
              "type": "uint256"
            },
            {
              "indexed": false,
              "internalType": "uint8",
              "name": "claimType",
              "type": "uint8"
            },
            {
              "indexed": false,
              "internalType": "uint16",
              "name": "countForSelf",
              "type": "uint16"
            },
            {
              "indexed": false,
              "internalType": "uint16",
              "name": "countForDonation",
              "type": "uint16"
            }
          ],
          "name": "ClaimByTop3",
          "type": "event"
        },
        {
          "anonymous": false,
          "inputs": [
            {
              "indexed": true,
              "internalType": "address",
              "name": "claimer",
              "type": "address"
            },
            {
              "indexed": true,
              "internalType": "uint256",
              "name": "seasonId",
              "type": "uint256"
            },
            {
              "indexed": false,
              "internalType": "uint256",
              "name": "ranking",
              "type": "uint256"
            },
            {
              "indexed": false,
              "internalType": "uint256",
              "name": "amount",
              "type": "uint256"
            }
          ],
          "name": "ClaimDonation",
          "type": "event"
        },
        {
          "anonymous": false,
          "inputs": [
            {
              "indexed": true,
              "internalType": "address",
              "name": "depositor",
              "type": "address"
            },
            {
              "indexed": false,
              "internalType": "uint256",
              "name": "huntAmount",
              "type": "uint256"
            }
          ],
          "name": "Deposit",
          "type": "event"
        },
        {
          "anonymous": false,
          "inputs": [
            {
              "indexed": true,
              "internalType": "address",
              "name": "withdrawer",
              "type": "address"
            },
            {
              "indexed": false,
              "internalType": "uint256",
              "name": "huntAmount",
              "type": "uint256"
            }
          ],
          "name": "EmergencyWithdraw",
          "type": "event"
        },
        {
          "anonymous": false,
          "inputs": [
            {
              "indexed": true,
              "internalType": "address",
              "name": "previousOwner",
              "type": "address"
            },
            {
              "indexed": true,
              "internalType": "address",
              "name": "newOwner",
              "type": "address"
            }
          ],
          "name": "OwnershipTransferred",
          "type": "event"
        },
        {
          "anonymous": false,
          "inputs": [
            {
              "indexed": true,
              "internalType": "uint256",
              "name": "seasonId",
              "type": "uint256"
            },
            {
              "indexed": false,
              "internalType": "uint256",
              "name": "rankersCount",
              "type": "uint256"
            },
            {
              "indexed": false,
              "internalType": "uint16[3]",
              "name": "grantsAmount",
              "type": "uint16[3]"
            }
          ],
          "name": "SetSeasonData",
          "type": "event"
        },
        {
          "inputs": [],
          "name": "BOND",
          "outputs": [
            {
              "internalType": "contract IMCV2_Bond",
              "name": "",
              "type": "address"
            }
          ],
          "stateMutability": "view",
          "type": "function"
        },
        {
          "inputs": [],
          "name": "DONATION_CLAIM_DEADLINE",
          "outputs": [
            {
              "internalType": "uint256",
              "name": "",
              "type": "uint256"
            }
          ],
          "stateMutability": "view",
          "type": "function"
        },
        {
          "inputs": [],
          "name": "HUNT",
          "outputs": [
            {
              "internalType": "contract IERC20",
              "name": "",
              "type": "address"
            }
          ],
          "stateMutability": "view",
          "type": "function"
        },
        {
          "inputs": [],
          "name": "HUNT_PER_MINI_BUILDING",
          "outputs": [
            {
              "internalType": "uint256",
              "name": "",
              "type": "uint256"
            }
          ],
          "stateMutability": "view",
          "type": "function"
        },
        {
          "inputs": [],
          "name": "MINI_BUILDING_ADDRESS",
          "outputs": [
            {
              "internalType": "address",
              "name": "",
              "type": "address"
            }
          ],
          "stateMutability": "view",
          "type": "function"
        },
        {
          "inputs": [],
          "name": "TOP3_CLAIM_DEADLINE",
          "outputs": [
            {
              "internalType": "uint256",
              "name": "",
              "type": "uint256"
            }
          ],
          "stateMutability": "view",
          "type": "function"
        },
        {
          "inputs": [
            {
              "internalType": "uint256",
              "name": "seasonId",
              "type": "uint256"
            },
            {
              "internalType": "uint256",
              "name": "ranking",
              "type": "uint256"
            },
            {
              "internalType": "uint8",
              "name": "claimType",
              "type": "uint8"
            }
          ],
          "name": "claimByTop3",
          "outputs": [],
          "stateMutability": "nonpayable",
          "type": "function"
        },
        {
          "inputs": [
            {
              "internalType": "uint256",
              "name": "seasonId",
              "type": "uint256"
            },
            {
              "internalType": "uint256",
              "name": "ranking",
              "type": "uint256"
            }
          ],
          "name": "claimDonation",
          "outputs": [],
          "stateMutability": "nonpayable",
          "type": "function"
        },
        {
          "inputs": [
            {
              "internalType": "uint256",
              "name": "seasonId",
              "type": "uint256"
            },
            {
              "internalType": "uint256",
              "name": "ranking",
              "type": "uint256"
            }
          ],
          "name": "claimableDonationAmount",
          "outputs": [
            {
              "internalType": "uint16",
              "name": "claimableAmount",
              "type": "uint16"
            }
          ],
          "stateMutability": "view",
          "type": "function"
        },
        {
          "inputs": [],
          "name": "currentSeason",
          "outputs": [
            {
              "internalType": "uint256",
              "name": "",
              "type": "uint256"
            }
          ],
          "stateMutability": "view",
          "type": "function"
        },
        {
          "inputs": [
            {
              "internalType": "uint256",
              "name": "huntAmount",
              "type": "uint256"
            }
          ],
          "name": "deposit",
          "outputs": [],
          "stateMutability": "nonpayable",
          "type": "function"
        },
        {
          "inputs": [],
          "name": "emergencyWithdraw",
          "outputs": [],
          "stateMutability": "nonpayable",
          "type": "function"
        },
        {
          "inputs": [
            {
              "internalType": "uint256",
              "name": "seasonId",
              "type": "uint256"
            },
            {
              "internalType": "uint256",
              "name": "ranking",
              "type": "uint256"
            }
          ],
          "name": "getClaimableAmountByTop3",
          "outputs": [
            {
              "internalType": "uint16",
              "name": "",
              "type": "uint16"
            }
          ],
          "stateMutability": "view",
          "type": "function"
        },
        {
          "inputs": [
            {
              "internalType": "uint256",
              "name": "seasonId",
              "type": "uint256"
            },
            {
              "internalType": "uint48",
              "name": "fid",
              "type": "uint48"
            }
          ],
          "name": "getRankingByFid",
          "outputs": [
            {
              "internalType": "uint256",
              "name": "",
              "type": "uint256"
            }
          ],
          "stateMutability": "view",
          "type": "function"
        },
        {
          "inputs": [
            {
              "internalType": "uint256",
              "name": "seasonId",
              "type": "uint256"
            },
            {
              "internalType": "address",
              "name": "wallet",
              "type": "address"
            }
          ],
          "name": "getRankingByWallet",
          "outputs": [
            {
              "internalType": "uint256",
              "name": "",
              "type": "uint256"
            }
          ],
          "stateMutability": "view",
          "type": "function"
        },
        {
          "inputs": [
            {
              "internalType": "uint256",
              "name": "seasonId",
              "type": "uint256"
            }
          ],
          "name": "getSeason",
          "outputs": [
            {
              "components": [
                {
                  "internalType": "uint40",
                  "name": "claimStartedAt",
                  "type": "uint40"
                },
                {
                  "internalType": "uint16",
                  "name": "totalClaimed",
                  "type": "uint16"
                },
                {
                  "components": [
                    {
                      "internalType": "uint8",
                      "name": "claimedType",
                      "type": "uint8"
                    },
                    {
                      "internalType": "uint16",
                      "name": "amount",
                      "type": "uint16"
                    }
                  ],
                  "internalType": "struct BuilderGrant.Grant[3]",
                  "name": "grants",
                  "type": "tuple[3]"
                },
                {
                  "components": [
                    {
                      "internalType": "uint48",
                      "name": "fid",
                      "type": "uint48"
                    },
                    {
                      "internalType": "address",
                      "name": "wallet",
                      "type": "address"
                    },
                    {
                      "internalType": "uint16",
                      "name": "claimedAmount",
                      "type": "uint16"
                    },
                    {
                      "internalType": "bool[3]",
                      "name": "donationReceived",
                      "type": "bool[3]"
                    }
                  ],
                  "internalType": "struct BuilderGrant.Ranker[]",
                  "name": "rankers",
                  "type": "tuple[]"
                }
              ],
              "internalType": "struct BuilderGrant.Season",
              "name": "",
              "type": "tuple"
            }
          ],
          "stateMutability": "view",
          "type": "function"
        },
        {
          "inputs": [
            {
              "internalType": "uint256",
              "name": "seasonId",
              "type": "uint256"
            }
          ],
          "name": "isDonationClaimableNow",
          "outputs": [
            {
              "internalType": "bool",
              "name": "",
              "type": "bool"
            }
          ],
          "stateMutability": "view",
          "type": "function"
        },
        {
          "inputs": [],
          "name": "owner",
          "outputs": [
            {
              "internalType": "address",
              "name": "",
              "type": "address"
            }
          ],
          "stateMutability": "view",
          "type": "function"
        },
        {
          "inputs": [],
          "name": "renounceOwnership",
          "outputs": [],
          "stateMutability": "nonpayable",
          "type": "function"
        },
        {
          "inputs": [
            {
              "internalType": "uint256",
              "name": "seasonId",
              "type": "uint256"
            },
            {
              "internalType": "uint16[3]",
              "name": "grantsAmount",
              "type": "uint16[3]"
            },
            {
              "internalType": "uint48[]",
              "name": "fids",
              "type": "uint48[]"
            },
            {
              "internalType": "address[]",
              "name": "wallets",
              "type": "address[]"
            }
          ],
          "name": "setSeasonData",
          "outputs": [],
          "stateMutability": "nonpayable",
          "type": "function"
        },
        {
          "inputs": [
            {
              "internalType": "address",
              "name": "newOwner",
              "type": "address"
            }
          ],
          "name": "transferOwnership",
          "outputs": [],
          "stateMutability": "nonpayable",
          "type": "function"
        }
      ],
      "evm": {
        "bytecode": {
          "linkReferences": {},
          "object": "60e060405234801561001057600080fd5b5060405161266d38038061266d83398101604081905261002f9161015b565b338061005557604051631e4fbdf760e01b81526000600482015260240160405180910390fd5b61005e816100ef565b506001600160a01b0383811660a0819052838216608081905291831660c05260405163095ea7b360e01b81526004810191909152600019602482015263095ea7b3906044016020604051808303816000875af11580156100c2573d6000803e3d6000fd5b505050506040513d601f19601f820116820180604052508101906100e6919061019e565b505050506101c7565b600080546001600160a01b038381166001600160a01b0319831681178455604051919092169283917f8be0079c531659141344cd1fd0a4f28419497f9722a3daafe3b4186f6b6457e09190a35050565b80516001600160a01b038116811461015657600080fd5b919050565b60008060006060848603121561017057600080fd5b6101798461013f565b92506101876020850161013f565b91506101956040850161013f565b90509250925092565b6000602082840312156101b057600080fd5b815180151581146101c057600080fd5b9392505050565b60805160a05160c05161244d610220600039600081816101810152611bb70152600081816102ec0152611b90015260008181610313015281816108a60152818161124d015281816115a9015261169c015261244d6000f3fe608060405234801561001057600080fd5b50600436106101775760003560e01c8063a51710dd116100d8578063cefa89221161008c578063e70d689311610066578063e70d689314610350578063f2fde38b14610363578063fddd63971461037657600080fd5b8063cefa89221461030e578063d88f836a14610335578063db2e21bc1461034857600080fd5b8063b86c9e5e116100bd578063b86c9e5e146102cc578063bcb39621146102df578063c1c1d218146102e757600080fd5b8063a51710dd14610296578063b6b55f25146102b957600080fd5b806373d5f6521161012f5780638da5cb5b116101145780638da5cb5b1461024e578063942859221461026c578063a43d86541461027657600080fd5b806373d5f65214610228578063813d243c1461023b57600080fd5b806345fbcafa1161016057806345fbcafa146101e25780636a13f0cb146101fa578063715018a61461022057600080fd5b80630c933edf1461017c578063218ff65a146101cd575b600080fd5b6101a37f000000000000000000000000000000000000000000000000000000000000000081565b60405173ffffffffffffffffffffffffffffffffffffffff90911681526020015b60405180910390f35b6101e06101db366004611eca565b610386565b005b6101ec6224ea0081565b6040519081526020016101c4565b61020d610208366004611eca565b6105e4565b60405161ffff90911681526020016101c4565b6101e0610790565b6101e0610236366004611f38565b6107a4565b6101ec610249366004611fe7565b610e49565b60005473ffffffffffffffffffffffffffffffffffffffff166101a3565b6101ec62093a8081565b610289610284366004612013565b610f01565b6040516101c491906120d6565b6102a96102a4366004612013565b6110d1565b60405190151581526020016101c4565b6101e06102c7366004612013565b6111f5565b61020d6102da366004611eca565b611346565b6001546101ec565b6101a37f000000000000000000000000000000000000000000000000000000000000000081565b6101a37f000000000000000000000000000000000000000000000000000000000000000081565b6101ec61034336600461217f565b6114b0565b6101e0611555565b6101e061035e3660046121a2565b611787565b6101e06103713660046121e1565b611b0e565b6101ec68056bc75e2d6310000081565b600061039283836105e4565b90508061ffff166000036103d2576040517fa047d25300000000000000000000000000000000000000000000000000000000815260040160405180910390fd5b6000600184815481106103e7576103e7612203565b9060005260206000209060050201905060006104003390565b90508073ffffffffffffffffffffffffffffffffffffffff1682600401858154811061042e5761042e612203565b60009182526020909120600290910201546601000000000000900473ffffffffffffffffffffffffffffffffffffffff1614610496576040517f1e09210400000000000000000000000000000000000000000000000000000000815260040160405180910390fd5b828260040185815481106104ac576104ac612203565b600091825260209091206002909102018054601a906104ee9084907a010000000000000000000000000000000000000000000000000000900461ffff16612261565b92506101000a81548161ffff021916908361ffff160217905550828260000160058282829054906101000a900461ffff166105299190612261565b92506101000a81548161ffff021916908361ffff1602179055506105518361ffff1682611b77565b610587576040517f0d3db0d700000000000000000000000000000000000000000000000000000000815260040160405180910390fd5b6040805185815261ffff85166020820152869173ffffffffffffffffffffffffffffffffffffffff8416917fac0a054b174e5f4368c391eb036c0c042b90a176619d5fbf41bd1ef0e3025190910160405180910390a35050505050565b60006105ef836110d1565b610625576040517fa5fe4be300000000000000000000000000000000000000000000000000000000815260040160405180910390fd5b60006001848154811061063a5761063a612203565b906000526020600020906005020190508281600401805490501161068a576040517f3f613dd300000000000000000000000000000000000000000000000000000000815260040160405180910390fd5b60008160040184815481106106a1576106a1612203565b60009182526020909120600290910201547a010000000000000000000000000000000000000000000000000000900461ffff16111561070c576040517f494ac78b00000000000000000000000000000000000000000000000000000000815260040160405180910390fd5b600081600401848154811061072357610723612203565b9060005260206000209060020201600101905060005b60038110156107875781816003811061075457610754612203565b602081049091015460ff601f9092166101000a900416151560010361077f5761077c8461227b565b93505b600101610739565b50505092915050565b610798611c98565b6107a26000611ceb565b565b6107ac611c98565b60008390036107e7576040517f9a5b513b00000000000000000000000000000000000000000000000000000000815260040160405180910390fd5b828114610820576040517f9a5b513b00000000000000000000000000000000000000000000000000000000815260040160405180910390fd5b61083060608601604087016122ae565b61084060408701602088016122ae565b61084d60208801886122ae565b6108579190612261565b6108619190612261565b6108789061ffff1668056bc75e2d631000006122c9565b6040517f70a082310000000000000000000000000000000000000000000000000000000081523060048201527f000000000000000000000000000000000000000000000000000000000000000073ffffffffffffffffffffffffffffffffffffffff16906370a0823190602401602060405180830381865afa158015610902573d6000803e3d6000fd5b505050506040513d601f19601f8201168201806040525081019061092691906122e0565b101561095e576040517f6a56423500000000000000000000000000000000000000000000000000000000815260040160405180910390fd5b6109696003846122f9565b61097660208701876122ae565b61ffff1611156109b2576040517f9482a43700000000000000000000000000000000000000000000000000000000815260040160405180910390fd5b60026109c160208701876122ae565b6109cb919061233b565b61ffff161515806109fa575060026109e960408701602088016122ae565b6109f3919061233b565b61ffff1615155b80610a2357506002610a1260608701604088016122ae565b610a1c919061233b565b61ffff1615155b15610a5a576040517f9482a43700000000000000000000000000000000000000000000000000000000815260040160405180910390fd5b60015460009015801590610a7a575060018054610a7791906122f9565b87145b15610af05760018781548110610a9257610a92612203565b60009182526020909120600590910201805490915065010000000000900461ffff1615610aeb576040517fbf5be99e00000000000000000000000000000000000000000000000000000000815260040160405180910390fd5b610b5e565b6001548703610b2c57600180548101808255600082905288908110610b1757610b17612203565b90600052602060002090600502019050610b5e565b6040517f0a55f88000000000000000000000000000000000000000000000000000000000815260040160405180910390fd5b610b6b60208701876122ae565b60018201805461ffff92909216610100027fffffffffffffffffffffffffffffffffffffffffffffffffffffffffff0000ff909216919091179055610bb660408701602088016122ae565b60028201805461ffff92909216610100027fffffffffffffffffffffffffffffffffffffffffffffffffffffffffff0000ff909216919091179055610c0160608701604088016122ae565b6003820180547fffffffffffffffffffffffffffffffffffffffffffffffffffffffffff0000ff1661010061ffff939093169290920291909117905580547fffffffffffffffffffffffffffffffffffffffffffffffffffffff0000000000164264ffffffffff16178155610c7a600482016000611d60565b60005b84811015610e0357816004016040518060800160405280888885818110610ca657610ca6612203565b9050602002016020810190610cbb919061235f565b65ffffffffffff168152602001868685818110610cda57610cda612203565b9050602002016020810190610cef91906121e1565b73ffffffffffffffffffffffffffffffffffffffff9081168252600060208084018290526040805160608082018352848252818401859052818301859052958201528654600181810189559784529282902086516002909402018054928701519187015161ffff167a010000000000000000000000000000000000000000000000000000027fffffffff0000ffffffffffffffffffffffffffffffffffffffffffffffffffff929095166601000000000000027fffffffffffff000000000000000000000000000000000000000000000000000090931665ffffffffffff9094169390931791909117169190911781559082015191929091610df5918301906003611d81565b505050806001019050610c7d565b5060405187907fc89697ef728c0dbc131c1838d0b59ca47fc8614f4633a0cebcb990ef5db0110d90610e389087908a9061237a565b60405180910390a250505050505050565b60008060018481548110610e5f57610e5f612203565b9060005260206000209060050201600401905060005b8154811015610ec8578365ffffffffffff16828281548110610e9957610e99612203565b600091825260209091206002909102015465ffffffffffff1603610ec0579150610efb9050565b600101610e75565b506040517f3462926b00000000000000000000000000000000000000000000000000000000815260040160405180910390fd5b92915050565b610f09611e13565b60018281548110610f1c57610f1c612203565b60009182526020808320604080516080810182526005909402909101805464ffffffffff8116855261ffff650100000000009091041692840192909252805160608101825292939192908401916001840190600390835b82821015610fb057604080518082019091528483015460ff81168252610100900461ffff1660208083019190915290825260019092019101610f73565b50505050815260200160048201805480602002602001604051908101604052809291908181526020016000905b828210156110c357600084815260208082206040805160808101825260028702909201805465ffffffffffff811684526601000000000000810473ffffffffffffffffffffffffffffffffffffffff16948401949094527a01000000000000000000000000000000000000000000000000000090930461ffff1682820152805160608082019283905292949285019290916001850191600391908390855b825461010083900a900460ff16151581526020600192830181810494850194909303909202910180841161107b57905050505050508152505081526020019060010190610fdd565b505050915250909392505050565b600154600090821061110f576040517f0a55f88000000000000000000000000000000000000000000000000000000000815260040160405180910390fd5b60006001838154811061112457611124612203565b6000918252602090912060059091020180549091504290611150906224ea009064ffffffffff166123be565b1015611188576040517fae609b1700000000000000000000000000000000000000000000000000000000815260040160405180910390fd5b805442906111a19062093a809064ffffffffff166123be565b10156111b05750600192915050565b600181015460ff16158015906111cc5750600281015460ff1615155b80156111de5750600381015460ff1615155b156111ec5750600192915050565b50600092915050565b6000336040517f23b872dd00000000000000000000000000000000000000000000000000000000815273ffffffffffffffffffffffffffffffffffffffff8083166004830152306024830152604482018590529192507f0000000000000000000000000000000000000000000000000000000000000000909116906323b872dd906064016020604051808303816000875af1158015611298573d6000803e3d6000fd5b505050506040513d601f19601f820116820180604052508101906112bc91906123d1565b6112f2576040517f045c4b0200000000000000000000000000000000000000000000000000000000815260040160405180910390fd5b8073ffffffffffffffffffffffffffffffffffffffff167fe1fffcc4923d04b559f4d29a8bfc6cda04eb5b0d3c460751c2402c5c5cc9109c8360405161133a91815260200190565b60405180910390a25050565b60006002821115611383576040517f3f613dd300000000000000000000000000000000000000000000000000000000815260040160405180910390fd5b60015483106113be576040517f0a55f88000000000000000000000000000000000000000000000000000000000815260040160405180910390fd5b6000600184815481106113d3576113d3612203565b60009182526020909120600590910201805490915042906113ff9062093a809064ffffffffff166123be565b1015611437576040517f4da70d2700000000000000000000000000000000000000000000000000000000815260040160405180910390fd5b80600101836003811061144c5761144c612203565b015460ff1615611488576040517f646cf55800000000000000000000000000000000000000000000000000000000815260040160405180910390fd5b80600101836003811061149d5761149d612203565b0154610100900461ffff16949350505050565b600080600184815481106114c6576114c6612203565b9060005260206000209060050201600401905060005b8154811015610ec8578373ffffffffffffffffffffffffffffffffffffffff1682828154811061150e5761150e612203565b60009182526020909120600290910201546601000000000000900473ffffffffffffffffffffffffffffffffffffffff160361154d579150610efb9050565b6001016114dc565b61155d611c98565b6000336040517f70a0823100000000000000000000000000000000000000000000000000000000815230600482015290915060009073ffffffffffffffffffffffffffffffffffffffff7f000000000000000000000000000000000000000000000000000000000000000016906370a0823190602401602060405180830381865afa1580156115f0573d6000803e3d6000fd5b505050506040513d601f19601f8201168201806040525081019061161491906122e0565b905080600003611650576040517fd0d04f6000000000000000000000000000000000000000000000000000000000815260040160405180910390fd5b6040517fa9059cbb00000000000000000000000000000000000000000000000000000000815273ffffffffffffffffffffffffffffffffffffffff8381166004830152602482018390527f0000000000000000000000000000000000000000000000000000000000000000169063a9059cbb906044016020604051808303816000875af11580156116e5573d6000803e3d6000fd5b505050506040513d601f19601f8201168201806040525081019061170991906123d1565b61173f576040517f045c4b0200000000000000000000000000000000000000000000000000000000815260040160405180910390fd5b8173ffffffffffffffffffffffffffffffffffffffff167f5fafa99d0643513820be26656b45130b01e1c03062e1266bf36f88cbd3bd96958260405161133a91815260200190565b60006117938484611346565b90506000600185815481106117aa576117aa612203565b9060005260206000209060050201905060006117c33390565b90508073ffffffffffffffffffffffffffffffffffffffff168260040186815481106117f1576117f1612203565b60009182526020909120600290910201546601000000000000900473ffffffffffffffffffffffffffffffffffffffff1614611859576040517f1e09210400000000000000000000000000000000000000000000000000000000815260040160405180910390fd5b6000808560ff1660010361186f578491506118d3565b8560ff1660020361188f576118856002866123f3565b90508091506118d3565b8560ff166003036118a15750836118d3565b6040517ff2d09ba200000000000000000000000000000000000000000000000000000000815260040160405180910390fd5b858460010188600381106118e9576118e9612203565b0180547fffffffffffffffffffffffffffffffffffffffffffffffffffffffffffffff001660ff9290921691909117905561ffff821615611a15578184600401888154811061193a5761193a612203565b600091825260209091206002909102018054601a9061197c9084907a010000000000000000000000000000000000000000000000000000900461ffff16612261565b92506101000a81548161ffff021916908361ffff160217905550818460000160058282829054906101000a900461ffff166119b79190612261565b92506101000a81548161ffff021916908361ffff1602179055506119df8261ffff1684611b77565b611a15576040517f0d3db0d700000000000000000000000000000000000000000000000000000000815260040160405180910390fd5b61ffff811615611a9d5760035b611a2d826003612261565b61ffff16811015611a9b576001856004018281548110611a4f57611a4f612203565b90600052602060002090600202016001018960038110611a7157611a71612203565b602091828204019190066101000a81548160ff021916908315150217905550806001019050611a22565b505b6040805188815260ff8816602082015261ffff84811682840152831660608201529051899173ffffffffffffffffffffffffffffffffffffffff8616917fb12dce413aec88ddf22ba4a273ef71b9ddf7a09a68e269540f52220b12aa78c29181900360800190a35050505050505050565b611b16611c98565b73ffffffffffffffffffffffffffffffffffffffff8116611b6b576040517f1e4fbdf7000000000000000000000000000000000000000000000000000000008152600060048201526024015b60405180910390fd5b611b7481611ceb565b50565b600073ffffffffffffffffffffffffffffffffffffffff7f00000000000000000000000000000000000000000000000000000000000000001663f74bfe8e7f000000000000000000000000000000000000000000000000000000000000000085611bea8168056bc75e2d631000006122c9565b6040517fffffffff0000000000000000000000000000000000000000000000000000000060e086901b16815273ffffffffffffffffffffffffffffffffffffffff93841660048201526024810192909252604482015290851660648201526084016020604051808303816000875af1158015611c6a573d6000803e3d6000fd5b505050506040513d601f19601f82011682018060405250810190611c8e91906122e0565b5060019392505050565b60005473ffffffffffffffffffffffffffffffffffffffff1633146107a2576040517f118cdaa7000000000000000000000000000000000000000000000000000000008152336004820152602401611b62565b6000805473ffffffffffffffffffffffffffffffffffffffff8381167fffffffffffffffffffffffff0000000000000000000000000000000000000000831681178455604051919092169283917f8be0079c531659141344cd1fd0a4f28419497f9722a3daafe3b4186f6b6457e09190a35050565b5080546000825560020290600052602060002090810190611b749190611e3f565b600183019183908215611e035791602002820160005b83821115611dd457835183826101000a81548160ff0219169083151502179055509260200192600101602081600001049283019260010302611d97565b8015611e015782816101000a81549060ff0219169055600101602081600001049283019260010302611dd4565b505b50611e0f929150611e7c565b5090565b6040805160808101825260008082526020820152908101611e32611e91565b8152602001606081525090565b80821115611e0f5780547fffffffff0000000000000000000000000000000000000000000000000000000016815560006001820155600201611e3f565b5b80821115611e0f5760008155600101611e7d565b60405180606001604052806003905b6040805180820190915260008082526020820152815260200190600190039081611ea05790505090565b60008060408385031215611edd57600080fd5b50508035926020909101359150565b60008083601f840112611efe57600080fd5b50813567ffffffffffffffff811115611f1657600080fd5b6020830191508360208260051b8501011115611f3157600080fd5b9250929050565b60008060008060008060c08789031215611f5157600080fd5b863595506080870188811115611f6657600080fd5b6020880195503567ffffffffffffffff811115611f8257600080fd5b611f8e89828a01611eec565b90955093505060a087013567ffffffffffffffff811115611fae57600080fd5b611fba89828a01611eec565b979a9699509497509295939492505050565b803565ffffffffffff81168114611fe257600080fd5b919050565b60008060408385031215611ffa57600080fd5b8235915061200a60208401611fcc565b90509250929050565b60006020828403121561202557600080fd5b5035919050565b600081518084526020840193506020830160005b828110156120cc57815165ffffffffffff815116875273ffffffffffffffffffffffffffffffffffffffff602082015116602088015261ffff6040820151166040880152606081015190506060870160005b60038110156120b35782511515825260209283019290910190600101612092565b50505060c0959095019460209190910190600101612040565b5093949350505050565b6020815264ffffffffff825116602082015261ffff6020830151166040820152600060408301516060830160005b6003811015612136578251805160ff16835260209081015161ffff168184015290920191604090910190600101612104565b50505060608301516101208084015261215361014084018261202c565b949350505050565b803573ffffffffffffffffffffffffffffffffffffffff81168114611fe257600080fd5b6000806040838503121561219257600080fd5b8235915061200a6020840161215b565b6000806000606084860312156121b757600080fd5b8335925060208401359150604084013560ff811681146121d657600080fd5b809150509250925092565b6000602082840312156121f357600080fd5b6121fc8261215b565b9392505050565b7f4e487b7100000000000000000000000000000000000000000000000000000000600052603260045260246000fd5b7f4e487b7100000000000000000000000000000000000000000000000000000000600052601160045260246000fd5b61ffff8181168382160190811115610efb57610efb612232565b600061ffff821661ffff810361229357612293612232565b60010192915050565b803561ffff81168114611fe257600080fd5b6000602082840312156122c057600080fd5b6121fc8261229c565b8082028115828204841417610efb57610efb612232565b6000602082840312156122f257600080fd5b5051919050565b81810381811115610efb57610efb612232565b7f4e487b7100000000000000000000000000000000000000000000000000000000600052601260045260246000fd5b600061ffff83168061234f5761234f61230c565b8061ffff84160691505092915050565b60006020828403121561237157600080fd5b6121fc82611fcc565b82815260808101602082018360005b60038110156123b45761ffff61239e8361229c565b1683526020928301929190910190600101612389565b5050509392505050565b80820180821115610efb57610efb612232565b6000602082840312156123e357600080fd5b815180151581146121fc57600080fd5b600061ffff8316806124075761240761230c565b8061ffff8416049150509291505056fea26469706673582212204f3276fb4d0301b53c785954af0c631e80750dcc8634dc6c1c54b5fc3d6965d764736f6c634300081a0033",
          "opcodes": "PUSH1 0xE0 PUSH1 0x40 MSTORE CALLVALUE DUP1 ISZERO PUSH2 0x10 JUMPI PUSH1 0x0 DUP1 REVERT JUMPDEST POP PUSH1 0x40 MLOAD PUSH2 0x266D CODESIZE SUB DUP1 PUSH2 0x266D DUP4 CODECOPY DUP2 ADD PUSH1 0x40 DUP2 SWAP1 MSTORE PUSH2 0x2F SWAP2 PUSH2 0x15B JUMP JUMPDEST CALLER DUP1 PUSH2 0x55 JUMPI PUSH1 0x40 MLOAD PUSH4 0x1E4FBDF7 PUSH1 0xE0 SHL DUP2 MSTORE PUSH1 0x0 PUSH1 0x4 DUP3 ADD MSTORE PUSH1 0x24 ADD PUSH1 0x40 MLOAD DUP1 SWAP2 SUB SWAP1 REVERT JUMPDEST PUSH2 0x5E DUP2 PUSH2 0xEF JUMP JUMPDEST POP PUSH1 0x1 PUSH1 0x1 PUSH1 0xA0 SHL SUB DUP4 DUP2 AND PUSH1 0xA0 DUP2 SWAP1 MSTORE DUP4 DUP3 AND PUSH1 0x80 DUP2 SWAP1 MSTORE SWAP2 DUP4 AND PUSH1 0xC0 MSTORE PUSH1 0x40 MLOAD PUSH4 0x95EA7B3 PUSH1 0xE0 SHL DUP2 MSTORE PUSH1 0x4 DUP2 ADD SWAP2 SWAP1 SWAP2 MSTORE PUSH1 0x0 NOT PUSH1 0x24 DUP3 ADD MSTORE PUSH4 0x95EA7B3 SWAP1 PUSH1 0x44 ADD PUSH1 0x20 PUSH1 0x40 MLOAD DUP1 DUP4 SUB DUP2 PUSH1 0x0 DUP8 GAS CALL ISZERO DUP1 ISZERO PUSH2 0xC2 JUMPI RETURNDATASIZE PUSH1 0x0 DUP1 RETURNDATACOPY RETURNDATASIZE PUSH1 0x0 REVERT JUMPDEST POP POP POP POP PUSH1 0x40 MLOAD RETURNDATASIZE PUSH1 0x1F NOT PUSH1 0x1F DUP3 ADD AND DUP3 ADD DUP1 PUSH1 0x40 MSTORE POP DUP2 ADD SWAP1 PUSH2 0xE6 SWAP2 SWAP1 PUSH2 0x19E JUMP JUMPDEST POP POP POP POP PUSH2 0x1C7 JUMP JUMPDEST PUSH1 0x0 DUP1 SLOAD PUSH1 0x1 PUSH1 0x1 PUSH1 0xA0 SHL SUB DUP4 DUP2 AND PUSH1 0x1 PUSH1 0x1 PUSH1 0xA0 SHL SUB NOT DUP4 AND DUP2 OR DUP5 SSTORE PUSH1 0x40 MLOAD SWAP2 SWAP1 SWAP3 AND SWAP3 DUP4 SWAP2 PUSH32 0x8BE0079C531659141344CD1FD0A4F28419497F9722A3DAAFE3B4186F6B6457E0 SWAP2 SWAP1 LOG3 POP POP JUMP JUMPDEST DUP1 MLOAD PUSH1 0x1 PUSH1 0x1 PUSH1 0xA0 SHL SUB DUP2 AND DUP2 EQ PUSH2 0x156 JUMPI PUSH1 0x0 DUP1 REVERT JUMPDEST SWAP2 SWAP1 POP JUMP JUMPDEST PUSH1 0x0 DUP1 PUSH1 0x0 PUSH1 0x60 DUP5 DUP7 SUB SLT ISZERO PUSH2 0x170 JUMPI PUSH1 0x0 DUP1 REVERT JUMPDEST PUSH2 0x179 DUP5 PUSH2 0x13F JUMP JUMPDEST SWAP3 POP PUSH2 0x187 PUSH1 0x20 DUP6 ADD PUSH2 0x13F JUMP JUMPDEST SWAP2 POP PUSH2 0x195 PUSH1 0x40 DUP6 ADD PUSH2 0x13F JUMP JUMPDEST SWAP1 POP SWAP3 POP SWAP3 POP SWAP3 JUMP JUMPDEST PUSH1 0x0 PUSH1 0x20 DUP3 DUP5 SUB SLT ISZERO PUSH2 0x1B0 JUMPI PUSH1 0x0 DUP1 REVERT JUMPDEST DUP2 MLOAD DUP1 ISZERO ISZERO DUP2 EQ PUSH2 0x1C0 JUMPI PUSH1 0x0 DUP1 REVERT JUMPDEST SWAP4 SWAP3 POP POP POP JUMP JUMPDEST PUSH1 0x80 MLOAD PUSH1 0xA0 MLOAD PUSH1 0xC0 MLOAD PUSH2 0x244D PUSH2 0x220 PUSH1 0x0 CODECOPY PUSH1 0x0 DUP2 DUP2 PUSH2 0x181 ADD MSTORE PUSH2 0x1BB7 ADD MSTORE PUSH1 0x0 DUP2 DUP2 PUSH2 0x2EC ADD MSTORE PUSH2 0x1B90 ADD MSTORE PUSH1 0x0 DUP2 DUP2 PUSH2 0x313 ADD MSTORE DUP2 DUP2 PUSH2 0x8A6 ADD MSTORE DUP2 DUP2 PUSH2 0x124D ADD MSTORE DUP2 DUP2 PUSH2 0x15A9 ADD MSTORE PUSH2 0x169C ADD MSTORE PUSH2 0x244D PUSH1 0x0 RETURN INVALID PUSH1 0x80 PUSH1 0x40 MSTORE CALLVALUE DUP1 ISZERO PUSH2 0x10 JUMPI PUSH1 0x0 DUP1 REVERT JUMPDEST POP PUSH1 0x4 CALLDATASIZE LT PUSH2 0x177 JUMPI PUSH1 0x0 CALLDATALOAD PUSH1 0xE0 SHR DUP1 PUSH4 0xA51710DD GT PUSH2 0xD8 JUMPI DUP1 PUSH4 0xCEFA8922 GT PUSH2 0x8C JUMPI DUP1 PUSH4 0xE70D6893 GT PUSH2 0x66 JUMPI DUP1 PUSH4 0xE70D6893 EQ PUSH2 0x350 JUMPI DUP1 PUSH4 0xF2FDE38B EQ PUSH2 0x363 JUMPI DUP1 PUSH4 0xFDDD6397 EQ PUSH2 0x376 JUMPI PUSH1 0x0 DUP1 REVERT JUMPDEST DUP1 PUSH4 0xCEFA8922 EQ PUSH2 0x30E JUMPI DUP1 PUSH4 0xD88F836A EQ PUSH2 0x335 JUMPI DUP1 PUSH4 0xDB2E21BC EQ PUSH2 0x348 JUMPI PUSH1 0x0 DUP1 REVERT JUMPDEST DUP1 PUSH4 0xB86C9E5E GT PUSH2 0xBD JUMPI DUP1 PUSH4 0xB86C9E5E EQ PUSH2 0x2CC JUMPI DUP1 PUSH4 0xBCB39621 EQ PUSH2 0x2DF JUMPI DUP1 PUSH4 0xC1C1D218 EQ PUSH2 0x2E7 JUMPI PUSH1 0x0 DUP1 REVERT JUMPDEST DUP1 PUSH4 0xA51710DD EQ PUSH2 0x296 JUMPI DUP1 PUSH4 0xB6B55F25 EQ PUSH2 0x2B9 JUMPI PUSH1 0x0 DUP1 REVERT JUMPDEST DUP1 PUSH4 0x73D5F652 GT PUSH2 0x12F JUMPI DUP1 PUSH4 0x8DA5CB5B GT PUSH2 0x114 JUMPI DUP1 PUSH4 0x8DA5CB5B EQ PUSH2 0x24E JUMPI DUP1 PUSH4 0x94285922 EQ PUSH2 0x26C JUMPI DUP1 PUSH4 0xA43D8654 EQ PUSH2 0x276 JUMPI PUSH1 0x0 DUP1 REVERT JUMPDEST DUP1 PUSH4 0x73D5F652 EQ PUSH2 0x228 JUMPI DUP1 PUSH4 0x813D243C EQ PUSH2 0x23B JUMPI PUSH1 0x0 DUP1 REVERT JUMPDEST DUP1 PUSH4 0x45FBCAFA GT PUSH2 0x160 JUMPI DUP1 PUSH4 0x45FBCAFA EQ PUSH2 0x1E2 JUMPI DUP1 PUSH4 0x6A13F0CB EQ PUSH2 0x1FA JUMPI DUP1 PUSH4 0x715018A6 EQ PUSH2 0x220 JUMPI PUSH1 0x0 DUP1 REVERT JUMPDEST DUP1 PUSH4 0xC933EDF EQ PUSH2 0x17C JUMPI DUP1 PUSH4 0x218FF65A EQ PUSH2 0x1CD JUMPI JUMPDEST PUSH1 0x0 DUP1 REVERT JUMPDEST PUSH2 0x1A3 PUSH32 0x0 DUP2 JUMP JUMPDEST PUSH1 0x40 MLOAD PUSH20 0xFFFFFFFFFFFFFFFFFFFFFFFFFFFFFFFFFFFFFFFF SWAP1 SWAP2 AND DUP2 MSTORE PUSH1 0x20 ADD JUMPDEST PUSH1 0x40 MLOAD DUP1 SWAP2 SUB SWAP1 RETURN JUMPDEST PUSH2 0x1E0 PUSH2 0x1DB CALLDATASIZE PUSH1 0x4 PUSH2 0x1ECA JUMP JUMPDEST PUSH2 0x386 JUMP JUMPDEST STOP JUMPDEST PUSH2 0x1EC PUSH3 0x24EA00 DUP2 JUMP JUMPDEST PUSH1 0x40 MLOAD SWAP1 DUP2 MSTORE PUSH1 0x20 ADD PUSH2 0x1C4 JUMP JUMPDEST PUSH2 0x20D PUSH2 0x208 CALLDATASIZE PUSH1 0x4 PUSH2 0x1ECA JUMP JUMPDEST PUSH2 0x5E4 JUMP JUMPDEST PUSH1 0x40 MLOAD PUSH2 0xFFFF SWAP1 SWAP2 AND DUP2 MSTORE PUSH1 0x20 ADD PUSH2 0x1C4 JUMP JUMPDEST PUSH2 0x1E0 PUSH2 0x790 JUMP JUMPDEST PUSH2 0x1E0 PUSH2 0x236 CALLDATASIZE PUSH1 0x4 PUSH2 0x1F38 JUMP JUMPDEST PUSH2 0x7A4 JUMP JUMPDEST PUSH2 0x1EC PUSH2 0x249 CALLDATASIZE PUSH1 0x4 PUSH2 0x1FE7 JUMP JUMPDEST PUSH2 0xE49 JUMP JUMPDEST PUSH1 0x0 SLOAD PUSH20 0xFFFFFFFFFFFFFFFFFFFFFFFFFFFFFFFFFFFFFFFF AND PUSH2 0x1A3 JUMP JUMPDEST PUSH2 0x1EC PUSH3 0x93A80 DUP2 JUMP JUMPDEST PUSH2 0x289 PUSH2 0x284 CALLDATASIZE PUSH1 0x4 PUSH2 0x2013 JUMP JUMPDEST PUSH2 0xF01 JUMP JUMPDEST PUSH1 0x40 MLOAD PUSH2 0x1C4 SWAP2 SWAP1 PUSH2 0x20D6 JUMP JUMPDEST PUSH2 0x2A9 PUSH2 0x2A4 CALLDATASIZE PUSH1 0x4 PUSH2 0x2013 JUMP JUMPDEST PUSH2 0x10D1 JUMP JUMPDEST PUSH1 0x40 MLOAD SWAP1 ISZERO ISZERO DUP2 MSTORE PUSH1 0x20 ADD PUSH2 0x1C4 JUMP JUMPDEST PUSH2 0x1E0 PUSH2 0x2C7 CALLDATASIZE PUSH1 0x4 PUSH2 0x2013 JUMP JUMPDEST PUSH2 0x11F5 JUMP JUMPDEST PUSH2 0x20D PUSH2 0x2DA CALLDATASIZE PUSH1 0x4 PUSH2 0x1ECA JUMP JUMPDEST PUSH2 0x1346 JUMP JUMPDEST PUSH1 0x1 SLOAD PUSH2 0x1EC JUMP JUMPDEST PUSH2 0x1A3 PUSH32 0x0 DUP2 JUMP JUMPDEST PUSH2 0x1A3 PUSH32 0x0 DUP2 JUMP JUMPDEST PUSH2 0x1EC PUSH2 0x343 CALLDATASIZE PUSH1 0x4 PUSH2 0x217F JUMP JUMPDEST PUSH2 0x14B0 JUMP JUMPDEST PUSH2 0x1E0 PUSH2 0x1555 JUMP JUMPDEST PUSH2 0x1E0 PUSH2 0x35E CALLDATASIZE PUSH1 0x4 PUSH2 0x21A2 JUMP JUMPDEST PUSH2 0x1787 JUMP JUMPDEST PUSH2 0x1E0 PUSH2 0x371 CALLDATASIZE PUSH1 0x4 PUSH2 0x21E1 JUMP JUMPDEST PUSH2 0x1B0E JUMP JUMPDEST PUSH2 0x1EC PUSH9 0x56BC75E2D63100000 DUP2 JUMP JUMPDEST PUSH1 0x0 PUSH2 0x392 DUP4 DUP4 PUSH2 0x5E4 JUMP JUMPDEST SWAP1 POP DUP1 PUSH2 0xFFFF AND PUSH1 0x0 SUB PUSH2 0x3D2 JUMPI PUSH1 0x40 MLOAD PUSH32 0xA047D25300000000000000000000000000000000000000000000000000000000 DUP2 MSTORE PUSH1 0x4 ADD PUSH1 0x40 MLOAD DUP1 SWAP2 SUB SWAP1 REVERT JUMPDEST PUSH1 0x0 PUSH1 0x1 DUP5 DUP2 SLOAD DUP2 LT PUSH2 0x3E7 JUMPI PUSH2 0x3E7 PUSH2 0x2203 JUMP JUMPDEST SWAP1 PUSH1 0x0 MSTORE PUSH1 0x20 PUSH1 0x0 KECCAK256 SWAP1 PUSH1 0x5 MUL ADD SWAP1 POP PUSH1 0x0 PUSH2 0x400 CALLER SWAP1 JUMP JUMPDEST SWAP1 POP DUP1 PUSH20 0xFFFFFFFFFFFFFFFFFFFFFFFFFFFFFFFFFFFFFFFF AND DUP3 PUSH1 0x4 ADD DUP6 DUP2 SLOAD DUP2 LT PUSH2 0x42E JUMPI PUSH2 0x42E PUSH2 0x2203 JUMP JUMPDEST PUSH1 0x0 SWAP2 DUP3 MSTORE PUSH1 0x20 SWAP1 SWAP2 KECCAK256 PUSH1 0x2 SWAP1 SWAP2 MUL ADD SLOAD PUSH7 0x1000000000000 SWAP1 DIV PUSH20 0xFFFFFFFFFFFFFFFFFFFFFFFFFFFFFFFFFFFFFFFF AND EQ PUSH2 0x496 JUMPI PUSH1 0x40 MLOAD PUSH32 0x1E09210400000000000000000000000000000000000000000000000000000000 DUP2 MSTORE PUSH1 0x4 ADD PUSH1 0x40 MLOAD DUP1 SWAP2 SUB SWAP1 REVERT JUMPDEST DUP3 DUP3 PUSH1 0x4 ADD DUP6 DUP2 SLOAD DUP2 LT PUSH2 0x4AC JUMPI PUSH2 0x4AC PUSH2 0x2203 JUMP JUMPDEST PUSH1 0x0 SWAP2 DUP3 MSTORE PUSH1 0x20 SWAP1 SWAP2 KECCAK256 PUSH1 0x2 SWAP1 SWAP2 MUL ADD DUP1 SLOAD PUSH1 0x1A SWAP1 PUSH2 0x4EE SWAP1 DUP5 SWAP1 PUSH27 0x10000000000000000000000000000000000000000000000000000 SWAP1 DIV PUSH2 0xFFFF AND PUSH2 0x2261 JUMP JUMPDEST SWAP3 POP PUSH2 0x100 EXP DUP2 SLOAD DUP2 PUSH2 0xFFFF MUL NOT AND SWAP1 DUP4 PUSH2 0xFFFF AND MUL OR SWAP1 SSTORE POP DUP3 DUP3 PUSH1 0x0 ADD PUSH1 0x5 DUP3 DUP3 DUP3 SWAP1 SLOAD SWAP1 PUSH2 0x100 EXP SWAP1 DIV PUSH2 0xFFFF AND PUSH2 0x529 SWAP2 SWAP1 PUSH2 0x2261 JUMP JUMPDEST SWAP3 POP PUSH2 0x100 EXP DUP2 SLOAD DUP2 PUSH2 0xFFFF MUL NOT AND SWAP1 DUP4 PUSH2 0xFFFF AND MUL OR SWAP1 SSTORE POP PUSH2 0x551 DUP4 PUSH2 0xFFFF AND DUP3 PUSH2 0x1B77 JUMP JUMPDEST PUSH2 0x587 JUMPI PUSH1 0x40 MLOAD PUSH32 0xD3DB0D700000000000000000000000000000000000000000000000000000000 DUP2 MSTORE PUSH1 0x4 ADD PUSH1 0x40 MLOAD DUP1 SWAP2 SUB SWAP1 REVERT JUMPDEST PUSH1 0x40 DUP1 MLOAD DUP6 DUP2 MSTORE PUSH2 0xFFFF DUP6 AND PUSH1 0x20 DUP3 ADD MSTORE DUP7 SWAP2 PUSH20 0xFFFFFFFFFFFFFFFFFFFFFFFFFFFFFFFFFFFFFFFF DUP5 AND SWAP2 PUSH32 0xAC0A054B174E5F4368C391EB036C0C042B90A176619D5FBF41BD1EF0E3025190 SWAP2 ADD PUSH1 0x40 MLOAD DUP1 SWAP2 SUB SWAP1 LOG3 POP POP POP POP POP JUMP JUMPDEST PUSH1 0x0 PUSH2 0x5EF DUP4 PUSH2 0x10D1 JUMP JUMPDEST PUSH2 0x625 JUMPI PUSH1 0x40 MLOAD PUSH32 0xA5FE4BE300000000000000000000000000000000000000000000000000000000 DUP2 MSTORE PUSH1 0x4 ADD PUSH1 0x40 MLOAD DUP1 SWAP2 SUB SWAP1 REVERT JUMPDEST PUSH1 0x0 PUSH1 0x1 DUP5 DUP2 SLOAD DUP2 LT PUSH2 0x63A JUMPI PUSH2 0x63A PUSH2 0x2203 JUMP JUMPDEST SWAP1 PUSH1 0x0 MSTORE PUSH1 0x20 PUSH1 0x0 KECCAK256 SWAP1 PUSH1 0x5 MUL ADD SWAP1 POP DUP3 DUP2 PUSH1 0x4 ADD DUP1 SLOAD SWAP1 POP GT PUSH2 0x68A JUMPI PUSH1 0x40 MLOAD PUSH32 0x3F613DD300000000000000000000000000000000000000000000000000000000 DUP2 MSTORE PUSH1 0x4 ADD PUSH1 0x40 MLOAD DUP1 SWAP2 SUB SWAP1 REVERT JUMPDEST PUSH1 0x0 DUP2 PUSH1 0x4 ADD DUP5 DUP2 SLOAD DUP2 LT PUSH2 0x6A1 JUMPI PUSH2 0x6A1 PUSH2 0x2203 JUMP JUMPDEST PUSH1 0x0 SWAP2 DUP3 MSTORE PUSH1 0x20 SWAP1 SWAP2 KECCAK256 PUSH1 0x2 SWAP1 SWAP2 MUL ADD SLOAD PUSH27 0x10000000000000000000000000000000000000000000000000000 SWAP1 DIV PUSH2 0xFFFF AND GT ISZERO PUSH2 0x70C JUMPI PUSH1 0x40 MLOAD PUSH32 0x494AC78B00000000000000000000000000000000000000000000000000000000 DUP2 MSTORE PUSH1 0x4 ADD PUSH1 0x40 MLOAD DUP1 SWAP2 SUB SWAP1 REVERT JUMPDEST PUSH1 0x0 DUP2 PUSH1 0x4 ADD DUP5 DUP2 SLOAD DUP2 LT PUSH2 0x723 JUMPI PUSH2 0x723 PUSH2 0x2203 JUMP JUMPDEST SWAP1 PUSH1 0x0 MSTORE PUSH1 0x20 PUSH1 0x0 KECCAK256 SWAP1 PUSH1 0x2 MUL ADD PUSH1 0x1 ADD SWAP1 POP PUSH1 0x0 JUMPDEST PUSH1 0x3 DUP2 LT ISZERO PUSH2 0x787 JUMPI DUP2 DUP2 PUSH1 0x3 DUP2 LT PUSH2 0x754 JUMPI PUSH2 0x754 PUSH2 0x2203 JUMP JUMPDEST PUSH1 0x20 DUP2 DIV SWAP1 SWAP2 ADD SLOAD PUSH1 0xFF PUSH1 0x1F SWAP1 SWAP3 AND PUSH2 0x100 EXP SWAP1 DIV AND ISZERO ISZERO PUSH1 0x1 SUB PUSH2 0x77F JUMPI PUSH2 0x77C DUP5 PUSH2 0x227B JUMP JUMPDEST SWAP4 POP JUMPDEST PUSH1 0x1 ADD PUSH2 0x739 JUMP JUMPDEST POP POP POP SWAP3 SWAP2 POP POP JUMP JUMPDEST PUSH2 0x798 PUSH2 0x1C98 JUMP JUMPDEST PUSH2 0x7A2 PUSH1 0x0 PUSH2 0x1CEB JUMP JUMPDEST JUMP JUMPDEST PUSH2 0x7AC PUSH2 0x1C98 JUMP JUMPDEST PUSH1 0x0 DUP4 SWAP1 SUB PUSH2 0x7E7 JUMPI PUSH1 0x40 MLOAD PUSH32 0x9A5B513B00000000000000000000000000000000000000000000000000000000 DUP2 MSTORE PUSH1 0x4 ADD PUSH1 0x40 MLOAD DUP1 SWAP2 SUB SWAP1 REVERT JUMPDEST DUP3 DUP2 EQ PUSH2 0x820 JUMPI PUSH1 0x40 MLOAD PUSH32 0x9A5B513B00000000000000000000000000000000000000000000000000000000 DUP2 MSTORE PUSH1 0x4 ADD PUSH1 0x40 MLOAD DUP1 SWAP2 SUB SWAP1 REVERT JUMPDEST PUSH2 0x830 PUSH1 0x60 DUP7 ADD PUSH1 0x40 DUP8 ADD PUSH2 0x22AE JUMP JUMPDEST PUSH2 0x840 PUSH1 0x40 DUP8 ADD PUSH1 0x20 DUP9 ADD PUSH2 0x22AE JUMP JUMPDEST PUSH2 0x84D PUSH1 0x20 DUP9 ADD DUP9 PUSH2 0x22AE JUMP JUMPDEST PUSH2 0x857 SWAP2 SWAP1 PUSH2 0x2261 JUMP JUMPDEST PUSH2 0x861 SWAP2 SWAP1 PUSH2 0x2261 JUMP JUMPDEST PUSH2 0x878 SWAP1 PUSH2 0xFFFF AND PUSH9 0x56BC75E2D63100000 PUSH2 0x22C9 JUMP JUMPDEST PUSH1 0x40 MLOAD PUSH32 0x70A0823100000000000000000000000000000000000000000000000000000000 DUP2 MSTORE ADDRESS PUSH1 0x4 DUP3 ADD MSTORE PUSH32 0x0 PUSH20 0xFFFFFFFFFFFFFFFFFFFFFFFFFFFFFFFFFFFFFFFF AND SWAP1 PUSH4 0x70A08231 SWAP1 PUSH1 0x24 ADD PUSH1 0x20 PUSH1 0x40 MLOAD DUP1 DUP4 SUB DUP2 DUP7 GAS STATICCALL ISZERO DUP1 ISZERO PUSH2 0x902 JUMPI RETURNDATASIZE PUSH1 0x0 DUP1 RETURNDATACOPY RETURNDATASIZE PUSH1 0x0 REVERT JUMPDEST POP POP POP POP PUSH1 0x40 MLOAD RETURNDATASIZE PUSH1 0x1F NOT PUSH1 0x1F DUP3 ADD AND DUP3 ADD DUP1 PUSH1 0x40 MSTORE POP DUP2 ADD SWAP1 PUSH2 0x926 SWAP2 SWAP1 PUSH2 0x22E0 JUMP JUMPDEST LT ISZERO PUSH2 0x95E JUMPI PUSH1 0x40 MLOAD PUSH32 0x6A56423500000000000000000000000000000000000000000000000000000000 DUP2 MSTORE PUSH1 0x4 ADD PUSH1 0x40 MLOAD DUP1 SWAP2 SUB SWAP1 REVERT JUMPDEST PUSH2 0x969 PUSH1 0x3 DUP5 PUSH2 0x22F9 JUMP JUMPDEST PUSH2 0x976 PUSH1 0x20 DUP8 ADD DUP8 PUSH2 0x22AE JUMP JUMPDEST PUSH2 0xFFFF AND GT ISZERO PUSH2 0x9B2 JUMPI PUSH1 0x40 MLOAD PUSH32 0x9482A43700000000000000000000000000000000000000000000000000000000 DUP2 MSTORE PUSH1 0x4 ADD PUSH1 0x40 MLOAD DUP1 SWAP2 SUB SWAP1 REVERT JUMPDEST PUSH1 0x2 PUSH2 0x9C1 PUSH1 0x20 DUP8 ADD DUP8 PUSH2 0x22AE JUMP JUMPDEST PUSH2 0x9CB SWAP2 SWAP1 PUSH2 0x233B JUMP JUMPDEST PUSH2 0xFFFF AND ISZERO ISZERO DUP1 PUSH2 0x9FA JUMPI POP PUSH1 0x2 PUSH2 0x9E9 PUSH1 0x40 DUP8 ADD PUSH1 0x20 DUP9 ADD PUSH2 0x22AE JUMP JUMPDEST PUSH2 0x9F3 SWAP2 SWAP1 PUSH2 0x233B JUMP JUMPDEST PUSH2 0xFFFF AND ISZERO ISZERO JUMPDEST DUP1 PUSH2 0xA23 JUMPI POP PUSH1 0x2 PUSH2 0xA12 PUSH1 0x60 DUP8 ADD PUSH1 0x40 DUP9 ADD PUSH2 0x22AE JUMP JUMPDEST PUSH2 0xA1C SWAP2 SWAP1 PUSH2 0x233B JUMP JUMPDEST PUSH2 0xFFFF AND ISZERO ISZERO JUMPDEST ISZERO PUSH2 0xA5A JUMPI PUSH1 0x40 MLOAD PUSH32 0x9482A43700000000000000000000000000000000000000000000000000000000 DUP2 MSTORE PUSH1 0x4 ADD PUSH1 0x40 MLOAD DUP1 SWAP2 SUB SWAP1 REVERT JUMPDEST PUSH1 0x1 SLOAD PUSH1 0x0 SWAP1 ISZERO DUP1 ISZERO SWAP1 PUSH2 0xA7A JUMPI POP PUSH1 0x1 DUP1 SLOAD PUSH2 0xA77 SWAP2 SWAP1 PUSH2 0x22F9 JUMP JUMPDEST DUP8 EQ JUMPDEST ISZERO PUSH2 0xAF0 JUMPI PUSH1 0x1 DUP8 DUP2 SLOAD DUP2 LT PUSH2 0xA92 JUMPI PUSH2 0xA92 PUSH2 0x2203 JUMP JUMPDEST PUSH1 0x0 SWAP2 DUP3 MSTORE PUSH1 0x20 SWAP1 SWAP2 KECCAK256 PUSH1 0x5 SWAP1 SWAP2 MUL ADD DUP1 SLOAD SWAP1 SWAP2 POP PUSH6 0x10000000000 SWAP1 DIV PUSH2 0xFFFF AND ISZERO PUSH2 0xAEB JUMPI PUSH1 0x40 MLOAD PUSH32 0xBF5BE99E00000000000000000000000000000000000000000000000000000000 DUP2 MSTORE PUSH1 0x4 ADD PUSH1 0x40 MLOAD DUP1 SWAP2 SUB SWAP1 REVERT JUMPDEST PUSH2 0xB5E JUMP JUMPDEST PUSH1 0x1 SLOAD DUP8 SUB PUSH2 0xB2C JUMPI PUSH1 0x1 DUP1 SLOAD DUP2 ADD DUP1 DUP3 SSTORE PUSH1 0x0 DUP3 SWAP1 MSTORE DUP9 SWAP1 DUP2 LT PUSH2 0xB17 JUMPI PUSH2 0xB17 PUSH2 0x2203 JUMP JUMPDEST SWAP1 PUSH1 0x0 MSTORE PUSH1 0x20 PUSH1 0x0 KECCAK256 SWAP1 PUSH1 0x5 MUL ADD SWAP1 POP PUSH2 0xB5E JUMP JUMPDEST PUSH1 0x40 MLOAD PUSH32 0xA55F88000000000000000000000000000000000000000000000000000000000 DUP2 MSTORE PUSH1 0x4 ADD PUSH1 0x40 MLOAD DUP1 SWAP2 SUB SWAP1 REVERT JUMPDEST PUSH2 0xB6B PUSH1 0x20 DUP8 ADD DUP8 PUSH2 0x22AE JUMP JUMPDEST PUSH1 0x1 DUP3 ADD DUP1 SLOAD PUSH2 0xFFFF SWAP3 SWAP1 SWAP3 AND PUSH2 0x100 MUL PUSH32 0xFFFFFFFFFFFFFFFFFFFFFFFFFFFFFFFFFFFFFFFFFFFFFFFFFFFFFFFFFF0000FF SWAP1 SWAP3 AND SWAP2 SWAP1 SWAP2 OR SWAP1 SSTORE PUSH2 0xBB6 PUSH1 0x40 DUP8 ADD PUSH1 0x20 DUP9 ADD PUSH2 0x22AE JUMP JUMPDEST PUSH1 0x2 DUP3 ADD DUP1 SLOAD PUSH2 0xFFFF SWAP3 SWAP1 SWAP3 AND PUSH2 0x100 MUL PUSH32 0xFFFFFFFFFFFFFFFFFFFFFFFFFFFFFFFFFFFFFFFFFFFFFFFFFFFFFFFFFF0000FF SWAP1 SWAP3 AND SWAP2 SWAP1 SWAP2 OR SWAP1 SSTORE PUSH2 0xC01 PUSH1 0x60 DUP8 ADD PUSH1 0x40 DUP9 ADD PUSH2 0x22AE JUMP JUMPDEST PUSH1 0x3 DUP3 ADD DUP1 SLOAD PUSH32 0xFFFFFFFFFFFFFFFFFFFFFFFFFFFFFFFFFFFFFFFFFFFFFFFFFFFFFFFFFF0000FF AND PUSH2 0x100 PUSH2 0xFFFF SWAP4 SWAP1 SWAP4 AND SWAP3 SWAP1 SWAP3 MUL SWAP2 SWAP1 SWAP2 OR SWAP1 SSTORE DUP1 SLOAD PUSH32 0xFFFFFFFFFFFFFFFFFFFFFFFFFFFFFFFFFFFFFFFFFFFFFFFFFFFFFF0000000000 AND TIMESTAMP PUSH5 0xFFFFFFFFFF AND OR DUP2 SSTORE PUSH2 0xC7A PUSH1 0x4 DUP3 ADD PUSH1 0x0 PUSH2 0x1D60 JUMP JUMPDEST PUSH1 0x0 JUMPDEST DUP5 DUP2 LT ISZERO PUSH2 0xE03 JUMPI DUP2 PUSH1 0x4 ADD PUSH1 0x40 MLOAD DUP1 PUSH1 0x80 ADD PUSH1 0x40 MSTORE DUP1 DUP9 DUP9 DUP6 DUP2 DUP2 LT PUSH2 0xCA6 JUMPI PUSH2 0xCA6 PUSH2 0x2203 JUMP JUMPDEST SWAP1 POP PUSH1 0x20 MUL ADD PUSH1 0x20 DUP2 ADD SWAP1 PUSH2 0xCBB SWAP2 SWAP1 PUSH2 0x235F JUMP JUMPDEST PUSH6 0xFFFFFFFFFFFF AND DUP2 MSTORE PUSH1 0x20 ADD DUP7 DUP7 DUP6 DUP2 DUP2 LT PUSH2 0xCDA JUMPI PUSH2 0xCDA PUSH2 0x2203 JUMP JUMPDEST SWAP1 POP PUSH1 0x20 MUL ADD PUSH1 0x20 DUP2 ADD SWAP1 PUSH2 0xCEF SWAP2 SWAP1 PUSH2 0x21E1 JUMP JUMPDEST PUSH20 0xFFFFFFFFFFFFFFFFFFFFFFFFFFFFFFFFFFFFFFFF SWAP1 DUP2 AND DUP3 MSTORE PUSH1 0x0 PUSH1 0x20 DUP1 DUP5 ADD DUP3 SWAP1 MSTORE PUSH1 0x40 DUP1 MLOAD PUSH1 0x60 DUP1 DUP3 ADD DUP4 MSTORE DUP5 DUP3 MSTORE DUP2 DUP5 ADD DUP6 SWAP1 MSTORE DUP2 DUP4 ADD DUP6 SWAP1 MSTORE SWAP6 DUP3 ADD MSTORE DUP7 SLOAD PUSH1 0x1 DUP2 DUP2 ADD DUP10 SSTORE SWAP8 DUP5 MSTORE SWAP3 DUP3 SWAP1 KECCAK256 DUP7 MLOAD PUSH1 0x2 SWAP1 SWAP5 MUL ADD DUP1 SLOAD SWAP3 DUP8 ADD MLOAD SWAP2 DUP8 ADD MLOAD PUSH2 0xFFFF AND PUSH27 0x10000000000000000000000000000000000000000000000000000 MUL PUSH32 0xFFFFFFFF0000FFFFFFFFFFFFFFFFFFFFFFFFFFFFFFFFFFFFFFFFFFFFFFFFFFFF SWAP3 SWAP1 SWAP6 AND PUSH7 0x1000000000000 MUL PUSH32 0xFFFFFFFFFFFF0000000000000000000000000000000000000000000000000000 SWAP1 SWAP4 AND PUSH6 0xFFFFFFFFFFFF SWAP1 SWAP5 AND SWAP4 SWAP1 SWAP4 OR SWAP2 SWAP1 SWAP2 OR AND SWAP2 SWAP1 SWAP2 OR DUP2 SSTORE SWAP1 DUP3 ADD MLOAD SWAP2 SWAP3 SWAP1 SWAP2 PUSH2 0xDF5 SWAP2 DUP4 ADD SWAP1 PUSH1 0x3 PUSH2 0x1D81 JUMP JUMPDEST POP POP POP DUP1 PUSH1 0x1 ADD SWAP1 POP PUSH2 0xC7D JUMP JUMPDEST POP PUSH1 0x40 MLOAD DUP8 SWAP1 PUSH32 0xC89697EF728C0DBC131C1838D0B59CA47FC8614F4633A0CEBCB990EF5DB0110D SWAP1 PUSH2 0xE38 SWAP1 DUP8 SWAP1 DUP11 SWAP1 PUSH2 0x237A JUMP JUMPDEST PUSH1 0x40 MLOAD DUP1 SWAP2 SUB SWAP1 LOG2 POP POP POP POP POP POP POP JUMP JUMPDEST PUSH1 0x0 DUP1 PUSH1 0x1 DUP5 DUP2 SLOAD DUP2 LT PUSH2 0xE5F JUMPI PUSH2 0xE5F PUSH2 0x2203 JUMP JUMPDEST SWAP1 PUSH1 0x0 MSTORE PUSH1 0x20 PUSH1 0x0 KECCAK256 SWAP1 PUSH1 0x5 MUL ADD PUSH1 0x4 ADD SWAP1 POP PUSH1 0x0 JUMPDEST DUP2 SLOAD DUP2 LT ISZERO PUSH2 0xEC8 JUMPI DUP4 PUSH6 0xFFFFFFFFFFFF AND DUP3 DUP3 DUP2 SLOAD DUP2 LT PUSH2 0xE99 JUMPI PUSH2 0xE99 PUSH2 0x2203 JUMP JUMPDEST PUSH1 0x0 SWAP2 DUP3 MSTORE PUSH1 0x20 SWAP1 SWAP2 KECCAK256 PUSH1 0x2 SWAP1 SWAP2 MUL ADD SLOAD PUSH6 0xFFFFFFFFFFFF AND SUB PUSH2 0xEC0 JUMPI SWAP2 POP PUSH2 0xEFB SWAP1 POP JUMP JUMPDEST PUSH1 0x1 ADD PUSH2 0xE75 JUMP JUMPDEST POP PUSH1 0x40 MLOAD PUSH32 0x3462926B00000000000000000000000000000000000000000000000000000000 DUP2 MSTORE PUSH1 0x4 ADD PUSH1 0x40 MLOAD DUP1 SWAP2 SUB SWAP1 REVERT JUMPDEST SWAP3 SWAP2 POP POP JUMP JUMPDEST PUSH2 0xF09 PUSH2 0x1E13 JUMP JUMPDEST PUSH1 0x1 DUP3 DUP2 SLOAD DUP2 LT PUSH2 0xF1C JUMPI PUSH2 0xF1C PUSH2 0x2203 JUMP JUMPDEST PUSH1 0x0 SWAP2 DUP3 MSTORE PUSH1 0x20 DUP1 DUP4 KECCAK256 PUSH1 0x40 DUP1 MLOAD PUSH1 0x80 DUP2 ADD DUP3 MSTORE PUSH1 0x5 SWAP1 SWAP5 MUL SWAP1 SWAP2 ADD DUP1 SLOAD PUSH5 0xFFFFFFFFFF DUP2 AND DUP6 MSTORE PUSH2 0xFFFF PUSH6 0x10000000000 SWAP1 SWAP2 DIV AND SWAP3 DUP5 ADD SWAP3 SWAP1 SWAP3 MSTORE DUP1 MLOAD PUSH1 0x60 DUP2 ADD DUP3 MSTORE SWAP3 SWAP4 SWAP2 SWAP3 SWAP1 DUP5 ADD SWAP2 PUSH1 0x1 DUP5 ADD SWAP1 PUSH1 0x3 SWAP1 DUP4 JUMPDEST DUP3 DUP3 LT ISZERO PUSH2 0xFB0 JUMPI PUSH1 0x40 DUP1 MLOAD DUP1 DUP3 ADD SWAP1 SWAP2 MSTORE DUP5 DUP4 ADD SLOAD PUSH1 0xFF DUP2 AND DUP3 MSTORE PUSH2 0x100 SWAP1 DIV PUSH2 0xFFFF AND PUSH1 0x20 DUP1 DUP4 ADD SWAP2 SWAP1 SWAP2 MSTORE SWAP1 DUP3 MSTORE PUSH1 0x1 SWAP1 SWAP3 ADD SWAP2 ADD PUSH2 0xF73 JUMP JUMPDEST POP POP POP POP DUP2 MSTORE PUSH1 0x20 ADD PUSH1 0x4 DUP3 ADD DUP1 SLOAD DUP1 PUSH1 0x20 MUL PUSH1 0x20 ADD PUSH1 0x40 MLOAD SWAP1 DUP2 ADD PUSH1 0x40 MSTORE DUP1 SWAP3 SWAP2 SWAP1 DUP2 DUP2 MSTORE PUSH1 0x20 ADD PUSH1 0x0 SWAP1 JUMPDEST DUP3 DUP3 LT ISZERO PUSH2 0x10C3 JUMPI PUSH1 0x0 DUP5 DUP2 MSTORE PUSH1 0x20 DUP1 DUP3 KECCAK256 PUSH1 0x40 DUP1 MLOAD PUSH1 0x80 DUP2 ADD DUP3 MSTORE PUSH1 0x2 DUP8 MUL SWAP1 SWAP3 ADD DUP1 SLOAD PUSH6 0xFFFFFFFFFFFF DUP2 AND DUP5 MSTORE PUSH7 0x1000000000000 DUP2 DIV PUSH20 0xFFFFFFFFFFFFFFFFFFFFFFFFFFFFFFFFFFFFFFFF AND SWAP5 DUP5 ADD SWAP5 SWAP1 SWAP5 MSTORE PUSH27 0x10000000000000000000000000000000000000000000000000000 SWAP1 SWAP4 DIV PUSH2 0xFFFF AND DUP3 DUP3 ADD MSTORE DUP1 MLOAD PUSH1 0x60 DUP1 DUP3 ADD SWAP3 DUP4 SWAP1 MSTORE SWAP3 SWAP5 SWAP3 DUP6 ADD SWAP3 SWAP1 SWAP2 PUSH1 0x1 DUP6 ADD SWAP2 PUSH1 0x3 SWAP2 SWAP1 DUP4 SWAP1 DUP6 JUMPDEST DUP3 SLOAD PUSH2 0x100 DUP4 SWAP1 EXP SWAP1 DIV PUSH1 0xFF AND ISZERO ISZERO DUP2 MSTORE PUSH1 0x20 PUSH1 0x1 SWAP3 DUP4 ADD DUP2 DUP2 DIV SWAP5 DUP6 ADD SWAP5 SWAP1 SWAP4 SUB SWAP1 SWAP3 MUL SWAP2 ADD DUP1 DUP5 GT PUSH2 0x107B JUMPI SWAP1 POP POP POP POP POP POP DUP2 MSTORE POP POP DUP2 MSTORE PUSH1 0x20 ADD SWAP1 PUSH1 0x1 ADD SWAP1 PUSH2 0xFDD JUMP JUMPDEST POP POP POP SWAP2 MSTORE POP SWAP1 SWAP4 SWAP3 POP POP POP JUMP JUMPDEST PUSH1 0x1 SLOAD PUSH1 0x0 SWAP1 DUP3 LT PUSH2 0x110F JUMPI PUSH1 0x40 MLOAD PUSH32 0xA55F88000000000000000000000000000000000000000000000000000000000 DUP2 MSTORE PUSH1 0x4 ADD PUSH1 0x40 MLOAD DUP1 SWAP2 SUB SWAP1 REVERT JUMPDEST PUSH1 0x0 PUSH1 0x1 DUP4 DUP2 SLOAD DUP2 LT PUSH2 0x1124 JUMPI PUSH2 0x1124 PUSH2 0x2203 JUMP JUMPDEST PUSH1 0x0 SWAP2 DUP3 MSTORE PUSH1 0x20 SWAP1 SWAP2 KECCAK256 PUSH1 0x5 SWAP1 SWAP2 MUL ADD DUP1 SLOAD SWAP1 SWAP2 POP TIMESTAMP SWAP1 PUSH2 0x1150 SWAP1 PUSH3 0x24EA00 SWAP1 PUSH5 0xFFFFFFFFFF AND PUSH2 0x23BE JUMP JUMPDEST LT ISZERO PUSH2 0x1188 JUMPI PUSH1 0x40 MLOAD PUSH32 0xAE609B1700000000000000000000000000000000000000000000000000000000 DUP2 MSTORE PUSH1 0x4 ADD PUSH1 0x40 MLOAD DUP1 SWAP2 SUB SWAP1 REVERT JUMPDEST DUP1 SLOAD TIMESTAMP SWAP1 PUSH2 0x11A1 SWAP1 PUSH3 0x93A80 SWAP1 PUSH5 0xFFFFFFFFFF AND PUSH2 0x23BE JUMP JUMPDEST LT ISZERO PUSH2 0x11B0 JUMPI POP PUSH1 0x1 SWAP3 SWAP2 POP POP JUMP JUMPDEST PUSH1 0x1 DUP2 ADD SLOAD PUSH1 0xFF AND ISZERO DUP1 ISZERO SWAP1 PUSH2 0x11CC JUMPI POP PUSH1 0x2 DUP2 ADD SLOAD PUSH1 0xFF AND ISZERO ISZERO JUMPDEST DUP1 ISZERO PUSH2 0x11DE JUMPI POP PUSH1 0x3 DUP2 ADD SLOAD PUSH1 0xFF AND ISZERO ISZERO JUMPDEST ISZERO PUSH2 0x11EC JUMPI POP PUSH1 0x1 SWAP3 SWAP2 POP POP JUMP JUMPDEST POP PUSH1 0x0 SWAP3 SWAP2 POP POP JUMP JUMPDEST PUSH1 0x0 CALLER PUSH1 0x40 MLOAD PUSH32 0x23B872DD00000000000000000000000000000000000000000000000000000000 DUP2 MSTORE PUSH20 0xFFFFFFFFFFFFFFFFFFFFFFFFFFFFFFFFFFFFFFFF DUP1 DUP4 AND PUSH1 0x4 DUP4 ADD MSTORE ADDRESS PUSH1 0x24 DUP4 ADD MSTORE PUSH1 0x44 DUP3 ADD DUP6 SWAP1 MSTORE SWAP2 SWAP3 POP PUSH32 0x0 SWAP1 SWAP2 AND SWAP1 PUSH4 0x23B872DD SWAP1 PUSH1 0x64 ADD PUSH1 0x20 PUSH1 0x40 MLOAD DUP1 DUP4 SUB DUP2 PUSH1 0x0 DUP8 GAS CALL ISZERO DUP1 ISZERO PUSH2 0x1298 JUMPI RETURNDATASIZE PUSH1 0x0 DUP1 RETURNDATACOPY RETURNDATASIZE PUSH1 0x0 REVERT JUMPDEST POP POP POP POP PUSH1 0x40 MLOAD RETURNDATASIZE PUSH1 0x1F NOT PUSH1 0x1F DUP3 ADD AND DUP3 ADD DUP1 PUSH1 0x40 MSTORE POP DUP2 ADD SWAP1 PUSH2 0x12BC SWAP2 SWAP1 PUSH2 0x23D1 JUMP JUMPDEST PUSH2 0x12F2 JUMPI PUSH1 0x40 MLOAD PUSH32 0x45C4B0200000000000000000000000000000000000000000000000000000000 DUP2 MSTORE PUSH1 0x4 ADD PUSH1 0x40 MLOAD DUP1 SWAP2 SUB SWAP1 REVERT JUMPDEST DUP1 PUSH20 0xFFFFFFFFFFFFFFFFFFFFFFFFFFFFFFFFFFFFFFFF AND PUSH32 0xE1FFFCC4923D04B559F4D29A8BFC6CDA04EB5B0D3C460751C2402C5C5CC9109C DUP4 PUSH1 0x40 MLOAD PUSH2 0x133A SWAP2 DUP2 MSTORE PUSH1 0x20 ADD SWAP1 JUMP JUMPDEST PUSH1 0x40 MLOAD DUP1 SWAP2 SUB SWAP1 LOG2 POP POP JUMP JUMPDEST PUSH1 0x0 PUSH1 0x2 DUP3 GT ISZERO PUSH2 0x1383 JUMPI PUSH1 0x40 MLOAD PUSH32 0x3F613DD300000000000000000000000000000000000000000000000000000000 DUP2 MSTORE PUSH1 0x4 ADD PUSH1 0x40 MLOAD DUP1 SWAP2 SUB SWAP1 REVERT JUMPDEST PUSH1 0x1 SLOAD DUP4 LT PUSH2 0x13BE JUMPI PUSH1 0x40 MLOAD PUSH32 0xA55F88000000000000000000000000000000000000000000000000000000000 DUP2 MSTORE PUSH1 0x4 ADD PUSH1 0x40 MLOAD DUP1 SWAP2 SUB SWAP1 REVERT JUMPDEST PUSH1 0x0 PUSH1 0x1 DUP5 DUP2 SLOAD DUP2 LT PUSH2 0x13D3 JUMPI PUSH2 0x13D3 PUSH2 0x2203 JUMP JUMPDEST PUSH1 0x0 SWAP2 DUP3 MSTORE PUSH1 0x20 SWAP1 SWAP2 KECCAK256 PUSH1 0x5 SWAP1 SWAP2 MUL ADD DUP1 SLOAD SWAP1 SWAP2 POP TIMESTAMP SWAP1 PUSH2 0x13FF SWAP1 PUSH3 0x93A80 SWAP1 PUSH5 0xFFFFFFFFFF AND PUSH2 0x23BE JUMP JUMPDEST LT ISZERO PUSH2 0x1437 JUMPI PUSH1 0x40 MLOAD PUSH32 0x4DA70D2700000000000000000000000000000000000000000000000000000000 DUP2 MSTORE PUSH1 0x4 ADD PUSH1 0x40 MLOAD DUP1 SWAP2 SUB SWAP1 REVERT JUMPDEST DUP1 PUSH1 0x1 ADD DUP4 PUSH1 0x3 DUP2 LT PUSH2 0x144C JUMPI PUSH2 0x144C PUSH2 0x2203 JUMP JUMPDEST ADD SLOAD PUSH1 0xFF AND ISZERO PUSH2 0x1488 JUMPI PUSH1 0x40 MLOAD PUSH32 0x646CF55800000000000000000000000000000000000000000000000000000000 DUP2 MSTORE PUSH1 0x4 ADD PUSH1 0x40 MLOAD DUP1 SWAP2 SUB SWAP1 REVERT JUMPDEST DUP1 PUSH1 0x1 ADD DUP4 PUSH1 0x3 DUP2 LT PUSH2 0x149D JUMPI PUSH2 0x149D PUSH2 0x2203 JUMP JUMPDEST ADD SLOAD PUSH2 0x100 SWAP1 DIV PUSH2 0xFFFF AND SWAP5 SWAP4 POP POP POP POP JUMP JUMPDEST PUSH1 0x0 DUP1 PUSH1 0x1 DUP5 DUP2 SLOAD DUP2 LT PUSH2 0x14C6 JUMPI PUSH2 0x14C6 PUSH2 0x2203 JUMP JUMPDEST SWAP1 PUSH1 0x0 MSTORE PUSH1 0x20 PUSH1 0x0 KECCAK256 SWAP1 PUSH1 0x5 MUL ADD PUSH1 0x4 ADD SWAP1 POP PUSH1 0x0 JUMPDEST DUP2 SLOAD DUP2 LT ISZERO PUSH2 0xEC8 JUMPI DUP4 PUSH20 0xFFFFFFFFFFFFFFFFFFFFFFFFFFFFFFFFFFFFFFFF AND DUP3 DUP3 DUP2 SLOAD DUP2 LT PUSH2 0x150E JUMPI PUSH2 0x150E PUSH2 0x2203 JUMP JUMPDEST PUSH1 0x0 SWAP2 DUP3 MSTORE PUSH1 0x20 SWAP1 SWAP2 KECCAK256 PUSH1 0x2 SWAP1 SWAP2 MUL ADD SLOAD PUSH7 0x1000000000000 SWAP1 DIV PUSH20 0xFFFFFFFFFFFFFFFFFFFFFFFFFFFFFFFFFFFFFFFF AND SUB PUSH2 0x154D JUMPI SWAP2 POP PUSH2 0xEFB SWAP1 POP JUMP JUMPDEST PUSH1 0x1 ADD PUSH2 0x14DC JUMP JUMPDEST PUSH2 0x155D PUSH2 0x1C98 JUMP JUMPDEST PUSH1 0x0 CALLER PUSH1 0x40 MLOAD PUSH32 0x70A0823100000000000000000000000000000000000000000000000000000000 DUP2 MSTORE ADDRESS PUSH1 0x4 DUP3 ADD MSTORE SWAP1 SWAP2 POP PUSH1 0x0 SWAP1 PUSH20 0xFFFFFFFFFFFFFFFFFFFFFFFFFFFFFFFFFFFFFFFF PUSH32 0x0 AND SWAP1 PUSH4 0x70A08231 SWAP1 PUSH1 0x24 ADD PUSH1 0x20 PUSH1 0x40 MLOAD DUP1 DUP4 SUB DUP2 DUP7 GAS STATICCALL ISZERO DUP1 ISZERO PUSH2 0x15F0 JUMPI RETURNDATASIZE PUSH1 0x0 DUP1 RETURNDATACOPY RETURNDATASIZE PUSH1 0x0 REVERT JUMPDEST POP POP POP POP PUSH1 0x40 MLOAD RETURNDATASIZE PUSH1 0x1F NOT PUSH1 0x1F DUP3 ADD AND DUP3 ADD DUP1 PUSH1 0x40 MSTORE POP DUP2 ADD SWAP1 PUSH2 0x1614 SWAP2 SWAP1 PUSH2 0x22E0 JUMP JUMPDEST SWAP1 POP DUP1 PUSH1 0x0 SUB PUSH2 0x1650 JUMPI PUSH1 0x40 MLOAD PUSH32 0xD0D04F6000000000000000000000000000000000000000000000000000000000 DUP2 MSTORE PUSH1 0x4 ADD PUSH1 0x40 MLOAD DUP1 SWAP2 SUB SWAP1 REVERT JUMPDEST PUSH1 0x40 MLOAD PUSH32 0xA9059CBB00000000000000000000000000000000000000000000000000000000 DUP2 MSTORE PUSH20 0xFFFFFFFFFFFFFFFFFFFFFFFFFFFFFFFFFFFFFFFF DUP4 DUP2 AND PUSH1 0x4 DUP4 ADD MSTORE PUSH1 0x24 DUP3 ADD DUP4 SWAP1 MSTORE PUSH32 0x0 AND SWAP1 PUSH4 0xA9059CBB SWAP1 PUSH1 0x44 ADD PUSH1 0x20 PUSH1 0x40 MLOAD DUP1 DUP4 SUB DUP2 PUSH1 0x0 DUP8 GAS CALL ISZERO DUP1 ISZERO PUSH2 0x16E5 JUMPI RETURNDATASIZE PUSH1 0x0 DUP1 RETURNDATACOPY RETURNDATASIZE PUSH1 0x0 REVERT JUMPDEST POP POP POP POP PUSH1 0x40 MLOAD RETURNDATASIZE PUSH1 0x1F NOT PUSH1 0x1F DUP3 ADD AND DUP3 ADD DUP1 PUSH1 0x40 MSTORE POP DUP2 ADD SWAP1 PUSH2 0x1709 SWAP2 SWAP1 PUSH2 0x23D1 JUMP JUMPDEST PUSH2 0x173F JUMPI PUSH1 0x40 MLOAD PUSH32 0x45C4B0200000000000000000000000000000000000000000000000000000000 DUP2 MSTORE PUSH1 0x4 ADD PUSH1 0x40 MLOAD DUP1 SWAP2 SUB SWAP1 REVERT JUMPDEST DUP2 PUSH20 0xFFFFFFFFFFFFFFFFFFFFFFFFFFFFFFFFFFFFFFFF AND PUSH32 0x5FAFA99D0643513820BE26656B45130B01E1C03062E1266BF36F88CBD3BD9695 DUP3 PUSH1 0x40 MLOAD PUSH2 0x133A SWAP2 DUP2 MSTORE PUSH1 0x20 ADD SWAP1 JUMP JUMPDEST PUSH1 0x0 PUSH2 0x1793 DUP5 DUP5 PUSH2 0x1346 JUMP JUMPDEST SWAP1 POP PUSH1 0x0 PUSH1 0x1 DUP6 DUP2 SLOAD DUP2 LT PUSH2 0x17AA JUMPI PUSH2 0x17AA PUSH2 0x2203 JUMP JUMPDEST SWAP1 PUSH1 0x0 MSTORE PUSH1 0x20 PUSH1 0x0 KECCAK256 SWAP1 PUSH1 0x5 MUL ADD SWAP1 POP PUSH1 0x0 PUSH2 0x17C3 CALLER SWAP1 JUMP JUMPDEST SWAP1 POP DUP1 PUSH20 0xFFFFFFFFFFFFFFFFFFFFFFFFFFFFFFFFFFFFFFFF AND DUP3 PUSH1 0x4 ADD DUP7 DUP2 SLOAD DUP2 LT PUSH2 0x17F1 JUMPI PUSH2 0x17F1 PUSH2 0x2203 JUMP JUMPDEST PUSH1 0x0 SWAP2 DUP3 MSTORE PUSH1 0x20 SWAP1 SWAP2 KECCAK256 PUSH1 0x2 SWAP1 SWAP2 MUL ADD SLOAD PUSH7 0x1000000000000 SWAP1 DIV PUSH20 0xFFFFFFFFFFFFFFFFFFFFFFFFFFFFFFFFFFFFFFFF AND EQ PUSH2 0x1859 JUMPI PUSH1 0x40 MLOAD PUSH32 0x1E09210400000000000000000000000000000000000000000000000000000000 DUP2 MSTORE PUSH1 0x4 ADD PUSH1 0x40 MLOAD DUP1 SWAP2 SUB SWAP1 REVERT JUMPDEST PUSH1 0x0 DUP1 DUP6 PUSH1 0xFF AND PUSH1 0x1 SUB PUSH2 0x186F JUMPI DUP5 SWAP2 POP PUSH2 0x18D3 JUMP JUMPDEST DUP6 PUSH1 0xFF AND PUSH1 0x2 SUB PUSH2 0x188F JUMPI PUSH2 0x1885 PUSH1 0x2 DUP7 PUSH2 0x23F3 JUMP JUMPDEST SWAP1 POP DUP1 SWAP2 POP PUSH2 0x18D3 JUMP JUMPDEST DUP6 PUSH1 0xFF AND PUSH1 0x3 SUB PUSH2 0x18A1 JUMPI POP DUP4 PUSH2 0x18D3 JUMP JUMPDEST PUSH1 0x40 MLOAD PUSH32 0xF2D09BA200000000000000000000000000000000000000000000000000000000 DUP2 MSTORE PUSH1 0x4 ADD PUSH1 0x40 MLOAD DUP1 SWAP2 SUB SWAP1 REVERT JUMPDEST DUP6 DUP5 PUSH1 0x1 ADD DUP9 PUSH1 0x3 DUP2 LT PUSH2 0x18E9 JUMPI PUSH2 0x18E9 PUSH2 0x2203 JUMP JUMPDEST ADD DUP1 SLOAD PUSH32 0xFFFFFFFFFFFFFFFFFFFFFFFFFFFFFFFFFFFFFFFFFFFFFFFFFFFFFFFFFFFFFF00 AND PUSH1 0xFF SWAP3 SWAP1 SWAP3 AND SWAP2 SWAP1 SWAP2 OR SWAP1 SSTORE PUSH2 0xFFFF DUP3 AND ISZERO PUSH2 0x1A15 JUMPI DUP2 DUP5 PUSH1 0x4 ADD DUP9 DUP2 SLOAD DUP2 LT PUSH2 0x193A JUMPI PUSH2 0x193A PUSH2 0x2203 JUMP JUMPDEST PUSH1 0x0 SWAP2 DUP3 MSTORE PUSH1 0x20 SWAP1 SWAP2 KECCAK256 PUSH1 0x2 SWAP1 SWAP2 MUL ADD DUP1 SLOAD PUSH1 0x1A SWAP1 PUSH2 0x197C SWAP1 DUP5 SWAP1 PUSH27 0x10000000000000000000000000000000000000000000000000000 SWAP1 DIV PUSH2 0xFFFF AND PUSH2 0x2261 JUMP JUMPDEST SWAP3 POP PUSH2 0x100 EXP DUP2 SLOAD DUP2 PUSH2 0xFFFF MUL NOT AND SWAP1 DUP4 PUSH2 0xFFFF AND MUL OR SWAP1 SSTORE POP DUP2 DUP5 PUSH1 0x0 ADD PUSH1 0x5 DUP3 DUP3 DUP3 SWAP1 SLOAD SWAP1 PUSH2 0x100 EXP SWAP1 DIV PUSH2 0xFFFF AND PUSH2 0x19B7 SWAP2 SWAP1 PUSH2 0x2261 JUMP JUMPDEST SWAP3 POP PUSH2 0x100 EXP DUP2 SLOAD DUP2 PUSH2 0xFFFF MUL NOT AND SWAP1 DUP4 PUSH2 0xFFFF AND MUL OR SWAP1 SSTORE POP PUSH2 0x19DF DUP3 PUSH2 0xFFFF AND DUP5 PUSH2 0x1B77 JUMP JUMPDEST PUSH2 0x1A15 JUMPI PUSH1 0x40 MLOAD PUSH32 0xD3DB0D700000000000000000000000000000000000000000000000000000000 DUP2 MSTORE PUSH1 0x4 ADD PUSH1 0x40 MLOAD DUP1 SWAP2 SUB SWAP1 REVERT JUMPDEST PUSH2 0xFFFF DUP2 AND ISZERO PUSH2 0x1A9D JUMPI PUSH1 0x3 JUMPDEST PUSH2 0x1A2D DUP3 PUSH1 0x3 PUSH2 0x2261 JUMP JUMPDEST PUSH2 0xFFFF AND DUP2 LT ISZERO PUSH2 0x1A9B JUMPI PUSH1 0x1 DUP6 PUSH1 0x4 ADD DUP3 DUP2 SLOAD DUP2 LT PUSH2 0x1A4F JUMPI PUSH2 0x1A4F PUSH2 0x2203 JUMP JUMPDEST SWAP1 PUSH1 0x0 MSTORE PUSH1 0x20 PUSH1 0x0 KECCAK256 SWAP1 PUSH1 0x2 MUL ADD PUSH1 0x1 ADD DUP10 PUSH1 0x3 DUP2 LT PUSH2 0x1A71 JUMPI PUSH2 0x1A71 PUSH2 0x2203 JUMP JUMPDEST PUSH1 0x20 SWAP2 DUP3 DUP3 DIV ADD SWAP2 SWAP1 MOD PUSH2 0x100 EXP DUP2 SLOAD DUP2 PUSH1 0xFF MUL NOT AND SWAP1 DUP4 ISZERO ISZERO MUL OR SWAP1 SSTORE POP DUP1 PUSH1 0x1 ADD SWAP1 POP PUSH2 0x1A22 JUMP JUMPDEST POP JUMPDEST PUSH1 0x40 DUP1 MLOAD DUP9 DUP2 MSTORE PUSH1 0xFF DUP9 AND PUSH1 0x20 DUP3 ADD MSTORE PUSH2 0xFFFF DUP5 DUP2 AND DUP3 DUP5 ADD MSTORE DUP4 AND PUSH1 0x60 DUP3 ADD MSTORE SWAP1 MLOAD DUP10 SWAP2 PUSH20 0xFFFFFFFFFFFFFFFFFFFFFFFFFFFFFFFFFFFFFFFF DUP7 AND SWAP2 PUSH32 0xB12DCE413AEC88DDF22BA4A273EF71B9DDF7A09A68E269540F52220B12AA78C2 SWAP2 DUP2 SWAP1 SUB PUSH1 0x80 ADD SWAP1 LOG3 POP POP POP POP POP POP POP POP JUMP JUMPDEST PUSH2 0x1B16 PUSH2 0x1C98 JUMP JUMPDEST PUSH20 0xFFFFFFFFFFFFFFFFFFFFFFFFFFFFFFFFFFFFFFFF DUP2 AND PUSH2 0x1B6B JUMPI PUSH1 0x40 MLOAD PUSH32 0x1E4FBDF700000000000000000000000000000000000000000000000000000000 DUP2 MSTORE PUSH1 0x0 PUSH1 0x4 DUP3 ADD MSTORE PUSH1 0x24 ADD JUMPDEST PUSH1 0x40 MLOAD DUP1 SWAP2 SUB SWAP1 REVERT JUMPDEST PUSH2 0x1B74 DUP2 PUSH2 0x1CEB JUMP JUMPDEST POP JUMP JUMPDEST PUSH1 0x0 PUSH20 0xFFFFFFFFFFFFFFFFFFFFFFFFFFFFFFFFFFFFFFFF PUSH32 0x0 AND PUSH4 0xF74BFE8E PUSH32 0x0 DUP6 PUSH2 0x1BEA DUP2 PUSH9 0x56BC75E2D63100000 PUSH2 0x22C9 JUMP JUMPDEST PUSH1 0x40 MLOAD PUSH32 0xFFFFFFFF00000000000000000000000000000000000000000000000000000000 PUSH1 0xE0 DUP7 SWAP1 SHL AND DUP2 MSTORE PUSH20 0xFFFFFFFFFFFFFFFFFFFFFFFFFFFFFFFFFFFFFFFF SWAP4 DUP5 AND PUSH1 0x4 DUP3 ADD MSTORE PUSH1 0x24 DUP2 ADD SWAP3 SWAP1 SWAP3 MSTORE PUSH1 0x44 DUP3 ADD MSTORE SWAP1 DUP6 AND PUSH1 0x64 DUP3 ADD MSTORE PUSH1 0x84 ADD PUSH1 0x20 PUSH1 0x40 MLOAD DUP1 DUP4 SUB DUP2 PUSH1 0x0 DUP8 GAS CALL ISZERO DUP1 ISZERO PUSH2 0x1C6A JUMPI RETURNDATASIZE PUSH1 0x0 DUP1 RETURNDATACOPY RETURNDATASIZE PUSH1 0x0 REVERT JUMPDEST POP POP POP POP PUSH1 0x40 MLOAD RETURNDATASIZE PUSH1 0x1F NOT PUSH1 0x1F DUP3 ADD AND DUP3 ADD DUP1 PUSH1 0x40 MSTORE POP DUP2 ADD SWAP1 PUSH2 0x1C8E SWAP2 SWAP1 PUSH2 0x22E0 JUMP JUMPDEST POP PUSH1 0x1 SWAP4 SWAP3 POP POP POP JUMP JUMPDEST PUSH1 0x0 SLOAD PUSH20 0xFFFFFFFFFFFFFFFFFFFFFFFFFFFFFFFFFFFFFFFF AND CALLER EQ PUSH2 0x7A2 JUMPI PUSH1 0x40 MLOAD PUSH32 0x118CDAA700000000000000000000000000000000000000000000000000000000 DUP2 MSTORE CALLER PUSH1 0x4 DUP3 ADD MSTORE PUSH1 0x24 ADD PUSH2 0x1B62 JUMP JUMPDEST PUSH1 0x0 DUP1 SLOAD PUSH20 0xFFFFFFFFFFFFFFFFFFFFFFFFFFFFFFFFFFFFFFFF DUP4 DUP2 AND PUSH32 0xFFFFFFFFFFFFFFFFFFFFFFFF0000000000000000000000000000000000000000 DUP4 AND DUP2 OR DUP5 SSTORE PUSH1 0x40 MLOAD SWAP2 SWAP1 SWAP3 AND SWAP3 DUP4 SWAP2 PUSH32 0x8BE0079C531659141344CD1FD0A4F28419497F9722A3DAAFE3B4186F6B6457E0 SWAP2 SWAP1 LOG3 POP POP JUMP JUMPDEST POP DUP1 SLOAD PUSH1 0x0 DUP3 SSTORE PUSH1 0x2 MUL SWAP1 PUSH1 0x0 MSTORE PUSH1 0x20 PUSH1 0x0 KECCAK256 SWAP1 DUP2 ADD SWAP1 PUSH2 0x1B74 SWAP2 SWAP1 PUSH2 0x1E3F JUMP JUMPDEST PUSH1 0x1 DUP4 ADD SWAP2 DUP4 SWAP1 DUP3 ISZERO PUSH2 0x1E03 JUMPI SWAP2 PUSH1 0x20 MUL DUP3 ADD PUSH1 0x0 JUMPDEST DUP4 DUP3 GT ISZERO PUSH2 0x1DD4 JUMPI DUP4 MLOAD DUP4 DUP3 PUSH2 0x100 EXP DUP2 SLOAD DUP2 PUSH1 0xFF MUL NOT AND SWAP1 DUP4 ISZERO ISZERO MUL OR SWAP1 SSTORE POP SWAP3 PUSH1 0x20 ADD SWAP3 PUSH1 0x1 ADD PUSH1 0x20 DUP2 PUSH1 0x0 ADD DIV SWAP3 DUP4 ADD SWAP3 PUSH1 0x1 SUB MUL PUSH2 0x1D97 JUMP JUMPDEST DUP1 ISZERO PUSH2 0x1E01 JUMPI DUP3 DUP2 PUSH2 0x100 EXP DUP2 SLOAD SWAP1 PUSH1 0xFF MUL NOT AND SWAP1 SSTORE PUSH1 0x1 ADD PUSH1 0x20 DUP2 PUSH1 0x0 ADD DIV SWAP3 DUP4 ADD SWAP3 PUSH1 0x1 SUB MUL PUSH2 0x1DD4 JUMP JUMPDEST POP JUMPDEST POP PUSH2 0x1E0F SWAP3 SWAP2 POP PUSH2 0x1E7C JUMP JUMPDEST POP SWAP1 JUMP JUMPDEST PUSH1 0x40 DUP1 MLOAD PUSH1 0x80 DUP2 ADD DUP3 MSTORE PUSH1 0x0 DUP1 DUP3 MSTORE PUSH1 0x20 DUP3 ADD MSTORE SWAP1 DUP2 ADD PUSH2 0x1E32 PUSH2 0x1E91 JUMP JUMPDEST DUP2 MSTORE PUSH1 0x20 ADD PUSH1 0x60 DUP2 MSTORE POP SWAP1 JUMP JUMPDEST DUP1 DUP3 GT ISZERO PUSH2 0x1E0F JUMPI DUP1 SLOAD PUSH32 0xFFFFFFFF00000000000000000000000000000000000000000000000000000000 AND DUP2 SSTORE PUSH1 0x0 PUSH1 0x1 DUP3 ADD SSTORE PUSH1 0x2 ADD PUSH2 0x1E3F JUMP JUMPDEST JUMPDEST DUP1 DUP3 GT ISZERO PUSH2 0x1E0F JUMPI PUSH1 0x0 DUP2 SSTORE PUSH1 0x1 ADD PUSH2 0x1E7D JUMP JUMPDEST PUSH1 0x40 MLOAD DUP1 PUSH1 0x60 ADD PUSH1 0x40 MSTORE DUP1 PUSH1 0x3 SWAP1 JUMPDEST PUSH1 0x40 DUP1 MLOAD DUP1 DUP3 ADD SWAP1 SWAP2 MSTORE PUSH1 0x0 DUP1 DUP3 MSTORE PUSH1 0x20 DUP3 ADD MSTORE DUP2 MSTORE PUSH1 0x20 ADD SWAP1 PUSH1 0x1 SWAP1 SUB SWAP1 DUP2 PUSH2 0x1EA0 JUMPI SWAP1 POP POP SWAP1 JUMP JUMPDEST PUSH1 0x0 DUP1 PUSH1 0x40 DUP4 DUP6 SUB SLT ISZERO PUSH2 0x1EDD JUMPI PUSH1 0x0 DUP1 REVERT JUMPDEST POP POP DUP1 CALLDATALOAD SWAP3 PUSH1 0x20 SWAP1 SWAP2 ADD CALLDATALOAD SWAP2 POP JUMP JUMPDEST PUSH1 0x0 DUP1 DUP4 PUSH1 0x1F DUP5 ADD SLT PUSH2 0x1EFE JUMPI PUSH1 0x0 DUP1 REVERT JUMPDEST POP DUP2 CALLDATALOAD PUSH8 0xFFFFFFFFFFFFFFFF DUP2 GT ISZERO PUSH2 0x1F16 JUMPI PUSH1 0x0 DUP1 REVERT JUMPDEST PUSH1 0x20 DUP4 ADD SWAP2 POP DUP4 PUSH1 0x20 DUP3 PUSH1 0x5 SHL DUP6 ADD ADD GT ISZERO PUSH2 0x1F31 JUMPI PUSH1 0x0 DUP1 REVERT JUMPDEST SWAP3 POP SWAP3 SWAP1 POP JUMP JUMPDEST PUSH1 0x0 DUP1 PUSH1 0x0 DUP1 PUSH1 0x0 DUP1 PUSH1 0xC0 DUP8 DUP10 SUB SLT ISZERO PUSH2 0x1F51 JUMPI PUSH1 0x0 DUP1 REVERT JUMPDEST DUP7 CALLDATALOAD SWAP6 POP PUSH1 0x80 DUP8 ADD DUP9 DUP2 GT ISZERO PUSH2 0x1F66 JUMPI PUSH1 0x0 DUP1 REVERT JUMPDEST PUSH1 0x20 DUP9 ADD SWAP6 POP CALLDATALOAD PUSH8 0xFFFFFFFFFFFFFFFF DUP2 GT ISZERO PUSH2 0x1F82 JUMPI PUSH1 0x0 DUP1 REVERT JUMPDEST PUSH2 0x1F8E DUP10 DUP3 DUP11 ADD PUSH2 0x1EEC JUMP JUMPDEST SWAP1 SWAP6 POP SWAP4 POP POP PUSH1 0xA0 DUP8 ADD CALLDATALOAD PUSH8 0xFFFFFFFFFFFFFFFF DUP2 GT ISZERO PUSH2 0x1FAE JUMPI PUSH1 0x0 DUP1 REVERT JUMPDEST PUSH2 0x1FBA DUP10 DUP3 DUP11 ADD PUSH2 0x1EEC JUMP JUMPDEST SWAP8 SWAP11 SWAP7 SWAP10 POP SWAP5 SWAP8 POP SWAP3 SWAP6 SWAP4 SWAP5 SWAP3 POP POP POP JUMP JUMPDEST DUP1 CALLDATALOAD PUSH6 0xFFFFFFFFFFFF DUP2 AND DUP2 EQ PUSH2 0x1FE2 JUMPI PUSH1 0x0 DUP1 REVERT JUMPDEST SWAP2 SWAP1 POP JUMP JUMPDEST PUSH1 0x0 DUP1 PUSH1 0x40 DUP4 DUP6 SUB SLT ISZERO PUSH2 0x1FFA JUMPI PUSH1 0x0 DUP1 REVERT JUMPDEST DUP3 CALLDATALOAD SWAP2 POP PUSH2 0x200A PUSH1 0x20 DUP5 ADD PUSH2 0x1FCC JUMP JUMPDEST SWAP1 POP SWAP3 POP SWAP3 SWAP1 POP JUMP JUMPDEST PUSH1 0x0 PUSH1 0x20 DUP3 DUP5 SUB SLT ISZERO PUSH2 0x2025 JUMPI PUSH1 0x0 DUP1 REVERT JUMPDEST POP CALLDATALOAD SWAP2 SWAP1 POP JUMP JUMPDEST PUSH1 0x0 DUP2 MLOAD DUP1 DUP5 MSTORE PUSH1 0x20 DUP5 ADD SWAP4 POP PUSH1 0x20 DUP4 ADD PUSH1 0x0 JUMPDEST DUP3 DUP2 LT ISZERO PUSH2 0x20CC JUMPI DUP2 MLOAD PUSH6 0xFFFFFFFFFFFF DUP2 MLOAD AND DUP8 MSTORE PUSH20 0xFFFFFFFFFFFFFFFFFFFFFFFFFFFFFFFFFFFFFFFF PUSH1 0x20 DUP3 ADD MLOAD AND PUSH1 0x20 DUP9 ADD MSTORE PUSH2 0xFFFF PUSH1 0x40 DUP3 ADD MLOAD AND PUSH1 0x40 DUP9 ADD MSTORE PUSH1 0x60 DUP2 ADD MLOAD SWAP1 POP PUSH1 0x60 DUP8 ADD PUSH1 0x0 JUMPDEST PUSH1 0x3 DUP2 LT ISZERO PUSH2 0x20B3 JUMPI DUP3 MLOAD ISZERO ISZERO DUP3 MSTORE PUSH1 0x20 SWAP3 DUP4 ADD SWAP3 SWAP1 SWAP2 ADD SWAP1 PUSH1 0x1 ADD PUSH2 0x2092 JUMP JUMPDEST POP POP POP PUSH1 0xC0 SWAP6 SWAP1 SWAP6 ADD SWAP5 PUSH1 0x20 SWAP2 SWAP1 SWAP2 ADD SWAP1 PUSH1 0x1 ADD PUSH2 0x2040 JUMP JUMPDEST POP SWAP4 SWAP5 SWAP4 POP POP POP POP JUMP JUMPDEST PUSH1 0x20 DUP2 MSTORE PUSH5 0xFFFFFFFFFF DUP3 MLOAD AND PUSH1 0x20 DUP3 ADD MSTORE PUSH2 0xFFFF PUSH1 0x20 DUP4 ADD MLOAD AND PUSH1 0x40 DUP3 ADD MSTORE PUSH1 0x0 PUSH1 0x40 DUP4 ADD MLOAD PUSH1 0x60 DUP4 ADD PUSH1 0x0 JUMPDEST PUSH1 0x3 DUP2 LT ISZERO PUSH2 0x2136 JUMPI DUP3 MLOAD DUP1 MLOAD PUSH1 0xFF AND DUP4 MSTORE PUSH1 0x20 SWAP1 DUP2 ADD MLOAD PUSH2 0xFFFF AND DUP2 DUP5 ADD MSTORE SWAP1 SWAP3 ADD SWAP2 PUSH1 0x40 SWAP1 SWAP2 ADD SWAP1 PUSH1 0x1 ADD PUSH2 0x2104 JUMP JUMPDEST POP POP POP PUSH1 0x60 DUP4 ADD MLOAD PUSH2 0x120 DUP1 DUP5 ADD MSTORE PUSH2 0x2153 PUSH2 0x140 DUP5 ADD DUP3 PUSH2 0x202C JUMP JUMPDEST SWAP5 SWAP4 POP POP POP POP JUMP JUMPDEST DUP1 CALLDATALOAD PUSH20 0xFFFFFFFFFFFFFFFFFFFFFFFFFFFFFFFFFFFFFFFF DUP2 AND DUP2 EQ PUSH2 0x1FE2 JUMPI PUSH1 0x0 DUP1 REVERT JUMPDEST PUSH1 0x0 DUP1 PUSH1 0x40 DUP4 DUP6 SUB SLT ISZERO PUSH2 0x2192 JUMPI PUSH1 0x0 DUP1 REVERT JUMPDEST DUP3 CALLDATALOAD SWAP2 POP PUSH2 0x200A PUSH1 0x20 DUP5 ADD PUSH2 0x215B JUMP JUMPDEST PUSH1 0x0 DUP1 PUSH1 0x0 PUSH1 0x60 DUP5 DUP7 SUB SLT ISZERO PUSH2 0x21B7 JUMPI PUSH1 0x0 DUP1 REVERT JUMPDEST DUP4 CALLDATALOAD SWAP3 POP PUSH1 0x20 DUP5 ADD CALLDATALOAD SWAP2 POP PUSH1 0x40 DUP5 ADD CALLDATALOAD PUSH1 0xFF DUP2 AND DUP2 EQ PUSH2 0x21D6 JUMPI PUSH1 0x0 DUP1 REVERT JUMPDEST DUP1 SWAP2 POP POP SWAP3 POP SWAP3 POP SWAP3 JUMP JUMPDEST PUSH1 0x0 PUSH1 0x20 DUP3 DUP5 SUB SLT ISZERO PUSH2 0x21F3 JUMPI PUSH1 0x0 DUP1 REVERT JUMPDEST PUSH2 0x21FC DUP3 PUSH2 0x215B JUMP JUMPDEST SWAP4 SWAP3 POP POP POP JUMP JUMPDEST PUSH32 0x4E487B7100000000000000000000000000000000000000000000000000000000 PUSH1 0x0 MSTORE PUSH1 0x32 PUSH1 0x4 MSTORE PUSH1 0x24 PUSH1 0x0 REVERT JUMPDEST PUSH32 0x4E487B7100000000000000000000000000000000000000000000000000000000 PUSH1 0x0 MSTORE PUSH1 0x11 PUSH1 0x4 MSTORE PUSH1 0x24 PUSH1 0x0 REVERT JUMPDEST PUSH2 0xFFFF DUP2 DUP2 AND DUP4 DUP3 AND ADD SWAP1 DUP2 GT ISZERO PUSH2 0xEFB JUMPI PUSH2 0xEFB PUSH2 0x2232 JUMP JUMPDEST PUSH1 0x0 PUSH2 0xFFFF DUP3 AND PUSH2 0xFFFF DUP2 SUB PUSH2 0x2293 JUMPI PUSH2 0x2293 PUSH2 0x2232 JUMP JUMPDEST PUSH1 0x1 ADD SWAP3 SWAP2 POP POP JUMP JUMPDEST DUP1 CALLDATALOAD PUSH2 0xFFFF DUP2 AND DUP2 EQ PUSH2 0x1FE2 JUMPI PUSH1 0x0 DUP1 REVERT JUMPDEST PUSH1 0x0 PUSH1 0x20 DUP3 DUP5 SUB SLT ISZERO PUSH2 0x22C0 JUMPI PUSH1 0x0 DUP1 REVERT JUMPDEST PUSH2 0x21FC DUP3 PUSH2 0x229C JUMP JUMPDEST DUP1 DUP3 MUL DUP2 ISZERO DUP3 DUP3 DIV DUP5 EQ OR PUSH2 0xEFB JUMPI PUSH2 0xEFB PUSH2 0x2232 JUMP JUMPDEST PUSH1 0x0 PUSH1 0x20 DUP3 DUP5 SUB SLT ISZERO PUSH2 0x22F2 JUMPI PUSH1 0x0 DUP1 REVERT JUMPDEST POP MLOAD SWAP2 SWAP1 POP JUMP JUMPDEST DUP2 DUP2 SUB DUP2 DUP2 GT ISZERO PUSH2 0xEFB JUMPI PUSH2 0xEFB PUSH2 0x2232 JUMP JUMPDEST PUSH32 0x4E487B7100000000000000000000000000000000000000000000000000000000 PUSH1 0x0 MSTORE PUSH1 0x12 PUSH1 0x4 MSTORE PUSH1 0x24 PUSH1 0x0 REVERT JUMPDEST PUSH1 0x0 PUSH2 0xFFFF DUP4 AND DUP1 PUSH2 0x234F JUMPI PUSH2 0x234F PUSH2 0x230C JUMP JUMPDEST DUP1 PUSH2 0xFFFF DUP5 AND MOD SWAP2 POP POP SWAP3 SWAP2 POP POP JUMP JUMPDEST PUSH1 0x0 PUSH1 0x20 DUP3 DUP5 SUB SLT ISZERO PUSH2 0x2371 JUMPI PUSH1 0x0 DUP1 REVERT JUMPDEST PUSH2 0x21FC DUP3 PUSH2 0x1FCC JUMP JUMPDEST DUP3 DUP2 MSTORE PUSH1 0x80 DUP2 ADD PUSH1 0x20 DUP3 ADD DUP4 PUSH1 0x0 JUMPDEST PUSH1 0x3 DUP2 LT ISZERO PUSH2 0x23B4 JUMPI PUSH2 0xFFFF PUSH2 0x239E DUP4 PUSH2 0x229C JUMP JUMPDEST AND DUP4 MSTORE PUSH1 0x20 SWAP3 DUP4 ADD SWAP3 SWAP2 SWAP1 SWAP2 ADD SWAP1 PUSH1 0x1 ADD PUSH2 0x2389 JUMP JUMPDEST POP POP POP SWAP4 SWAP3 POP POP POP JUMP JUMPDEST DUP1 DUP3 ADD DUP1 DUP3 GT ISZERO PUSH2 0xEFB JUMPI PUSH2 0xEFB PUSH2 0x2232 JUMP JUMPDEST PUSH1 0x0 PUSH1 0x20 DUP3 DUP5 SUB SLT ISZERO PUSH2 0x23E3 JUMPI PUSH1 0x0 DUP1 REVERT JUMPDEST DUP2 MLOAD DUP1 ISZERO ISZERO DUP2 EQ PUSH2 0x21FC JUMPI PUSH1 0x0 DUP1 REVERT JUMPDEST PUSH1 0x0 PUSH2 0xFFFF DUP4 AND DUP1 PUSH2 0x2407 JUMPI PUSH2 0x2407 PUSH2 0x230C JUMP JUMPDEST DUP1 PUSH2 0xFFFF DUP5 AND DIV SWAP2 POP POP SWAP3 SWAP2 POP POP JUMP INVALID LOG2 PUSH5 0x6970667358 0x22 SLT KECCAK256 0x4F ORIGIN PUSH23 0xFB4D0301B53C785954AF0C631E80750DCC8634DC6C1C54 0xB5 0xFC RETURNDATASIZE PUSH10 0x65D764736F6C63430008 BYTE STOP CALLER "
        },
        "methodIdentifiers": {
          "BOND()": "c1c1d218",
          "DONATION_CLAIM_DEADLINE()": "45fbcafa",
          "HUNT()": "cefa8922",
          "HUNT_PER_MINI_BUILDING()": "fddd6397",
          "MINI_BUILDING_ADDRESS()": "0c933edf",
          "TOP3_CLAIM_DEADLINE()": "94285922",
          "claimByTop3(uint256,uint256,uint8)": "e70d6893",
          "claimDonation(uint256,uint256)": "218ff65a",
          "claimableDonationAmount(uint256,uint256)": "6a13f0cb",
          "currentSeason()": "bcb39621",
          "deposit(uint256)": "b6b55f25",
          "emergencyWithdraw()": "db2e21bc",
          "getClaimableAmountByTop3(uint256,uint256)": "b86c9e5e",
          "getRankingByFid(uint256,uint48)": "813d243c",
          "getRankingByWallet(uint256,address)": "d88f836a",
          "getSeason(uint256)": "a43d8654",
          "isDonationClaimableNow(uint256)": "a51710dd",
          "owner()": "8da5cb5b",
          "renounceOwnership()": "715018a6",
          "setSeasonData(uint256,uint16[3],uint48[],address[])": "73d5f652",
          "transferOwnership(address)": "f2fde38b"
        }
      }
    }
  }
}