{
  "contracts/TipperGrant.sol": {
    "TipperGrant": {
      "abi": [
        {
          "inputs": [
            {
              "internalType": "address",
              "name": "huntAddress",
              "type": "address"
            }
          ],
          "stateMutability": "nonpayable",
          "type": "constructor"
        },
        {
          "inputs": [],
          "name": "AlreadyClaimed",
          "type": "error"
        },
        {
          "inputs": [],
          "name": "InvalidMerkleProof",
          "type": "error"
        },
        {
          "inputs": [],
          "name": "InvalidSeasonId",
          "type": "error"
        },
        {
          "inputs": [],
          "name": "NotEnoughGrantBalance",
          "type": "error"
        },
        {
          "inputs": [],
          "name": "NothingToClaim",
          "type": "error"
        },
        {
          "inputs": [
            {
              "internalType": "address",
              "name": "owner",
              "type": "address"
            }
          ],
          "name": "OwnableInvalidOwner",
          "type": "error"
        },
        {
          "inputs": [
            {
              "internalType": "address",
              "name": "account",
              "type": "address"
            }
          ],
          "name": "OwnableUnauthorizedAccount",
          "type": "error"
        },
        {
          "inputs": [],
          "name": "SeasonDataAlreadyExists",
          "type": "error"
        },
        {
          "inputs": [],
          "name": "TokenTransferFailed",
          "type": "error"
        },
        {
          "anonymous": false,
          "inputs": [
            {
              "indexed": true,
              "internalType": "address",
              "name": "user",
              "type": "address"
            },
            {
              "indexed": true,
              "internalType": "uint256",
              "name": "season",
              "type": "uint256"
            },
            {
              "indexed": false,
              "internalType": "uint256",
              "name": "huntAmount",
              "type": "uint256"
            }
          ],
          "name": "Claim",
          "type": "event"
        },
        {
          "anonymous": false,
          "inputs": [
            {
              "indexed": true,
              "internalType": "address",
              "name": "user",
              "type": "address"
            },
            {
              "indexed": false,
              "internalType": "uint256",
              "name": "huntAmount",
              "type": "uint256"
            }
          ],
          "name": "Deposit",
          "type": "event"
        },
        {
          "anonymous": false,
          "inputs": [
            {
              "indexed": true,
              "internalType": "address",
              "name": "user",
              "type": "address"
            },
            {
              "indexed": false,
              "internalType": "uint256",
              "name": "huntAmount",
              "type": "uint256"
            }
          ],
          "name": "EmergencyWithdraw",
          "type": "event"
        },
        {
          "anonymous": false,
          "inputs": [
            {
              "indexed": true,
              "internalType": "address",
              "name": "previousOwner",
              "type": "address"
            },
            {
              "indexed": true,
              "internalType": "address",
              "name": "newOwner",
              "type": "address"
            }
          ],
          "name": "OwnershipTransferred",
          "type": "event"
        },
        {
          "anonymous": false,
          "inputs": [
            {
              "indexed": true,
              "internalType": "uint256",
              "name": "season",
              "type": "uint256"
            },
            {
              "indexed": false,
              "internalType": "uint24",
              "name": "walletCount",
              "type": "uint24"
            },
            {
              "indexed": false,
              "internalType": "bytes32",
              "name": "merkleRoot",
              "type": "bytes32"
            }
          ],
          "name": "SetGrantData",
          "type": "event"
        },
        {
          "inputs": [],
          "name": "HUNT",
          "outputs": [
            {
              "internalType": "contract IERC20",
              "name": "",
              "type": "address"
            }
          ],
          "stateMutability": "view",
          "type": "function"
        },
        {
          "inputs": [
            {
              "internalType": "uint256",
              "name": "seasonId",
              "type": "uint256"
            },
            {
              "internalType": "uint256",
              "name": "maxAmount",
              "type": "uint256"
            },
            {
              "internalType": "bytes32[]",
              "name": "merkleProof",
              "type": "bytes32[]"
            }
          ],
          "name": "claim",
          "outputs": [],
          "stateMutability": "nonpayable",
          "type": "function"
        },
        {
          "inputs": [],
          "name": "currentSeason",
          "outputs": [
            {
              "internalType": "uint256",
              "name": "",
              "type": "uint256"
            }
          ],
          "stateMutability": "view",
          "type": "function"
        },
        {
          "inputs": [
            {
              "internalType": "uint256",
              "name": "huntAmount",
              "type": "uint256"
            }
          ],
          "name": "deposit",
          "outputs": [],
          "stateMutability": "nonpayable",
          "type": "function"
        },
        {
          "inputs": [],
          "name": "emergencyWithdraw",
          "outputs": [],
          "stateMutability": "nonpayable",
          "type": "function"
        },
        {
          "inputs": [
            {
              "internalType": "uint256",
              "name": "seasonId",
              "type": "uint256"
            },
            {
              "internalType": "address",
              "name": "wallet",
              "type": "address"
            }
          ],
          "name": "getClaimedAmount",
          "outputs": [
            {
              "internalType": "uint112",
              "name": "",
              "type": "uint112"
            }
          ],
          "stateMutability": "view",
          "type": "function"
        },
        {
          "inputs": [
            {
              "internalType": "uint256",
              "name": "seasonId",
              "type": "uint256"
            }
          ],
          "name": "getSeasonStats",
          "outputs": [
            {
              "internalType": "uint24",
              "name": "walletCount",
              "type": "uint24"
            },
            {
              "internalType": "uint112",
              "name": "totalGrantClaimed",
              "type": "uint112"
            },
            {
              "internalType": "uint112",
              "name": "totalGrant",
              "type": "uint112"
            }
          ],
          "stateMutability": "view",
          "type": "function"
        },
        {
          "inputs": [],
          "name": "lastSeason",
          "outputs": [
            {
              "internalType": "uint256",
              "name": "",
              "type": "uint256"
            }
          ],
          "stateMutability": "view",
          "type": "function"
        },
        {
          "inputs": [],
          "name": "merkleRoot",
          "outputs": [
            {
              "internalType": "bytes32",
              "name": "",
              "type": "bytes32"
            }
          ],
          "stateMutability": "view",
          "type": "function"
        },
        {
          "inputs": [],
          "name": "owner",
          "outputs": [
            {
              "internalType": "address",
              "name": "",
              "type": "address"
            }
          ],
          "stateMutability": "view",
          "type": "function"
        },
        {
          "inputs": [],
          "name": "renounceOwnership",
          "outputs": [],
          "stateMutability": "nonpayable",
          "type": "function"
        },
        {
          "inputs": [
            {
              "internalType": "uint256",
              "name": "seasonId",
              "type": "uint256"
            },
            {
              "internalType": "uint24",
              "name": "walletCount",
              "type": "uint24"
            },
            {
              "internalType": "uint112",
              "name": "totalGrant",
              "type": "uint112"
            },
            {
              "internalType": "bytes32",
              "name": "_merkleRoot",
              "type": "bytes32"
            }
          ],
          "name": "setGrantData",
          "outputs": [],
          "stateMutability": "nonpayable",
          "type": "function"
        },
        {
          "inputs": [
            {
              "internalType": "address",
              "name": "newOwner",
              "type": "address"
            }
          ],
          "name": "transferOwnership",
          "outputs": [],
          "stateMutability": "nonpayable",
          "type": "function"
        }
      ],
      "evm": {
        "bytecode": {
          "linkReferences": {},
          "object": "60a060405234801561001057600080fd5b5060405161135238038061135283398101604081905261002f916100c0565b338061005557604051631e4fbdf760e01b81526000600482015260240160405180910390fd5b61005e81610070565b506001600160a01b03166080526100f0565b600080546001600160a01b038381166001600160a01b0319831681178455604051919092169283917f8be0079c531659141344cd1fd0a4f28419497f9722a3daafe3b4186f6b6457e09190a35050565b6000602082840312156100d257600080fd5b81516001600160a01b03811681146100e957600080fd5b9392505050565b60805161122461012e600039600081816101ca01528181610420015281816106cf01528181610823015281816109860152610a4001526112246000f3fe608060405234801561001057600080fd5b50600436106100df5760003560e01c8063ae0b51df1161008c578063cefa892211610066578063cefa8922146101c5578063db2e21bc146101ec578063f2fde38b146101f4578063ff3adbe81461020757600080fd5b8063ae0b51df14610197578063b6b55f25146101aa578063bcb39621146101bd57600080fd5b806382418296116100bd578063824182961461013c5780638da5cb5b146101455780639f0349de1461018457600080fd5b80632eb4a7ab146100e45780634867b6db14610100578063715018a614610132575b600080fd5b6100ed60015481565b6040519081526020015b60405180910390f35b61011361010e366004610f33565b61028f565b6040516dffffffffffffffffffffffffffff90911681526020016100f7565b61013a6102d9565b005b6100ed60035481565b60005473ffffffffffffffffffffffffffffffffffffffff165b60405173ffffffffffffffffffffffffffffffffffffffff90911681526020016100f7565b61013a610192366004610f5f565b6102ed565b61013a6101a5366004610fc2565b610530565b61013a6101b8366004611048565b6107cb565b6100ed61091c565b61015f7f000000000000000000000000000000000000000000000000000000000000000081565b61013a610932565b61013a610202366004611061565b610b2d565b61025d610215366004611048565b60009081526002602052604090205462ffffff8116916dffffffffffffffffffffffffffff630100000083048116927101000000000000000000000000000000000090041690565b6040805162ffffff90941684526dffffffffffffffffffffffffffff92831660208501529116908201526060016100f7565b600082815260026020908152604080832073ffffffffffffffffffffffffffffffffffffffff851684526001019091529020546dffffffffffffffffffffffffffff165b92915050565b6102e1610b96565b6102eb6000610be9565b565b6102f5610b96565b6000848152600260205260409020805462ffffff1615610341576040517f73e65fd900000000000000000000000000000000000000000000000000000000815260040160405180910390fd5b600185108061035c57506103566001866110ab565b60035414155b15610393576040517f0a55f88000000000000000000000000000000000000000000000000000000000815260040160405180910390fd5b6003859055805462ffffff85167fff0000000000000000000000000000ffffffffffffffffffffffffffff00000090911617710100000000000000000000000000000000006dffffffffffffffffffffffffffff85160217815560018290556040517f70a082310000000000000000000000000000000000000000000000000000000081523060048201527f000000000000000000000000000000000000000000000000000000000000000073ffffffffffffffffffffffffffffffffffffffff16906370a0823190602401602060405180830381865afa15801561047c573d6000803e3d6000fd5b505050506040513d601f19601f820116820180604052508101906104a091906110be565b836dffffffffffffffffffffffffffff1611156104e9576040517f6a56423500000000000000000000000000000000000000000000000000000000815260040160405180910390fd5b6040805162ffffff861681526020810184905286917f5a5847beff4e6296008408469ffb8abdd4e5ad7781c6514c3a483e2d15c1cbc4910160405180910390a25050505050565b600084815260026020908152604080832033808552600182019093529220546dffffffffffffffffffffffffffff1615610596576040517f646cf55800000000000000000000000000000000000000000000000000000000815260040160405180910390fd5b6105a284848388610c5e565b6105d8576040517fb05e92fa00000000000000000000000000000000000000000000000000000000815260040160405180910390fd5b73ffffffffffffffffffffffffffffffffffffffff81166000908152600183016020526040902080547fffffffffffffffffffffffffffffffffffff0000000000000000000000000000166dffffffffffffffffffffffffffff878116919091179091558254869184916003916106599185916301000000909104166110d7565b82546dffffffffffffffffffffffffffff9182166101009390930a9283029190920219909116179055506040517fa9059cbb00000000000000000000000000000000000000000000000000000000815273ffffffffffffffffffffffffffffffffffffffff8281166004830152602482018790527f0000000000000000000000000000000000000000000000000000000000000000169063a9059cbb906044016020604051808303816000875af1158015610718573d6000803e3d6000fd5b505050506040513d601f19601f8201168201806040525081019061073c91906110fd565b610772576040517f045c4b0200000000000000000000000000000000000000000000000000000000815260040160405180910390fd5b858173ffffffffffffffffffffffffffffffffffffffff167f34fcbac0073d7c3d388e51312faf357774904998eeb8fca628b9e6f65ee1cbf7876040516107bb91815260200190565b60405180910390a3505050505050565b6000336040517f23b872dd00000000000000000000000000000000000000000000000000000000815273ffffffffffffffffffffffffffffffffffffffff8083166004830152306024830152604482018590529192507f0000000000000000000000000000000000000000000000000000000000000000909116906323b872dd906064016020604051808303816000875af115801561086e573d6000803e3d6000fd5b505050506040513d601f19601f8201168201806040525081019061089291906110fd565b6108c8576040517f045c4b0200000000000000000000000000000000000000000000000000000000815260040160405180910390fd5b8073ffffffffffffffffffffffffffffffffffffffff167fe1fffcc4923d04b559f4d29a8bfc6cda04eb5b0d3c460751c2402c5c5cc9109c8360405161091091815260200190565b60405180910390a25050565b6000600354600161092d919061111f565b905090565b61093a610b96565b6000336040517f70a0823100000000000000000000000000000000000000000000000000000000815230600482015290915060009073ffffffffffffffffffffffffffffffffffffffff7f000000000000000000000000000000000000000000000000000000000000000016906370a0823190602401602060405180830381865afa1580156109cd573d6000803e3d6000fd5b505050506040513d601f19601f820116820180604052508101906109f191906110be565b6040517fa9059cbb00000000000000000000000000000000000000000000000000000000815273ffffffffffffffffffffffffffffffffffffffff8481166004830152602482018390529192507f00000000000000000000000000000000000000000000000000000000000000009091169063a9059cbb906044016020604051808303816000875af1158015610a8b573d6000803e3d6000fd5b505050506040513d601f19601f82011682018060405250810190610aaf91906110fd565b610ae5576040517f045c4b0200000000000000000000000000000000000000000000000000000000815260040160405180910390fd5b8173ffffffffffffffffffffffffffffffffffffffff167f5fafa99d0643513820be26656b45130b01e1c03062e1266bf36f88cbd3bd96958260405161091091815260200190565b610b35610b96565b73ffffffffffffffffffffffffffffffffffffffff8116610b8a576040517f1e4fbdf7000000000000000000000000000000000000000000000000000000008152600060048201526024015b60405180910390fd5b610b9381610be9565b50565b60005473ffffffffffffffffffffffffffffffffffffffff1633146102eb576040517f118cdaa7000000000000000000000000000000000000000000000000000000008152336004820152602401610b81565b6000805473ffffffffffffffffffffffffffffffffffffffff8381167fffffffffffffffffffffffff0000000000000000000000000000000000000000831681178455604051919092169283917f8be0079c531659141344cd1fd0a4f28419497f9722a3daafe3b4186f6b6457e09190a35050565b60008083610c6b84610cdf565b604051602001610c7c929190611132565b604051602081830303815290604052805190602001209050610cd5868680806020026020016040519081016040528093929190818152602001838360200280828437600092019190915250506001549150849050610d9d565b9695505050505050565b60606000610cec83610db3565b600101905060008167ffffffffffffffff811115610d0c57610d0c611190565b6040519080825280601f01601f191660200182016040528015610d36576020820181803683370190505b5090508181016020015b7fffffffffffffffffffffffffffffffffffffffffffffffffffffffffffffffff017f3031323334353637383961626364656600000000000000000000000000000000600a86061a8153600a8504945084610d4057509392505050565b600082610daa8584610e95565b14949350505050565b6000807a184f03e93ff9f4daa797ed6e38ed64bf6a1f0100000000000000008310610dfc577a184f03e93ff9f4daa797ed6e38ed64bf6a1f010000000000000000830492506040015b6d04ee2d6d415b85acef81000000008310610e28576d04ee2d6d415b85acef8100000000830492506020015b662386f26fc100008310610e4657662386f26fc10000830492506010015b6305f5e1008310610e5e576305f5e100830492506008015b6127108310610e7257612710830492506004015b60648310610e84576064830492506002015b600a83106102d35760010192915050565b600081815b8451811015610ed057610ec682868381518110610eb957610eb96111bf565b6020026020010151610ed8565b9150600101610e9a565b509392505050565b6000818310610ef4576000828152602084905260409020610f03565b60008381526020839052604090205b9392505050565b803573ffffffffffffffffffffffffffffffffffffffff81168114610f2e57600080fd5b919050565b60008060408385031215610f4657600080fd5b82359150610f5660208401610f0a565b90509250929050565b60008060008060808587031215610f7557600080fd5b84359350602085013562ffffff81168114610f8f57600080fd5b925060408501356dffffffffffffffffffffffffffff81168114610fb257600080fd5b9396929550929360600135925050565b60008060008060608587031215610fd857600080fd5b8435935060208501359250604085013567ffffffffffffffff811115610ffd57600080fd5b8501601f8101871361100e57600080fd5b803567ffffffffffffffff81111561102557600080fd5b8760208260051b840101111561103a57600080fd5b949793965060200194505050565b60006020828403121561105a57600080fd5b5035919050565b60006020828403121561107357600080fd5b610f0382610f0a565b7f4e487b7100000000000000000000000000000000000000000000000000000000600052601160045260246000fd5b818103818111156102d3576102d361107c565b6000602082840312156110d057600080fd5b5051919050565b6dffffffffffffffffffffffffffff81811683821601908111156102d3576102d361107c565b60006020828403121561110f57600080fd5b81518015158114610f0357600080fd5b808201808211156102d3576102d361107c565b7fffffffffffffffffffffffffffffffffffffffff0000000000000000000000008360601b1681526000825160005b8181101561117e5760208186018101516014868401015201611161565b50600092016014019182525092915050565b7f4e487b7100000000000000000000000000000000000000000000000000000000600052604160045260246000fd5b7f4e487b7100000000000000000000000000000000000000000000000000000000600052603260045260246000fdfea2646970667358221220324fdc804b2e15b218786333381e7037be86b13e5b1f5011950a9dfa8d2ea89664736f6c634300081a0033",
          "opcodes": "PUSH1 0xA0 PUSH1 0x40 MSTORE CALLVALUE DUP1 ISZERO PUSH2 0x10 JUMPI PUSH1 0x0 DUP1 REVERT JUMPDEST POP PUSH1 0x40 MLOAD PUSH2 0x1352 CODESIZE SUB DUP1 PUSH2 0x1352 DUP4 CODECOPY DUP2 ADD PUSH1 0x40 DUP2 SWAP1 MSTORE PUSH2 0x2F SWAP2 PUSH2 0xC0 JUMP JUMPDEST CALLER DUP1 PUSH2 0x55 JUMPI PUSH1 0x40 MLOAD PUSH4 0x1E4FBDF7 PUSH1 0xE0 SHL DUP2 MSTORE PUSH1 0x0 PUSH1 0x4 DUP3 ADD MSTORE PUSH1 0x24 ADD PUSH1 0x40 MLOAD DUP1 SWAP2 SUB SWAP1 REVERT JUMPDEST PUSH2 0x5E DUP2 PUSH2 0x70 JUMP JUMPDEST POP PUSH1 0x1 PUSH1 0x1 PUSH1 0xA0 SHL SUB AND PUSH1 0x80 MSTORE PUSH2 0xF0 JUMP JUMPDEST PUSH1 0x0 DUP1 SLOAD PUSH1 0x1 PUSH1 0x1 PUSH1 0xA0 SHL SUB DUP4 DUP2 AND PUSH1 0x1 PUSH1 0x1 PUSH1 0xA0 SHL SUB NOT DUP4 AND DUP2 OR DUP5 SSTORE PUSH1 0x40 MLOAD SWAP2 SWAP1 SWAP3 AND SWAP3 DUP4 SWAP2 PUSH32 0x8BE0079C531659141344CD1FD0A4F28419497F9722A3DAAFE3B4186F6B6457E0 SWAP2 SWAP1 LOG3 POP POP JUMP JUMPDEST PUSH1 0x0 PUSH1 0x20 DUP3 DUP5 SUB SLT ISZERO PUSH2 0xD2 JUMPI PUSH1 0x0 DUP1 REVERT JUMPDEST DUP2 MLOAD PUSH1 0x1 PUSH1 0x1 PUSH1 0xA0 SHL SUB DUP2 AND DUP2 EQ PUSH2 0xE9 JUMPI PUSH1 0x0 DUP1 REVERT JUMPDEST SWAP4 SWAP3 POP POP POP JUMP JUMPDEST PUSH1 0x80 MLOAD PUSH2 0x1224 PUSH2 0x12E PUSH1 0x0 CODECOPY PUSH1 0x0 DUP2 DUP2 PUSH2 0x1CA ADD MSTORE DUP2 DUP2 PUSH2 0x420 ADD MSTORE DUP2 DUP2 PUSH2 0x6CF ADD MSTORE DUP2 DUP2 PUSH2 0x823 ADD MSTORE DUP2 DUP2 PUSH2 0x986 ADD MSTORE PUSH2 0xA40 ADD MSTORE PUSH2 0x1224 PUSH1 0x0 RETURN INVALID PUSH1 0x80 PUSH1 0x40 MSTORE CALLVALUE DUP1 ISZERO PUSH2 0x10 JUMPI PUSH1 0x0 DUP1 REVERT JUMPDEST POP PUSH1 0x4 CALLDATASIZE LT PUSH2 0xDF JUMPI PUSH1 0x0 CALLDATALOAD PUSH1 0xE0 SHR DUP1 PUSH4 0xAE0B51DF GT PUSH2 0x8C JUMPI DUP1 PUSH4 0xCEFA8922 GT PUSH2 0x66 JUMPI DUP1 PUSH4 0xCEFA8922 EQ PUSH2 0x1C5 JUMPI DUP1 PUSH4 0xDB2E21BC EQ PUSH2 0x1EC JUMPI DUP1 PUSH4 0xF2FDE38B EQ PUSH2 0x1F4 JUMPI DUP1 PUSH4 0xFF3ADBE8 EQ PUSH2 0x207 JUMPI PUSH1 0x0 DUP1 REVERT JUMPDEST DUP1 PUSH4 0xAE0B51DF EQ PUSH2 0x197 JUMPI DUP1 PUSH4 0xB6B55F25 EQ PUSH2 0x1AA JUMPI DUP1 PUSH4 0xBCB39621 EQ PUSH2 0x1BD JUMPI PUSH1 0x0 DUP1 REVERT JUMPDEST DUP1 PUSH4 0x82418296 GT PUSH2 0xBD JUMPI DUP1 PUSH4 0x82418296 EQ PUSH2 0x13C JUMPI DUP1 PUSH4 0x8DA5CB5B EQ PUSH2 0x145 JUMPI DUP1 PUSH4 0x9F0349DE EQ PUSH2 0x184 JUMPI PUSH1 0x0 DUP1 REVERT JUMPDEST DUP1 PUSH4 0x2EB4A7AB EQ PUSH2 0xE4 JUMPI DUP1 PUSH4 0x4867B6DB EQ PUSH2 0x100 JUMPI DUP1 PUSH4 0x715018A6 EQ PUSH2 0x132 JUMPI JUMPDEST PUSH1 0x0 DUP1 REVERT JUMPDEST PUSH2 0xED PUSH1 0x1 SLOAD DUP2 JUMP JUMPDEST PUSH1 0x40 MLOAD SWAP1 DUP2 MSTORE PUSH1 0x20 ADD JUMPDEST PUSH1 0x40 MLOAD DUP1 SWAP2 SUB SWAP1 RETURN JUMPDEST PUSH2 0x113 PUSH2 0x10E CALLDATASIZE PUSH1 0x4 PUSH2 0xF33 JUMP JUMPDEST PUSH2 0x28F JUMP JUMPDEST PUSH1 0x40 MLOAD PUSH14 0xFFFFFFFFFFFFFFFFFFFFFFFFFFFF SWAP1 SWAP2 AND DUP2 MSTORE PUSH1 0x20 ADD PUSH2 0xF7 JUMP JUMPDEST PUSH2 0x13A PUSH2 0x2D9 JUMP JUMPDEST STOP JUMPDEST PUSH2 0xED PUSH1 0x3 SLOAD DUP2 JUMP JUMPDEST PUSH1 0x0 SLOAD PUSH20 0xFFFFFFFFFFFFFFFFFFFFFFFFFFFFFFFFFFFFFFFF AND JUMPDEST PUSH1 0x40 MLOAD PUSH20 0xFFFFFFFFFFFFFFFFFFFFFFFFFFFFFFFFFFFFFFFF SWAP1 SWAP2 AND DUP2 MSTORE PUSH1 0x20 ADD PUSH2 0xF7 JUMP JUMPDEST PUSH2 0x13A PUSH2 0x192 CALLDATASIZE PUSH1 0x4 PUSH2 0xF5F JUMP JUMPDEST PUSH2 0x2ED JUMP JUMPDEST PUSH2 0x13A PUSH2 0x1A5 CALLDATASIZE PUSH1 0x4 PUSH2 0xFC2 JUMP JUMPDEST PUSH2 0x530 JUMP JUMPDEST PUSH2 0x13A PUSH2 0x1B8 CALLDATASIZE PUSH1 0x4 PUSH2 0x1048 JUMP JUMPDEST PUSH2 0x7CB JUMP JUMPDEST PUSH2 0xED PUSH2 0x91C JUMP JUMPDEST PUSH2 0x15F PUSH32 0x0 DUP2 JUMP JUMPDEST PUSH2 0x13A PUSH2 0x932 JUMP JUMPDEST PUSH2 0x13A PUSH2 0x202 CALLDATASIZE PUSH1 0x4 PUSH2 0x1061 JUMP JUMPDEST PUSH2 0xB2D JUMP JUMPDEST PUSH2 0x25D PUSH2 0x215 CALLDATASIZE PUSH1 0x4 PUSH2 0x1048 JUMP JUMPDEST PUSH1 0x0 SWAP1 DUP2 MSTORE PUSH1 0x2 PUSH1 0x20 MSTORE PUSH1 0x40 SWAP1 KECCAK256 SLOAD PUSH3 0xFFFFFF DUP2 AND SWAP2 PUSH14 0xFFFFFFFFFFFFFFFFFFFFFFFFFFFF PUSH4 0x1000000 DUP4 DIV DUP2 AND SWAP3 PUSH18 0x10000000000000000000000000000000000 SWAP1 DIV AND SWAP1 JUMP JUMPDEST PUSH1 0x40 DUP1 MLOAD PUSH3 0xFFFFFF SWAP1 SWAP5 AND DUP5 MSTORE PUSH14 0xFFFFFFFFFFFFFFFFFFFFFFFFFFFF SWAP3 DUP4 AND PUSH1 0x20 DUP6 ADD MSTORE SWAP2 AND SWAP1 DUP3 ADD MSTORE PUSH1 0x60 ADD PUSH2 0xF7 JUMP JUMPDEST PUSH1 0x0 DUP3 DUP2 MSTORE PUSH1 0x2 PUSH1 0x20 SWAP1 DUP2 MSTORE PUSH1 0x40 DUP1 DUP4 KECCAK256 PUSH20 0xFFFFFFFFFFFFFFFFFFFFFFFFFFFFFFFFFFFFFFFF DUP6 AND DUP5 MSTORE PUSH1 0x1 ADD SWAP1 SWAP2 MSTORE SWAP1 KECCAK256 SLOAD PUSH14 0xFFFFFFFFFFFFFFFFFFFFFFFFFFFF AND JUMPDEST SWAP3 SWAP2 POP POP JUMP JUMPDEST PUSH2 0x2E1 PUSH2 0xB96 JUMP JUMPDEST PUSH2 0x2EB PUSH1 0x0 PUSH2 0xBE9 JUMP JUMPDEST JUMP JUMPDEST PUSH2 0x2F5 PUSH2 0xB96 JUMP JUMPDEST PUSH1 0x0 DUP5 DUP2 MSTORE PUSH1 0x2 PUSH1 0x20 MSTORE PUSH1 0x40 SWAP1 KECCAK256 DUP1 SLOAD PUSH3 0xFFFFFF AND ISZERO PUSH2 0x341 JUMPI PUSH1 0x40 MLOAD PUSH32 0x73E65FD900000000000000000000000000000000000000000000000000000000 DUP2 MSTORE PUSH1 0x4 ADD PUSH1 0x40 MLOAD DUP1 SWAP2 SUB SWAP1 REVERT JUMPDEST PUSH1 0x1 DUP6 LT DUP1 PUSH2 0x35C JUMPI POP PUSH2 0x356 PUSH1 0x1 DUP7 PUSH2 0x10AB JUMP JUMPDEST PUSH1 0x3 SLOAD EQ ISZERO JUMPDEST ISZERO PUSH2 0x393 JUMPI PUSH1 0x40 MLOAD PUSH32 0xA55F88000000000000000000000000000000000000000000000000000000000 DUP2 MSTORE PUSH1 0x4 ADD PUSH1 0x40 MLOAD DUP1 SWAP2 SUB SWAP1 REVERT JUMPDEST PUSH1 0x3 DUP6 SWAP1 SSTORE DUP1 SLOAD PUSH3 0xFFFFFF DUP6 AND PUSH32 0xFF0000000000000000000000000000FFFFFFFFFFFFFFFFFFFFFFFFFFFF000000 SWAP1 SWAP2 AND OR PUSH18 0x10000000000000000000000000000000000 PUSH14 0xFFFFFFFFFFFFFFFFFFFFFFFFFFFF DUP6 AND MUL OR DUP2 SSTORE PUSH1 0x1 DUP3 SWAP1 SSTORE PUSH1 0x40 MLOAD PUSH32 0x70A0823100000000000000000000000000000000000000000000000000000000 DUP2 MSTORE ADDRESS PUSH1 0x4 DUP3 ADD MSTORE PUSH32 0x0 PUSH20 0xFFFFFFFFFFFFFFFFFFFFFFFFFFFFFFFFFFFFFFFF AND SWAP1 PUSH4 0x70A08231 SWAP1 PUSH1 0x24 ADD PUSH1 0x20 PUSH1 0x40 MLOAD DUP1 DUP4 SUB DUP2 DUP7 GAS STATICCALL ISZERO DUP1 ISZERO PUSH2 0x47C JUMPI RETURNDATASIZE PUSH1 0x0 DUP1 RETURNDATACOPY RETURNDATASIZE PUSH1 0x0 REVERT JUMPDEST POP POP POP POP PUSH1 0x40 MLOAD RETURNDATASIZE PUSH1 0x1F NOT PUSH1 0x1F DUP3 ADD AND DUP3 ADD DUP1 PUSH1 0x40 MSTORE POP DUP2 ADD SWAP1 PUSH2 0x4A0 SWAP2 SWAP1 PUSH2 0x10BE JUMP JUMPDEST DUP4 PUSH14 0xFFFFFFFFFFFFFFFFFFFFFFFFFFFF AND GT ISZERO PUSH2 0x4E9 JUMPI PUSH1 0x40 MLOAD PUSH32 0x6A56423500000000000000000000000000000000000000000000000000000000 DUP2 MSTORE PUSH1 0x4 ADD PUSH1 0x40 MLOAD DUP1 SWAP2 SUB SWAP1 REVERT JUMPDEST PUSH1 0x40 DUP1 MLOAD PUSH3 0xFFFFFF DUP7 AND DUP2 MSTORE PUSH1 0x20 DUP2 ADD DUP5 SWAP1 MSTORE DUP7 SWAP2 PUSH32 0x5A5847BEFF4E6296008408469FFB8ABDD4E5AD7781C6514C3A483E2D15C1CBC4 SWAP2 ADD PUSH1 0x40 MLOAD DUP1 SWAP2 SUB SWAP1 LOG2 POP POP POP POP POP JUMP JUMPDEST PUSH1 0x0 DUP5 DUP2 MSTORE PUSH1 0x2 PUSH1 0x20 SWAP1 DUP2 MSTORE PUSH1 0x40 DUP1 DUP4 KECCAK256 CALLER DUP1 DUP6 MSTORE PUSH1 0x1 DUP3 ADD SWAP1 SWAP4 MSTORE SWAP3 KECCAK256 SLOAD PUSH14 0xFFFFFFFFFFFFFFFFFFFFFFFFFFFF AND ISZERO PUSH2 0x596 JUMPI PUSH1 0x40 MLOAD PUSH32 0x646CF55800000000000000000000000000000000000000000000000000000000 DUP2 MSTORE PUSH1 0x4 ADD PUSH1 0x40 MLOAD DUP1 SWAP2 SUB SWAP1 REVERT JUMPDEST PUSH2 0x5A2 DUP5 DUP5 DUP4 DUP9 PUSH2 0xC5E JUMP JUMPDEST PUSH2 0x5D8 JUMPI PUSH1 0x40 MLOAD PUSH32 0xB05E92FA00000000000000000000000000000000000000000000000000000000 DUP2 MSTORE PUSH1 0x4 ADD PUSH1 0x40 MLOAD DUP1 SWAP2 SUB SWAP1 REVERT JUMPDEST PUSH20 0xFFFFFFFFFFFFFFFFFFFFFFFFFFFFFFFFFFFFFFFF DUP2 AND PUSH1 0x0 SWAP1 DUP2 MSTORE PUSH1 0x1 DUP4 ADD PUSH1 0x20 MSTORE PUSH1 0x40 SWAP1 KECCAK256 DUP1 SLOAD PUSH32 0xFFFFFFFFFFFFFFFFFFFFFFFFFFFFFFFFFFFF0000000000000000000000000000 AND PUSH14 0xFFFFFFFFFFFFFFFFFFFFFFFFFFFF DUP8 DUP2 AND SWAP2 SWAP1 SWAP2 OR SWAP1 SWAP2 SSTORE DUP3 SLOAD DUP7 SWAP2 DUP5 SWAP2 PUSH1 0x3 SWAP2 PUSH2 0x659 SWAP2 DUP6 SWAP2 PUSH4 0x1000000 SWAP1 SWAP2 DIV AND PUSH2 0x10D7 JUMP JUMPDEST DUP3 SLOAD PUSH14 0xFFFFFFFFFFFFFFFFFFFFFFFFFFFF SWAP2 DUP3 AND PUSH2 0x100 SWAP4 SWAP1 SWAP4 EXP SWAP3 DUP4 MUL SWAP2 SWAP1 SWAP3 MUL NOT SWAP1 SWAP2 AND OR SWAP1 SSTORE POP PUSH1 0x40 MLOAD PUSH32 0xA9059CBB00000000000000000000000000000000000000000000000000000000 DUP2 MSTORE PUSH20 0xFFFFFFFFFFFFFFFFFFFFFFFFFFFFFFFFFFFFFFFF DUP3 DUP2 AND PUSH1 0x4 DUP4 ADD MSTORE PUSH1 0x24 DUP3 ADD DUP8 SWAP1 MSTORE PUSH32 0x0 AND SWAP1 PUSH4 0xA9059CBB SWAP1 PUSH1 0x44 ADD PUSH1 0x20 PUSH1 0x40 MLOAD DUP1 DUP4 SUB DUP2 PUSH1 0x0 DUP8 GAS CALL ISZERO DUP1 ISZERO PUSH2 0x718 JUMPI RETURNDATASIZE PUSH1 0x0 DUP1 RETURNDATACOPY RETURNDATASIZE PUSH1 0x0 REVERT JUMPDEST POP POP POP POP PUSH1 0x40 MLOAD RETURNDATASIZE PUSH1 0x1F NOT PUSH1 0x1F DUP3 ADD AND DUP3 ADD DUP1 PUSH1 0x40 MSTORE POP DUP2 ADD SWAP1 PUSH2 0x73C SWAP2 SWAP1 PUSH2 0x10FD JUMP JUMPDEST PUSH2 0x772 JUMPI PUSH1 0x40 MLOAD PUSH32 0x45C4B0200000000000000000000000000000000000000000000000000000000 DUP2 MSTORE PUSH1 0x4 ADD PUSH1 0x40 MLOAD DUP1 SWAP2 SUB SWAP1 REVERT JUMPDEST DUP6 DUP2 PUSH20 0xFFFFFFFFFFFFFFFFFFFFFFFFFFFFFFFFFFFFFFFF AND PUSH32 0x34FCBAC0073D7C3D388E51312FAF357774904998EEB8FCA628B9E6F65EE1CBF7 DUP8 PUSH1 0x40 MLOAD PUSH2 0x7BB SWAP2 DUP2 MSTORE PUSH1 0x20 ADD SWAP1 JUMP JUMPDEST PUSH1 0x40 MLOAD DUP1 SWAP2 SUB SWAP1 LOG3 POP POP POP POP POP POP JUMP JUMPDEST PUSH1 0x0 CALLER PUSH1 0x40 MLOAD PUSH32 0x23B872DD00000000000000000000000000000000000000000000000000000000 DUP2 MSTORE PUSH20 0xFFFFFFFFFFFFFFFFFFFFFFFFFFFFFFFFFFFFFFFF DUP1 DUP4 AND PUSH1 0x4 DUP4 ADD MSTORE ADDRESS PUSH1 0x24 DUP4 ADD MSTORE PUSH1 0x44 DUP3 ADD DUP6 SWAP1 MSTORE SWAP2 SWAP3 POP PUSH32 0x0 SWAP1 SWAP2 AND SWAP1 PUSH4 0x23B872DD SWAP1 PUSH1 0x64 ADD PUSH1 0x20 PUSH1 0x40 MLOAD DUP1 DUP4 SUB DUP2 PUSH1 0x0 DUP8 GAS CALL ISZERO DUP1 ISZERO PUSH2 0x86E JUMPI RETURNDATASIZE PUSH1 0x0 DUP1 RETURNDATACOPY RETURNDATASIZE PUSH1 0x0 REVERT JUMPDEST POP POP POP POP PUSH1 0x40 MLOAD RETURNDATASIZE PUSH1 0x1F NOT PUSH1 0x1F DUP3 ADD AND DUP3 ADD DUP1 PUSH1 0x40 MSTORE POP DUP2 ADD SWAP1 PUSH2 0x892 SWAP2 SWAP1 PUSH2 0x10FD JUMP JUMPDEST PUSH2 0x8C8 JUMPI PUSH1 0x40 MLOAD PUSH32 0x45C4B0200000000000000000000000000000000000000000000000000000000 DUP2 MSTORE PUSH1 0x4 ADD PUSH1 0x40 MLOAD DUP1 SWAP2 SUB SWAP1 REVERT JUMPDEST DUP1 PUSH20 0xFFFFFFFFFFFFFFFFFFFFFFFFFFFFFFFFFFFFFFFF AND PUSH32 0xE1FFFCC4923D04B559F4D29A8BFC6CDA04EB5B0D3C460751C2402C5C5CC9109C DUP4 PUSH1 0x40 MLOAD PUSH2 0x910 SWAP2 DUP2 MSTORE PUSH1 0x20 ADD SWAP1 JUMP JUMPDEST PUSH1 0x40 MLOAD DUP1 SWAP2 SUB SWAP1 LOG2 POP POP JUMP JUMPDEST PUSH1 0x0 PUSH1 0x3 SLOAD PUSH1 0x1 PUSH2 0x92D SWAP2 SWAP1 PUSH2 0x111F JUMP JUMPDEST SWAP1 POP SWAP1 JUMP JUMPDEST PUSH2 0x93A PUSH2 0xB96 JUMP JUMPDEST PUSH1 0x0 CALLER PUSH1 0x40 MLOAD PUSH32 0x70A0823100000000000000000000000000000000000000000000000000000000 DUP2 MSTORE ADDRESS PUSH1 0x4 DUP3 ADD MSTORE SWAP1 SWAP2 POP PUSH1 0x0 SWAP1 PUSH20 0xFFFFFFFFFFFFFFFFFFFFFFFFFFFFFFFFFFFFFFFF PUSH32 0x0 AND SWAP1 PUSH4 0x70A08231 SWAP1 PUSH1 0x24 ADD PUSH1 0x20 PUSH1 0x40 MLOAD DUP1 DUP4 SUB DUP2 DUP7 GAS STATICCALL ISZERO DUP1 ISZERO PUSH2 0x9CD JUMPI RETURNDATASIZE PUSH1 0x0 DUP1 RETURNDATACOPY RETURNDATASIZE PUSH1 0x0 REVERT JUMPDEST POP POP POP POP PUSH1 0x40 MLOAD RETURNDATASIZE PUSH1 0x1F NOT PUSH1 0x1F DUP3 ADD AND DUP3 ADD DUP1 PUSH1 0x40 MSTORE POP DUP2 ADD SWAP1 PUSH2 0x9F1 SWAP2 SWAP1 PUSH2 0x10BE JUMP JUMPDEST PUSH1 0x40 MLOAD PUSH32 0xA9059CBB00000000000000000000000000000000000000000000000000000000 DUP2 MSTORE PUSH20 0xFFFFFFFFFFFFFFFFFFFFFFFFFFFFFFFFFFFFFFFF DUP5 DUP2 AND PUSH1 0x4 DUP4 ADD MSTORE PUSH1 0x24 DUP3 ADD DUP4 SWAP1 MSTORE SWAP2 SWAP3 POP PUSH32 0x0 SWAP1 SWAP2 AND SWAP1 PUSH4 0xA9059CBB SWAP1 PUSH1 0x44 ADD PUSH1 0x20 PUSH1 0x40 MLOAD DUP1 DUP4 SUB DUP2 PUSH1 0x0 DUP8 GAS CALL ISZERO DUP1 ISZERO PUSH2 0xA8B JUMPI RETURNDATASIZE PUSH1 0x0 DUP1 RETURNDATACOPY RETURNDATASIZE PUSH1 0x0 REVERT JUMPDEST POP POP POP POP PUSH1 0x40 MLOAD RETURNDATASIZE PUSH1 0x1F NOT PUSH1 0x1F DUP3 ADD AND DUP3 ADD DUP1 PUSH1 0x40 MSTORE POP DUP2 ADD SWAP1 PUSH2 0xAAF SWAP2 SWAP1 PUSH2 0x10FD JUMP JUMPDEST PUSH2 0xAE5 JUMPI PUSH1 0x40 MLOAD PUSH32 0x45C4B0200000000000000000000000000000000000000000000000000000000 DUP2 MSTORE PUSH1 0x4 ADD PUSH1 0x40 MLOAD DUP1 SWAP2 SUB SWAP1 REVERT JUMPDEST DUP2 PUSH20 0xFFFFFFFFFFFFFFFFFFFFFFFFFFFFFFFFFFFFFFFF AND PUSH32 0x5FAFA99D0643513820BE26656B45130B01E1C03062E1266BF36F88CBD3BD9695 DUP3 PUSH1 0x40 MLOAD PUSH2 0x910 SWAP2 DUP2 MSTORE PUSH1 0x20 ADD SWAP1 JUMP JUMPDEST PUSH2 0xB35 PUSH2 0xB96 JUMP JUMPDEST PUSH20 0xFFFFFFFFFFFFFFFFFFFFFFFFFFFFFFFFFFFFFFFF DUP2 AND PUSH2 0xB8A JUMPI PUSH1 0x40 MLOAD PUSH32 0x1E4FBDF700000000000000000000000000000000000000000000000000000000 DUP2 MSTORE PUSH1 0x0 PUSH1 0x4 DUP3 ADD MSTORE PUSH1 0x24 ADD JUMPDEST PUSH1 0x40 MLOAD DUP1 SWAP2 SUB SWAP1 REVERT JUMPDEST PUSH2 0xB93 DUP2 PUSH2 0xBE9 JUMP JUMPDEST POP JUMP JUMPDEST PUSH1 0x0 SLOAD PUSH20 0xFFFFFFFFFFFFFFFFFFFFFFFFFFFFFFFFFFFFFFFF AND CALLER EQ PUSH2 0x2EB JUMPI PUSH1 0x40 MLOAD PUSH32 0x118CDAA700000000000000000000000000000000000000000000000000000000 DUP2 MSTORE CALLER PUSH1 0x4 DUP3 ADD MSTORE PUSH1 0x24 ADD PUSH2 0xB81 JUMP JUMPDEST PUSH1 0x0 DUP1 SLOAD PUSH20 0xFFFFFFFFFFFFFFFFFFFFFFFFFFFFFFFFFFFFFFFF DUP4 DUP2 AND PUSH32 0xFFFFFFFFFFFFFFFFFFFFFFFF0000000000000000000000000000000000000000 DUP4 AND DUP2 OR DUP5 SSTORE PUSH1 0x40 MLOAD SWAP2 SWAP1 SWAP3 AND SWAP3 DUP4 SWAP2 PUSH32 0x8BE0079C531659141344CD1FD0A4F28419497F9722A3DAAFE3B4186F6B6457E0 SWAP2 SWAP1 LOG3 POP POP JUMP JUMPDEST PUSH1 0x0 DUP1 DUP4 PUSH2 0xC6B DUP5 PUSH2 0xCDF JUMP JUMPDEST PUSH1 0x40 MLOAD PUSH1 0x20 ADD PUSH2 0xC7C SWAP3 SWAP2 SWAP1 PUSH2 0x1132 JUMP JUMPDEST PUSH1 0x40 MLOAD PUSH1 0x20 DUP2 DUP4 SUB SUB DUP2 MSTORE SWAP1 PUSH1 0x40 MSTORE DUP1 MLOAD SWAP1 PUSH1 0x20 ADD KECCAK256 SWAP1 POP PUSH2 0xCD5 DUP7 DUP7 DUP1 DUP1 PUSH1 0x20 MUL PUSH1 0x20 ADD PUSH1 0x40 MLOAD SWAP1 DUP2 ADD PUSH1 0x40 MSTORE DUP1 SWAP4 SWAP3 SWAP2 SWAP1 DUP2 DUP2 MSTORE PUSH1 0x20 ADD DUP4 DUP4 PUSH1 0x20 MUL DUP1 DUP3 DUP5 CALLDATACOPY PUSH1 0x0 SWAP3 ADD SWAP2 SWAP1 SWAP2 MSTORE POP POP PUSH1 0x1 SLOAD SWAP2 POP DUP5 SWAP1 POP PUSH2 0xD9D JUMP JUMPDEST SWAP7 SWAP6 POP POP POP POP POP POP JUMP JUMPDEST PUSH1 0x60 PUSH1 0x0 PUSH2 0xCEC DUP4 PUSH2 0xDB3 JUMP JUMPDEST PUSH1 0x1 ADD SWAP1 POP PUSH1 0x0 DUP2 PUSH8 0xFFFFFFFFFFFFFFFF DUP2 GT ISZERO PUSH2 0xD0C JUMPI PUSH2 0xD0C PUSH2 0x1190 JUMP JUMPDEST PUSH1 0x40 MLOAD SWAP1 DUP1 DUP3 MSTORE DUP1 PUSH1 0x1F ADD PUSH1 0x1F NOT AND PUSH1 0x20 ADD DUP3 ADD PUSH1 0x40 MSTORE DUP1 ISZERO PUSH2 0xD36 JUMPI PUSH1 0x20 DUP3 ADD DUP2 DUP1 CALLDATASIZE DUP4 CALLDATACOPY ADD SWAP1 POP JUMPDEST POP SWAP1 POP DUP2 DUP2 ADD PUSH1 0x20 ADD JUMPDEST PUSH32 0xFFFFFFFFFFFFFFFFFFFFFFFFFFFFFFFFFFFFFFFFFFFFFFFFFFFFFFFFFFFFFFFF ADD PUSH32 0x3031323334353637383961626364656600000000000000000000000000000000 PUSH1 0xA DUP7 MOD BYTE DUP2 MSTORE8 PUSH1 0xA DUP6 DIV SWAP5 POP DUP5 PUSH2 0xD40 JUMPI POP SWAP4 SWAP3 POP POP POP JUMP JUMPDEST PUSH1 0x0 DUP3 PUSH2 0xDAA DUP6 DUP5 PUSH2 0xE95 JUMP JUMPDEST EQ SWAP5 SWAP4 POP POP POP POP JUMP JUMPDEST PUSH1 0x0 DUP1 PUSH27 0x184F03E93FF9F4DAA797ED6E38ED64BF6A1F010000000000000000 DUP4 LT PUSH2 0xDFC JUMPI PUSH27 0x184F03E93FF9F4DAA797ED6E38ED64BF6A1F010000000000000000 DUP4 DIV SWAP3 POP PUSH1 0x40 ADD JUMPDEST PUSH14 0x4EE2D6D415B85ACEF8100000000 DUP4 LT PUSH2 0xE28 JUMPI PUSH14 0x4EE2D6D415B85ACEF8100000000 DUP4 DIV SWAP3 POP PUSH1 0x20 ADD JUMPDEST PUSH7 0x2386F26FC10000 DUP4 LT PUSH2 0xE46 JUMPI PUSH7 0x2386F26FC10000 DUP4 DIV SWAP3 POP PUSH1 0x10 ADD JUMPDEST PUSH4 0x5F5E100 DUP4 LT PUSH2 0xE5E JUMPI PUSH4 0x5F5E100 DUP4 DIV SWAP3 POP PUSH1 0x8 ADD JUMPDEST PUSH2 0x2710 DUP4 LT PUSH2 0xE72 JUMPI PUSH2 0x2710 DUP4 DIV SWAP3 POP PUSH1 0x4 ADD JUMPDEST PUSH1 0x64 DUP4 LT PUSH2 0xE84 JUMPI PUSH1 0x64 DUP4 DIV SWAP3 POP PUSH1 0x2 ADD JUMPDEST PUSH1 0xA DUP4 LT PUSH2 0x2D3 JUMPI PUSH1 0x1 ADD SWAP3 SWAP2 POP POP JUMP JUMPDEST PUSH1 0x0 DUP2 DUP2 JUMPDEST DUP5 MLOAD DUP2 LT ISZERO PUSH2 0xED0 JUMPI PUSH2 0xEC6 DUP3 DUP7 DUP4 DUP2 MLOAD DUP2 LT PUSH2 0xEB9 JUMPI PUSH2 0xEB9 PUSH2 0x11BF JUMP JUMPDEST PUSH1 0x20 MUL PUSH1 0x20 ADD ADD MLOAD PUSH2 0xED8 JUMP JUMPDEST SWAP2 POP PUSH1 0x1 ADD PUSH2 0xE9A JUMP JUMPDEST POP SWAP4 SWAP3 POP POP POP JUMP JUMPDEST PUSH1 0x0 DUP2 DUP4 LT PUSH2 0xEF4 JUMPI PUSH1 0x0 DUP3 DUP2 MSTORE PUSH1 0x20 DUP5 SWAP1 MSTORE PUSH1 0x40 SWAP1 KECCAK256 PUSH2 0xF03 JUMP JUMPDEST PUSH1 0x0 DUP4 DUP2 MSTORE PUSH1 0x20 DUP4 SWAP1 MSTORE PUSH1 0x40 SWAP1 KECCAK256 JUMPDEST SWAP4 SWAP3 POP POP POP JUMP JUMPDEST DUP1 CALLDATALOAD PUSH20 0xFFFFFFFFFFFFFFFFFFFFFFFFFFFFFFFFFFFFFFFF DUP2 AND DUP2 EQ PUSH2 0xF2E JUMPI PUSH1 0x0 DUP1 REVERT JUMPDEST SWAP2 SWAP1 POP JUMP JUMPDEST PUSH1 0x0 DUP1 PUSH1 0x40 DUP4 DUP6 SUB SLT ISZERO PUSH2 0xF46 JUMPI PUSH1 0x0 DUP1 REVERT JUMPDEST DUP3 CALLDATALOAD SWAP2 POP PUSH2 0xF56 PUSH1 0x20 DUP5 ADD PUSH2 0xF0A JUMP JUMPDEST SWAP1 POP SWAP3 POP SWAP3 SWAP1 POP JUMP JUMPDEST PUSH1 0x0 DUP1 PUSH1 0x0 DUP1 PUSH1 0x80 DUP6 DUP8 SUB SLT ISZERO PUSH2 0xF75 JUMPI PUSH1 0x0 DUP1 REVERT JUMPDEST DUP5 CALLDATALOAD SWAP4 POP PUSH1 0x20 DUP6 ADD CALLDATALOAD PUSH3 0xFFFFFF DUP2 AND DUP2 EQ PUSH2 0xF8F JUMPI PUSH1 0x0 DUP1 REVERT JUMPDEST SWAP3 POP PUSH1 0x40 DUP6 ADD CALLDATALOAD PUSH14 0xFFFFFFFFFFFFFFFFFFFFFFFFFFFF DUP2 AND DUP2 EQ PUSH2 0xFB2 JUMPI PUSH1 0x0 DUP1 REVERT JUMPDEST SWAP4 SWAP7 SWAP3 SWAP6 POP SWAP3 SWAP4 PUSH1 0x60 ADD CALLDATALOAD SWAP3 POP POP JUMP JUMPDEST PUSH1 0x0 DUP1 PUSH1 0x0 DUP1 PUSH1 0x60 DUP6 DUP8 SUB SLT ISZERO PUSH2 0xFD8 JUMPI PUSH1 0x0 DUP1 REVERT JUMPDEST DUP5 CALLDATALOAD SWAP4 POP PUSH1 0x20 DUP6 ADD CALLDATALOAD SWAP3 POP PUSH1 0x40 DUP6 ADD CALLDATALOAD PUSH8 0xFFFFFFFFFFFFFFFF DUP2 GT ISZERO PUSH2 0xFFD JUMPI PUSH1 0x0 DUP1 REVERT JUMPDEST DUP6 ADD PUSH1 0x1F DUP2 ADD DUP8 SGT PUSH2 0x100E JUMPI PUSH1 0x0 DUP1 REVERT JUMPDEST DUP1 CALLDATALOAD PUSH8 0xFFFFFFFFFFFFFFFF DUP2 GT ISZERO PUSH2 0x1025 JUMPI PUSH1 0x0 DUP1 REVERT JUMPDEST DUP8 PUSH1 0x20 DUP3 PUSH1 0x5 SHL DUP5 ADD ADD GT ISZERO PUSH2 0x103A JUMPI PUSH1 0x0 DUP1 REVERT JUMPDEST SWAP5 SWAP8 SWAP4 SWAP7 POP PUSH1 0x20 ADD SWAP5 POP POP POP JUMP JUMPDEST PUSH1 0x0 PUSH1 0x20 DUP3 DUP5 SUB SLT ISZERO PUSH2 0x105A JUMPI PUSH1 0x0 DUP1 REVERT JUMPDEST POP CALLDATALOAD SWAP2 SWAP1 POP JUMP JUMPDEST PUSH1 0x0 PUSH1 0x20 DUP3 DUP5 SUB SLT ISZERO PUSH2 0x1073 JUMPI PUSH1 0x0 DUP1 REVERT JUMPDEST PUSH2 0xF03 DUP3 PUSH2 0xF0A JUMP JUMPDEST PUSH32 0x4E487B7100000000000000000000000000000000000000000000000000000000 PUSH1 0x0 MSTORE PUSH1 0x11 PUSH1 0x4 MSTORE PUSH1 0x24 PUSH1 0x0 REVERT JUMPDEST DUP2 DUP2 SUB DUP2 DUP2 GT ISZERO PUSH2 0x2D3 JUMPI PUSH2 0x2D3 PUSH2 0x107C JUMP JUMPDEST PUSH1 0x0 PUSH1 0x20 DUP3 DUP5 SUB SLT ISZERO PUSH2 0x10D0 JUMPI PUSH1 0x0 DUP1 REVERT JUMPDEST POP MLOAD SWAP2 SWAP1 POP JUMP JUMPDEST PUSH14 0xFFFFFFFFFFFFFFFFFFFFFFFFFFFF DUP2 DUP2 AND DUP4 DUP3 AND ADD SWAP1 DUP2 GT ISZERO PUSH2 0x2D3 JUMPI PUSH2 0x2D3 PUSH2 0x107C JUMP JUMPDEST PUSH1 0x0 PUSH1 0x20 DUP3 DUP5 SUB SLT ISZERO PUSH2 0x110F JUMPI PUSH1 0x0 DUP1 REVERT JUMPDEST DUP2 MLOAD DUP1 ISZERO ISZERO DUP2 EQ PUSH2 0xF03 JUMPI PUSH1 0x0 DUP1 REVERT JUMPDEST DUP1 DUP3 ADD DUP1 DUP3 GT ISZERO PUSH2 0x2D3 JUMPI PUSH2 0x2D3 PUSH2 0x107C JUMP JUMPDEST PUSH32 0xFFFFFFFFFFFFFFFFFFFFFFFFFFFFFFFFFFFFFFFF000000000000000000000000 DUP4 PUSH1 0x60 SHL AND DUP2 MSTORE PUSH1 0x0 DUP3 MLOAD PUSH1 0x0 JUMPDEST DUP2 DUP2 LT ISZERO PUSH2 0x117E JUMPI PUSH1 0x20 DUP2 DUP7 ADD DUP2 ADD MLOAD PUSH1 0x14 DUP7 DUP5 ADD ADD MSTORE ADD PUSH2 0x1161 JUMP JUMPDEST POP PUSH1 0x0 SWAP3 ADD PUSH1 0x14 ADD SWAP2 DUP3 MSTORE POP SWAP3 SWAP2 POP POP JUMP JUMPDEST PUSH32 0x4E487B7100000000000000000000000000000000000000000000000000000000 PUSH1 0x0 MSTORE PUSH1 0x41 PUSH1 0x4 MSTORE PUSH1 0x24 PUSH1 0x0 REVERT JUMPDEST PUSH32 0x4E487B7100000000000000000000000000000000000000000000000000000000 PUSH1 0x0 MSTORE PUSH1 0x32 PUSH1 0x4 MSTORE PUSH1 0x24 PUSH1 0x0 REVERT INVALID LOG2 PUSH5 0x6970667358 0x22 SLT KECCAK256 ORIGIN 0x4F 0xDC DUP1 0x4B 0x2E ISZERO 0xB2 XOR PUSH25 0x6333381E7037BE86B13E5B1F5011950A9DFA8D2EA89664736F PUSH13 0x634300081A0033000000000000 "
        },
        "methodIdentifiers": {
          "HUNT()": "cefa8922",
          "claim(uint256,uint256,bytes32[])": "ae0b51df",
          "currentSeason()": "bcb39621",
          "deposit(uint256)": "b6b55f25",
          "emergencyWithdraw()": "db2e21bc",
          "getClaimedAmount(uint256,address)": "4867b6db",
          "getSeasonStats(uint256)": "ff3adbe8",
          "lastSeason()": "82418296",
          "merkleRoot()": "2eb4a7ab",
          "owner()": "8da5cb5b",
          "renounceOwnership()": "715018a6",
          "setGrantData(uint256,uint24,uint112,bytes32)": "9f0349de",
          "transferOwnership(address)": "f2fde38b"
        }
      }
    }
  }
}