{
  "contracts/BuilderGrant.sol": {
    "BuilderGrant": {
      "abi": [
        {
          "inputs": [
            {
              "internalType": "address",
              "name": "bond",
              "type": "address"
            },
            {
              "internalType": "address",
              "name": "hunt",
              "type": "address"
            },
            {
              "internalType": "address",
              "name": "miniBuilding",
              "type": "address"
            }
          ],
          "stateMutability": "nonpayable",
          "type": "constructor"
        },
        {
          "inputs": [],
          "name": "AlreadyClaimed",
          "type": "error"
        },
        {
          "inputs": [],
          "name": "ClaimDeadlineReached",
          "type": "error"
        },
        {
          "inputs": [],
          "name": "DonationAlreadyClaimed",
          "type": "error"
        },
        {
          "inputs": [],
          "name": "DonationClaimDeadlineReached",
          "type": "error"
        },
        {
          "inputs": [],
          "name": "DonationNotClaimableYet",
          "type": "error"
        },
        {
          "inputs": [],
          "name": "InvalidClaimType",
          "type": "error"
        },
        {
          "inputs": [],
          "name": "InvalidGrantAmount",
          "type": "error"
        },
        {
          "inputs": [],
          "name": "InvalidRankersParams",
          "type": "error"
        },
        {
          "inputs": [],
          "name": "InvalidRankingParam",
          "type": "error"
        },
        {
          "inputs": [],
          "name": "InvalidSeasonId",
          "type": "error"
        },
        {
          "inputs": [],
          "name": "MintBuildingsFailed",
          "type": "error"
        },
        {
          "inputs": [],
          "name": "NoDonationToClaim",
          "type": "error"
        },
        {
          "inputs": [],
          "name": "NotARanker",
          "type": "error"
        },
        {
          "inputs": [],
          "name": "NotEnoughGrantBalance",
          "type": "error"
        },
        {
          "inputs": [],
          "name": "NothingToWithdraw",
          "type": "error"
        },
        {
          "inputs": [
            {
              "internalType": "address",
              "name": "owner",
              "type": "address"
            }
          ],
          "name": "OwnableInvalidOwner",
          "type": "error"
        },
        {
          "inputs": [
            {
              "internalType": "address",
              "name": "account",
              "type": "address"
            }
          ],
          "name": "OwnableUnauthorizedAccount",
          "type": "error"
        },
        {
          "inputs": [],
          "name": "PermissionDenied",
          "type": "error"
        },
        {
          "inputs": [],
          "name": "SeasonDataIsNotUpdateable",
          "type": "error"
        },
        {
          "inputs": [],
          "name": "TokenTransferFailed",
          "type": "error"
        },
        {
          "anonymous": false,
          "inputs": [
            {
              "indexed": true,
              "internalType": "address",
              "name": "claimer",
              "type": "address"
            },
            {
              "indexed": true,
              "internalType": "uint256",
              "name": "seasonId",
              "type": "uint256"
            },
            {
              "indexed": false,
              "internalType": "uint256",
              "name": "ranking",
              "type": "uint256"
            },
            {
              "indexed": false,
              "internalType": "uint8",
              "name": "claimType",
              "type": "uint8"
            },
            {
              "indexed": false,
              "internalType": "uint16",
              "name": "countForSelf",
              "type": "uint16"
            },
            {
              "indexed": false,
              "internalType": "uint16",
              "name": "countForDonation",
              "type": "uint16"
            }
          ],
          "name": "ClaimByTop3",
          "type": "event"
        },
        {
          "anonymous": false,
          "inputs": [
            {
              "indexed": true,
              "internalType": "address",
              "name": "claimer",
              "type": "address"
            },
            {
              "indexed": true,
              "internalType": "uint256",
              "name": "seasonId",
              "type": "uint256"
            },
            {
              "indexed": false,
              "internalType": "uint256",
              "name": "ranking",
              "type": "uint256"
            },
            {
              "indexed": false,
              "internalType": "uint256",
              "name": "amount",
              "type": "uint256"
            }
          ],
          "name": "ClaimDonation",
          "type": "event"
        },
        {
          "anonymous": false,
          "inputs": [
            {
              "indexed": true,
              "internalType": "address",
              "name": "depositor",
              "type": "address"
            },
            {
              "indexed": false,
              "internalType": "uint256",
              "name": "huntAmount",
              "type": "uint256"
            }
          ],
          "name": "Deposit",
          "type": "event"
        },
        {
          "anonymous": false,
          "inputs": [
            {
              "indexed": true,
              "internalType": "address",
              "name": "withdrawer",
              "type": "address"
            },
            {
              "indexed": false,
              "internalType": "uint256",
              "name": "huntAmount",
              "type": "uint256"
            }
          ],
          "name": "EmergencyWithdraw",
          "type": "event"
        },
        {
          "anonymous": false,
          "inputs": [
            {
              "indexed": true,
              "internalType": "address",
              "name": "previousOwner",
              "type": "address"
            },
            {
              "indexed": true,
              "internalType": "address",
              "name": "newOwner",
              "type": "address"
            }
          ],
          "name": "OwnershipTransferred",
          "type": "event"
        },
        {
          "anonymous": false,
          "inputs": [
            {
              "indexed": true,
              "internalType": "uint256",
              "name": "seasonId",
              "type": "uint256"
            },
            {
              "indexed": false,
              "internalType": "uint256",
              "name": "rankersCount",
              "type": "uint256"
            },
            {
              "indexed": false,
              "internalType": "uint16[3]",
              "name": "grantsAmount",
              "type": "uint16[3]"
            }
          ],
          "name": "SetSeasonData",
          "type": "event"
        },
        {
          "inputs": [],
          "name": "BOND",
          "outputs": [
            {
              "internalType": "contract IMCV2_Bond",
              "name": "",
              "type": "address"
            }
          ],
          "stateMutability": "view",
          "type": "function"
        },
        {
          "inputs": [],
          "name": "DONATION_CLAIM_DEADLINE",
          "outputs": [
            {
              "internalType": "uint256",
              "name": "",
              "type": "uint256"
            }
          ],
          "stateMutability": "view",
          "type": "function"
        },
        {
          "inputs": [],
          "name": "HUNT",
          "outputs": [
            {
              "internalType": "contract IERC20",
              "name": "",
              "type": "address"
            }
          ],
          "stateMutability": "view",
          "type": "function"
        },
        {
          "inputs": [],
          "name": "HUNT_PER_MINI_BUILDING",
          "outputs": [
            {
              "internalType": "uint256",
              "name": "",
              "type": "uint256"
            }
          ],
          "stateMutability": "view",
          "type": "function"
        },
        {
          "inputs": [],
          "name": "MINI_BUILDING_ADDRESS",
          "outputs": [
            {
              "internalType": "address",
              "name": "",
              "type": "address"
            }
          ],
          "stateMutability": "view",
          "type": "function"
        },
        {
          "inputs": [],
          "name": "TOP3_CLAIM_DEADLINE",
          "outputs": [
            {
              "internalType": "uint256",
              "name": "",
              "type": "uint256"
            }
          ],
          "stateMutability": "view",
          "type": "function"
        },
        {
          "inputs": [
            {
              "internalType": "uint256",
              "name": "seasonId",
              "type": "uint256"
            },
            {
              "internalType": "uint256",
              "name": "ranking",
              "type": "uint256"
            },
            {
              "internalType": "uint8",
              "name": "claimType",
              "type": "uint8"
            }
          ],
          "name": "claimByTop3",
          "outputs": [],
          "stateMutability": "nonpayable",
          "type": "function"
        },
        {
          "inputs": [
            {
              "internalType": "uint256",
              "name": "seasonId",
              "type": "uint256"
            },
            {
              "internalType": "uint256",
              "name": "ranking",
              "type": "uint256"
            }
          ],
          "name": "claimDonation",
          "outputs": [],
          "stateMutability": "nonpayable",
          "type": "function"
        },
        {
          "inputs": [
            {
              "internalType": "uint256",
              "name": "seasonId",
              "type": "uint256"
            },
            {
              "internalType": "uint256",
              "name": "ranking",
              "type": "uint256"
            }
          ],
          "name": "claimableDonationAmount",
          "outputs": [
            {
              "internalType": "uint16",
              "name": "claimableAmount",
              "type": "uint16"
            }
          ],
          "stateMutability": "view",
          "type": "function"
        },
        {
          "inputs": [],
          "name": "currentSeason",
          "outputs": [
            {
              "internalType": "uint256",
              "name": "",
              "type": "uint256"
            }
          ],
          "stateMutability": "view",
          "type": "function"
        },
        {
          "inputs": [
            {
              "internalType": "uint256",
              "name": "huntAmount",
              "type": "uint256"
            }
          ],
          "name": "deposit",
          "outputs": [],
          "stateMutability": "nonpayable",
          "type": "function"
        },
        {
          "inputs": [],
          "name": "emergencyWithdraw",
          "outputs": [],
          "stateMutability": "nonpayable",
          "type": "function"
        },
        {
          "inputs": [
            {
              "internalType": "uint256",
              "name": "seasonId",
              "type": "uint256"
            },
            {
              "internalType": "uint256",
              "name": "ranking",
              "type": "uint256"
            }
          ],
          "name": "getClaimableAmountByTop3",
          "outputs": [
            {
              "internalType": "uint16",
              "name": "",
              "type": "uint16"
            }
          ],
          "stateMutability": "view",
          "type": "function"
        },
        {
          "inputs": [
            {
              "internalType": "uint256",
              "name": "seasonId",
              "type": "uint256"
            },
            {
              "internalType": "uint48",
              "name": "fid",
              "type": "uint48"
            }
          ],
          "name": "getRankingByFid",
          "outputs": [
            {
              "internalType": "uint256",
              "name": "",
              "type": "uint256"
            }
          ],
          "stateMutability": "view",
          "type": "function"
        },
        {
          "inputs": [
            {
              "internalType": "uint256",
              "name": "seasonId",
              "type": "uint256"
            },
            {
              "internalType": "address",
              "name": "wallet",
              "type": "address"
            }
          ],
          "name": "getRankingByWallet",
          "outputs": [
            {
              "internalType": "uint256",
              "name": "",
              "type": "uint256"
            }
          ],
          "stateMutability": "view",
          "type": "function"
        },
        {
          "inputs": [
            {
              "internalType": "uint256",
              "name": "seasonId",
              "type": "uint256"
            }
          ],
          "name": "getSeason",
          "outputs": [
            {
              "components": [
                {
                  "internalType": "uint40",
                  "name": "claimStartedAt",
                  "type": "uint40"
                },
                {
                  "internalType": "uint16",
                  "name": "totalClaimed",
                  "type": "uint16"
                },
                {
                  "components": [
                    {
                      "internalType": "uint8",
                      "name": "claimedType",
                      "type": "uint8"
                    },
                    {
                      "internalType": "uint16",
                      "name": "amount",
                      "type": "uint16"
                    }
                  ],
                  "internalType": "struct BuilderGrant.Grant[3]",
                  "name": "grants",
                  "type": "tuple[3]"
                },
                {
                  "components": [
                    {
                      "internalType": "uint48",
                      "name": "fid",
                      "type": "uint48"
                    },
                    {
                      "internalType": "address",
                      "name": "wallet",
                      "type": "address"
                    },
                    {
                      "internalType": "uint16",
                      "name": "claimedAmount",
                      "type": "uint16"
                    },
                    {
                      "internalType": "bool[3]",
                      "name": "donationReceived",
                      "type": "bool[3]"
                    }
                  ],
                  "internalType": "struct BuilderGrant.Ranker[]",
                  "name": "rankers",
                  "type": "tuple[]"
                }
              ],
              "internalType": "struct BuilderGrant.Season",
              "name": "",
              "type": "tuple"
            }
          ],
          "stateMutability": "view",
          "type": "function"
        },
        {
          "inputs": [
            {
              "internalType": "uint256",
              "name": "seasonId",
              "type": "uint256"
            }
          ],
          "name": "isDonationClaimableNow",
          "outputs": [
            {
              "internalType": "bool",
              "name": "",
              "type": "bool"
            }
          ],
          "stateMutability": "view",
          "type": "function"
        },
        {
          "inputs": [],
          "name": "owner",
          "outputs": [
            {
              "internalType": "address",
              "name": "",
              "type": "address"
            }
          ],
          "stateMutability": "view",
          "type": "function"
        },
        {
          "inputs": [],
          "name": "renounceOwnership",
          "outputs": [],
          "stateMutability": "nonpayable",
          "type": "function"
        },
        {
          "inputs": [
            {
              "internalType": "uint256",
              "name": "seasonId",
              "type": "uint256"
            },
            {
              "internalType": "uint16[3]",
              "name": "grantsAmount",
              "type": "uint16[3]"
            },
            {
              "internalType": "uint48[]",
              "name": "fids",
              "type": "uint48[]"
            },
            {
              "internalType": "address[]",
              "name": "wallets",
              "type": "address[]"
            }
          ],
          "name": "setSeasonData",
          "outputs": [],
          "stateMutability": "nonpayable",
          "type": "function"
        },
        {
          "inputs": [
            {
              "internalType": "address",
              "name": "newOwner",
              "type": "address"
            }
          ],
          "name": "transferOwnership",
          "outputs": [],
          "stateMutability": "nonpayable",
          "type": "function"
        }
      ],
      "evm": {
        "bytecode": {
          "linkReferences": {},
          "object": "60e060405234801561001057600080fd5b5060405161263d38038061263d83398101604081905261002f9161015b565b338061005557604051631e4fbdf760e01b81526000600482015260240160405180910390fd5b61005e816100ef565b506001600160a01b0383811660a0819052838216608081905291831660c05260405163095ea7b360e01b81526004810191909152600019602482015263095ea7b3906044016020604051808303816000875af11580156100c2573d6000803e3d6000fd5b505050506040513d601f19601f820116820180604052508101906100e6919061019e565b505050506101c7565b600080546001600160a01b038381166001600160a01b0319831681178455604051919092169283917f8be0079c531659141344cd1fd0a4f28419497f9722a3daafe3b4186f6b6457e09190a35050565b80516001600160a01b038116811461015657600080fd5b919050565b60008060006060848603121561017057600080fd5b6101798461013f565b92506101876020850161013f565b91506101956040850161013f565b90509250925092565b6000602082840312156101b057600080fd5b815180151581146101c057600080fd5b9392505050565b60805160a05160c05161241d610220600039600081816101810152611b870152600081816102ec0152611b60015260008181610313015281816108760152818161121d01528181611579015261166c015261241d6000f3fe608060405234801561001057600080fd5b50600436106101775760003560e01c8063a51710dd116100d8578063cefa89221161008c578063e70d689311610066578063e70d689314610350578063f2fde38b14610363578063fddd63971461037657600080fd5b8063cefa89221461030e578063d88f836a14610335578063db2e21bc1461034857600080fd5b8063b86c9e5e116100bd578063b86c9e5e146102cc578063bcb39621146102df578063c1c1d218146102e757600080fd5b8063a51710dd14610296578063b6b55f25146102b957600080fd5b806373d5f6521161012f5780638da5cb5b116101145780638da5cb5b1461024e578063942859221461026c578063a43d86541461027657600080fd5b806373d5f65214610228578063813d243c1461023b57600080fd5b806345fbcafa1161016057806345fbcafa146101e25780636a13f0cb146101fa578063715018a61461022057600080fd5b80630c933edf1461017c578063218ff65a146101cd575b600080fd5b6101a37f000000000000000000000000000000000000000000000000000000000000000081565b60405173ffffffffffffffffffffffffffffffffffffffff90911681526020015b60405180910390f35b6101e06101db366004611e9a565b610386565b005b6101ec6224ea0081565b6040519081526020016101c4565b61020d610208366004611e9a565b6105e4565b60405161ffff90911681526020016101c4565b6101e0610790565b6101e0610236366004611f08565b6107a4565b6101ec610249366004611fb7565b610e19565b60005473ffffffffffffffffffffffffffffffffffffffff166101a3565b6101ec62093a8081565b610289610284366004611fe3565b610ed1565b6040516101c491906120a6565b6102a96102a4366004611fe3565b6110a1565b60405190151581526020016101c4565b6101e06102c7366004611fe3565b6111c5565b61020d6102da366004611e9a565b611316565b6001546101ec565b6101a37f000000000000000000000000000000000000000000000000000000000000000081565b6101a37f000000000000000000000000000000000000000000000000000000000000000081565b6101ec61034336600461214f565b611480565b6101e0611525565b6101e061035e366004612172565b611757565b6101e06103713660046121b1565b611ade565b6101ec68056bc75e2d6310000081565b600061039283836105e4565b90508061ffff166000036103d2576040517fa047d25300000000000000000000000000000000000000000000000000000000815260040160405180910390fd5b6000600184815481106103e7576103e76121d3565b9060005260206000209060050201905060006104003390565b90508073ffffffffffffffffffffffffffffffffffffffff1682600401858154811061042e5761042e6121d3565b60009182526020909120600290910201546601000000000000900473ffffffffffffffffffffffffffffffffffffffff1614610496576040517f1e09210400000000000000000000000000000000000000000000000000000000815260040160405180910390fd5b828260040185815481106104ac576104ac6121d3565b600091825260209091206002909102018054601a906104ee9084907a010000000000000000000000000000000000000000000000000000900461ffff16612231565b92506101000a81548161ffff021916908361ffff160217905550828260000160058282829054906101000a900461ffff166105299190612231565b92506101000a81548161ffff021916908361ffff1602179055506105518361ffff1682611b47565b610587576040517f0d3db0d700000000000000000000000000000000000000000000000000000000815260040160405180910390fd5b6040805185815261ffff85166020820152869173ffffffffffffffffffffffffffffffffffffffff8416917fac0a054b174e5f4368c391eb036c0c042b90a176619d5fbf41bd1ef0e3025190910160405180910390a35050505050565b60006105ef836110a1565b610625576040517fa5fe4be300000000000000000000000000000000000000000000000000000000815260040160405180910390fd5b60006001848154811061063a5761063a6121d3565b906000526020600020906005020190508281600401805490501161068a576040517f3f613dd300000000000000000000000000000000000000000000000000000000815260040160405180910390fd5b60008160040184815481106106a1576106a16121d3565b60009182526020909120600290910201547a010000000000000000000000000000000000000000000000000000900461ffff16111561070c576040517f494ac78b00000000000000000000000000000000000000000000000000000000815260040160405180910390fd5b6000816004018481548110610723576107236121d3565b9060005260206000209060020201600101905060005b600381101561078757818160038110610754576107546121d3565b602081049091015460ff601f9092166101000a900416151560010361077f5761077c8461224b565b93505b600101610739565b50505092915050565b610798611c68565b6107a26000611cbb565b565b6107ac611c68565b8215806107b95750828114155b156107f0576040517f9a5b513b00000000000000000000000000000000000000000000000000000000815260040160405180910390fd5b610800606086016040870161227e565b610810604087016020880161227e565b61081d602088018861227e565b6108279190612231565b6108319190612231565b6108489061ffff1668056bc75e2d63100000612299565b6040517f70a082310000000000000000000000000000000000000000000000000000000081523060048201527f000000000000000000000000000000000000000000000000000000000000000073ffffffffffffffffffffffffffffffffffffffff16906370a0823190602401602060405180830381865afa1580156108d2573d6000803e3d6000fd5b505050506040513d601f19601f820116820180604052508101906108f691906122b0565b101561092e576040517f6a56423500000000000000000000000000000000000000000000000000000000815260040160405180910390fd5b6109396003846122c9565b610946602087018761227e565b61ffff161115610982576040517f9482a43700000000000000000000000000000000000000000000000000000000815260040160405180910390fd5b6002610991602087018761227e565b61099b919061230b565b61ffff161515806109ca575060026109b9604087016020880161227e565b6109c3919061230b565b61ffff1615155b806109f3575060026109e2606087016040880161227e565b6109ec919061230b565b61ffff1615155b15610a2a576040517f9482a43700000000000000000000000000000000000000000000000000000000815260040160405180910390fd5b60015460009015801590610a4a575060018054610a4791906122c9565b87145b15610ac05760018781548110610a6257610a626121d3565b60009182526020909120600590910201805490915065010000000000900461ffff1615610abb576040517fbf5be99e00000000000000000000000000000000000000000000000000000000815260040160405180910390fd5b610b2e565b6001548703610afc57600180548101808255600082905288908110610ae757610ae76121d3565b90600052602060002090600502019050610b2e565b6040517f0a55f88000000000000000000000000000000000000000000000000000000000815260040160405180910390fd5b610b3b602087018761227e565b60018201805461ffff92909216610100027fffffffffffffffffffffffffffffffffffffffffffffffffffffffffff0000ff909216919091179055610b86604087016020880161227e565b60028201805461ffff92909216610100027fffffffffffffffffffffffffffffffffffffffffffffffffffffffffff0000ff909216919091179055610bd1606087016040880161227e565b6003820180547fffffffffffffffffffffffffffffffffffffffffffffffffffffffffff0000ff1661010061ffff939093169290920291909117905580547fffffffffffffffffffffffffffffffffffffffffffffffffffffff0000000000164264ffffffffff16178155610c4a600482016000611d30565b60005b84811015610dd357816004016040518060800160405280888885818110610c7657610c766121d3565b9050602002016020810190610c8b919061232f565b65ffffffffffff168152602001868685818110610caa57610caa6121d3565b9050602002016020810190610cbf91906121b1565b73ffffffffffffffffffffffffffffffffffffffff9081168252600060208084018290526040805160608082018352848252818401859052818301859052958201528654600181810189559784529282902086516002909402018054928701519187015161ffff167a010000000000000000000000000000000000000000000000000000027fffffffff0000ffffffffffffffffffffffffffffffffffffffffffffffffffff929095166601000000000000027fffffffffffff000000000000000000000000000000000000000000000000000090931665ffffffffffff9094169390931791909117169190911781559082015191929091610dc5918301906003611d51565b505050806001019050610c4d565b5060405187907fc89697ef728c0dbc131c1838d0b59ca47fc8614f4633a0cebcb990ef5db0110d90610e089087908a9061234a565b60405180910390a250505050505050565b60008060018481548110610e2f57610e2f6121d3565b9060005260206000209060050201600401905060005b8154811015610e98578365ffffffffffff16828281548110610e6957610e696121d3565b600091825260209091206002909102015465ffffffffffff1603610e90579150610ecb9050565b600101610e45565b506040517f3462926b00000000000000000000000000000000000000000000000000000000815260040160405180910390fd5b92915050565b610ed9611de3565b60018281548110610eec57610eec6121d3565b60009182526020808320604080516080810182526005909402909101805464ffffffffff8116855261ffff650100000000009091041692840192909252805160608101825292939192908401916001840190600390835b82821015610f8057604080518082019091528483015460ff81168252610100900461ffff1660208083019190915290825260019092019101610f43565b50505050815260200160048201805480602002602001604051908101604052809291908181526020016000905b8282101561109357600084815260208082206040805160808101825260028702909201805465ffffffffffff811684526601000000000000810473ffffffffffffffffffffffffffffffffffffffff16948401949094527a01000000000000000000000000000000000000000000000000000090930461ffff1682820152805160608082019283905292949285019290916001850191600391908390855b825461010083900a900460ff16151581526020600192830181810494850194909303909202910180841161104b57905050505050508152505081526020019060010190610fad565b505050915250909392505050565b60015460009082106110df576040517f0a55f88000000000000000000000000000000000000000000000000000000000815260040160405180910390fd5b6000600183815481106110f4576110f46121d3565b6000918252602090912060059091020180549091504290611120906224ea009064ffffffffff1661238e565b1015611158576040517fae609b1700000000000000000000000000000000000000000000000000000000815260040160405180910390fd5b805442906111719062093a809064ffffffffff1661238e565b10156111805750600192915050565b600181015460ff161580159061119c5750600281015460ff1615155b80156111ae5750600381015460ff1615155b156111bc5750600192915050565b50600092915050565b6000336040517f23b872dd00000000000000000000000000000000000000000000000000000000815273ffffffffffffffffffffffffffffffffffffffff8083166004830152306024830152604482018590529192507f0000000000000000000000000000000000000000000000000000000000000000909116906323b872dd906064016020604051808303816000875af1158015611268573d6000803e3d6000fd5b505050506040513d601f19601f8201168201806040525081019061128c91906123a1565b6112c2576040517f045c4b0200000000000000000000000000000000000000000000000000000000815260040160405180910390fd5b8073ffffffffffffffffffffffffffffffffffffffff167fe1fffcc4923d04b559f4d29a8bfc6cda04eb5b0d3c460751c2402c5c5cc9109c8360405161130a91815260200190565b60405180910390a25050565b60006002821115611353576040517f3f613dd300000000000000000000000000000000000000000000000000000000815260040160405180910390fd5b600154831061138e576040517f0a55f88000000000000000000000000000000000000000000000000000000000815260040160405180910390fd5b6000600184815481106113a3576113a36121d3565b60009182526020909120600590910201805490915042906113cf9062093a809064ffffffffff1661238e565b1015611407576040517f4da70d2700000000000000000000000000000000000000000000000000000000815260040160405180910390fd5b80600101836003811061141c5761141c6121d3565b015460ff1615611458576040517f646cf55800000000000000000000000000000000000000000000000000000000815260040160405180910390fd5b80600101836003811061146d5761146d6121d3565b0154610100900461ffff16949350505050565b60008060018481548110611496576114966121d3565b9060005260206000209060050201600401905060005b8154811015610e98578373ffffffffffffffffffffffffffffffffffffffff168282815481106114de576114de6121d3565b60009182526020909120600290910201546601000000000000900473ffffffffffffffffffffffffffffffffffffffff160361151d579150610ecb9050565b6001016114ac565b61152d611c68565b6000336040517f70a0823100000000000000000000000000000000000000000000000000000000815230600482015290915060009073ffffffffffffffffffffffffffffffffffffffff7f000000000000000000000000000000000000000000000000000000000000000016906370a0823190602401602060405180830381865afa1580156115c0573d6000803e3d6000fd5b505050506040513d601f19601f820116820180604052508101906115e491906122b0565b905080600003611620576040517fd0d04f6000000000000000000000000000000000000000000000000000000000815260040160405180910390fd5b6040517fa9059cbb00000000000000000000000000000000000000000000000000000000815273ffffffffffffffffffffffffffffffffffffffff8381166004830152602482018390527f0000000000000000000000000000000000000000000000000000000000000000169063a9059cbb906044016020604051808303816000875af11580156116b5573d6000803e3d6000fd5b505050506040513d601f19601f820116820180604052508101906116d991906123a1565b61170f576040517f045c4b0200000000000000000000000000000000000000000000000000000000815260040160405180910390fd5b8173ffffffffffffffffffffffffffffffffffffffff167f5fafa99d0643513820be26656b45130b01e1c03062e1266bf36f88cbd3bd96958260405161130a91815260200190565b60006117638484611316565b905060006001858154811061177a5761177a6121d3565b9060005260206000209060050201905060006117933390565b90508073ffffffffffffffffffffffffffffffffffffffff168260040186815481106117c1576117c16121d3565b60009182526020909120600290910201546601000000000000900473ffffffffffffffffffffffffffffffffffffffff1614611829576040517f1e09210400000000000000000000000000000000000000000000000000000000815260040160405180910390fd5b6000808560ff1660010361183f578491506118a3565b8560ff1660020361185f576118556002866123c3565b90508091506118a3565b8560ff166003036118715750836118a3565b6040517ff2d09ba200000000000000000000000000000000000000000000000000000000815260040160405180910390fd5b858460010188600381106118b9576118b96121d3565b0180547fffffffffffffffffffffffffffffffffffffffffffffffffffffffffffffff001660ff9290921691909117905561ffff8216156119e5578184600401888154811061190a5761190a6121d3565b600091825260209091206002909102018054601a9061194c9084907a010000000000000000000000000000000000000000000000000000900461ffff16612231565b92506101000a81548161ffff021916908361ffff160217905550818460000160058282829054906101000a900461ffff166119879190612231565b92506101000a81548161ffff021916908361ffff1602179055506119af8261ffff1684611b47565b6119e5576040517f0d3db0d700000000000000000000000000000000000000000000000000000000815260040160405180910390fd5b61ffff811615611a6d5760035b6119fd826003612231565b61ffff16811015611a6b576001856004018281548110611a1f57611a1f6121d3565b90600052602060002090600202016001018960038110611a4157611a416121d3565b602091828204019190066101000a81548160ff0219169083151502179055508060010190506119f2565b505b6040805188815260ff8816602082015261ffff84811682840152831660608201529051899173ffffffffffffffffffffffffffffffffffffffff8616917fb12dce413aec88ddf22ba4a273ef71b9ddf7a09a68e269540f52220b12aa78c29181900360800190a35050505050505050565b611ae6611c68565b73ffffffffffffffffffffffffffffffffffffffff8116611b3b576040517f1e4fbdf7000000000000000000000000000000000000000000000000000000008152600060048201526024015b60405180910390fd5b611b4481611cbb565b50565b600073ffffffffffffffffffffffffffffffffffffffff7f00000000000000000000000000000000000000000000000000000000000000001663f74bfe8e7f000000000000000000000000000000000000000000000000000000000000000085611bba8168056bc75e2d63100000612299565b6040517fffffffff0000000000000000000000000000000000000000000000000000000060e086901b16815273ffffffffffffffffffffffffffffffffffffffff93841660048201526024810192909252604482015290851660648201526084016020604051808303816000875af1158015611c3a573d6000803e3d6000fd5b505050506040513d601f19601f82011682018060405250810190611c5e91906122b0565b5060019392505050565b60005473ffffffffffffffffffffffffffffffffffffffff1633146107a2576040517f118cdaa7000000000000000000000000000000000000000000000000000000008152336004820152602401611b32565b6000805473ffffffffffffffffffffffffffffffffffffffff8381167fffffffffffffffffffffffff0000000000000000000000000000000000000000831681178455604051919092169283917f8be0079c531659141344cd1fd0a4f28419497f9722a3daafe3b4186f6b6457e09190a35050565b5080546000825560020290600052602060002090810190611b449190611e0f565b600183019183908215611dd35791602002820160005b83821115611da457835183826101000a81548160ff0219169083151502179055509260200192600101602081600001049283019260010302611d67565b8015611dd15782816101000a81549060ff0219169055600101602081600001049283019260010302611da4565b505b50611ddf929150611e4c565b5090565b6040805160808101825260008082526020820152908101611e02611e61565b8152602001606081525090565b80821115611ddf5780547fffffffff0000000000000000000000000000000000000000000000000000000016815560006001820155600201611e0f565b5b80821115611ddf5760008155600101611e4d565b60405180606001604052806003905b6040805180820190915260008082526020820152815260200190600190039081611e705790505090565b60008060408385031215611ead57600080fd5b50508035926020909101359150565b60008083601f840112611ece57600080fd5b50813567ffffffffffffffff811115611ee657600080fd5b6020830191508360208260051b8501011115611f0157600080fd5b9250929050565b60008060008060008060c08789031215611f2157600080fd5b863595506080870188811115611f3657600080fd5b6020880195503567ffffffffffffffff811115611f5257600080fd5b611f5e89828a01611ebc565b90955093505060a087013567ffffffffffffffff811115611f7e57600080fd5b611f8a89828a01611ebc565b979a9699509497509295939492505050565b803565ffffffffffff81168114611fb257600080fd5b919050565b60008060408385031215611fca57600080fd5b82359150611fda60208401611f9c565b90509250929050565b600060208284031215611ff557600080fd5b5035919050565b600081518084526020840193506020830160005b8281101561209c57815165ffffffffffff815116875273ffffffffffffffffffffffffffffffffffffffff602082015116602088015261ffff6040820151166040880152606081015190506060870160005b60038110156120835782511515825260209283019290910190600101612062565b50505060c0959095019460209190910190600101612010565b5093949350505050565b6020815264ffffffffff825116602082015261ffff6020830151166040820152600060408301516060830160005b6003811015612106578251805160ff16835260209081015161ffff1681840152909201916040909101906001016120d4565b505050606083015161012080840152612123610140840182611ffc565b949350505050565b803573ffffffffffffffffffffffffffffffffffffffff81168114611fb257600080fd5b6000806040838503121561216257600080fd5b82359150611fda6020840161212b565b60008060006060848603121561218757600080fd5b8335925060208401359150604084013560ff811681146121a657600080fd5b809150509250925092565b6000602082840312156121c357600080fd5b6121cc8261212b565b9392505050565b7f4e487b7100000000000000000000000000000000000000000000000000000000600052603260045260246000fd5b7f4e487b7100000000000000000000000000000000000000000000000000000000600052601160045260246000fd5b61ffff8181168382160190811115610ecb57610ecb612202565b600061ffff821661ffff810361226357612263612202565b60010192915050565b803561ffff81168114611fb257600080fd5b60006020828403121561229057600080fd5b6121cc8261226c565b8082028115828204841417610ecb57610ecb612202565b6000602082840312156122c257600080fd5b5051919050565b81810381811115610ecb57610ecb612202565b7f4e487b7100000000000000000000000000000000000000000000000000000000600052601260045260246000fd5b600061ffff83168061231f5761231f6122dc565b8061ffff84160691505092915050565b60006020828403121561234157600080fd5b6121cc82611f9c565b82815260808101602082018360005b60038110156123845761ffff61236e8361226c565b1683526020928301929190910190600101612359565b5050509392505050565b80820180821115610ecb57610ecb612202565b6000602082840312156123b357600080fd5b815180151581146121cc57600080fd5b600061ffff8316806123d7576123d76122dc565b8061ffff8416049150509291505056fea2646970667358221220b98d08504fef549df9d54a42346ed9e16e3834d2499b20891a44f65e42d9aab964736f6c634300081a0033",
          "opcodes": "PUSH1 0xE0 PUSH1 0x40 MSTORE CALLVALUE DUP1 ISZERO PUSH2 0x10 JUMPI PUSH1 0x0 DUP1 REVERT JUMPDEST POP PUSH1 0x40 MLOAD PUSH2 0x263D CODESIZE SUB DUP1 PUSH2 0x263D DUP4 CODECOPY DUP2 ADD PUSH1 0x40 DUP2 SWAP1 MSTORE PUSH2 0x2F SWAP2 PUSH2 0x15B JUMP JUMPDEST CALLER DUP1 PUSH2 0x55 JUMPI PUSH1 0x40 MLOAD PUSH4 0x1E4FBDF7 PUSH1 0xE0 SHL DUP2 MSTORE PUSH1 0x0 PUSH1 0x4 DUP3 ADD MSTORE PUSH1 0x24 ADD PUSH1 0x40 MLOAD DUP1 SWAP2 SUB SWAP1 REVERT JUMPDEST PUSH2 0x5E DUP2 PUSH2 0xEF JUMP JUMPDEST POP PUSH1 0x1 PUSH1 0x1 PUSH1 0xA0 SHL SUB DUP4 DUP2 AND PUSH1 0xA0 DUP2 SWAP1 MSTORE DUP4 DUP3 AND PUSH1 0x80 DUP2 SWAP1 MSTORE SWAP2 DUP4 AND PUSH1 0xC0 MSTORE PUSH1 0x40 MLOAD PUSH4 0x95EA7B3 PUSH1 0xE0 SHL DUP2 MSTORE PUSH1 0x4 DUP2 ADD SWAP2 SWAP1 SWAP2 MSTORE PUSH1 0x0 NOT PUSH1 0x24 DUP3 ADD MSTORE PUSH4 0x95EA7B3 SWAP1 PUSH1 0x44 ADD PUSH1 0x20 PUSH1 0x40 MLOAD DUP1 DUP4 SUB DUP2 PUSH1 0x0 DUP8 GAS CALL ISZERO DUP1 ISZERO PUSH2 0xC2 JUMPI RETURNDATASIZE PUSH1 0x0 DUP1 RETURNDATACOPY RETURNDATASIZE PUSH1 0x0 REVERT JUMPDEST POP POP POP POP PUSH1 0x40 MLOAD RETURNDATASIZE PUSH1 0x1F NOT PUSH1 0x1F DUP3 ADD AND DUP3 ADD DUP1 PUSH1 0x40 MSTORE POP DUP2 ADD SWAP1 PUSH2 0xE6 SWAP2 SWAP1 PUSH2 0x19E JUMP JUMPDEST POP POP POP POP PUSH2 0x1C7 JUMP JUMPDEST PUSH1 0x0 DUP1 SLOAD PUSH1 0x1 PUSH1 0x1 PUSH1 0xA0 SHL SUB DUP4 DUP2 AND PUSH1 0x1 PUSH1 0x1 PUSH1 0xA0 SHL SUB NOT DUP4 AND DUP2 OR DUP5 SSTORE PUSH1 0x40 MLOAD SWAP2 SWAP1 SWAP3 AND SWAP3 DUP4 SWAP2 PUSH32 0x8BE0079C531659141344CD1FD0A4F28419497F9722A3DAAFE3B4186F6B6457E0 SWAP2 SWAP1 LOG3 POP POP JUMP JUMPDEST DUP1 MLOAD PUSH1 0x1 PUSH1 0x1 PUSH1 0xA0 SHL SUB DUP2 AND DUP2 EQ PUSH2 0x156 JUMPI PUSH1 0x0 DUP1 REVERT JUMPDEST SWAP2 SWAP1 POP JUMP JUMPDEST PUSH1 0x0 DUP1 PUSH1 0x0 PUSH1 0x60 DUP5 DUP7 SUB SLT ISZERO PUSH2 0x170 JUMPI PUSH1 0x0 DUP1 REVERT JUMPDEST PUSH2 0x179 DUP5 PUSH2 0x13F JUMP JUMPDEST SWAP3 POP PUSH2 0x187 PUSH1 0x20 DUP6 ADD PUSH2 0x13F JUMP JUMPDEST SWAP2 POP PUSH2 0x195 PUSH1 0x40 DUP6 ADD PUSH2 0x13F JUMP JUMPDEST SWAP1 POP SWAP3 POP SWAP3 POP SWAP3 JUMP JUMPDEST PUSH1 0x0 PUSH1 0x20 DUP3 DUP5 SUB SLT ISZERO PUSH2 0x1B0 JUMPI PUSH1 0x0 DUP1 REVERT JUMPDEST DUP2 MLOAD DUP1 ISZERO ISZERO DUP2 EQ PUSH2 0x1C0 JUMPI PUSH1 0x0 DUP1 REVERT JUMPDEST SWAP4 SWAP3 POP POP POP JUMP JUMPDEST PUSH1 0x80 MLOAD PUSH1 0xA0 MLOAD PUSH1 0xC0 MLOAD PUSH2 0x241D PUSH2 0x220 PUSH1 0x0 CODECOPY PUSH1 0x0 DUP2 DUP2 PUSH2 0x181 ADD MSTORE PUSH2 0x1B87 ADD MSTORE PUSH1 0x0 DUP2 DUP2 PUSH2 0x2EC ADD MSTORE PUSH2 0x1B60 ADD MSTORE PUSH1 0x0 DUP2 DUP2 PUSH2 0x313 ADD MSTORE DUP2 DUP2 PUSH2 0x876 ADD MSTORE DUP2 DUP2 PUSH2 0x121D ADD MSTORE DUP2 DUP2 PUSH2 0x1579 ADD MSTORE PUSH2 0x166C ADD MSTORE PUSH2 0x241D PUSH1 0x0 RETURN INVALID PUSH1 0x80 PUSH1 0x40 MSTORE CALLVALUE DUP1 ISZERO PUSH2 0x10 JUMPI PUSH1 0x0 DUP1 REVERT JUMPDEST POP PUSH1 0x4 CALLDATASIZE LT PUSH2 0x177 JUMPI PUSH1 0x0 CALLDATALOAD PUSH1 0xE0 SHR DUP1 PUSH4 0xA51710DD GT PUSH2 0xD8 JUMPI DUP1 PUSH4 0xCEFA8922 GT PUSH2 0x8C JUMPI DUP1 PUSH4 0xE70D6893 GT PUSH2 0x66 JUMPI DUP1 PUSH4 0xE70D6893 EQ PUSH2 0x350 JUMPI DUP1 PUSH4 0xF2FDE38B EQ PUSH2 0x363 JUMPI DUP1 PUSH4 0xFDDD6397 EQ PUSH2 0x376 JUMPI PUSH1 0x0 DUP1 REVERT JUMPDEST DUP1 PUSH4 0xCEFA8922 EQ PUSH2 0x30E JUMPI DUP1 PUSH4 0xD88F836A EQ PUSH2 0x335 JUMPI DUP1 PUSH4 0xDB2E21BC EQ PUSH2 0x348 JUMPI PUSH1 0x0 DUP1 REVERT JUMPDEST DUP1 PUSH4 0xB86C9E5E GT PUSH2 0xBD JUMPI DUP1 PUSH4 0xB86C9E5E EQ PUSH2 0x2CC JUMPI DUP1 PUSH4 0xBCB39621 EQ PUSH2 0x2DF JUMPI DUP1 PUSH4 0xC1C1D218 EQ PUSH2 0x2E7 JUMPI PUSH1 0x0 DUP1 REVERT JUMPDEST DUP1 PUSH4 0xA51710DD EQ PUSH2 0x296 JUMPI DUP1 PUSH4 0xB6B55F25 EQ PUSH2 0x2B9 JUMPI PUSH1 0x0 DUP1 REVERT JUMPDEST DUP1 PUSH4 0x73D5F652 GT PUSH2 0x12F JUMPI DUP1 PUSH4 0x8DA5CB5B GT PUSH2 0x114 JUMPI DUP1 PUSH4 0x8DA5CB5B EQ PUSH2 0x24E JUMPI DUP1 PUSH4 0x94285922 EQ PUSH2 0x26C JUMPI DUP1 PUSH4 0xA43D8654 EQ PUSH2 0x276 JUMPI PUSH1 0x0 DUP1 REVERT JUMPDEST DUP1 PUSH4 0x73D5F652 EQ PUSH2 0x228 JUMPI DUP1 PUSH4 0x813D243C EQ PUSH2 0x23B JUMPI PUSH1 0x0 DUP1 REVERT JUMPDEST DUP1 PUSH4 0x45FBCAFA GT PUSH2 0x160 JUMPI DUP1 PUSH4 0x45FBCAFA EQ PUSH2 0x1E2 JUMPI DUP1 PUSH4 0x6A13F0CB EQ PUSH2 0x1FA JUMPI DUP1 PUSH4 0x715018A6 EQ PUSH2 0x220 JUMPI PUSH1 0x0 DUP1 REVERT JUMPDEST DUP1 PUSH4 0xC933EDF EQ PUSH2 0x17C JUMPI DUP1 PUSH4 0x218FF65A EQ PUSH2 0x1CD JUMPI JUMPDEST PUSH1 0x0 DUP1 REVERT JUMPDEST PUSH2 0x1A3 PUSH32 0x0 DUP2 JUMP JUMPDEST PUSH1 0x40 MLOAD PUSH20 0xFFFFFFFFFFFFFFFFFFFFFFFFFFFFFFFFFFFFFFFF SWAP1 SWAP2 AND DUP2 MSTORE PUSH1 0x20 ADD JUMPDEST PUSH1 0x40 MLOAD DUP1 SWAP2 SUB SWAP1 RETURN JUMPDEST PUSH2 0x1E0 PUSH2 0x1DB CALLDATASIZE PUSH1 0x4 PUSH2 0x1E9A JUMP JUMPDEST PUSH2 0x386 JUMP JUMPDEST STOP JUMPDEST PUSH2 0x1EC PUSH3 0x24EA00 DUP2 JUMP JUMPDEST PUSH1 0x40 MLOAD SWAP1 DUP2 MSTORE PUSH1 0x20 ADD PUSH2 0x1C4 JUMP JUMPDEST PUSH2 0x20D PUSH2 0x208 CALLDATASIZE PUSH1 0x4 PUSH2 0x1E9A JUMP JUMPDEST PUSH2 0x5E4 JUMP JUMPDEST PUSH1 0x40 MLOAD PUSH2 0xFFFF SWAP1 SWAP2 AND DUP2 MSTORE PUSH1 0x20 ADD PUSH2 0x1C4 JUMP JUMPDEST PUSH2 0x1E0 PUSH2 0x790 JUMP JUMPDEST PUSH2 0x1E0 PUSH2 0x236 CALLDATASIZE PUSH1 0x4 PUSH2 0x1F08 JUMP JUMPDEST PUSH2 0x7A4 JUMP JUMPDEST PUSH2 0x1EC PUSH2 0x249 CALLDATASIZE PUSH1 0x4 PUSH2 0x1FB7 JUMP JUMPDEST PUSH2 0xE19 JUMP JUMPDEST PUSH1 0x0 SLOAD PUSH20 0xFFFFFFFFFFFFFFFFFFFFFFFFFFFFFFFFFFFFFFFF AND PUSH2 0x1A3 JUMP JUMPDEST PUSH2 0x1EC PUSH3 0x93A80 DUP2 JUMP JUMPDEST PUSH2 0x289 PUSH2 0x284 CALLDATASIZE PUSH1 0x4 PUSH2 0x1FE3 JUMP JUMPDEST PUSH2 0xED1 JUMP JUMPDEST PUSH1 0x40 MLOAD PUSH2 0x1C4 SWAP2 SWAP1 PUSH2 0x20A6 JUMP JUMPDEST PUSH2 0x2A9 PUSH2 0x2A4 CALLDATASIZE PUSH1 0x4 PUSH2 0x1FE3 JUMP JUMPDEST PUSH2 0x10A1 JUMP JUMPDEST PUSH1 0x40 MLOAD SWAP1 ISZERO ISZERO DUP2 MSTORE PUSH1 0x20 ADD PUSH2 0x1C4 JUMP JUMPDEST PUSH2 0x1E0 PUSH2 0x2C7 CALLDATASIZE PUSH1 0x4 PUSH2 0x1FE3 JUMP JUMPDEST PUSH2 0x11C5 JUMP JUMPDEST PUSH2 0x20D PUSH2 0x2DA CALLDATASIZE PUSH1 0x4 PUSH2 0x1E9A JUMP JUMPDEST PUSH2 0x1316 JUMP JUMPDEST PUSH1 0x1 SLOAD PUSH2 0x1EC JUMP JUMPDEST PUSH2 0x1A3 PUSH32 0x0 DUP2 JUMP JUMPDEST PUSH2 0x1A3 PUSH32 0x0 DUP2 JUMP JUMPDEST PUSH2 0x1EC PUSH2 0x343 CALLDATASIZE PUSH1 0x4 PUSH2 0x214F JUMP JUMPDEST PUSH2 0x1480 JUMP JUMPDEST PUSH2 0x1E0 PUSH2 0x1525 JUMP JUMPDEST PUSH2 0x1E0 PUSH2 0x35E CALLDATASIZE PUSH1 0x4 PUSH2 0x2172 JUMP JUMPDEST PUSH2 0x1757 JUMP JUMPDEST PUSH2 0x1E0 PUSH2 0x371 CALLDATASIZE PUSH1 0x4 PUSH2 0x21B1 JUMP JUMPDEST PUSH2 0x1ADE JUMP JUMPDEST PUSH2 0x1EC PUSH9 0x56BC75E2D63100000 DUP2 JUMP JUMPDEST PUSH1 0x0 PUSH2 0x392 DUP4 DUP4 PUSH2 0x5E4 JUMP JUMPDEST SWAP1 POP DUP1 PUSH2 0xFFFF AND PUSH1 0x0 SUB PUSH2 0x3D2 JUMPI PUSH1 0x40 MLOAD PUSH32 0xA047D25300000000000000000000000000000000000000000000000000000000 DUP2 MSTORE PUSH1 0x4 ADD PUSH1 0x40 MLOAD DUP1 SWAP2 SUB SWAP1 REVERT JUMPDEST PUSH1 0x0 PUSH1 0x1 DUP5 DUP2 SLOAD DUP2 LT PUSH2 0x3E7 JUMPI PUSH2 0x3E7 PUSH2 0x21D3 JUMP JUMPDEST SWAP1 PUSH1 0x0 MSTORE PUSH1 0x20 PUSH1 0x0 KECCAK256 SWAP1 PUSH1 0x5 MUL ADD SWAP1 POP PUSH1 0x0 PUSH2 0x400 CALLER SWAP1 JUMP JUMPDEST SWAP1 POP DUP1 PUSH20 0xFFFFFFFFFFFFFFFFFFFFFFFFFFFFFFFFFFFFFFFF AND DUP3 PUSH1 0x4 ADD DUP6 DUP2 SLOAD DUP2 LT PUSH2 0x42E JUMPI PUSH2 0x42E PUSH2 0x21D3 JUMP JUMPDEST PUSH1 0x0 SWAP2 DUP3 MSTORE PUSH1 0x20 SWAP1 SWAP2 KECCAK256 PUSH1 0x2 SWAP1 SWAP2 MUL ADD SLOAD PUSH7 0x1000000000000 SWAP1 DIV PUSH20 0xFFFFFFFFFFFFFFFFFFFFFFFFFFFFFFFFFFFFFFFF AND EQ PUSH2 0x496 JUMPI PUSH1 0x40 MLOAD PUSH32 0x1E09210400000000000000000000000000000000000000000000000000000000 DUP2 MSTORE PUSH1 0x4 ADD PUSH1 0x40 MLOAD DUP1 SWAP2 SUB SWAP1 REVERT JUMPDEST DUP3 DUP3 PUSH1 0x4 ADD DUP6 DUP2 SLOAD DUP2 LT PUSH2 0x4AC JUMPI PUSH2 0x4AC PUSH2 0x21D3 JUMP JUMPDEST PUSH1 0x0 SWAP2 DUP3 MSTORE PUSH1 0x20 SWAP1 SWAP2 KECCAK256 PUSH1 0x2 SWAP1 SWAP2 MUL ADD DUP1 SLOAD PUSH1 0x1A SWAP1 PUSH2 0x4EE SWAP1 DUP5 SWAP1 PUSH27 0x10000000000000000000000000000000000000000000000000000 SWAP1 DIV PUSH2 0xFFFF AND PUSH2 0x2231 JUMP JUMPDEST SWAP3 POP PUSH2 0x100 EXP DUP2 SLOAD DUP2 PUSH2 0xFFFF MUL NOT AND SWAP1 DUP4 PUSH2 0xFFFF AND MUL OR SWAP1 SSTORE POP DUP3 DUP3 PUSH1 0x0 ADD PUSH1 0x5 DUP3 DUP3 DUP3 SWAP1 SLOAD SWAP1 PUSH2 0x100 EXP SWAP1 DIV PUSH2 0xFFFF AND PUSH2 0x529 SWAP2 SWAP1 PUSH2 0x2231 JUMP JUMPDEST SWAP3 POP PUSH2 0x100 EXP DUP2 SLOAD DUP2 PUSH2 0xFFFF MUL NOT AND SWAP1 DUP4 PUSH2 0xFFFF AND MUL OR SWAP1 SSTORE POP PUSH2 0x551 DUP4 PUSH2 0xFFFF AND DUP3 PUSH2 0x1B47 JUMP JUMPDEST PUSH2 0x587 JUMPI PUSH1 0x40 MLOAD PUSH32 0xD3DB0D700000000000000000000000000000000000000000000000000000000 DUP2 MSTORE PUSH1 0x4 ADD PUSH1 0x40 MLOAD DUP1 SWAP2 SUB SWAP1 REVERT JUMPDEST PUSH1 0x40 DUP1 MLOAD DUP6 DUP2 MSTORE PUSH2 0xFFFF DUP6 AND PUSH1 0x20 DUP3 ADD MSTORE DUP7 SWAP2 PUSH20 0xFFFFFFFFFFFFFFFFFFFFFFFFFFFFFFFFFFFFFFFF DUP5 AND SWAP2 PUSH32 0xAC0A054B174E5F4368C391EB036C0C042B90A176619D5FBF41BD1EF0E3025190 SWAP2 ADD PUSH1 0x40 MLOAD DUP1 SWAP2 SUB SWAP1 LOG3 POP POP POP POP POP JUMP JUMPDEST PUSH1 0x0 PUSH2 0x5EF DUP4 PUSH2 0x10A1 JUMP JUMPDEST PUSH2 0x625 JUMPI PUSH1 0x40 MLOAD PUSH32 0xA5FE4BE300000000000000000000000000000000000000000000000000000000 DUP2 MSTORE PUSH1 0x4 ADD PUSH1 0x40 MLOAD DUP1 SWAP2 SUB SWAP1 REVERT JUMPDEST PUSH1 0x0 PUSH1 0x1 DUP5 DUP2 SLOAD DUP2 LT PUSH2 0x63A JUMPI PUSH2 0x63A PUSH2 0x21D3 JUMP JUMPDEST SWAP1 PUSH1 0x0 MSTORE PUSH1 0x20 PUSH1 0x0 KECCAK256 SWAP1 PUSH1 0x5 MUL ADD SWAP1 POP DUP3 DUP2 PUSH1 0x4 ADD DUP1 SLOAD SWAP1 POP GT PUSH2 0x68A JUMPI PUSH1 0x40 MLOAD PUSH32 0x3F613DD300000000000000000000000000000000000000000000000000000000 DUP2 MSTORE PUSH1 0x4 ADD PUSH1 0x40 MLOAD DUP1 SWAP2 SUB SWAP1 REVERT JUMPDEST PUSH1 0x0 DUP2 PUSH1 0x4 ADD DUP5 DUP2 SLOAD DUP2 LT PUSH2 0x6A1 JUMPI PUSH2 0x6A1 PUSH2 0x21D3 JUMP JUMPDEST PUSH1 0x0 SWAP2 DUP3 MSTORE PUSH1 0x20 SWAP1 SWAP2 KECCAK256 PUSH1 0x2 SWAP1 SWAP2 MUL ADD SLOAD PUSH27 0x10000000000000000000000000000000000000000000000000000 SWAP1 DIV PUSH2 0xFFFF AND GT ISZERO PUSH2 0x70C JUMPI PUSH1 0x40 MLOAD PUSH32 0x494AC78B00000000000000000000000000000000000000000000000000000000 DUP2 MSTORE PUSH1 0x4 ADD PUSH1 0x40 MLOAD DUP1 SWAP2 SUB SWAP1 REVERT JUMPDEST PUSH1 0x0 DUP2 PUSH1 0x4 ADD DUP5 DUP2 SLOAD DUP2 LT PUSH2 0x723 JUMPI PUSH2 0x723 PUSH2 0x21D3 JUMP JUMPDEST SWAP1 PUSH1 0x0 MSTORE PUSH1 0x20 PUSH1 0x0 KECCAK256 SWAP1 PUSH1 0x2 MUL ADD PUSH1 0x1 ADD SWAP1 POP PUSH1 0x0 JUMPDEST PUSH1 0x3 DUP2 LT ISZERO PUSH2 0x787 JUMPI DUP2 DUP2 PUSH1 0x3 DUP2 LT PUSH2 0x754 JUMPI PUSH2 0x754 PUSH2 0x21D3 JUMP JUMPDEST PUSH1 0x20 DUP2 DIV SWAP1 SWAP2 ADD SLOAD PUSH1 0xFF PUSH1 0x1F SWAP1 SWAP3 AND PUSH2 0x100 EXP SWAP1 DIV AND ISZERO ISZERO PUSH1 0x1 SUB PUSH2 0x77F JUMPI PUSH2 0x77C DUP5 PUSH2 0x224B JUMP JUMPDEST SWAP4 POP JUMPDEST PUSH1 0x1 ADD PUSH2 0x739 JUMP JUMPDEST POP POP POP SWAP3 SWAP2 POP POP JUMP JUMPDEST PUSH2 0x798 PUSH2 0x1C68 JUMP JUMPDEST PUSH2 0x7A2 PUSH1 0x0 PUSH2 0x1CBB JUMP JUMPDEST JUMP JUMPDEST PUSH2 0x7AC PUSH2 0x1C68 JUMP JUMPDEST DUP3 ISZERO DUP1 PUSH2 0x7B9 JUMPI POP DUP3 DUP2 EQ ISZERO JUMPDEST ISZERO PUSH2 0x7F0 JUMPI PUSH1 0x40 MLOAD PUSH32 0x9A5B513B00000000000000000000000000000000000000000000000000000000 DUP2 MSTORE PUSH1 0x4 ADD PUSH1 0x40 MLOAD DUP1 SWAP2 SUB SWAP1 REVERT JUMPDEST PUSH2 0x800 PUSH1 0x60 DUP7 ADD PUSH1 0x40 DUP8 ADD PUSH2 0x227E JUMP JUMPDEST PUSH2 0x810 PUSH1 0x40 DUP8 ADD PUSH1 0x20 DUP9 ADD PUSH2 0x227E JUMP JUMPDEST PUSH2 0x81D PUSH1 0x20 DUP9 ADD DUP9 PUSH2 0x227E JUMP JUMPDEST PUSH2 0x827 SWAP2 SWAP1 PUSH2 0x2231 JUMP JUMPDEST PUSH2 0x831 SWAP2 SWAP1 PUSH2 0x2231 JUMP JUMPDEST PUSH2 0x848 SWAP1 PUSH2 0xFFFF AND PUSH9 0x56BC75E2D63100000 PUSH2 0x2299 JUMP JUMPDEST PUSH1 0x40 MLOAD PUSH32 0x70A0823100000000000000000000000000000000000000000000000000000000 DUP2 MSTORE ADDRESS PUSH1 0x4 DUP3 ADD MSTORE PUSH32 0x0 PUSH20 0xFFFFFFFFFFFFFFFFFFFFFFFFFFFFFFFFFFFFFFFF AND SWAP1 PUSH4 0x70A08231 SWAP1 PUSH1 0x24 ADD PUSH1 0x20 PUSH1 0x40 MLOAD DUP1 DUP4 SUB DUP2 DUP7 GAS STATICCALL ISZERO DUP1 ISZERO PUSH2 0x8D2 JUMPI RETURNDATASIZE PUSH1 0x0 DUP1 RETURNDATACOPY RETURNDATASIZE PUSH1 0x0 REVERT JUMPDEST POP POP POP POP PUSH1 0x40 MLOAD RETURNDATASIZE PUSH1 0x1F NOT PUSH1 0x1F DUP3 ADD AND DUP3 ADD DUP1 PUSH1 0x40 MSTORE POP DUP2 ADD SWAP1 PUSH2 0x8F6 SWAP2 SWAP1 PUSH2 0x22B0 JUMP JUMPDEST LT ISZERO PUSH2 0x92E JUMPI PUSH1 0x40 MLOAD PUSH32 0x6A56423500000000000000000000000000000000000000000000000000000000 DUP2 MSTORE PUSH1 0x4 ADD PUSH1 0x40 MLOAD DUP1 SWAP2 SUB SWAP1 REVERT JUMPDEST PUSH2 0x939 PUSH1 0x3 DUP5 PUSH2 0x22C9 JUMP JUMPDEST PUSH2 0x946 PUSH1 0x20 DUP8 ADD DUP8 PUSH2 0x227E JUMP JUMPDEST PUSH2 0xFFFF AND GT ISZERO PUSH2 0x982 JUMPI PUSH1 0x40 MLOAD PUSH32 0x9482A43700000000000000000000000000000000000000000000000000000000 DUP2 MSTORE PUSH1 0x4 ADD PUSH1 0x40 MLOAD DUP1 SWAP2 SUB SWAP1 REVERT JUMPDEST PUSH1 0x2 PUSH2 0x991 PUSH1 0x20 DUP8 ADD DUP8 PUSH2 0x227E JUMP JUMPDEST PUSH2 0x99B SWAP2 SWAP1 PUSH2 0x230B JUMP JUMPDEST PUSH2 0xFFFF AND ISZERO ISZERO DUP1 PUSH2 0x9CA JUMPI POP PUSH1 0x2 PUSH2 0x9B9 PUSH1 0x40 DUP8 ADD PUSH1 0x20 DUP9 ADD PUSH2 0x227E JUMP JUMPDEST PUSH2 0x9C3 SWAP2 SWAP1 PUSH2 0x230B JUMP JUMPDEST PUSH2 0xFFFF AND ISZERO ISZERO JUMPDEST DUP1 PUSH2 0x9F3 JUMPI POP PUSH1 0x2 PUSH2 0x9E2 PUSH1 0x60 DUP8 ADD PUSH1 0x40 DUP9 ADD PUSH2 0x227E JUMP JUMPDEST PUSH2 0x9EC SWAP2 SWAP1 PUSH2 0x230B JUMP JUMPDEST PUSH2 0xFFFF AND ISZERO ISZERO JUMPDEST ISZERO PUSH2 0xA2A JUMPI PUSH1 0x40 MLOAD PUSH32 0x9482A43700000000000000000000000000000000000000000000000000000000 DUP2 MSTORE PUSH1 0x4 ADD PUSH1 0x40 MLOAD DUP1 SWAP2 SUB SWAP1 REVERT JUMPDEST PUSH1 0x1 SLOAD PUSH1 0x0 SWAP1 ISZERO DUP1 ISZERO SWAP1 PUSH2 0xA4A JUMPI POP PUSH1 0x1 DUP1 SLOAD PUSH2 0xA47 SWAP2 SWAP1 PUSH2 0x22C9 JUMP JUMPDEST DUP8 EQ JUMPDEST ISZERO PUSH2 0xAC0 JUMPI PUSH1 0x1 DUP8 DUP2 SLOAD DUP2 LT PUSH2 0xA62 JUMPI PUSH2 0xA62 PUSH2 0x21D3 JUMP JUMPDEST PUSH1 0x0 SWAP2 DUP3 MSTORE PUSH1 0x20 SWAP1 SWAP2 KECCAK256 PUSH1 0x5 SWAP1 SWAP2 MUL ADD DUP1 SLOAD SWAP1 SWAP2 POP PUSH6 0x10000000000 SWAP1 DIV PUSH2 0xFFFF AND ISZERO PUSH2 0xABB JUMPI PUSH1 0x40 MLOAD PUSH32 0xBF5BE99E00000000000000000000000000000000000000000000000000000000 DUP2 MSTORE PUSH1 0x4 ADD PUSH1 0x40 MLOAD DUP1 SWAP2 SUB SWAP1 REVERT JUMPDEST PUSH2 0xB2E JUMP JUMPDEST PUSH1 0x1 SLOAD DUP8 SUB PUSH2 0xAFC JUMPI PUSH1 0x1 DUP1 SLOAD DUP2 ADD DUP1 DUP3 SSTORE PUSH1 0x0 DUP3 SWAP1 MSTORE DUP9 SWAP1 DUP2 LT PUSH2 0xAE7 JUMPI PUSH2 0xAE7 PUSH2 0x21D3 JUMP JUMPDEST SWAP1 PUSH1 0x0 MSTORE PUSH1 0x20 PUSH1 0x0 KECCAK256 SWAP1 PUSH1 0x5 MUL ADD SWAP1 POP PUSH2 0xB2E JUMP JUMPDEST PUSH1 0x40 MLOAD PUSH32 0xA55F88000000000000000000000000000000000000000000000000000000000 DUP2 MSTORE PUSH1 0x4 ADD PUSH1 0x40 MLOAD DUP1 SWAP2 SUB SWAP1 REVERT JUMPDEST PUSH2 0xB3B PUSH1 0x20 DUP8 ADD DUP8 PUSH2 0x227E JUMP JUMPDEST PUSH1 0x1 DUP3 ADD DUP1 SLOAD PUSH2 0xFFFF SWAP3 SWAP1 SWAP3 AND PUSH2 0x100 MUL PUSH32 0xFFFFFFFFFFFFFFFFFFFFFFFFFFFFFFFFFFFFFFFFFFFFFFFFFFFFFFFFFF0000FF SWAP1 SWAP3 AND SWAP2 SWAP1 SWAP2 OR SWAP1 SSTORE PUSH2 0xB86 PUSH1 0x40 DUP8 ADD PUSH1 0x20 DUP9 ADD PUSH2 0x227E JUMP JUMPDEST PUSH1 0x2 DUP3 ADD DUP1 SLOAD PUSH2 0xFFFF SWAP3 SWAP1 SWAP3 AND PUSH2 0x100 MUL PUSH32 0xFFFFFFFFFFFFFFFFFFFFFFFFFFFFFFFFFFFFFFFFFFFFFFFFFFFFFFFFFF0000FF SWAP1 SWAP3 AND SWAP2 SWAP1 SWAP2 OR SWAP1 SSTORE PUSH2 0xBD1 PUSH1 0x60 DUP8 ADD PUSH1 0x40 DUP9 ADD PUSH2 0x227E JUMP JUMPDEST PUSH1 0x3 DUP3 ADD DUP1 SLOAD PUSH32 0xFFFFFFFFFFFFFFFFFFFFFFFFFFFFFFFFFFFFFFFFFFFFFFFFFFFFFFFFFF0000FF AND PUSH2 0x100 PUSH2 0xFFFF SWAP4 SWAP1 SWAP4 AND SWAP3 SWAP1 SWAP3 MUL SWAP2 SWAP1 SWAP2 OR SWAP1 SSTORE DUP1 SLOAD PUSH32 0xFFFFFFFFFFFFFFFFFFFFFFFFFFFFFFFFFFFFFFFFFFFFFFFFFFFFFF0000000000 AND TIMESTAMP PUSH5 0xFFFFFFFFFF AND OR DUP2 SSTORE PUSH2 0xC4A PUSH1 0x4 DUP3 ADD PUSH1 0x0 PUSH2 0x1D30 JUMP JUMPDEST PUSH1 0x0 JUMPDEST DUP5 DUP2 LT ISZERO PUSH2 0xDD3 JUMPI DUP2 PUSH1 0x4 ADD PUSH1 0x40 MLOAD DUP1 PUSH1 0x80 ADD PUSH1 0x40 MSTORE DUP1 DUP9 DUP9 DUP6 DUP2 DUP2 LT PUSH2 0xC76 JUMPI PUSH2 0xC76 PUSH2 0x21D3 JUMP JUMPDEST SWAP1 POP PUSH1 0x20 MUL ADD PUSH1 0x20 DUP2 ADD SWAP1 PUSH2 0xC8B SWAP2 SWAP1 PUSH2 0x232F JUMP JUMPDEST PUSH6 0xFFFFFFFFFFFF AND DUP2 MSTORE PUSH1 0x20 ADD DUP7 DUP7 DUP6 DUP2 DUP2 LT PUSH2 0xCAA JUMPI PUSH2 0xCAA PUSH2 0x21D3 JUMP JUMPDEST SWAP1 POP PUSH1 0x20 MUL ADD PUSH1 0x20 DUP2 ADD SWAP1 PUSH2 0xCBF SWAP2 SWAP1 PUSH2 0x21B1 JUMP JUMPDEST PUSH20 0xFFFFFFFFFFFFFFFFFFFFFFFFFFFFFFFFFFFFFFFF SWAP1 DUP2 AND DUP3 MSTORE PUSH1 0x0 PUSH1 0x20 DUP1 DUP5 ADD DUP3 SWAP1 MSTORE PUSH1 0x40 DUP1 MLOAD PUSH1 0x60 DUP1 DUP3 ADD DUP4 MSTORE DUP5 DUP3 MSTORE DUP2 DUP5 ADD DUP6 SWAP1 MSTORE DUP2 DUP4 ADD DUP6 SWAP1 MSTORE SWAP6 DUP3 ADD MSTORE DUP7 SLOAD PUSH1 0x1 DUP2 DUP2 ADD DUP10 SSTORE SWAP8 DUP5 MSTORE SWAP3 DUP3 SWAP1 KECCAK256 DUP7 MLOAD PUSH1 0x2 SWAP1 SWAP5 MUL ADD DUP1 SLOAD SWAP3 DUP8 ADD MLOAD SWAP2 DUP8 ADD MLOAD PUSH2 0xFFFF AND PUSH27 0x10000000000000000000000000000000000000000000000000000 MUL PUSH32 0xFFFFFFFF0000FFFFFFFFFFFFFFFFFFFFFFFFFFFFFFFFFFFFFFFFFFFFFFFFFFFF SWAP3 SWAP1 SWAP6 AND PUSH7 0x1000000000000 MUL PUSH32 0xFFFFFFFFFFFF0000000000000000000000000000000000000000000000000000 SWAP1 SWAP4 AND PUSH6 0xFFFFFFFFFFFF SWAP1 SWAP5 AND SWAP4 SWAP1 SWAP4 OR SWAP2 SWAP1 SWAP2 OR AND SWAP2 SWAP1 SWAP2 OR DUP2 SSTORE SWAP1 DUP3 ADD MLOAD SWAP2 SWAP3 SWAP1 SWAP2 PUSH2 0xDC5 SWAP2 DUP4 ADD SWAP1 PUSH1 0x3 PUSH2 0x1D51 JUMP JUMPDEST POP POP POP DUP1 PUSH1 0x1 ADD SWAP1 POP PUSH2 0xC4D JUMP JUMPDEST POP PUSH1 0x40 MLOAD DUP8 SWAP1 PUSH32 0xC89697EF728C0DBC131C1838D0B59CA47FC8614F4633A0CEBCB990EF5DB0110D SWAP1 PUSH2 0xE08 SWAP1 DUP8 SWAP1 DUP11 SWAP1 PUSH2 0x234A JUMP JUMPDEST PUSH1 0x40 MLOAD DUP1 SWAP2 SUB SWAP1 LOG2 POP POP POP POP POP POP POP JUMP JUMPDEST PUSH1 0x0 DUP1 PUSH1 0x1 DUP5 DUP2 SLOAD DUP2 LT PUSH2 0xE2F JUMPI PUSH2 0xE2F PUSH2 0x21D3 JUMP JUMPDEST SWAP1 PUSH1 0x0 MSTORE PUSH1 0x20 PUSH1 0x0 KECCAK256 SWAP1 PUSH1 0x5 MUL ADD PUSH1 0x4 ADD SWAP1 POP PUSH1 0x0 JUMPDEST DUP2 SLOAD DUP2 LT ISZERO PUSH2 0xE98 JUMPI DUP4 PUSH6 0xFFFFFFFFFFFF AND DUP3 DUP3 DUP2 SLOAD DUP2 LT PUSH2 0xE69 JUMPI PUSH2 0xE69 PUSH2 0x21D3 JUMP JUMPDEST PUSH1 0x0 SWAP2 DUP3 MSTORE PUSH1 0x20 SWAP1 SWAP2 KECCAK256 PUSH1 0x2 SWAP1 SWAP2 MUL ADD SLOAD PUSH6 0xFFFFFFFFFFFF AND SUB PUSH2 0xE90 JUMPI SWAP2 POP PUSH2 0xECB SWAP1 POP JUMP JUMPDEST PUSH1 0x1 ADD PUSH2 0xE45 JUMP JUMPDEST POP PUSH1 0x40 MLOAD PUSH32 0x3462926B00000000000000000000000000000000000000000000000000000000 DUP2 MSTORE PUSH1 0x4 ADD PUSH1 0x40 MLOAD DUP1 SWAP2 SUB SWAP1 REVERT JUMPDEST SWAP3 SWAP2 POP POP JUMP JUMPDEST PUSH2 0xED9 PUSH2 0x1DE3 JUMP JUMPDEST PUSH1 0x1 DUP3 DUP2 SLOAD DUP2 LT PUSH2 0xEEC JUMPI PUSH2 0xEEC PUSH2 0x21D3 JUMP JUMPDEST PUSH1 0x0 SWAP2 DUP3 MSTORE PUSH1 0x20 DUP1 DUP4 KECCAK256 PUSH1 0x40 DUP1 MLOAD PUSH1 0x80 DUP2 ADD DUP3 MSTORE PUSH1 0x5 SWAP1 SWAP5 MUL SWAP1 SWAP2 ADD DUP1 SLOAD PUSH5 0xFFFFFFFFFF DUP2 AND DUP6 MSTORE PUSH2 0xFFFF PUSH6 0x10000000000 SWAP1 SWAP2 DIV AND SWAP3 DUP5 ADD SWAP3 SWAP1 SWAP3 MSTORE DUP1 MLOAD PUSH1 0x60 DUP2 ADD DUP3 MSTORE SWAP3 SWAP4 SWAP2 SWAP3 SWAP1 DUP5 ADD SWAP2 PUSH1 0x1 DUP5 ADD SWAP1 PUSH1 0x3 SWAP1 DUP4 JUMPDEST DUP3 DUP3 LT ISZERO PUSH2 0xF80 JUMPI PUSH1 0x40 DUP1 MLOAD DUP1 DUP3 ADD SWAP1 SWAP2 MSTORE DUP5 DUP4 ADD SLOAD PUSH1 0xFF DUP2 AND DUP3 MSTORE PUSH2 0x100 SWAP1 DIV PUSH2 0xFFFF AND PUSH1 0x20 DUP1 DUP4 ADD SWAP2 SWAP1 SWAP2 MSTORE SWAP1 DUP3 MSTORE PUSH1 0x1 SWAP1 SWAP3 ADD SWAP2 ADD PUSH2 0xF43 JUMP JUMPDEST POP POP POP POP DUP2 MSTORE PUSH1 0x20 ADD PUSH1 0x4 DUP3 ADD DUP1 SLOAD DUP1 PUSH1 0x20 MUL PUSH1 0x20 ADD PUSH1 0x40 MLOAD SWAP1 DUP2 ADD PUSH1 0x40 MSTORE DUP1 SWAP3 SWAP2 SWAP1 DUP2 DUP2 MSTORE PUSH1 0x20 ADD PUSH1 0x0 SWAP1 JUMPDEST DUP3 DUP3 LT ISZERO PUSH2 0x1093 JUMPI PUSH1 0x0 DUP5 DUP2 MSTORE PUSH1 0x20 DUP1 DUP3 KECCAK256 PUSH1 0x40 DUP1 MLOAD PUSH1 0x80 DUP2 ADD DUP3 MSTORE PUSH1 0x2 DUP8 MUL SWAP1 SWAP3 ADD DUP1 SLOAD PUSH6 0xFFFFFFFFFFFF DUP2 AND DUP5 MSTORE PUSH7 0x1000000000000 DUP2 DIV PUSH20 0xFFFFFFFFFFFFFFFFFFFFFFFFFFFFFFFFFFFFFFFF AND SWAP5 DUP5 ADD SWAP5 SWAP1 SWAP5 MSTORE PUSH27 0x10000000000000000000000000000000000000000000000000000 SWAP1 SWAP4 DIV PUSH2 0xFFFF AND DUP3 DUP3 ADD MSTORE DUP1 MLOAD PUSH1 0x60 DUP1 DUP3 ADD SWAP3 DUP4 SWAP1 MSTORE SWAP3 SWAP5 SWAP3 DUP6 ADD SWAP3 SWAP1 SWAP2 PUSH1 0x1 DUP6 ADD SWAP2 PUSH1 0x3 SWAP2 SWAP1 DUP4 SWAP1 DUP6 JUMPDEST DUP3 SLOAD PUSH2 0x100 DUP4 SWAP1 EXP SWAP1 DIV PUSH1 0xFF AND ISZERO ISZERO DUP2 MSTORE PUSH1 0x20 PUSH1 0x1 SWAP3 DUP4 ADD DUP2 DUP2 DIV SWAP5 DUP6 ADD SWAP5 SWAP1 SWAP4 SUB SWAP1 SWAP3 MUL SWAP2 ADD DUP1 DUP5 GT PUSH2 0x104B JUMPI SWAP1 POP POP POP POP POP POP DUP2 MSTORE POP POP DUP2 MSTORE PUSH1 0x20 ADD SWAP1 PUSH1 0x1 ADD SWAP1 PUSH2 0xFAD JUMP JUMPDEST POP POP POP SWAP2 MSTORE POP SWAP1 SWAP4 SWAP3 POP POP POP JUMP JUMPDEST PUSH1 0x1 SLOAD PUSH1 0x0 SWAP1 DUP3 LT PUSH2 0x10DF JUMPI PUSH1 0x40 MLOAD PUSH32 0xA55F88000000000000000000000000000000000000000000000000000000000 DUP2 MSTORE PUSH1 0x4 ADD PUSH1 0x40 MLOAD DUP1 SWAP2 SUB SWAP1 REVERT JUMPDEST PUSH1 0x0 PUSH1 0x1 DUP4 DUP2 SLOAD DUP2 LT PUSH2 0x10F4 JUMPI PUSH2 0x10F4 PUSH2 0x21D3 JUMP JUMPDEST PUSH1 0x0 SWAP2 DUP3 MSTORE PUSH1 0x20 SWAP1 SWAP2 KECCAK256 PUSH1 0x5 SWAP1 SWAP2 MUL ADD DUP1 SLOAD SWAP1 SWAP2 POP TIMESTAMP SWAP1 PUSH2 0x1120 SWAP1 PUSH3 0x24EA00 SWAP1 PUSH5 0xFFFFFFFFFF AND PUSH2 0x238E JUMP JUMPDEST LT ISZERO PUSH2 0x1158 JUMPI PUSH1 0x40 MLOAD PUSH32 0xAE609B1700000000000000000000000000000000000000000000000000000000 DUP2 MSTORE PUSH1 0x4 ADD PUSH1 0x40 MLOAD DUP1 SWAP2 SUB SWAP1 REVERT JUMPDEST DUP1 SLOAD TIMESTAMP SWAP1 PUSH2 0x1171 SWAP1 PUSH3 0x93A80 SWAP1 PUSH5 0xFFFFFFFFFF AND PUSH2 0x238E JUMP JUMPDEST LT ISZERO PUSH2 0x1180 JUMPI POP PUSH1 0x1 SWAP3 SWAP2 POP POP JUMP JUMPDEST PUSH1 0x1 DUP2 ADD SLOAD PUSH1 0xFF AND ISZERO DUP1 ISZERO SWAP1 PUSH2 0x119C JUMPI POP PUSH1 0x2 DUP2 ADD SLOAD PUSH1 0xFF AND ISZERO ISZERO JUMPDEST DUP1 ISZERO PUSH2 0x11AE JUMPI POP PUSH1 0x3 DUP2 ADD SLOAD PUSH1 0xFF AND ISZERO ISZERO JUMPDEST ISZERO PUSH2 0x11BC JUMPI POP PUSH1 0x1 SWAP3 SWAP2 POP POP JUMP JUMPDEST POP PUSH1 0x0 SWAP3 SWAP2 POP POP JUMP JUMPDEST PUSH1 0x0 CALLER PUSH1 0x40 MLOAD PUSH32 0x23B872DD00000000000000000000000000000000000000000000000000000000 DUP2 MSTORE PUSH20 0xFFFFFFFFFFFFFFFFFFFFFFFFFFFFFFFFFFFFFFFF DUP1 DUP4 AND PUSH1 0x4 DUP4 ADD MSTORE ADDRESS PUSH1 0x24 DUP4 ADD MSTORE PUSH1 0x44 DUP3 ADD DUP6 SWAP1 MSTORE SWAP2 SWAP3 POP PUSH32 0x0 SWAP1 SWAP2 AND SWAP1 PUSH4 0x23B872DD SWAP1 PUSH1 0x64 ADD PUSH1 0x20 PUSH1 0x40 MLOAD DUP1 DUP4 SUB DUP2 PUSH1 0x0 DUP8 GAS CALL ISZERO DUP1 ISZERO PUSH2 0x1268 JUMPI RETURNDATASIZE PUSH1 0x0 DUP1 RETURNDATACOPY RETURNDATASIZE PUSH1 0x0 REVERT JUMPDEST POP POP POP POP PUSH1 0x40 MLOAD RETURNDATASIZE PUSH1 0x1F NOT PUSH1 0x1F DUP3 ADD AND DUP3 ADD DUP1 PUSH1 0x40 MSTORE POP DUP2 ADD SWAP1 PUSH2 0x128C SWAP2 SWAP1 PUSH2 0x23A1 JUMP JUMPDEST PUSH2 0x12C2 JUMPI PUSH1 0x40 MLOAD PUSH32 0x45C4B0200000000000000000000000000000000000000000000000000000000 DUP2 MSTORE PUSH1 0x4 ADD PUSH1 0x40 MLOAD DUP1 SWAP2 SUB SWAP1 REVERT JUMPDEST DUP1 PUSH20 0xFFFFFFFFFFFFFFFFFFFFFFFFFFFFFFFFFFFFFFFF AND PUSH32 0xE1FFFCC4923D04B559F4D29A8BFC6CDA04EB5B0D3C460751C2402C5C5CC9109C DUP4 PUSH1 0x40 MLOAD PUSH2 0x130A SWAP2 DUP2 MSTORE PUSH1 0x20 ADD SWAP1 JUMP JUMPDEST PUSH1 0x40 MLOAD DUP1 SWAP2 SUB SWAP1 LOG2 POP POP JUMP JUMPDEST PUSH1 0x0 PUSH1 0x2 DUP3 GT ISZERO PUSH2 0x1353 JUMPI PUSH1 0x40 MLOAD PUSH32 0x3F613DD300000000000000000000000000000000000000000000000000000000 DUP2 MSTORE PUSH1 0x4 ADD PUSH1 0x40 MLOAD DUP1 SWAP2 SUB SWAP1 REVERT JUMPDEST PUSH1 0x1 SLOAD DUP4 LT PUSH2 0x138E JUMPI PUSH1 0x40 MLOAD PUSH32 0xA55F88000000000000000000000000000000000000000000000000000000000 DUP2 MSTORE PUSH1 0x4 ADD PUSH1 0x40 MLOAD DUP1 SWAP2 SUB SWAP1 REVERT JUMPDEST PUSH1 0x0 PUSH1 0x1 DUP5 DUP2 SLOAD DUP2 LT PUSH2 0x13A3 JUMPI PUSH2 0x13A3 PUSH2 0x21D3 JUMP JUMPDEST PUSH1 0x0 SWAP2 DUP3 MSTORE PUSH1 0x20 SWAP1 SWAP2 KECCAK256 PUSH1 0x5 SWAP1 SWAP2 MUL ADD DUP1 SLOAD SWAP1 SWAP2 POP TIMESTAMP SWAP1 PUSH2 0x13CF SWAP1 PUSH3 0x93A80 SWAP1 PUSH5 0xFFFFFFFFFF AND PUSH2 0x238E JUMP JUMPDEST LT ISZERO PUSH2 0x1407 JUMPI PUSH1 0x40 MLOAD PUSH32 0x4DA70D2700000000000000000000000000000000000000000000000000000000 DUP2 MSTORE PUSH1 0x4 ADD PUSH1 0x40 MLOAD DUP1 SWAP2 SUB SWAP1 REVERT JUMPDEST DUP1 PUSH1 0x1 ADD DUP4 PUSH1 0x3 DUP2 LT PUSH2 0x141C JUMPI PUSH2 0x141C PUSH2 0x21D3 JUMP JUMPDEST ADD SLOAD PUSH1 0xFF AND ISZERO PUSH2 0x1458 JUMPI PUSH1 0x40 MLOAD PUSH32 0x646CF55800000000000000000000000000000000000000000000000000000000 DUP2 MSTORE PUSH1 0x4 ADD PUSH1 0x40 MLOAD DUP1 SWAP2 SUB SWAP1 REVERT JUMPDEST DUP1 PUSH1 0x1 ADD DUP4 PUSH1 0x3 DUP2 LT PUSH2 0x146D JUMPI PUSH2 0x146D PUSH2 0x21D3 JUMP JUMPDEST ADD SLOAD PUSH2 0x100 SWAP1 DIV PUSH2 0xFFFF AND SWAP5 SWAP4 POP POP POP POP JUMP JUMPDEST PUSH1 0x0 DUP1 PUSH1 0x1 DUP5 DUP2 SLOAD DUP2 LT PUSH2 0x1496 JUMPI PUSH2 0x1496 PUSH2 0x21D3 JUMP JUMPDEST SWAP1 PUSH1 0x0 MSTORE PUSH1 0x20 PUSH1 0x0 KECCAK256 SWAP1 PUSH1 0x5 MUL ADD PUSH1 0x4 ADD SWAP1 POP PUSH1 0x0 JUMPDEST DUP2 SLOAD DUP2 LT ISZERO PUSH2 0xE98 JUMPI DUP4 PUSH20 0xFFFFFFFFFFFFFFFFFFFFFFFFFFFFFFFFFFFFFFFF AND DUP3 DUP3 DUP2 SLOAD DUP2 LT PUSH2 0x14DE JUMPI PUSH2 0x14DE PUSH2 0x21D3 JUMP JUMPDEST PUSH1 0x0 SWAP2 DUP3 MSTORE PUSH1 0x20 SWAP1 SWAP2 KECCAK256 PUSH1 0x2 SWAP1 SWAP2 MUL ADD SLOAD PUSH7 0x1000000000000 SWAP1 DIV PUSH20 0xFFFFFFFFFFFFFFFFFFFFFFFFFFFFFFFFFFFFFFFF AND SUB PUSH2 0x151D JUMPI SWAP2 POP PUSH2 0xECB SWAP1 POP JUMP JUMPDEST PUSH1 0x1 ADD PUSH2 0x14AC JUMP JUMPDEST PUSH2 0x152D PUSH2 0x1C68 JUMP JUMPDEST PUSH1 0x0 CALLER PUSH1 0x40 MLOAD PUSH32 0x70A0823100000000000000000000000000000000000000000000000000000000 DUP2 MSTORE ADDRESS PUSH1 0x4 DUP3 ADD MSTORE SWAP1 SWAP2 POP PUSH1 0x0 SWAP1 PUSH20 0xFFFFFFFFFFFFFFFFFFFFFFFFFFFFFFFFFFFFFFFF PUSH32 0x0 AND SWAP1 PUSH4 0x70A08231 SWAP1 PUSH1 0x24 ADD PUSH1 0x20 PUSH1 0x40 MLOAD DUP1 DUP4 SUB DUP2 DUP7 GAS STATICCALL ISZERO DUP1 ISZERO PUSH2 0x15C0 JUMPI RETURNDATASIZE PUSH1 0x0 DUP1 RETURNDATACOPY RETURNDATASIZE PUSH1 0x0 REVERT JUMPDEST POP POP POP POP PUSH1 0x40 MLOAD RETURNDATASIZE PUSH1 0x1F NOT PUSH1 0x1F DUP3 ADD AND DUP3 ADD DUP1 PUSH1 0x40 MSTORE POP DUP2 ADD SWAP1 PUSH2 0x15E4 SWAP2 SWAP1 PUSH2 0x22B0 JUMP JUMPDEST SWAP1 POP DUP1 PUSH1 0x0 SUB PUSH2 0x1620 JUMPI PUSH1 0x40 MLOAD PUSH32 0xD0D04F6000000000000000000000000000000000000000000000000000000000 DUP2 MSTORE PUSH1 0x4 ADD PUSH1 0x40 MLOAD DUP1 SWAP2 SUB SWAP1 REVERT JUMPDEST PUSH1 0x40 MLOAD PUSH32 0xA9059CBB00000000000000000000000000000000000000000000000000000000 DUP2 MSTORE PUSH20 0xFFFFFFFFFFFFFFFFFFFFFFFFFFFFFFFFFFFFFFFF DUP4 DUP2 AND PUSH1 0x4 DUP4 ADD MSTORE PUSH1 0x24 DUP3 ADD DUP4 SWAP1 MSTORE PUSH32 0x0 AND SWAP1 PUSH4 0xA9059CBB SWAP1 PUSH1 0x44 ADD PUSH1 0x20 PUSH1 0x40 MLOAD DUP1 DUP4 SUB DUP2 PUSH1 0x0 DUP8 GAS CALL ISZERO DUP1 ISZERO PUSH2 0x16B5 JUMPI RETURNDATASIZE PUSH1 0x0 DUP1 RETURNDATACOPY RETURNDATASIZE PUSH1 0x0 REVERT JUMPDEST POP POP POP POP PUSH1 0x40 MLOAD RETURNDATASIZE PUSH1 0x1F NOT PUSH1 0x1F DUP3 ADD AND DUP3 ADD DUP1 PUSH1 0x40 MSTORE POP DUP2 ADD SWAP1 PUSH2 0x16D9 SWAP2 SWAP1 PUSH2 0x23A1 JUMP JUMPDEST PUSH2 0x170F JUMPI PUSH1 0x40 MLOAD PUSH32 0x45C4B0200000000000000000000000000000000000000000000000000000000 DUP2 MSTORE PUSH1 0x4 ADD PUSH1 0x40 MLOAD DUP1 SWAP2 SUB SWAP1 REVERT JUMPDEST DUP2 PUSH20 0xFFFFFFFFFFFFFFFFFFFFFFFFFFFFFFFFFFFFFFFF AND PUSH32 0x5FAFA99D0643513820BE26656B45130B01E1C03062E1266BF36F88CBD3BD9695 DUP3 PUSH1 0x40 MLOAD PUSH2 0x130A SWAP2 DUP2 MSTORE PUSH1 0x20 ADD SWAP1 JUMP JUMPDEST PUSH1 0x0 PUSH2 0x1763 DUP5 DUP5 PUSH2 0x1316 JUMP JUMPDEST SWAP1 POP PUSH1 0x0 PUSH1 0x1 DUP6 DUP2 SLOAD DUP2 LT PUSH2 0x177A JUMPI PUSH2 0x177A PUSH2 0x21D3 JUMP JUMPDEST SWAP1 PUSH1 0x0 MSTORE PUSH1 0x20 PUSH1 0x0 KECCAK256 SWAP1 PUSH1 0x5 MUL ADD SWAP1 POP PUSH1 0x0 PUSH2 0x1793 CALLER SWAP1 JUMP JUMPDEST SWAP1 POP DUP1 PUSH20 0xFFFFFFFFFFFFFFFFFFFFFFFFFFFFFFFFFFFFFFFF AND DUP3 PUSH1 0x4 ADD DUP7 DUP2 SLOAD DUP2 LT PUSH2 0x17C1 JUMPI PUSH2 0x17C1 PUSH2 0x21D3 JUMP JUMPDEST PUSH1 0x0 SWAP2 DUP3 MSTORE PUSH1 0x20 SWAP1 SWAP2 KECCAK256 PUSH1 0x2 SWAP1 SWAP2 MUL ADD SLOAD PUSH7 0x1000000000000 SWAP1 DIV PUSH20 0xFFFFFFFFFFFFFFFFFFFFFFFFFFFFFFFFFFFFFFFF AND EQ PUSH2 0x1829 JUMPI PUSH1 0x40 MLOAD PUSH32 0x1E09210400000000000000000000000000000000000000000000000000000000 DUP2 MSTORE PUSH1 0x4 ADD PUSH1 0x40 MLOAD DUP1 SWAP2 SUB SWAP1 REVERT JUMPDEST PUSH1 0x0 DUP1 DUP6 PUSH1 0xFF AND PUSH1 0x1 SUB PUSH2 0x183F JUMPI DUP5 SWAP2 POP PUSH2 0x18A3 JUMP JUMPDEST DUP6 PUSH1 0xFF AND PUSH1 0x2 SUB PUSH2 0x185F JUMPI PUSH2 0x1855 PUSH1 0x2 DUP7 PUSH2 0x23C3 JUMP JUMPDEST SWAP1 POP DUP1 SWAP2 POP PUSH2 0x18A3 JUMP JUMPDEST DUP6 PUSH1 0xFF AND PUSH1 0x3 SUB PUSH2 0x1871 JUMPI POP DUP4 PUSH2 0x18A3 JUMP JUMPDEST PUSH1 0x40 MLOAD PUSH32 0xF2D09BA200000000000000000000000000000000000000000000000000000000 DUP2 MSTORE PUSH1 0x4 ADD PUSH1 0x40 MLOAD DUP1 SWAP2 SUB SWAP1 REVERT JUMPDEST DUP6 DUP5 PUSH1 0x1 ADD DUP9 PUSH1 0x3 DUP2 LT PUSH2 0x18B9 JUMPI PUSH2 0x18B9 PUSH2 0x21D3 JUMP JUMPDEST ADD DUP1 SLOAD PUSH32 0xFFFFFFFFFFFFFFFFFFFFFFFFFFFFFFFFFFFFFFFFFFFFFFFFFFFFFFFFFFFFFF00 AND PUSH1 0xFF SWAP3 SWAP1 SWAP3 AND SWAP2 SWAP1 SWAP2 OR SWAP1 SSTORE PUSH2 0xFFFF DUP3 AND ISZERO PUSH2 0x19E5 JUMPI DUP2 DUP5 PUSH1 0x4 ADD DUP9 DUP2 SLOAD DUP2 LT PUSH2 0x190A JUMPI PUSH2 0x190A PUSH2 0x21D3 JUMP JUMPDEST PUSH1 0x0 SWAP2 DUP3 MSTORE PUSH1 0x20 SWAP1 SWAP2 KECCAK256 PUSH1 0x2 SWAP1 SWAP2 MUL ADD DUP1 SLOAD PUSH1 0x1A SWAP1 PUSH2 0x194C SWAP1 DUP5 SWAP1 PUSH27 0x10000000000000000000000000000000000000000000000000000 SWAP1 DIV PUSH2 0xFFFF AND PUSH2 0x2231 JUMP JUMPDEST SWAP3 POP PUSH2 0x100 EXP DUP2 SLOAD DUP2 PUSH2 0xFFFF MUL NOT AND SWAP1 DUP4 PUSH2 0xFFFF AND MUL OR SWAP1 SSTORE POP DUP2 DUP5 PUSH1 0x0 ADD PUSH1 0x5 DUP3 DUP3 DUP3 SWAP1 SLOAD SWAP1 PUSH2 0x100 EXP SWAP1 DIV PUSH2 0xFFFF AND PUSH2 0x1987 SWAP2 SWAP1 PUSH2 0x2231 JUMP JUMPDEST SWAP3 POP PUSH2 0x100 EXP DUP2 SLOAD DUP2 PUSH2 0xFFFF MUL NOT AND SWAP1 DUP4 PUSH2 0xFFFF AND MUL OR SWAP1 SSTORE POP PUSH2 0x19AF DUP3 PUSH2 0xFFFF AND DUP5 PUSH2 0x1B47 JUMP JUMPDEST PUSH2 0x19E5 JUMPI PUSH1 0x40 MLOAD PUSH32 0xD3DB0D700000000000000000000000000000000000000000000000000000000 DUP2 MSTORE PUSH1 0x4 ADD PUSH1 0x40 MLOAD DUP1 SWAP2 SUB SWAP1 REVERT JUMPDEST PUSH2 0xFFFF DUP2 AND ISZERO PUSH2 0x1A6D JUMPI PUSH1 0x3 JUMPDEST PUSH2 0x19FD DUP3 PUSH1 0x3 PUSH2 0x2231 JUMP JUMPDEST PUSH2 0xFFFF AND DUP2 LT ISZERO PUSH2 0x1A6B JUMPI PUSH1 0x1 DUP6 PUSH1 0x4 ADD DUP3 DUP2 SLOAD DUP2 LT PUSH2 0x1A1F JUMPI PUSH2 0x1A1F PUSH2 0x21D3 JUMP JUMPDEST SWAP1 PUSH1 0x0 MSTORE PUSH1 0x20 PUSH1 0x0 KECCAK256 SWAP1 PUSH1 0x2 MUL ADD PUSH1 0x1 ADD DUP10 PUSH1 0x3 DUP2 LT PUSH2 0x1A41 JUMPI PUSH2 0x1A41 PUSH2 0x21D3 JUMP JUMPDEST PUSH1 0x20 SWAP2 DUP3 DUP3 DIV ADD SWAP2 SWAP1 MOD PUSH2 0x100 EXP DUP2 SLOAD DUP2 PUSH1 0xFF MUL NOT AND SWAP1 DUP4 ISZERO ISZERO MUL OR SWAP1 SSTORE POP DUP1 PUSH1 0x1 ADD SWAP1 POP PUSH2 0x19F2 JUMP JUMPDEST POP JUMPDEST PUSH1 0x40 DUP1 MLOAD DUP9 DUP2 MSTORE PUSH1 0xFF DUP9 AND PUSH1 0x20 DUP3 ADD MSTORE PUSH2 0xFFFF DUP5 DUP2 AND DUP3 DUP5 ADD MSTORE DUP4 AND PUSH1 0x60 DUP3 ADD MSTORE SWAP1 MLOAD DUP10 SWAP2 PUSH20 0xFFFFFFFFFFFFFFFFFFFFFFFFFFFFFFFFFFFFFFFF DUP7 AND SWAP2 PUSH32 0xB12DCE413AEC88DDF22BA4A273EF71B9DDF7A09A68E269540F52220B12AA78C2 SWAP2 DUP2 SWAP1 SUB PUSH1 0x80 ADD SWAP1 LOG3 POP POP POP POP POP POP POP POP JUMP JUMPDEST PUSH2 0x1AE6 PUSH2 0x1C68 JUMP JUMPDEST PUSH20 0xFFFFFFFFFFFFFFFFFFFFFFFFFFFFFFFFFFFFFFFF DUP2 AND PUSH2 0x1B3B JUMPI PUSH1 0x40 MLOAD PUSH32 0x1E4FBDF700000000000000000000000000000000000000000000000000000000 DUP2 MSTORE PUSH1 0x0 PUSH1 0x4 DUP3 ADD MSTORE PUSH1 0x24 ADD JUMPDEST PUSH1 0x40 MLOAD DUP1 SWAP2 SUB SWAP1 REVERT JUMPDEST PUSH2 0x1B44 DUP2 PUSH2 0x1CBB JUMP JUMPDEST POP JUMP JUMPDEST PUSH1 0x0 PUSH20 0xFFFFFFFFFFFFFFFFFFFFFFFFFFFFFFFFFFFFFFFF PUSH32 0x0 AND PUSH4 0xF74BFE8E PUSH32 0x0 DUP6 PUSH2 0x1BBA DUP2 PUSH9 0x56BC75E2D63100000 PUSH2 0x2299 JUMP JUMPDEST PUSH1 0x40 MLOAD PUSH32 0xFFFFFFFF00000000000000000000000000000000000000000000000000000000 PUSH1 0xE0 DUP7 SWAP1 SHL AND DUP2 MSTORE PUSH20 0xFFFFFFFFFFFFFFFFFFFFFFFFFFFFFFFFFFFFFFFF SWAP4 DUP5 AND PUSH1 0x4 DUP3 ADD MSTORE PUSH1 0x24 DUP2 ADD SWAP3 SWAP1 SWAP3 MSTORE PUSH1 0x44 DUP3 ADD MSTORE SWAP1 DUP6 AND PUSH1 0x64 DUP3 ADD MSTORE PUSH1 0x84 ADD PUSH1 0x20 PUSH1 0x40 MLOAD DUP1 DUP4 SUB DUP2 PUSH1 0x0 DUP8 GAS CALL ISZERO DUP1 ISZERO PUSH2 0x1C3A JUMPI RETURNDATASIZE PUSH1 0x0 DUP1 RETURNDATACOPY RETURNDATASIZE PUSH1 0x0 REVERT JUMPDEST POP POP POP POP PUSH1 0x40 MLOAD RETURNDATASIZE PUSH1 0x1F NOT PUSH1 0x1F DUP3 ADD AND DUP3 ADD DUP1 PUSH1 0x40 MSTORE POP DUP2 ADD SWAP1 PUSH2 0x1C5E SWAP2 SWAP1 PUSH2 0x22B0 JUMP JUMPDEST POP PUSH1 0x1 SWAP4 SWAP3 POP POP POP JUMP JUMPDEST PUSH1 0x0 SLOAD PUSH20 0xFFFFFFFFFFFFFFFFFFFFFFFFFFFFFFFFFFFFFFFF AND CALLER EQ PUSH2 0x7A2 JUMPI PUSH1 0x40 MLOAD PUSH32 0x118CDAA700000000000000000000000000000000000000000000000000000000 DUP2 MSTORE CALLER PUSH1 0x4 DUP3 ADD MSTORE PUSH1 0x24 ADD PUSH2 0x1B32 JUMP JUMPDEST PUSH1 0x0 DUP1 SLOAD PUSH20 0xFFFFFFFFFFFFFFFFFFFFFFFFFFFFFFFFFFFFFFFF DUP4 DUP2 AND PUSH32 0xFFFFFFFFFFFFFFFFFFFFFFFF0000000000000000000000000000000000000000 DUP4 AND DUP2 OR DUP5 SSTORE PUSH1 0x40 MLOAD SWAP2 SWAP1 SWAP3 AND SWAP3 DUP4 SWAP2 PUSH32 0x8BE0079C531659141344CD1FD0A4F28419497F9722A3DAAFE3B4186F6B6457E0 SWAP2 SWAP1 LOG3 POP POP JUMP JUMPDEST POP DUP1 SLOAD PUSH1 0x0 DUP3 SSTORE PUSH1 0x2 MUL SWAP1 PUSH1 0x0 MSTORE PUSH1 0x20 PUSH1 0x0 KECCAK256 SWAP1 DUP2 ADD SWAP1 PUSH2 0x1B44 SWAP2 SWAP1 PUSH2 0x1E0F JUMP JUMPDEST PUSH1 0x1 DUP4 ADD SWAP2 DUP4 SWAP1 DUP3 ISZERO PUSH2 0x1DD3 JUMPI SWAP2 PUSH1 0x20 MUL DUP3 ADD PUSH1 0x0 JUMPDEST DUP4 DUP3 GT ISZERO PUSH2 0x1DA4 JUMPI DUP4 MLOAD DUP4 DUP3 PUSH2 0x100 EXP DUP2 SLOAD DUP2 PUSH1 0xFF MUL NOT AND SWAP1 DUP4 ISZERO ISZERO MUL OR SWAP1 SSTORE POP SWAP3 PUSH1 0x20 ADD SWAP3 PUSH1 0x1 ADD PUSH1 0x20 DUP2 PUSH1 0x0 ADD DIV SWAP3 DUP4 ADD SWAP3 PUSH1 0x1 SUB MUL PUSH2 0x1D67 JUMP JUMPDEST DUP1 ISZERO PUSH2 0x1DD1 JUMPI DUP3 DUP2 PUSH2 0x100 EXP DUP2 SLOAD SWAP1 PUSH1 0xFF MUL NOT AND SWAP1 SSTORE PUSH1 0x1 ADD PUSH1 0x20 DUP2 PUSH1 0x0 ADD DIV SWAP3 DUP4 ADD SWAP3 PUSH1 0x1 SUB MUL PUSH2 0x1DA4 JUMP JUMPDEST POP JUMPDEST POP PUSH2 0x1DDF SWAP3 SWAP2 POP PUSH2 0x1E4C JUMP JUMPDEST POP SWAP1 JUMP JUMPDEST PUSH1 0x40 DUP1 MLOAD PUSH1 0x80 DUP2 ADD DUP3 MSTORE PUSH1 0x0 DUP1 DUP3 MSTORE PUSH1 0x20 DUP3 ADD MSTORE SWAP1 DUP2 ADD PUSH2 0x1E02 PUSH2 0x1E61 JUMP JUMPDEST DUP2 MSTORE PUSH1 0x20 ADD PUSH1 0x60 DUP2 MSTORE POP SWAP1 JUMP JUMPDEST DUP1 DUP3 GT ISZERO PUSH2 0x1DDF JUMPI DUP1 SLOAD PUSH32 0xFFFFFFFF00000000000000000000000000000000000000000000000000000000 AND DUP2 SSTORE PUSH1 0x0 PUSH1 0x1 DUP3 ADD SSTORE PUSH1 0x2 ADD PUSH2 0x1E0F JUMP JUMPDEST JUMPDEST DUP1 DUP3 GT ISZERO PUSH2 0x1DDF JUMPI PUSH1 0x0 DUP2 SSTORE PUSH1 0x1 ADD PUSH2 0x1E4D JUMP JUMPDEST PUSH1 0x40 MLOAD DUP1 PUSH1 0x60 ADD PUSH1 0x40 MSTORE DUP1 PUSH1 0x3 SWAP1 JUMPDEST PUSH1 0x40 DUP1 MLOAD DUP1 DUP3 ADD SWAP1 SWAP2 MSTORE PUSH1 0x0 DUP1 DUP3 MSTORE PUSH1 0x20 DUP3 ADD MSTORE DUP2 MSTORE PUSH1 0x20 ADD SWAP1 PUSH1 0x1 SWAP1 SUB SWAP1 DUP2 PUSH2 0x1E70 JUMPI SWAP1 POP POP SWAP1 JUMP JUMPDEST PUSH1 0x0 DUP1 PUSH1 0x40 DUP4 DUP6 SUB SLT ISZERO PUSH2 0x1EAD JUMPI PUSH1 0x0 DUP1 REVERT JUMPDEST POP POP DUP1 CALLDATALOAD SWAP3 PUSH1 0x20 SWAP1 SWAP2 ADD CALLDATALOAD SWAP2 POP JUMP JUMPDEST PUSH1 0x0 DUP1 DUP4 PUSH1 0x1F DUP5 ADD SLT PUSH2 0x1ECE JUMPI PUSH1 0x0 DUP1 REVERT JUMPDEST POP DUP2 CALLDATALOAD PUSH8 0xFFFFFFFFFFFFFFFF DUP2 GT ISZERO PUSH2 0x1EE6 JUMPI PUSH1 0x0 DUP1 REVERT JUMPDEST PUSH1 0x20 DUP4 ADD SWAP2 POP DUP4 PUSH1 0x20 DUP3 PUSH1 0x5 SHL DUP6 ADD ADD GT ISZERO PUSH2 0x1F01 JUMPI PUSH1 0x0 DUP1 REVERT JUMPDEST SWAP3 POP SWAP3 SWAP1 POP JUMP JUMPDEST PUSH1 0x0 DUP1 PUSH1 0x0 DUP1 PUSH1 0x0 DUP1 PUSH1 0xC0 DUP8 DUP10 SUB SLT ISZERO PUSH2 0x1F21 JUMPI PUSH1 0x0 DUP1 REVERT JUMPDEST DUP7 CALLDATALOAD SWAP6 POP PUSH1 0x80 DUP8 ADD DUP9 DUP2 GT ISZERO PUSH2 0x1F36 JUMPI PUSH1 0x0 DUP1 REVERT JUMPDEST PUSH1 0x20 DUP9 ADD SWAP6 POP CALLDATALOAD PUSH8 0xFFFFFFFFFFFFFFFF DUP2 GT ISZERO PUSH2 0x1F52 JUMPI PUSH1 0x0 DUP1 REVERT JUMPDEST PUSH2 0x1F5E DUP10 DUP3 DUP11 ADD PUSH2 0x1EBC JUMP JUMPDEST SWAP1 SWAP6 POP SWAP4 POP POP PUSH1 0xA0 DUP8 ADD CALLDATALOAD PUSH8 0xFFFFFFFFFFFFFFFF DUP2 GT ISZERO PUSH2 0x1F7E JUMPI PUSH1 0x0 DUP1 REVERT JUMPDEST PUSH2 0x1F8A DUP10 DUP3 DUP11 ADD PUSH2 0x1EBC JUMP JUMPDEST SWAP8 SWAP11 SWAP7 SWAP10 POP SWAP5 SWAP8 POP SWAP3 SWAP6 SWAP4 SWAP5 SWAP3 POP POP POP JUMP JUMPDEST DUP1 CALLDATALOAD PUSH6 0xFFFFFFFFFFFF DUP2 AND DUP2 EQ PUSH2 0x1FB2 JUMPI PUSH1 0x0 DUP1 REVERT JUMPDEST SWAP2 SWAP1 POP JUMP JUMPDEST PUSH1 0x0 DUP1 PUSH1 0x40 DUP4 DUP6 SUB SLT ISZERO PUSH2 0x1FCA JUMPI PUSH1 0x0 DUP1 REVERT JUMPDEST DUP3 CALLDATALOAD SWAP2 POP PUSH2 0x1FDA PUSH1 0x20 DUP5 ADD PUSH2 0x1F9C JUMP JUMPDEST SWAP1 POP SWAP3 POP SWAP3 SWAP1 POP JUMP JUMPDEST PUSH1 0x0 PUSH1 0x20 DUP3 DUP5 SUB SLT ISZERO PUSH2 0x1FF5 JUMPI PUSH1 0x0 DUP1 REVERT JUMPDEST POP CALLDATALOAD SWAP2 SWAP1 POP JUMP JUMPDEST PUSH1 0x0 DUP2 MLOAD DUP1 DUP5 MSTORE PUSH1 0x20 DUP5 ADD SWAP4 POP PUSH1 0x20 DUP4 ADD PUSH1 0x0 JUMPDEST DUP3 DUP2 LT ISZERO PUSH2 0x209C JUMPI DUP2 MLOAD PUSH6 0xFFFFFFFFFFFF DUP2 MLOAD AND DUP8 MSTORE PUSH20 0xFFFFFFFFFFFFFFFFFFFFFFFFFFFFFFFFFFFFFFFF PUSH1 0x20 DUP3 ADD MLOAD AND PUSH1 0x20 DUP9 ADD MSTORE PUSH2 0xFFFF PUSH1 0x40 DUP3 ADD MLOAD AND PUSH1 0x40 DUP9 ADD MSTORE PUSH1 0x60 DUP2 ADD MLOAD SWAP1 POP PUSH1 0x60 DUP8 ADD PUSH1 0x0 JUMPDEST PUSH1 0x3 DUP2 LT ISZERO PUSH2 0x2083 JUMPI DUP3 MLOAD ISZERO ISZERO DUP3 MSTORE PUSH1 0x20 SWAP3 DUP4 ADD SWAP3 SWAP1 SWAP2 ADD SWAP1 PUSH1 0x1 ADD PUSH2 0x2062 JUMP JUMPDEST POP POP POP PUSH1 0xC0 SWAP6 SWAP1 SWAP6 ADD SWAP5 PUSH1 0x20 SWAP2 SWAP1 SWAP2 ADD SWAP1 PUSH1 0x1 ADD PUSH2 0x2010 JUMP JUMPDEST POP SWAP4 SWAP5 SWAP4 POP POP POP POP JUMP JUMPDEST PUSH1 0x20 DUP2 MSTORE PUSH5 0xFFFFFFFFFF DUP3 MLOAD AND PUSH1 0x20 DUP3 ADD MSTORE PUSH2 0xFFFF PUSH1 0x20 DUP4 ADD MLOAD AND PUSH1 0x40 DUP3 ADD MSTORE PUSH1 0x0 PUSH1 0x40 DUP4 ADD MLOAD PUSH1 0x60 DUP4 ADD PUSH1 0x0 JUMPDEST PUSH1 0x3 DUP2 LT ISZERO PUSH2 0x2106 JUMPI DUP3 MLOAD DUP1 MLOAD PUSH1 0xFF AND DUP4 MSTORE PUSH1 0x20 SWAP1 DUP2 ADD MLOAD PUSH2 0xFFFF AND DUP2 DUP5 ADD MSTORE SWAP1 SWAP3 ADD SWAP2 PUSH1 0x40 SWAP1 SWAP2 ADD SWAP1 PUSH1 0x1 ADD PUSH2 0x20D4 JUMP JUMPDEST POP POP POP PUSH1 0x60 DUP4 ADD MLOAD PUSH2 0x120 DUP1 DUP5 ADD MSTORE PUSH2 0x2123 PUSH2 0x140 DUP5 ADD DUP3 PUSH2 0x1FFC JUMP JUMPDEST SWAP5 SWAP4 POP POP POP POP JUMP JUMPDEST DUP1 CALLDATALOAD PUSH20 0xFFFFFFFFFFFFFFFFFFFFFFFFFFFFFFFFFFFFFFFF DUP2 AND DUP2 EQ PUSH2 0x1FB2 JUMPI PUSH1 0x0 DUP1 REVERT JUMPDEST PUSH1 0x0 DUP1 PUSH1 0x40 DUP4 DUP6 SUB SLT ISZERO PUSH2 0x2162 JUMPI PUSH1 0x0 DUP1 REVERT JUMPDEST DUP3 CALLDATALOAD SWAP2 POP PUSH2 0x1FDA PUSH1 0x20 DUP5 ADD PUSH2 0x212B JUMP JUMPDEST PUSH1 0x0 DUP1 PUSH1 0x0 PUSH1 0x60 DUP5 DUP7 SUB SLT ISZERO PUSH2 0x2187 JUMPI PUSH1 0x0 DUP1 REVERT JUMPDEST DUP4 CALLDATALOAD SWAP3 POP PUSH1 0x20 DUP5 ADD CALLDATALOAD SWAP2 POP PUSH1 0x40 DUP5 ADD CALLDATALOAD PUSH1 0xFF DUP2 AND DUP2 EQ PUSH2 0x21A6 JUMPI PUSH1 0x0 DUP1 REVERT JUMPDEST DUP1 SWAP2 POP POP SWAP3 POP SWAP3 POP SWAP3 JUMP JUMPDEST PUSH1 0x0 PUSH1 0x20 DUP3 DUP5 SUB SLT ISZERO PUSH2 0x21C3 JUMPI PUSH1 0x0 DUP1 REVERT JUMPDEST PUSH2 0x21CC DUP3 PUSH2 0x212B JUMP JUMPDEST SWAP4 SWAP3 POP POP POP JUMP JUMPDEST PUSH32 0x4E487B7100000000000000000000000000000000000000000000000000000000 PUSH1 0x0 MSTORE PUSH1 0x32 PUSH1 0x4 MSTORE PUSH1 0x24 PUSH1 0x0 REVERT JUMPDEST PUSH32 0x4E487B7100000000000000000000000000000000000000000000000000000000 PUSH1 0x0 MSTORE PUSH1 0x11 PUSH1 0x4 MSTORE PUSH1 0x24 PUSH1 0x0 REVERT JUMPDEST PUSH2 0xFFFF DUP2 DUP2 AND DUP4 DUP3 AND ADD SWAP1 DUP2 GT ISZERO PUSH2 0xECB JUMPI PUSH2 0xECB PUSH2 0x2202 JUMP JUMPDEST PUSH1 0x0 PUSH2 0xFFFF DUP3 AND PUSH2 0xFFFF DUP2 SUB PUSH2 0x2263 JUMPI PUSH2 0x2263 PUSH2 0x2202 JUMP JUMPDEST PUSH1 0x1 ADD SWAP3 SWAP2 POP POP JUMP JUMPDEST DUP1 CALLDATALOAD PUSH2 0xFFFF DUP2 AND DUP2 EQ PUSH2 0x1FB2 JUMPI PUSH1 0x0 DUP1 REVERT JUMPDEST PUSH1 0x0 PUSH1 0x20 DUP3 DUP5 SUB SLT ISZERO PUSH2 0x2290 JUMPI PUSH1 0x0 DUP1 REVERT JUMPDEST PUSH2 0x21CC DUP3 PUSH2 0x226C JUMP JUMPDEST DUP1 DUP3 MUL DUP2 ISZERO DUP3 DUP3 DIV DUP5 EQ OR PUSH2 0xECB JUMPI PUSH2 0xECB PUSH2 0x2202 JUMP JUMPDEST PUSH1 0x0 PUSH1 0x20 DUP3 DUP5 SUB SLT ISZERO PUSH2 0x22C2 JUMPI PUSH1 0x0 DUP1 REVERT JUMPDEST POP MLOAD SWAP2 SWAP1 POP JUMP JUMPDEST DUP2 DUP2 SUB DUP2 DUP2 GT ISZERO PUSH2 0xECB JUMPI PUSH2 0xECB PUSH2 0x2202 JUMP JUMPDEST PUSH32 0x4E487B7100000000000000000000000000000000000000000000000000000000 PUSH1 0x0 MSTORE PUSH1 0x12 PUSH1 0x4 MSTORE PUSH1 0x24 PUSH1 0x0 REVERT JUMPDEST PUSH1 0x0 PUSH2 0xFFFF DUP4 AND DUP1 PUSH2 0x231F JUMPI PUSH2 0x231F PUSH2 0x22DC JUMP JUMPDEST DUP1 PUSH2 0xFFFF DUP5 AND MOD SWAP2 POP POP SWAP3 SWAP2 POP POP JUMP JUMPDEST PUSH1 0x0 PUSH1 0x20 DUP3 DUP5 SUB SLT ISZERO PUSH2 0x2341 JUMPI PUSH1 0x0 DUP1 REVERT JUMPDEST PUSH2 0x21CC DUP3 PUSH2 0x1F9C JUMP JUMPDEST DUP3 DUP2 MSTORE PUSH1 0x80 DUP2 ADD PUSH1 0x20 DUP3 ADD DUP4 PUSH1 0x0 JUMPDEST PUSH1 0x3 DUP2 LT ISZERO PUSH2 0x2384 JUMPI PUSH2 0xFFFF PUSH2 0x236E DUP4 PUSH2 0x226C JUMP JUMPDEST AND DUP4 MSTORE PUSH1 0x20 SWAP3 DUP4 ADD SWAP3 SWAP2 SWAP1 SWAP2 ADD SWAP1 PUSH1 0x1 ADD PUSH2 0x2359 JUMP JUMPDEST POP POP POP SWAP4 SWAP3 POP POP POP JUMP JUMPDEST DUP1 DUP3 ADD DUP1 DUP3 GT ISZERO PUSH2 0xECB JUMPI PUSH2 0xECB PUSH2 0x2202 JUMP JUMPDEST PUSH1 0x0 PUSH1 0x20 DUP3 DUP5 SUB SLT ISZERO PUSH2 0x23B3 JUMPI PUSH1 0x0 DUP1 REVERT JUMPDEST DUP2 MLOAD DUP1 ISZERO ISZERO DUP2 EQ PUSH2 0x21CC JUMPI PUSH1 0x0 DUP1 REVERT JUMPDEST PUSH1 0x0 PUSH2 0xFFFF DUP4 AND DUP1 PUSH2 0x23D7 JUMPI PUSH2 0x23D7 PUSH2 0x22DC JUMP JUMPDEST DUP1 PUSH2 0xFFFF DUP5 AND DIV SWAP2 POP POP SWAP3 SWAP2 POP POP JUMP INVALID LOG2 PUSH5 0x6970667358 0x22 SLT KECCAK256 0xB9 DUP14 ADDMOD POP 0x4F 0xEF SLOAD SWAP14 0xF9 0xD5 BLOBBASEFEE TIMESTAMP CALLVALUE PUSH15 0xD9E16E3834D2499B20891A44F65E42 0xD9 0xAA 0xB9 PUSH5 0x736F6C6343 STOP ADDMOD BYTE STOP CALLER "
        },
        "methodIdentifiers": {
          "BOND()": "c1c1d218",
          "DONATION_CLAIM_DEADLINE()": "45fbcafa",
          "HUNT()": "cefa8922",
          "HUNT_PER_MINI_BUILDING()": "fddd6397",
          "MINI_BUILDING_ADDRESS()": "0c933edf",
          "TOP3_CLAIM_DEADLINE()": "94285922",
          "claimByTop3(uint256,uint256,uint8)": "e70d6893",
          "claimDonation(uint256,uint256)": "218ff65a",
          "claimableDonationAmount(uint256,uint256)": "6a13f0cb",
          "currentSeason()": "bcb39621",
          "deposit(uint256)": "b6b55f25",
          "emergencyWithdraw()": "db2e21bc",
          "getClaimableAmountByTop3(uint256,uint256)": "b86c9e5e",
          "getRankingByFid(uint256,uint48)": "813d243c",
          "getRankingByWallet(uint256,address)": "d88f836a",
          "getSeason(uint256)": "a43d8654",
          "isDonationClaimableNow(uint256)": "a51710dd",
          "owner()": "8da5cb5b",
          "renounceOwnership()": "715018a6",
          "setSeasonData(uint256,uint16[3],uint48[],address[])": "73d5f652",
          "transferOwnership(address)": "f2fde38b"
        }
      }
    }
  }
}